{"contracts/activities/BuyXTokensActivity.sol":{"BuyXTokens":{"abi":[{"inputs":[],"stateMutability":"nonpayable","type":"constructor"},{"anonymous":false,"inputs":[{"indexed":true,"internalType":"address","name":"user","type":"address"},{"indexed":false,"internalType":"uint256","name":"timestamp","type":"uint256"}],"name":"EligibilityProofVerified","type":"event"},{"anonymous":false,"inputs":[{"indexed":true,"internalType":"address","name":"previousOwner","type":"address"},{"indexed":true,"internalType":"address","name":"newOwner","type":"address"}],"name":"OwnershipTransferred","type":"event"},{"anonymous":false,"inputs":[{"indexed":true,"internalType":"address","name":"user","type":"address"},{"indexed":false,"internalType":"uint256","name":"amount","type":"uint256"},{"indexed":false,"internalType":"uint256","name":"timestamp","type":"uint256"}],"name":"PurchaseVerified","type":"event"},{"inputs":[{"internalType":"address","name":"user","type":"address"}],"name":"checkEligibility","outputs":[{"internalType":"bool","name":"","type":"bool"}],"stateMutability":"view","type":"function"},{"inputs":[],"name":"debugActivityState","outputs":[{"internalType":"address","name":"activityTokenAddress","type":"address"},{"internalType":"uint256","name":"activityRequiredAmount","type":"uint256"},{"internalType":"uint256","name":"activityStartDate","type":"uint256"},{"internalType":"uint256","name":"activityEndDate","type":"uint256"},{"internalType":"uint256","name":"activityMinPurchaseAmount","type":"uint256"},{"internalType":"address","name":"activitySigningKey","type":"address"},{"internalType":"uint256","name":"proofDuration","type":"uint256"}],"stateMutability":"view","type":"function"},{"inputs":[],"name":"debugState","outputs":[{"internalType":"bool","name":"initialized","type":"bool"},{"internalType":"address","name":"currentSigningKey","type":"address"},{"internalType":"uint256","name":"currentProofValidity","type":"uint256"},{"internalType":"address","name":"currentOwner","type":"address"}],"stateMutability":"view","type":"function"},{"inputs":[],"name":"endDate","outputs":[{"internalType":"uint256","name":"","type":"uint256"}],"stateMutability":"view","type":"function"},{"inputs":[],"name":"getActivityType","outputs":[{"internalType":"string","name":"","type":"string"}],"stateMutability":"pure","type":"function"},{"inputs":[],"name":"getConfig","outputs":[{"internalType":"address","name":"","type":"address"},{"internalType":"uint256","name":"","type":"uint256"},{"internalType":"uint256","name":"","type":"uint256"},{"internalType":"uint256","name":"","type":"uint256"},{"internalType":"uint256","name":"","type":"uint256"}],"stateMutability":"view","type":"function"},{"inputs":[{"internalType":"address","name":"user","type":"address"}],"name":"getUserPurchaseAmount","outputs":[{"internalType":"uint256","name":"","type":"uint256"}],"stateMutability":"view","type":"function"},{"inputs":[{"internalType":"bytes","name":"config","type":"bytes"}],"name":"initialize","outputs":[],"stateMutability":"nonpayable","type":"function"},{"inputs":[{"internalType":"bytes","name":"config","type":"bytes"},{"internalType":"address","name":"owner","type":"address"}],"name":"initializeClone","outputs":[],"stateMutability":"nonpayable","type":"function"},{"inputs":[{"internalType":"address","name":"user","type":"address"}],"name":"isEligible","outputs":[{"internalType":"bool","name":"","type":"bool"}],"stateMutability":"view","type":"function"},{"inputs":[],"name":"minPurchaseAmount","outputs":[{"internalType":"uint256","name":"","type":"uint256"}],"stateMutability":"view","type":"function"},{"inputs":[],"name":"owner","outputs":[{"internalType":"address","name":"","type":"address"}],"stateMutability":"view","type":"function"},{"inputs":[{"internalType":"address","name":"user","type":"address"},{"internalType":"bytes","name":"proof","type":"bytes"}],"name":"processEligibilityProof","outputs":[],"stateMutability":"nonpayable","type":"function"},{"inputs":[],"name":"proofValidityDuration","outputs":[{"internalType":"uint256","name":"","type":"uint256"}],"stateMutability":"view","type":"function"},{"inputs":[{"internalType":"address","name":"","type":"address"}],"name":"purchaseAmount","outputs":[{"internalType":"uint256","name":"","type":"uint256"}],"stateMutability":"view","type":"function"},{"inputs":[],"name":"renounceOwnership","outputs":[],"stateMutability":"nonpayable","type":"function"},{"inputs":[],"name":"requiredAmount","outputs":[{"internalType":"uint256","name":"","type":"uint256"}],"stateMutability":"view","type":"function"},{"inputs":[{"internalType":"uint256","name":"_duration","type":"uint256"}],"name":"setProofValidityDuration","outputs":[],"stateMutability":"nonpayable","type":"function"},{"inputs":[{"internalType":"address","name":"_signingKey","type":"address"}],"name":"setSigningKey","outputs":[],"stateMutability":"nonpayable","type":"function"},{"inputs":[],"name":"signingKey","outputs":[{"internalType":"address","name":"","type":"address"}],"stateMutability":"view","type":"function"},{"inputs":[],"name":"startDate","outputs":[{"internalType":"uint256","name":"","type":"uint256"}],"stateMutability":"view","type":"function"},{"inputs":[],"name":"tokenAddress","outputs":[{"internalType":"address","name":"","type":"address"}],"stateMutability":"view","type":"function"},{"inputs":[{"internalType":"address","name":"newOwner","type":"address"}],"name":"transferOwnership","outputs":[],"stateMutability":"nonpayable","type":"function"},{"inputs":[{"internalType":"bytes","name":"config","type":"bytes"}],"name":"validateConfig","outputs":[{"internalType":"bool","name":"","type":"bool"}],"stateMutability":"pure","type":"function"},{"inputs":[{"internalType":"address","name":"user","type":"address"},{"internalType":"bytes","name":"proof","type":"bytes"}],"name":"verifyEligibilityProof","outputs":[{"internalType":"bool","name":"","type":"bool"}],"stateMutability":"view","type":"function"},{"inputs":[{"internalType":"address","name":"user","type":"address"},{"internalType":"uint256","name":"amount","type":"uint256"},{"internalType":"bytes","name":"proof","type":"bytes"}],"name":"verifyPurchase","outputs":[],"stateMutability":"nonpayable","type":"function"}],"evm":{"bytecode":{"linkReferences":{},"object":"6080604090808252346200010157620000183362000106565b6001600160401b03908083019082821181831017620000eb5762000068918452602081527f4261736541637469766974793a20436f6e7374727563746f722063616c6c656460208201526200014d565b600160ff196003541617600355620000803362000106565b81516060810191821181831017620000eb57620000dd918352602c81527f4261736541637469766974793a20496d706c656d656e746174696f6e20636f6e60208201526b1d1c9858dd081b1bd8dad95960a21b838201526200014d565b516127579081620001ea8239f35b634e487b7160e01b600052604160045260246000fd5b600080fd5b600080546001600160a01b039283166001600160a01b03198216811783559216907f8be0079c531659141344cd1fd0a4f28419497f9722a3daafe3b4186f6b6457e09080a3565b60405190602090828281019263104c13eb60e21b845280602483015282519283604484015260005b848110620001d157505050808260006064601f9560839501015283199384910116810103604481018552011682019082821060018060401b03831117620000eb57600092839260405251906a636f6e736f6c652e6c6f675afa50565b8181018301518782016064015286935082016200017556fe6080604081815260048036101561001557600080fd5b600092833560e01c9081630624549b1461126c575080630ab4423e146110d85780630b97bc86146110b95780630d36b30414610ddd5780630eeb452914610967578063185cbe94146109325780633bd60ea7146107e8578063439fab91146107085780634435e157146106bd57806348b9ef401461069e57806352520d081461067f57806366e305fd146105b557806366f27fd31461058c57806369b4a3d9146105545780636c5cde6814610554578063715018a6146104fa5780637723bafb146104d457806377fa0ae3146104775780638da5cb5b1461044f5780639d76ea5814610426578063a913b881146103dd578063b47dbf22146103be578063c24a0f8b1461039f578063c3f909d414610357578063e26d518a146101d55763f2fde38b1461014157600080fd5b346101d15760203660031901126101d15761015a611345565b916101636114fb565b6001600160a01b0383161561017f578361017c84611553565b80f35b906020608492519162461bcd60e51b8352820152602660248201527f4f776e61626c653a206e6577206f776e657220697320746865207a65726f206160448201526564647265737360d01b6064820152fd5b8280fd5b50829034610353578260031936011261035357803567ffffffffffffffff81116101d15761020690369083016114dd565b90602435906001600160a01b03821680830361034f5761023c60ff600354166102368161023161159a565b6125e8565b156115f1565b61028e83875161024b8161141a565b602c81527f4261736541637469766974793a20496e697469616c697a696e6720636c6f6e6560208201526b103bb4ba341037bbb732b91d60a11b8982015261262f565b1561031457506102aa6102f7926102a58693611553565b611695565b6a6f6e20636f6d706c65746560a81b8151916102c58361141a565b602b83527f4261736541637469766974793a20436c6f6e6520696e697469616c697a6174696020840152820152612554565b600160ff19600354161760035561017c61030f611633565b612554565b606490602086519162461bcd60e51b83528201526015602482015274496e76616c6964206f776e6572206164647265737360581b6044820152fd5b8480fd5b5080fd5b50503461035357816003193601126103535760a090600180831b036009541690600a5490600b54600c5491600d54938151958652602086015284015260608301526080820152f35b505034610353578160031936011261035357602090600c549051908152f35b505034610353578160031936011261035357602090600d549051908152f35b5091346104235760203660031901126104235782359067ffffffffffffffff8211610423575061041560209361041a923691016114dd565b6118ff565b90519015158152f35b80fd5b50503461035357816003193601126103535760095490516001600160a01b039091168152602090f35b505034610353578160031936011261035357905490516001600160a01b039091168152602090f35b50503461035357816003193601126103535760e09060018060a01b03806009541691600a5491600b54600c5490600d5492600154169360025495815197885260208801528601526060850152608084015260a083015260c0820152f35b5050346103535760203660031901126103535760209061041a6104f5611345565b612138565b83346104235780600319360112610423576105136114fb565b80546001600160a01b03198116825581906001600160a01b03167f8be0079c531659141344cd1fd0a4f28419497f9722a3daafe3b4186f6b6457e08280a380f35b5050346103535760203660031901126103535760209181906001600160a01b0361057c611345565b168152600e845220549051908152f35b50503461035357816003193601126103535760015490516001600160a01b039091168152602090f35b505034610353576020366003190112610353576020906105d3611345565b906105e43315928361063357612138565b916105f2575b519015158152f35b61062e8282516106018161144c565b8581527f4261736541637469766974793a206973456c696769626c6520726573756c743a868201526125e8565b6105ea565b6104f58184516106428161141a565b602781527f4261736541637469766974793a206973456c696769626c6520636865636b2066888201526637b9103ab9b2b960c91b8682015261262f565b5050346103535781600319360112610353576020906002549051908152f35b505034610353578160031936011261035357602090600a549051908152f35b5050346103535781600319360112610353576003546001546002549354835160ff909316151583526001600160a01b0391821660208401529282019390935291166060820152608090f35b5090346101d15760203660031901126101d15781359167ffffffffffffffff83116107e45761074061079d916102f7943691016114dd565b61075560ff600354166102368161023161159a565b6102a583516107638161141a565b602381527f4261736541637469766974793a20496e697469616c697a696e6720636f6e74726020820152621858dd60ea1b85820152612554565b64706c65746560d81b8151916107b28361141a565b602583527f4261736541637469766974793a20496e697469616c697a6174696f6e20636f6d6020840152820152612554565b8380fd5b5090346101d15760203660031901126101d15761017c91356108086114fb565b83806002548451906108198261141a565b603382527f4261736541637469766974793a205570646174696e672070726f6f662076616c6020830152726964697479206475726174696f6e2066726f6d60681b868301526108bf610869611677565b6108ab8851938492610894602085019763c67ea9d160e01b89526080602487015260a48601906113f5565b9160448501526023198483030160648501526113f5565b87608483015203601f198101835282611468565b51906a636f6e736f6c652e6c6f675afa506002557f6174696f6e2075706461746564207375636365737366756c6c790000000000008151916109008361141a565b603a83527f4261736541637469766974793a2050726f6f662076616c6964697479206475726020840152820152612554565b505034610353578160031936011261035357610963906109506118d7565b90519182916020835260208301906113f5565b0390f35b5090346101d15760603660031901126101d157610982611345565b60243560443567ffffffffffffffff8111610dd9576109a49036908601611360565b94906109b7846109b2611912565b61262f565b8451956109c38761144c565b601b87526109f8846020987f42757958546f6b656e733a20507572636861736520616d6f756e7400000000008a8201526125a3565b87546001600160a01b039390841633148015610dcc575b15610d9a57600d5480610d54575b5050610aa390610a7b875193610a328561144c565b6001978886528a368188013786610a4887611973565b91169052885196610a588861144c565b8888528a36818a0137610a6a88611973565b52610a736119aa565b9236916114a6565b610a8482611973565b52610a8e81611973565b508251855181149182610d49575b50506119df565b8051610af78651610ab38161141a565b6023928382527f42757958546f6b656e733a20566572696679696e6720707572636861736573208a830152623337b960e91b89830152610af1611a23565b9161267f565b87855b610b4f575b8861017c89696e20636f6d706c65746560b01b8a7f42757958546f6b656e733a20507572636861736520766572696669636174696f815193610b408561141a565b602a8552840152820152612554565b8251811015610d445780610b7485610b6a610d3e9487611996565b51166109b2611912565b84610b7f8286611996565b51168a52600e808a52610bd2898c20548a51610b9a8161141a565b8681527f42757958546f6b656e733a2043757272656e7420707572636861736520616d6f8d820152621d5b9d60ea1b8c8201526125a3565b610c23610bdf8389611996565b518a51610beb8161141a565b602281527f42757958546f6b656e733a20416464696e6720707572636861736520616d6f758d820152611b9d60f21b8c8201526125a3565b610c2d8288611996565b5186610c398488611996565b51168c52818b52610c4e8a8d20918254611a69565b905585610c5b8387611996565b51168b528952610ca1888b20548951610c738161144c565b601f81527f42757958546f6b656e733a204e657720707572636861736520616d6f756e74008c8201526125a3565b84610cac8286611996565b51167f9f102852cfaffba097f8e863fcd02eac1b224a2a2c52bea4d467c7651e6d89ee89610cda848a611996565b518151908152428d820152a2610d398851610cf48161141a565b602f81527f42757958546f6b656e733a20507572636861736520766572696669636174696f8b8201526e1b88195d995b9d08195b5a5d1d1959608a1b8a820152612554565b611a44565b85610afa565b610aff565b511490503880610a9c565b8510610d605780610a1d565b865162461bcd60e51b81529081018890526014602482015273416d6f756e742062656c6f77206d696e696d756d60601b6044820152606490fd5b865162461bcd60e51b8152908101889052600c60248201526b155b985d5d1a1bdc9a5e995960a21b6044820152606490fd5b5083600154163314610a0f565b8580fd5b5082903461035357610dee3661138e565b859291925193610dfd8561141a565b603185527f42757958546f6b656e733a2050726f63657373696e6720656c69676962696c6991610e4d846020978589820152703a3c90383937b7b3103337b9103ab9b2b960791b8b82015261262f565b610ee5885193610e5c8561144c565b610e91600197888752893681890137610e7487611973565b6001600160a01b039889169052610e896119aa565b9436916114a6565b610e9a84611973565b52610ea483611973565b50610eb285518451146119df565b84518a5191610ec08361141a565b602d8352898301526c3a3c90383937b7b339903337b960991b8b830152610af1611a23565b86855b610f47575b8761017c88736f636573736564207375636365737366756c6c7960601b8c7f42757958546f6b656e733a20456c69676962696c6974792070726f6f66207072815193610f388561141a565b60348552840152820152612554565b83518110156110b457610fa685610f5e8387611996565b51168a51610f6b8161141a565b602581527f42757958546f6b656e733a2050726f63657373696e672070726f6f6620666f728a82015264103ab9b2b960d91b8c82015261262f565b610fc785610fb48387611996565b5116610fc08385611996565b5190611a76565b15611071578061103186610fde61106b9488611996565b51168b51610feb8161141a565b603081527f42757958546f6b656e733a2050726f6f662076657269666965642073756363658b8201526f39b9b33ab6363c903337b9103ab9b2b960811b8d82015261262f565b8561103c8287611996565b51167f6b691694ab01be33226e2411fd26ed324180cd679f30560b0b94c87574769502898c51428152a2611a44565b85610ee8565b885162461bcd60e51b8152808401889052601960248201527f496e76616c696420656c69676962696c6974792070726f6f66000000000000006044820152606490fd5b610eed565b505034610353578160031936011261035357602090600b549051908152f35b50919034610353576020366003190112610353576110f4611345565b6110fc6114fb565b600154938380845161110d8161141a565b602781527f4261736541637469766974793a205570646174696e67207369676e696e67206b60208201526665792066726f6d60c81b8682015261119f6111b6611154611677565b8a895193849261117d602085019763aabc9a3160e01b89526080602487015260a48601906113f5565b6001600160a01b039384166044860152848103602319016064860152906113f5565b98169788608483015203601f198101835282611468565b51906a636f6e736f6c652e6c6f675afa508115611233575061017c92936001600160601b0360a01b16176001556d64207375636365737366756c6c7960901b8151916112018361141a565b602e83527f4261736541637469766974793a205369676e696e67206b6579207570646174656020840152820152612554565b606490602084519162461bcd60e51b83528201526013602482015272496e76616c6964207369676e696e67206b657960681b6044820152fd5b8390853461042357602061129c846112a2856112873661138e565b331596929384886112eb575b505036916114a6565b90611a76565b916112af57519015158152f35b61062e8282516112be8161144c565b8581527f42757958546f6b656e733a20566572696669636174696f6e20726573756c743a868201526125e8565b816112f861133e9361141a565b603081527f42757958546f6b656e733a20566572696679696e6720656c69676962696c69748b8201526f3c90383937b7b3103337b9103ab9b2b960811b8982015261262f565b8884611293565b600435906001600160a01b038216820361135b57565b600080fd5b9181601f8401121561135b5782359167ffffffffffffffff831161135b576020838186019501011161135b57565b90604060031983011261135b576004356001600160a01b038116810361135b57916024359067ffffffffffffffff821161135b576113ce91600401611360565b9091565b60005b8381106113e55750506000910152565b81810151838201526020016113d5565b9060209161140e815180928185528580860191016113d2565b601f01601f1916010190565b6060810190811067ffffffffffffffff82111761143657604052565b634e487b7160e01b600052604160045260246000fd5b6040810190811067ffffffffffffffff82111761143657604052565b90601f8019910116810190811067ffffffffffffffff82111761143657604052565b67ffffffffffffffff811161143657601f01601f191660200190565b9291926114b28261148a565b916114c06040519384611468565b82948184528183011161135b578281602093846000960137010152565b9080601f8301121561135b578160206114f8933591016114a6565b90565b6000546001600160a01b0316330361150f57565b606460405162461bcd60e51b815260206004820152602060248201527f4f776e61626c653a2063616c6c6572206973206e6f7420746865206f776e65726044820152fd5b600080546001600160a01b039283166001600160a01b03198216811783559216907f8be0079c531659141344cd1fd0a4f28419497f9722a3daafe3b4186f6b6457e09080a3565b604051906115a78261141a565b6035825274161034b734ba34b0b634bd32b21039ba30ba3ab99d60591b6040837f4261736541637469766974793a20496e697469616c697a65722063616c6c656460208201520152565b156115f857565b60405162461bcd60e51b8152602060048201526013602482015272105b1c9958591e481a5b9a5d1a585b1a5e9959606a1b6044820152606490fd5b604051906116408261141a565b6022825261195960f21b6040837f4261736541637469766974793a20436f6e747261637420696e697469616c697a60208201520152565b604051906116848261144c565b6002825261746f60f01b6020830152565b6040908151906116a48261144c565b601882526116d86020927f42757958546f6b656e733a20496e697469616c697a696e67000000000000000084820152612554565b60a08180518101031261135b57808201516001600160a01b038116939084900361135b576118d59382826265746560e81b94015160608201519060a060808401519301519361176881875161172c8161141a565b602681527f42757958546f6b656e733a204465636f64656420636f6e6669672077697468208b820152653a37b5b2b71d60d11b8982015261262f565b6117a58287516117778161144c565b601c81527f42757958546f6b656e733a20526571756972656420616d6f756e743a000000008b8201526125a3565b6117e28387516117b48161144c565b601781527f42757958546f6b656e733a20537461727420646174653a0000000000000000008b8201526125a3565b6118178487516117f18161144c565b6015815274213abcac2a37b5b2b7399d1022b732103230ba329d60591b8b8201526125a3565b6118608587516118268161141a565b602481527f42757958546f6b656e733a204d696e696d756d20707572636861736520616d6f8b820152633ab73a1d60e11b898201526125a3565b6001600160601b0360a01b8181600954161760095582600a5583600b5584600c5585600d5560045416176004556005556006556007556008557f42757958546f6b656e733a20496e697469616c697a6174696f6e20636f6d706c8151936118c68561141a565b60238552840152820152612554565b565b604051906118e48261144c565b600c82526b4255595f585f544f4b454e5360a01b6020830152565b60a090511061190d57600190565b600090565b6040519061191f8261141a565b602782526637b9103ab9b2b960c91b6040837f42757958546f6b656e733a20566572696679696e67207075726368617365206660208201520152565b67ffffffffffffffff81116114365760051b60200190565b8051156119805760200190565b634e487b7160e01b600052603260045260246000fd5b80518210156119805760209160051b010190565b6040516119b68161144c565b600181528060005b6020808210156119d9579060606020928285010152016119be565b50505090565b156119e657565b60405162461bcd60e51b8152602060048201526015602482015274082e4e4c2f240d8cadccee8d040dad2e6dac2e8c6d605b1b6044820152606490fd5b60405190611a308261144c565b6005825264757365727360d81b6020830152565b6000198114611a535760010190565b634e487b7160e01b600052601160045260246000fd5b91908201809211611a5357565b90331580611e4c575b6001546001600160a01b03908116908115611dea578351840160209585878301926040978891031261135b578781015167ffffffffffffffff811161135b5781019083603f8301121561135b578882015190611ada8261148a565b94611ae78a519687611468565b82865289838501011161135b57611b0689928994848d890191016113d2565b015190611d1f575b6002548015159081611d0c575b50611cb557611bcd928680938a611b7a6054611bc5968d611b6a611b3d6118d7565b9151958693818501986001600160601b03199060601b1689526034850152825192839186860191016113d2565b8101036034810184520182611468565b51902089518b8101917f19457468657265756d205369676e6564204d6573736167653a0a3332000000008352603c820152603c8152611bb88161141a565b51902090611c755761200d565b929092611ef3565b611c33575b1614928391611be15750505090565b6532b9bab63a1d60d11b837f42757958546f6b656e733a2050726f6f6620766572696669636174696f6e2072611c2b955193611c1c8561141a565b602685528401528201526125e8565b3881816119d9565b611c70818651611c428161144c565b601d81527f42757958546f6b656e733a205265636f7665726564207369676e65723a0000008982015261262f565b611bd2565b611cb08951611c838161144c565b8b81527f42757958546f6b656e733a204d657373616765206861736820637265617465648c820152612554565b61200d565b5050505050919091611cc9575b5050600090565b7f42757958546f6b656e733a2050726f6f66206861732065787069726564000000611d05925191611cf98361144c565b601d8352820152612554565b3880611cc2565b611d17915082611a69565b421138611b1b565b611d5c818851611d2e8161144c565b601c81527f42757958546f6b656e733a2050726f6f662074696d657374616d703a000000008b8201526125a3565b611d9a8751611d6a8161144c565b601e81527f42757958546f6b656e733a2043757272656e742074696d657374616d703a00008a82015242906125a3565b611de56002548851611dab8161141a565b602481527f42757958546f6b656e733a2050726f6f662076616c69646974792064757261748b8201526334b7b71d60e11b8a8201526125a3565b611b0e565b5050915050611df857600090565b61190d604051611e078161141a565b602d81527f42757958546f6b656e733a204e6f207369676e696e67206b6579207365742c2060208201526c1c1c9bdbd9881a5b9d985b1a59609a1b6040820152612554565b611e9883604051611e5c8161141a565b602481527f42757958546f6b656e733a20566572696679696e672070726f6f6620666f72206020820152633ab9b2b960e11b604082015261262f565b600154604051611eee916001600160a01b031690611eb58161141a565b602181527f42757958546f6b656e733a205369676e696e67206b65792069732073657420746020820152606f60f81b604082015261262f565b611a7f565b6005811015611ff75780611f045750565b60018103611f515760405162461bcd60e51b815260206004820152601860248201527f45434453413a20696e76616c6964207369676e617475726500000000000000006044820152606490fd5b60028103611f9e5760405162461bcd60e51b815260206004820152601f60248201527f45434453413a20696e76616c6964207369676e6174757265206c656e677468006044820152606490fd5b600314611fa757565b60405162461bcd60e51b815260206004820152602260248201527f45434453413a20696e76616c6964207369676e6174757265202773272076616c604482015261756560f01b6064820152608490fd5b634e487b7160e01b600052602160045260246000fd5b906041815114600014612037576113ce916020820151906060604084015193015160001a90612041565b5050600090600290565b9291907f7fffffffffffffffffffffffffffffff5d576e7357a4501ddfe92f46681b20a083116120c45791608094939160ff602094604051948552168484015260408301526060820152600093849182805260015afa156120b75781516001600160a01b038116156120b1579190565b50600190565b50604051903d90823e3d90fd5b50505050600090600390565b604051906120dd8261141a565b6029825268103337b9103ab9b2b960b91b6040837f42757958546f6b656e733a20436865636b696e6720656c69676962696c69747960208201520152565b604051906121288261144c565b60018252601d60f91b6020830152565b9033159182612491575b6040908151916121518361144c565b6001948584526020908136818701378661216a86611973565b6001600160a01b038681169091528651966121848861195b565b976121918751998a611468565b8089526121a0601f199161195b565b0136868a0137600091600b54421090600c549283151594600a549d5b61224a575b505050505050506121db9596506121e1575b505050611973565b51151590565b612242926637b9103ab9b2b960c91b6121f986611973565b511515937f42757958546f6b656e733a20456c69676962696c69747920726573756c74206681519461222a8661141a565b6027865285015283015261223c61211b565b916126b4565b3880806121d3565b815181101561248c57808c8f8b8b848f9382908b8b61226c6122ac9b8d611996565b5116946123f4575b61238b578d80612382575b61231d5783600052600e85528560002054101561229c8388611996565b526122b2575b5050505050611a44565b866121bc565b6122d06c39bab63a103337b9103ab9b2b960991b9161231396611996565b511515937f42757958546f6b656e733a20456c69676962696c69747920636865636b2072658151946123018661141a565b602d865285015283015261223c61211b565b8c8b8b38846122a2565b5060009592509261233694919361233c575b5050611996565b52611a44565b697220656e64206461746560b01b827f42757958546f6b656e733a2043757272656e742074696d65206973206166746561237b945193610b408561141a565b8e8e61232f565b508c421161227f565b506000959250926123369491936123a3575050611996565b6c7265207374617274206461746560981b827f42757958546f6b656e733a2043757272656e742074696d65206973206265666f61237b9451936123e58561141a565b602d8552840152820152612554565b50612401846109b26120d0565b83600052600e85526124498660002054875161241c8161144c565b8781527f42757958546f6b656e733a205573657220707572636861736520616d6f756e74888201526125a3565b8b6124878288516124598161144c565b601b81527f42757958546f6b656e733a20526571756972656420616d6f756e740000000000898201526125a3565b612274565b6121c1565b61249d816109b26120d0565b6124dd6040516124ac8161144c565b601881527f42757958546f6b656e733a2043757272656e742074696d650000000000000000602082015242906125a3565b612517600b546040516124ef8161144c565b601681527542757958546f6b656e733a205374617274206461746560501b60208201526125a3565b61254f600c546040516125298161144c565b601481527342757958546f6b656e733a20456e64206461746560601b60208201526125a3565b612142565b6000809160405161259081612582602082019463104c13eb60e21b86526020602484015260448301906113f5565b03601f198101835282611468565b51906a636f6e736f6c652e6c6f675afa50565b60009190829161259060405180926125d46020830195632d839cb360e21b87526040602485015260648401906113f5565b90604483015203601f198101835282611468565b6000919082916125906040518092612619602083019563c3b5563560e01b87526040602485015260648401906113f5565b901515604483015203601f198101835282611468565b6000919082916125906040518092612660602083019563319af33360e01b87526040602485015260648401906113f5565b6001600160a01b0391909116604483015203601f198101835282611468565b6000929161259084936125826040519384926108946020850197635970e08960e01b89526060602487015260848601906113f5565b9061259060009493859461270b6040519485936126ea60208601986317c574a360e21b8a526080602488015260a48701906113f5565b6001600160a01b0390921660448601528482036023190160648601526113f5565b901515608483015203601f19810183528261146856fea2646970667358221220d43378ee859a3b498f3867bfe5ff54c6e6ce1bb01fd344777052581fa1ceb45e64736f6c63430008140033","opcodes":"PUSH1 0x80 PUSH1 0x40 SWAP1 DUP1 DUP3 MSTORE CALLVALUE PUSH3 0x101 JUMPI PUSH3 0x18 CALLER PUSH3 0x106 JUMP JUMPDEST PUSH1 0x1 PUSH1 0x1 PUSH1 0x40 SHL SUB SWAP1 DUP1 DUP4 ADD SWAP1 DUP3 DUP3 GT DUP2 DUP4 LT OR PUSH3 0xEB JUMPI PUSH3 0x68 SWAP2 DUP5 MSTORE PUSH1 0x20 DUP2 MSTORE PUSH32 0x4261736541637469766974793A20436F6E7374727563746F722063616C6C6564 PUSH1 0x20 DUP3 ADD MSTORE PUSH3 0x14D JUMP JUMPDEST PUSH1 0x1 PUSH1 0xFF NOT PUSH1 0x3 SLOAD AND OR PUSH1 0x3 SSTORE PUSH3 0x80 CALLER PUSH3 0x106 JUMP JUMPDEST DUP2 MLOAD PUSH1 0x60 DUP2 ADD SWAP2 DUP3 GT DUP2 DUP4 LT OR PUSH3 0xEB JUMPI PUSH3 0xDD SWAP2 DUP4 MSTORE PUSH1 0x2C DUP2 MSTORE PUSH32 0x4261736541637469766974793A20496D706C656D656E746174696F6E20636F6E PUSH1 0x20 DUP3 ADD MSTORE PUSH12 0x1D1C9858DD081B1BD8DAD959 PUSH1 0xA2 SHL DUP4 DUP3 ADD MSTORE PUSH3 0x14D JUMP JUMPDEST MLOAD PUSH2 0x2757 SWAP1 DUP2 PUSH3 0x1EA DUP3 CODECOPY RETURN JUMPDEST PUSH4 0x4E487B71 PUSH1 0xE0 SHL PUSH1 0x0 MSTORE PUSH1 0x41 PUSH1 0x4 MSTORE PUSH1 0x24 PUSH1 0x0 REVERT JUMPDEST PUSH1 0x0 DUP1 REVERT JUMPDEST PUSH1 0x0 DUP1 SLOAD PUSH1 0x1 PUSH1 0x1 PUSH1 0xA0 SHL SUB SWAP3 DUP4 AND PUSH1 0x1 PUSH1 0x1 PUSH1 0xA0 SHL SUB NOT DUP3 AND DUP2 OR DUP4 SSTORE SWAP3 AND SWAP1 PUSH32 0x8BE0079C531659141344CD1FD0A4F28419497F9722A3DAAFE3B4186F6B6457E0 SWAP1 DUP1 LOG3 JUMP JUMPDEST PUSH1 0x40 MLOAD SWAP1 PUSH1 0x20 SWAP1 DUP3 DUP3 DUP2 ADD SWAP3 PUSH4 0x104C13EB PUSH1 0xE2 SHL DUP5 MSTORE DUP1 PUSH1 0x24 DUP4 ADD MSTORE DUP3 MLOAD SWAP3 DUP4 PUSH1 0x44 DUP5 ADD MSTORE PUSH1 0x0 JUMPDEST DUP5 DUP2 LT PUSH3 0x1D1 JUMPI POP POP POP DUP1 DUP3 PUSH1 0x0 PUSH1 0x64 PUSH1 0x1F SWAP6 PUSH1 0x83 SWAP6 ADD ADD MSTORE DUP4 NOT SWAP4 DUP5 SWAP2 ADD AND DUP2 ADD SUB PUSH1 0x44 DUP2 ADD DUP6 MSTORE ADD AND DUP3 ADD SWAP1 DUP3 DUP3 LT PUSH1 0x1 DUP1 PUSH1 0x40 SHL SUB DUP4 GT OR PUSH3 0xEB JUMPI PUSH1 0x0 SWAP3 DUP4 SWAP3 PUSH1 0x40 MSTORE MLOAD SWAP1 PUSH11 0x636F6E736F6C652E6C6F67 GAS STATICCALL POP JUMP JUMPDEST DUP2 DUP2 ADD DUP4 ADD MLOAD DUP8 DUP3 ADD PUSH1 0x64 ADD MSTORE DUP7 SWAP4 POP DUP3 ADD PUSH3 0x175 JUMP INVALID PUSH1 0x80 PUSH1 0x40 DUP2 DUP2 MSTORE PUSH1 0x4 DUP1 CALLDATASIZE LT ISZERO PUSH2 0x15 JUMPI PUSH1 0x0 DUP1 REVERT JUMPDEST PUSH1 0x0 SWAP3 DUP4 CALLDATALOAD PUSH1 0xE0 SHR SWAP1 DUP2 PUSH4 0x624549B EQ PUSH2 0x126C JUMPI POP DUP1 PUSH4 0xAB4423E EQ PUSH2 0x10D8 JUMPI DUP1 PUSH4 0xB97BC86 EQ PUSH2 0x10B9 JUMPI DUP1 PUSH4 0xD36B304 EQ PUSH2 0xDDD JUMPI DUP1 PUSH4 0xEEB4529 EQ PUSH2 0x967 JUMPI DUP1 PUSH4 0x185CBE94 EQ PUSH2 0x932 JUMPI DUP1 PUSH4 0x3BD60EA7 EQ PUSH2 0x7E8 JUMPI DUP1 PUSH4 0x439FAB91 EQ PUSH2 0x708 JUMPI DUP1 PUSH4 0x4435E157 EQ PUSH2 0x6BD JUMPI DUP1 PUSH4 0x48B9EF40 EQ PUSH2 0x69E JUMPI DUP1 PUSH4 0x52520D08 EQ PUSH2 0x67F JUMPI DUP1 PUSH4 0x66E305FD EQ PUSH2 0x5B5 JUMPI DUP1 PUSH4 0x66F27FD3 EQ PUSH2 0x58C JUMPI DUP1 PUSH4 0x69B4A3D9 EQ PUSH2 0x554 JUMPI DUP1 PUSH4 0x6C5CDE68 EQ PUSH2 0x554 JUMPI DUP1 PUSH4 0x715018A6 EQ PUSH2 0x4FA JUMPI DUP1 PUSH4 0x7723BAFB EQ PUSH2 0x4D4 JUMPI DUP1 PUSH4 0x77FA0AE3 EQ PUSH2 0x477 JUMPI DUP1 PUSH4 0x8DA5CB5B EQ PUSH2 0x44F JUMPI DUP1 PUSH4 0x9D76EA58 EQ PUSH2 0x426 JUMPI DUP1 PUSH4 0xA913B881 EQ PUSH2 0x3DD JUMPI DUP1 PUSH4 0xB47DBF22 EQ PUSH2 0x3BE JUMPI DUP1 PUSH4 0xC24A0F8B EQ PUSH2 0x39F JUMPI DUP1 PUSH4 0xC3F909D4 EQ PUSH2 0x357 JUMPI DUP1 PUSH4 0xE26D518A EQ PUSH2 0x1D5 JUMPI PUSH4 0xF2FDE38B EQ PUSH2 0x141 JUMPI PUSH1 0x0 DUP1 REVERT JUMPDEST CALLVALUE PUSH2 0x1D1 JUMPI PUSH1 0x20 CALLDATASIZE PUSH1 0x3 NOT ADD SLT PUSH2 0x1D1 JUMPI PUSH2 0x15A PUSH2 0x1345 JUMP JUMPDEST SWAP2 PUSH2 0x163 PUSH2 0x14FB JUMP JUMPDEST PUSH1 0x1 PUSH1 0x1 PUSH1 0xA0 SHL SUB DUP4 AND ISZERO PUSH2 0x17F JUMPI DUP4 PUSH2 0x17C DUP5 PUSH2 0x1553 JUMP JUMPDEST DUP1 RETURN JUMPDEST SWAP1 PUSH1 0x20 PUSH1 0x84 SWAP3 MLOAD SWAP2 PUSH3 0x461BCD PUSH1 0xE5 SHL DUP4 MSTORE DUP3 ADD MSTORE PUSH1 0x26 PUSH1 0x24 DUP3 ADD MSTORE PUSH32 0x4F776E61626C653A206E6577206F776E657220697320746865207A65726F2061 PUSH1 0x44 DUP3 ADD MSTORE PUSH6 0x646472657373 PUSH1 0xD0 SHL PUSH1 0x64 DUP3 ADD MSTORE REVERT JUMPDEST DUP3 DUP1 REVERT JUMPDEST POP DUP3 SWAP1 CALLVALUE PUSH2 0x353 JUMPI DUP3 PUSH1 0x3 NOT CALLDATASIZE ADD SLT PUSH2 0x353 JUMPI DUP1 CALLDATALOAD PUSH8 0xFFFFFFFFFFFFFFFF DUP2 GT PUSH2 0x1D1 JUMPI PUSH2 0x206 SWAP1 CALLDATASIZE SWAP1 DUP4 ADD PUSH2 0x14DD JUMP JUMPDEST SWAP1 PUSH1 0x24 CALLDATALOAD SWAP1 PUSH1 0x1 PUSH1 0x1 PUSH1 0xA0 SHL SUB DUP3 AND DUP1 DUP4 SUB PUSH2 0x34F JUMPI PUSH2 0x23C PUSH1 0xFF PUSH1 0x3 SLOAD AND PUSH2 0x236 DUP2 PUSH2 0x231 PUSH2 0x159A JUMP JUMPDEST PUSH2 0x25E8 JUMP JUMPDEST ISZERO PUSH2 0x15F1 JUMP JUMPDEST PUSH2 0x28E DUP4 DUP8 MLOAD PUSH2 0x24B DUP2 PUSH2 0x141A JUMP JUMPDEST PUSH1 0x2C DUP2 MSTORE PUSH32 0x4261736541637469766974793A20496E697469616C697A696E6720636C6F6E65 PUSH1 0x20 DUP3 ADD MSTORE PUSH12 0x103BB4BA341037BBB732B91D PUSH1 0xA1 SHL DUP10 DUP3 ADD MSTORE PUSH2 0x262F JUMP JUMPDEST ISZERO PUSH2 0x314 JUMPI POP PUSH2 0x2AA PUSH2 0x2F7 SWAP3 PUSH2 0x2A5 DUP7 SWAP4 PUSH2 0x1553 JUMP JUMPDEST PUSH2 0x1695 JUMP JUMPDEST PUSH11 0x6F6E20636F6D706C657465 PUSH1 0xA8 SHL DUP2 MLOAD SWAP2 PUSH2 0x2C5 DUP4 PUSH2 0x141A JUMP JUMPDEST PUSH1 0x2B DUP4 MSTORE PUSH32 0x4261736541637469766974793A20436C6F6E6520696E697469616C697A617469 PUSH1 0x20 DUP5 ADD MSTORE DUP3 ADD MSTORE PUSH2 0x2554 JUMP JUMPDEST PUSH1 0x1 PUSH1 0xFF NOT PUSH1 0x3 SLOAD AND OR PUSH1 0x3 SSTORE PUSH2 0x17C PUSH2 0x30F PUSH2 0x1633 JUMP JUMPDEST PUSH2 0x2554 JUMP JUMPDEST PUSH1 0x64 SWAP1 PUSH1 0x20 DUP7 MLOAD SWAP2 PUSH3 0x461BCD PUSH1 0xE5 SHL DUP4 MSTORE DUP3 ADD MSTORE PUSH1 0x15 PUSH1 0x24 DUP3 ADD MSTORE PUSH21 0x496E76616C6964206F776E65722061646472657373 PUSH1 0x58 SHL PUSH1 0x44 DUP3 ADD MSTORE REVERT JUMPDEST DUP5 DUP1 REVERT JUMPDEST POP DUP1 REVERT JUMPDEST POP POP CALLVALUE PUSH2 0x353 JUMPI DUP2 PUSH1 0x3 NOT CALLDATASIZE ADD SLT PUSH2 0x353 JUMPI PUSH1 0xA0 SWAP1 PUSH1 0x1 DUP1 DUP4 SHL SUB PUSH1 0x9 SLOAD AND SWAP1 PUSH1 0xA SLOAD SWAP1 PUSH1 0xB SLOAD PUSH1 0xC SLOAD SWAP2 PUSH1 0xD SLOAD SWAP4 DUP2 MLOAD SWAP6 DUP7 MSTORE PUSH1 0x20 DUP7 ADD MSTORE DUP5 ADD MSTORE PUSH1 0x60 DUP4 ADD MSTORE PUSH1 0x80 DUP3 ADD MSTORE RETURN JUMPDEST POP POP CALLVALUE PUSH2 0x353 JUMPI DUP2 PUSH1 0x3 NOT CALLDATASIZE ADD SLT PUSH2 0x353 JUMPI PUSH1 0x20 SWAP1 PUSH1 0xC SLOAD SWAP1 MLOAD SWAP1 DUP2 MSTORE RETURN JUMPDEST POP POP CALLVALUE PUSH2 0x353 JUMPI DUP2 PUSH1 0x3 NOT CALLDATASIZE ADD SLT PUSH2 0x353 JUMPI PUSH1 0x20 SWAP1 PUSH1 0xD SLOAD SWAP1 MLOAD SWAP1 DUP2 MSTORE RETURN JUMPDEST POP SWAP2 CALLVALUE PUSH2 0x423 JUMPI PUSH1 0x20 CALLDATASIZE PUSH1 0x3 NOT ADD SLT PUSH2 0x423 JUMPI DUP3 CALLDATALOAD SWAP1 PUSH8 0xFFFFFFFFFFFFFFFF DUP3 GT PUSH2 0x423 JUMPI POP PUSH2 0x415 PUSH1 0x20 SWAP4 PUSH2 0x41A SWAP3 CALLDATASIZE SWAP2 ADD PUSH2 0x14DD JUMP JUMPDEST PUSH2 0x18FF JUMP JUMPDEST SWAP1 MLOAD SWAP1 ISZERO ISZERO DUP2 MSTORE RETURN JUMPDEST DUP1 REVERT JUMPDEST POP POP CALLVALUE PUSH2 0x353 JUMPI DUP2 PUSH1 0x3 NOT CALLDATASIZE ADD SLT PUSH2 0x353 JUMPI PUSH1 0x9 SLOAD SWAP1 MLOAD PUSH1 0x1 PUSH1 0x1 PUSH1 0xA0 SHL SUB SWAP1 SWAP2 AND DUP2 MSTORE PUSH1 0x20 SWAP1 RETURN JUMPDEST POP POP CALLVALUE PUSH2 0x353 JUMPI DUP2 PUSH1 0x3 NOT CALLDATASIZE ADD SLT PUSH2 0x353 JUMPI SWAP1 SLOAD SWAP1 MLOAD PUSH1 0x1 PUSH1 0x1 PUSH1 0xA0 SHL SUB SWAP1 SWAP2 AND DUP2 MSTORE PUSH1 0x20 SWAP1 RETURN JUMPDEST POP POP CALLVALUE PUSH2 0x353 JUMPI DUP2 PUSH1 0x3 NOT CALLDATASIZE ADD SLT PUSH2 0x353 JUMPI PUSH1 0xE0 SWAP1 PUSH1 0x1 DUP1 PUSH1 0xA0 SHL SUB DUP1 PUSH1 0x9 SLOAD AND SWAP2 PUSH1 0xA SLOAD SWAP2 PUSH1 0xB SLOAD PUSH1 0xC SLOAD SWAP1 PUSH1 0xD SLOAD SWAP3 PUSH1 0x1 SLOAD AND SWAP4 PUSH1 0x2 SLOAD SWAP6 DUP2 MLOAD SWAP8 DUP9 MSTORE PUSH1 0x20 DUP9 ADD MSTORE DUP7 ADD MSTORE PUSH1 0x60 DUP6 ADD MSTORE PUSH1 0x80 DUP5 ADD MSTORE PUSH1 0xA0 DUP4 ADD MSTORE PUSH1 0xC0 DUP3 ADD MSTORE RETURN JUMPDEST POP POP CALLVALUE PUSH2 0x353 JUMPI PUSH1 0x20 CALLDATASIZE PUSH1 0x3 NOT ADD SLT PUSH2 0x353 JUMPI PUSH1 0x20 SWAP1 PUSH2 0x41A PUSH2 0x4F5 PUSH2 0x1345 JUMP JUMPDEST PUSH2 0x2138 JUMP JUMPDEST DUP4 CALLVALUE PUSH2 0x423 JUMPI DUP1 PUSH1 0x3 NOT CALLDATASIZE ADD SLT PUSH2 0x423 JUMPI PUSH2 0x513 PUSH2 0x14FB JUMP JUMPDEST DUP1 SLOAD PUSH1 0x1 PUSH1 0x1 PUSH1 0xA0 SHL SUB NOT DUP2 AND DUP3 SSTORE DUP2 SWAP1 PUSH1 0x1 PUSH1 0x1 PUSH1 0xA0 SHL SUB AND PUSH32 0x8BE0079C531659141344CD1FD0A4F28419497F9722A3DAAFE3B4186F6B6457E0 DUP3 DUP1 LOG3 DUP1 RETURN JUMPDEST POP POP CALLVALUE PUSH2 0x353 JUMPI PUSH1 0x20 CALLDATASIZE PUSH1 0x3 NOT ADD SLT PUSH2 0x353 JUMPI PUSH1 0x20 SWAP2 DUP2 SWAP1 PUSH1 0x1 PUSH1 0x1 PUSH1 0xA0 SHL SUB PUSH2 0x57C PUSH2 0x1345 JUMP JUMPDEST AND DUP2 MSTORE PUSH1 0xE DUP5 MSTORE KECCAK256 SLOAD SWAP1 MLOAD SWAP1 DUP2 MSTORE RETURN JUMPDEST POP POP CALLVALUE PUSH2 0x353 JUMPI DUP2 PUSH1 0x3 NOT CALLDATASIZE ADD SLT PUSH2 0x353 JUMPI PUSH1 0x1 SLOAD SWAP1 MLOAD PUSH1 0x1 PUSH1 0x1 PUSH1 0xA0 SHL SUB SWAP1 SWAP2 AND DUP2 MSTORE PUSH1 0x20 SWAP1 RETURN JUMPDEST POP POP CALLVALUE PUSH2 0x353 JUMPI PUSH1 0x20 CALLDATASIZE PUSH1 0x3 NOT ADD SLT PUSH2 0x353 JUMPI PUSH1 0x20 SWAP1 PUSH2 0x5D3 PUSH2 0x1345 JUMP JUMPDEST SWAP1 PUSH2 0x5E4 CALLER ISZERO SWAP3 DUP4 PUSH2 0x633 JUMPI PUSH2 0x2138 JUMP JUMPDEST SWAP2 PUSH2 0x5F2 JUMPI JUMPDEST MLOAD SWAP1 ISZERO ISZERO DUP2 MSTORE RETURN JUMPDEST PUSH2 0x62E DUP3 DUP3 MLOAD PUSH2 0x601 DUP2 PUSH2 0x144C JUMP JUMPDEST DUP6 DUP2 MSTORE PUSH32 0x4261736541637469766974793A206973456C696769626C6520726573756C743A DUP7 DUP3 ADD MSTORE PUSH2 0x25E8 JUMP JUMPDEST PUSH2 0x5EA JUMP JUMPDEST PUSH2 0x4F5 DUP2 DUP5 MLOAD PUSH2 0x642 DUP2 PUSH2 0x141A JUMP JUMPDEST PUSH1 0x27 DUP2 MSTORE PUSH32 0x4261736541637469766974793A206973456C696769626C6520636865636B2066 DUP9 DUP3 ADD MSTORE PUSH7 0x37B9103AB9B2B9 PUSH1 0xC9 SHL DUP7 DUP3 ADD MSTORE PUSH2 0x262F JUMP JUMPDEST POP POP CALLVALUE PUSH2 0x353 JUMPI DUP2 PUSH1 0x3 NOT CALLDATASIZE ADD SLT PUSH2 0x353 JUMPI PUSH1 0x20 SWAP1 PUSH1 0x2 SLOAD SWAP1 MLOAD SWAP1 DUP2 MSTORE RETURN JUMPDEST POP POP CALLVALUE PUSH2 0x353 JUMPI DUP2 PUSH1 0x3 NOT CALLDATASIZE ADD SLT PUSH2 0x353 JUMPI PUSH1 0x20 SWAP1 PUSH1 0xA SLOAD SWAP1 MLOAD SWAP1 DUP2 MSTORE RETURN JUMPDEST POP POP CALLVALUE PUSH2 0x353 JUMPI DUP2 PUSH1 0x3 NOT CALLDATASIZE ADD SLT PUSH2 0x353 JUMPI PUSH1 0x3 SLOAD PUSH1 0x1 SLOAD PUSH1 0x2 SLOAD SWAP4 SLOAD DUP4 MLOAD PUSH1 0xFF SWAP1 SWAP4 AND ISZERO ISZERO DUP4 MSTORE PUSH1 0x1 PUSH1 0x1 PUSH1 0xA0 SHL SUB SWAP2 DUP3 AND PUSH1 0x20 DUP5 ADD MSTORE SWAP3 DUP3 ADD SWAP4 SWAP1 SWAP4 MSTORE SWAP2 AND PUSH1 0x60 DUP3 ADD MSTORE PUSH1 0x80 SWAP1 RETURN JUMPDEST POP SWAP1 CALLVALUE PUSH2 0x1D1 JUMPI PUSH1 0x20 CALLDATASIZE PUSH1 0x3 NOT ADD SLT PUSH2 0x1D1 JUMPI DUP2 CALLDATALOAD SWAP2 PUSH8 0xFFFFFFFFFFFFFFFF DUP4 GT PUSH2 0x7E4 JUMPI PUSH2 0x740 PUSH2 0x79D SWAP2 PUSH2 0x2F7 SWAP5 CALLDATASIZE SWAP2 ADD PUSH2 0x14DD JUMP JUMPDEST PUSH2 0x755 PUSH1 0xFF PUSH1 0x3 SLOAD AND PUSH2 0x236 DUP2 PUSH2 0x231 PUSH2 0x159A JUMP JUMPDEST PUSH2 0x2A5 DUP4 MLOAD PUSH2 0x763 DUP2 PUSH2 0x141A JUMP JUMPDEST PUSH1 0x23 DUP2 MSTORE PUSH32 0x4261736541637469766974793A20496E697469616C697A696E6720636F6E7472 PUSH1 0x20 DUP3 ADD MSTORE PUSH3 0x1858DD PUSH1 0xEA SHL DUP6 DUP3 ADD MSTORE PUSH2 0x2554 JUMP JUMPDEST PUSH5 0x706C657465 PUSH1 0xD8 SHL DUP2 MLOAD SWAP2 PUSH2 0x7B2 DUP4 PUSH2 0x141A JUMP JUMPDEST PUSH1 0x25 DUP4 MSTORE PUSH32 0x4261736541637469766974793A20496E697469616C697A6174696F6E20636F6D PUSH1 0x20 DUP5 ADD MSTORE DUP3 ADD MSTORE PUSH2 0x2554 JUMP JUMPDEST DUP4 DUP1 REVERT JUMPDEST POP SWAP1 CALLVALUE PUSH2 0x1D1 JUMPI PUSH1 0x20 CALLDATASIZE PUSH1 0x3 NOT ADD SLT PUSH2 0x1D1 JUMPI PUSH2 0x17C SWAP2 CALLDATALOAD PUSH2 0x808 PUSH2 0x14FB JUMP JUMPDEST DUP4 DUP1 PUSH1 0x2 SLOAD DUP5 MLOAD SWAP1 PUSH2 0x819 DUP3 PUSH2 0x141A JUMP JUMPDEST PUSH1 0x33 DUP3 MSTORE PUSH32 0x4261736541637469766974793A205570646174696E672070726F6F662076616C PUSH1 0x20 DUP4 ADD MSTORE PUSH19 0x6964697479206475726174696F6E2066726F6D PUSH1 0x68 SHL DUP7 DUP4 ADD MSTORE PUSH2 0x8BF PUSH2 0x869 PUSH2 0x1677 JUMP JUMPDEST PUSH2 0x8AB DUP9 MLOAD SWAP4 DUP5 SWAP3 PUSH2 0x894 PUSH1 0x20 DUP6 ADD SWAP8 PUSH4 0xC67EA9D1 PUSH1 0xE0 SHL DUP10 MSTORE PUSH1 0x80 PUSH1 0x24 DUP8 ADD MSTORE PUSH1 0xA4 DUP7 ADD SWAP1 PUSH2 0x13F5 JUMP JUMPDEST SWAP2 PUSH1 0x44 DUP6 ADD MSTORE PUSH1 0x23 NOT DUP5 DUP4 SUB ADD PUSH1 0x64 DUP6 ADD MSTORE PUSH2 0x13F5 JUMP JUMPDEST DUP8 PUSH1 0x84 DUP4 ADD MSTORE SUB PUSH1 0x1F NOT DUP2 ADD DUP4 MSTORE DUP3 PUSH2 0x1468 JUMP JUMPDEST MLOAD SWAP1 PUSH11 0x636F6E736F6C652E6C6F67 GAS STATICCALL POP PUSH1 0x2 SSTORE PUSH32 0x6174696F6E2075706461746564207375636365737366756C6C79000000000000 DUP2 MLOAD SWAP2 PUSH2 0x900 DUP4 PUSH2 0x141A JUMP JUMPDEST PUSH1 0x3A DUP4 MSTORE PUSH32 0x4261736541637469766974793A2050726F6F662076616C696469747920647572 PUSH1 0x20 DUP5 ADD MSTORE DUP3 ADD MSTORE PUSH2 0x2554 JUMP JUMPDEST POP POP CALLVALUE PUSH2 0x353 JUMPI DUP2 PUSH1 0x3 NOT CALLDATASIZE ADD SLT PUSH2 0x353 JUMPI PUSH2 0x963 SWAP1 PUSH2 0x950 PUSH2 0x18D7 JUMP JUMPDEST SWAP1 MLOAD SWAP2 DUP3 SWAP2 PUSH1 0x20 DUP4 MSTORE PUSH1 0x20 DUP4 ADD SWAP1 PUSH2 0x13F5 JUMP JUMPDEST SUB SWAP1 RETURN JUMPDEST POP SWAP1 CALLVALUE PUSH2 0x1D1 JUMPI PUSH1 0x60 CALLDATASIZE PUSH1 0x3 NOT ADD SLT PUSH2 0x1D1 JUMPI PUSH2 0x982 PUSH2 0x1345 JUMP JUMPDEST PUSH1 0x24 CALLDATALOAD PUSH1 0x44 CALLDATALOAD PUSH8 0xFFFFFFFFFFFFFFFF DUP2 GT PUSH2 0xDD9 JUMPI PUSH2 0x9A4 SWAP1 CALLDATASIZE SWAP1 DUP7 ADD PUSH2 0x1360 JUMP JUMPDEST SWAP5 SWAP1 PUSH2 0x9B7 DUP5 PUSH2 0x9B2 PUSH2 0x1912 JUMP JUMPDEST PUSH2 0x262F JUMP JUMPDEST DUP5 MLOAD SWAP6 PUSH2 0x9C3 DUP8 PUSH2 0x144C JUMP JUMPDEST PUSH1 0x1B DUP8 MSTORE PUSH2 0x9F8 DUP5 PUSH1 0x20 SWAP9 PUSH32 0x42757958546F6B656E733A20507572636861736520616D6F756E740000000000 DUP11 DUP3 ADD MSTORE PUSH2 0x25A3 JUMP JUMPDEST DUP8 SLOAD PUSH1 0x1 PUSH1 0x1 PUSH1 0xA0 SHL SUB SWAP4 SWAP1 DUP5 AND CALLER EQ DUP1 ISZERO PUSH2 0xDCC JUMPI JUMPDEST ISZERO PUSH2 0xD9A JUMPI PUSH1 0xD SLOAD DUP1 PUSH2 0xD54 JUMPI JUMPDEST POP POP PUSH2 0xAA3 SWAP1 PUSH2 0xA7B DUP8 MLOAD SWAP4 PUSH2 0xA32 DUP6 PUSH2 0x144C JUMP JUMPDEST PUSH1 0x1 SWAP8 DUP9 DUP7 MSTORE DUP11 CALLDATASIZE DUP2 DUP9 ADD CALLDATACOPY DUP7 PUSH2 0xA48 DUP8 PUSH2 0x1973 JUMP JUMPDEST SWAP2 AND SWAP1 MSTORE DUP9 MLOAD SWAP7 PUSH2 0xA58 DUP9 PUSH2 0x144C JUMP JUMPDEST DUP9 DUP9 MSTORE DUP11 CALLDATASIZE DUP2 DUP11 ADD CALLDATACOPY PUSH2 0xA6A DUP9 PUSH2 0x1973 JUMP JUMPDEST MSTORE PUSH2 0xA73 PUSH2 0x19AA JUMP JUMPDEST SWAP3 CALLDATASIZE SWAP2 PUSH2 0x14A6 JUMP JUMPDEST PUSH2 0xA84 DUP3 PUSH2 0x1973 JUMP JUMPDEST MSTORE PUSH2 0xA8E DUP2 PUSH2 0x1973 JUMP JUMPDEST POP DUP3 MLOAD DUP6 MLOAD DUP2 EQ SWAP2 DUP3 PUSH2 0xD49 JUMPI JUMPDEST POP POP PUSH2 0x19DF JUMP JUMPDEST DUP1 MLOAD PUSH2 0xAF7 DUP7 MLOAD PUSH2 0xAB3 DUP2 PUSH2 0x141A JUMP JUMPDEST PUSH1 0x23 SWAP3 DUP4 DUP3 MSTORE PUSH32 0x42757958546F6B656E733A20566572696679696E672070757263686173657320 DUP11 DUP4 ADD MSTORE PUSH3 0x3337B9 PUSH1 0xE9 SHL DUP10 DUP4 ADD MSTORE PUSH2 0xAF1 PUSH2 0x1A23 JUMP JUMPDEST SWAP2 PUSH2 0x267F JUMP JUMPDEST DUP8 DUP6 JUMPDEST PUSH2 0xB4F JUMPI JUMPDEST DUP9 PUSH2 0x17C DUP10 PUSH10 0x6E20636F6D706C657465 PUSH1 0xB0 SHL DUP11 PUSH32 0x42757958546F6B656E733A20507572636861736520766572696669636174696F DUP2 MLOAD SWAP4 PUSH2 0xB40 DUP6 PUSH2 0x141A JUMP JUMPDEST PUSH1 0x2A DUP6 MSTORE DUP5 ADD MSTORE DUP3 ADD MSTORE PUSH2 0x2554 JUMP JUMPDEST DUP3 MLOAD DUP2 LT ISZERO PUSH2 0xD44 JUMPI DUP1 PUSH2 0xB74 DUP6 PUSH2 0xB6A PUSH2 0xD3E SWAP5 DUP8 PUSH2 0x1996 JUMP JUMPDEST MLOAD AND PUSH2 0x9B2 PUSH2 0x1912 JUMP JUMPDEST DUP5 PUSH2 0xB7F DUP3 DUP7 PUSH2 0x1996 JUMP JUMPDEST MLOAD AND DUP11 MSTORE PUSH1 0xE DUP1 DUP11 MSTORE PUSH2 0xBD2 DUP10 DUP13 KECCAK256 SLOAD DUP11 MLOAD PUSH2 0xB9A DUP2 PUSH2 0x141A JUMP JUMPDEST DUP7 DUP2 MSTORE PUSH32 0x42757958546F6B656E733A2043757272656E7420707572636861736520616D6F DUP14 DUP3 ADD MSTORE PUSH3 0x1D5B9D PUSH1 0xEA SHL DUP13 DUP3 ADD MSTORE PUSH2 0x25A3 JUMP JUMPDEST PUSH2 0xC23 PUSH2 0xBDF DUP4 DUP10 PUSH2 0x1996 JUMP JUMPDEST MLOAD DUP11 MLOAD PUSH2 0xBEB DUP2 PUSH2 0x141A JUMP JUMPDEST PUSH1 0x22 DUP2 MSTORE PUSH32 0x42757958546F6B656E733A20416464696E6720707572636861736520616D6F75 DUP14 DUP3 ADD MSTORE PUSH2 0x1B9D PUSH1 0xF2 SHL DUP13 DUP3 ADD MSTORE PUSH2 0x25A3 JUMP JUMPDEST PUSH2 0xC2D DUP3 DUP9 PUSH2 0x1996 JUMP JUMPDEST MLOAD DUP7 PUSH2 0xC39 DUP5 DUP9 PUSH2 0x1996 JUMP JUMPDEST MLOAD AND DUP13 MSTORE DUP2 DUP12 MSTORE PUSH2 0xC4E DUP11 DUP14 KECCAK256 SWAP2 DUP3 SLOAD PUSH2 0x1A69 JUMP JUMPDEST SWAP1 SSTORE DUP6 PUSH2 0xC5B DUP4 DUP8 PUSH2 0x1996 JUMP JUMPDEST MLOAD AND DUP12 MSTORE DUP10 MSTORE PUSH2 0xCA1 DUP9 DUP12 KECCAK256 SLOAD DUP10 MLOAD PUSH2 0xC73 DUP2 PUSH2 0x144C JUMP JUMPDEST PUSH1 0x1F DUP2 MSTORE PUSH32 0x42757958546F6B656E733A204E657720707572636861736520616D6F756E7400 DUP13 DUP3 ADD MSTORE PUSH2 0x25A3 JUMP JUMPDEST DUP5 PUSH2 0xCAC DUP3 DUP7 PUSH2 0x1996 JUMP JUMPDEST MLOAD AND PUSH32 0x9F102852CFAFFBA097F8E863FCD02EAC1B224A2A2C52BEA4D467C7651E6D89EE DUP10 PUSH2 0xCDA DUP5 DUP11 PUSH2 0x1996 JUMP JUMPDEST MLOAD DUP2 MLOAD SWAP1 DUP2 MSTORE TIMESTAMP DUP14 DUP3 ADD MSTORE LOG2 PUSH2 0xD39 DUP9 MLOAD PUSH2 0xCF4 DUP2 PUSH2 0x141A JUMP JUMPDEST PUSH1 0x2F DUP2 MSTORE PUSH32 0x42757958546F6B656E733A20507572636861736520766572696669636174696F DUP12 DUP3 ADD MSTORE PUSH15 0x1B88195D995B9D08195B5A5D1D1959 PUSH1 0x8A SHL DUP11 DUP3 ADD MSTORE PUSH2 0x2554 JUMP JUMPDEST PUSH2 0x1A44 JUMP JUMPDEST DUP6 PUSH2 0xAFA JUMP JUMPDEST PUSH2 0xAFF JUMP JUMPDEST MLOAD EQ SWAP1 POP CODESIZE DUP1 PUSH2 0xA9C JUMP JUMPDEST DUP6 LT PUSH2 0xD60 JUMPI DUP1 PUSH2 0xA1D JUMP JUMPDEST DUP7 MLOAD PUSH3 0x461BCD PUSH1 0xE5 SHL DUP2 MSTORE SWAP1 DUP2 ADD DUP9 SWAP1 MSTORE PUSH1 0x14 PUSH1 0x24 DUP3 ADD MSTORE PUSH20 0x416D6F756E742062656C6F77206D696E696D756D PUSH1 0x60 SHL PUSH1 0x44 DUP3 ADD MSTORE PUSH1 0x64 SWAP1 REVERT JUMPDEST DUP7 MLOAD PUSH3 0x461BCD PUSH1 0xE5 SHL DUP2 MSTORE SWAP1 DUP2 ADD DUP9 SWAP1 MSTORE PUSH1 0xC PUSH1 0x24 DUP3 ADD MSTORE PUSH12 0x155B985D5D1A1BDC9A5E9959 PUSH1 0xA2 SHL PUSH1 0x44 DUP3 ADD MSTORE PUSH1 0x64 SWAP1 REVERT JUMPDEST POP DUP4 PUSH1 0x1 SLOAD AND CALLER EQ PUSH2 0xA0F JUMP JUMPDEST DUP6 DUP1 REVERT JUMPDEST POP DUP3 SWAP1 CALLVALUE PUSH2 0x353 JUMPI PUSH2 0xDEE CALLDATASIZE PUSH2 0x138E JUMP JUMPDEST DUP6 SWAP3 SWAP2 SWAP3 MLOAD SWAP4 PUSH2 0xDFD DUP6 PUSH2 0x141A JUMP JUMPDEST PUSH1 0x31 DUP6 MSTORE PUSH32 0x42757958546F6B656E733A2050726F63657373696E6720656C69676962696C69 SWAP2 PUSH2 0xE4D DUP5 PUSH1 0x20 SWAP8 DUP6 DUP10 DUP3 ADD MSTORE PUSH17 0x3A3C90383937B7B3103337B9103AB9B2B9 PUSH1 0x79 SHL DUP12 DUP3 ADD MSTORE PUSH2 0x262F JUMP JUMPDEST PUSH2 0xEE5 DUP9 MLOAD SWAP4 PUSH2 0xE5C DUP6 PUSH2 0x144C JUMP JUMPDEST PUSH2 0xE91 PUSH1 0x1 SWAP8 DUP9 DUP8 MSTORE DUP10 CALLDATASIZE DUP2 DUP10 ADD CALLDATACOPY PUSH2 0xE74 DUP8 PUSH2 0x1973 JUMP JUMPDEST PUSH1 0x1 PUSH1 0x1 PUSH1 0xA0 SHL SUB SWAP9 DUP10 AND SWAP1 MSTORE PUSH2 0xE89 PUSH2 0x19AA JUMP JUMPDEST SWAP5 CALLDATASIZE SWAP2 PUSH2 0x14A6 JUMP JUMPDEST PUSH2 0xE9A DUP5 PUSH2 0x1973 JUMP JUMPDEST MSTORE PUSH2 0xEA4 DUP4 PUSH2 0x1973 JUMP JUMPDEST POP PUSH2 0xEB2 DUP6 MLOAD DUP5 MLOAD EQ PUSH2 0x19DF JUMP JUMPDEST DUP5 MLOAD DUP11 MLOAD SWAP2 PUSH2 0xEC0 DUP4 PUSH2 0x141A JUMP JUMPDEST PUSH1 0x2D DUP4 MSTORE DUP10 DUP4 ADD MSTORE PUSH13 0x3A3C90383937B7B339903337B9 PUSH1 0x99 SHL DUP12 DUP4 ADD MSTORE PUSH2 0xAF1 PUSH2 0x1A23 JUMP JUMPDEST DUP7 DUP6 JUMPDEST PUSH2 0xF47 JUMPI JUMPDEST DUP8 PUSH2 0x17C DUP9 PUSH20 0x6F636573736564207375636365737366756C6C79 PUSH1 0x60 SHL DUP13 PUSH32 0x42757958546F6B656E733A20456C69676962696C6974792070726F6F66207072 DUP2 MLOAD SWAP4 PUSH2 0xF38 DUP6 PUSH2 0x141A JUMP JUMPDEST PUSH1 0x34 DUP6 MSTORE DUP5 ADD MSTORE DUP3 ADD MSTORE PUSH2 0x2554 JUMP JUMPDEST DUP4 MLOAD DUP2 LT ISZERO PUSH2 0x10B4 JUMPI PUSH2 0xFA6 DUP6 PUSH2 0xF5E DUP4 DUP8 PUSH2 0x1996 JUMP JUMPDEST MLOAD AND DUP11 MLOAD PUSH2 0xF6B DUP2 PUSH2 0x141A JUMP JUMPDEST PUSH1 0x25 DUP2 MSTORE PUSH32 0x42757958546F6B656E733A2050726F63657373696E672070726F6F6620666F72 DUP11 DUP3 ADD MSTORE PUSH5 0x103AB9B2B9 PUSH1 0xD9 SHL DUP13 DUP3 ADD MSTORE PUSH2 0x262F JUMP JUMPDEST PUSH2 0xFC7 DUP6 PUSH2 0xFB4 DUP4 DUP8 PUSH2 0x1996 JUMP JUMPDEST MLOAD AND PUSH2 0xFC0 DUP4 DUP6 PUSH2 0x1996 JUMP JUMPDEST MLOAD SWAP1 PUSH2 0x1A76 JUMP JUMPDEST ISZERO PUSH2 0x1071 JUMPI DUP1 PUSH2 0x1031 DUP7 PUSH2 0xFDE PUSH2 0x106B SWAP5 DUP9 PUSH2 0x1996 JUMP JUMPDEST MLOAD AND DUP12 MLOAD PUSH2 0xFEB DUP2 PUSH2 0x141A JUMP JUMPDEST PUSH1 0x30 DUP2 MSTORE PUSH32 0x42757958546F6B656E733A2050726F6F66207665726966696564207375636365 DUP12 DUP3 ADD MSTORE PUSH16 0x39B9B33AB6363C903337B9103AB9B2B9 PUSH1 0x81 SHL DUP14 DUP3 ADD MSTORE PUSH2 0x262F JUMP JUMPDEST DUP6 PUSH2 0x103C DUP3 DUP8 PUSH2 0x1996 JUMP JUMPDEST MLOAD AND PUSH32 0x6B691694AB01BE33226E2411FD26ED324180CD679F30560B0B94C87574769502 DUP10 DUP13 MLOAD TIMESTAMP DUP2 MSTORE LOG2 PUSH2 0x1A44 JUMP JUMPDEST DUP6 PUSH2 0xEE8 JUMP JUMPDEST DUP9 MLOAD PUSH3 0x461BCD PUSH1 0xE5 SHL DUP2 MSTORE DUP1 DUP5 ADD DUP9 SWAP1 MSTORE PUSH1 0x19 PUSH1 0x24 DUP3 ADD MSTORE PUSH32 0x496E76616C696420656C69676962696C6974792070726F6F6600000000000000 PUSH1 0x44 DUP3 ADD MSTORE PUSH1 0x64 SWAP1 REVERT JUMPDEST PUSH2 0xEED JUMP JUMPDEST POP POP CALLVALUE PUSH2 0x353 JUMPI DUP2 PUSH1 0x3 NOT CALLDATASIZE ADD SLT PUSH2 0x353 JUMPI PUSH1 0x20 SWAP1 PUSH1 0xB SLOAD SWAP1 MLOAD SWAP1 DUP2 MSTORE RETURN JUMPDEST POP SWAP2 SWAP1 CALLVALUE PUSH2 0x353 JUMPI PUSH1 0x20 CALLDATASIZE PUSH1 0x3 NOT ADD SLT PUSH2 0x353 JUMPI PUSH2 0x10F4 PUSH2 0x1345 JUMP JUMPDEST PUSH2 0x10FC PUSH2 0x14FB JUMP JUMPDEST PUSH1 0x1 SLOAD SWAP4 DUP4 DUP1 DUP5 MLOAD PUSH2 0x110D DUP2 PUSH2 0x141A JUMP JUMPDEST PUSH1 0x27 DUP2 MSTORE PUSH32 0x4261736541637469766974793A205570646174696E67207369676E696E67206B PUSH1 0x20 DUP3 ADD MSTORE PUSH7 0x65792066726F6D PUSH1 0xC8 SHL DUP7 DUP3 ADD MSTORE PUSH2 0x119F PUSH2 0x11B6 PUSH2 0x1154 PUSH2 0x1677 JUMP JUMPDEST DUP11 DUP10 MLOAD SWAP4 DUP5 SWAP3 PUSH2 0x117D PUSH1 0x20 DUP6 ADD SWAP8 PUSH4 0xAABC9A31 PUSH1 0xE0 SHL DUP10 MSTORE PUSH1 0x80 PUSH1 0x24 DUP8 ADD MSTORE PUSH1 0xA4 DUP7 ADD SWAP1 PUSH2 0x13F5 JUMP JUMPDEST PUSH1 0x1 PUSH1 0x1 PUSH1 0xA0 SHL SUB SWAP4 DUP5 AND PUSH1 0x44 DUP7 ADD MSTORE DUP5 DUP2 SUB PUSH1 0x23 NOT ADD PUSH1 0x64 DUP7 ADD MSTORE SWAP1 PUSH2 0x13F5 JUMP JUMPDEST SWAP9 AND SWAP8 DUP9 PUSH1 0x84 DUP4 ADD MSTORE SUB PUSH1 0x1F NOT DUP2 ADD DUP4 MSTORE DUP3 PUSH2 0x1468 JUMP JUMPDEST MLOAD SWAP1 PUSH11 0x636F6E736F6C652E6C6F67 GAS STATICCALL POP DUP2 ISZERO PUSH2 0x1233 JUMPI POP PUSH2 0x17C SWAP3 SWAP4 PUSH1 0x1 PUSH1 0x1 PUSH1 0x60 SHL SUB PUSH1 0xA0 SHL AND OR PUSH1 0x1 SSTORE PUSH14 0x64207375636365737366756C6C79 PUSH1 0x90 SHL DUP2 MLOAD SWAP2 PUSH2 0x1201 DUP4 PUSH2 0x141A JUMP JUMPDEST PUSH1 0x2E DUP4 MSTORE PUSH32 0x4261736541637469766974793A205369676E696E67206B657920757064617465 PUSH1 0x20 DUP5 ADD MSTORE DUP3 ADD MSTORE PUSH2 0x2554 JUMP JUMPDEST PUSH1 0x64 SWAP1 PUSH1 0x20 DUP5 MLOAD SWAP2 PUSH3 0x461BCD PUSH1 0xE5 SHL DUP4 MSTORE DUP3 ADD MSTORE PUSH1 0x13 PUSH1 0x24 DUP3 ADD MSTORE PUSH19 0x496E76616C6964207369676E696E67206B6579 PUSH1 0x68 SHL PUSH1 0x44 DUP3 ADD MSTORE REVERT JUMPDEST DUP4 SWAP1 DUP6 CALLVALUE PUSH2 0x423 JUMPI PUSH1 0x20 PUSH2 0x129C DUP5 PUSH2 0x12A2 DUP6 PUSH2 0x1287 CALLDATASIZE PUSH2 0x138E JUMP JUMPDEST CALLER ISZERO SWAP7 SWAP3 SWAP4 DUP5 DUP9 PUSH2 0x12EB JUMPI JUMPDEST POP POP CALLDATASIZE SWAP2 PUSH2 0x14A6 JUMP JUMPDEST SWAP1 PUSH2 0x1A76 JUMP JUMPDEST SWAP2 PUSH2 0x12AF JUMPI MLOAD SWAP1 ISZERO ISZERO DUP2 MSTORE RETURN JUMPDEST PUSH2 0x62E DUP3 DUP3 MLOAD PUSH2 0x12BE DUP2 PUSH2 0x144C JUMP JUMPDEST DUP6 DUP2 MSTORE PUSH32 0x42757958546F6B656E733A20566572696669636174696F6E20726573756C743A DUP7 DUP3 ADD MSTORE PUSH2 0x25E8 JUMP JUMPDEST DUP2 PUSH2 0x12F8 PUSH2 0x133E SWAP4 PUSH2 0x141A JUMP JUMPDEST PUSH1 0x30 DUP2 MSTORE PUSH32 0x42757958546F6B656E733A20566572696679696E6720656C69676962696C6974 DUP12 DUP3 ADD MSTORE PUSH16 0x3C90383937B7B3103337B9103AB9B2B9 PUSH1 0x81 SHL DUP10 DUP3 ADD MSTORE PUSH2 0x262F JUMP JUMPDEST DUP9 DUP5 PUSH2 0x1293 JUMP JUMPDEST PUSH1 0x4 CALLDATALOAD SWAP1 PUSH1 0x1 PUSH1 0x1 PUSH1 0xA0 SHL SUB DUP3 AND DUP3 SUB PUSH2 0x135B JUMPI JUMP JUMPDEST PUSH1 0x0 DUP1 REVERT JUMPDEST SWAP2 DUP2 PUSH1 0x1F DUP5 ADD SLT ISZERO PUSH2 0x135B JUMPI DUP3 CALLDATALOAD SWAP2 PUSH8 0xFFFFFFFFFFFFFFFF DUP4 GT PUSH2 0x135B JUMPI PUSH1 0x20 DUP4 DUP2 DUP7 ADD SWAP6 ADD ADD GT PUSH2 0x135B JUMPI JUMP JUMPDEST SWAP1 PUSH1 0x40 PUSH1 0x3 NOT DUP4 ADD SLT PUSH2 0x135B JUMPI PUSH1 0x4 CALLDATALOAD PUSH1 0x1 PUSH1 0x1 PUSH1 0xA0 SHL SUB DUP2 AND DUP2 SUB PUSH2 0x135B JUMPI SWAP2 PUSH1 0x24 CALLDATALOAD SWAP1 PUSH8 0xFFFFFFFFFFFFFFFF DUP3 GT PUSH2 0x135B JUMPI PUSH2 0x13CE SWAP2 PUSH1 0x4 ADD PUSH2 0x1360 JUMP JUMPDEST SWAP1 SWAP2 JUMP JUMPDEST PUSH1 0x0 JUMPDEST DUP4 DUP2 LT PUSH2 0x13E5 JUMPI POP POP PUSH1 0x0 SWAP2 ADD MSTORE JUMP JUMPDEST DUP2 DUP2 ADD MLOAD DUP4 DUP3 ADD MSTORE PUSH1 0x20 ADD PUSH2 0x13D5 JUMP JUMPDEST SWAP1 PUSH1 0x20 SWAP2 PUSH2 0x140E DUP2 MLOAD DUP1 SWAP3 DUP2 DUP6 MSTORE DUP6 DUP1 DUP7 ADD SWAP2 ADD PUSH2 0x13D2 JUMP JUMPDEST PUSH1 0x1F ADD PUSH1 0x1F NOT AND ADD ADD SWAP1 JUMP JUMPDEST PUSH1 0x60 DUP2 ADD SWAP1 DUP2 LT PUSH8 0xFFFFFFFFFFFFFFFF DUP3 GT OR PUSH2 0x1436 JUMPI PUSH1 0x40 MSTORE JUMP JUMPDEST PUSH4 0x4E487B71 PUSH1 0xE0 SHL PUSH1 0x0 MSTORE PUSH1 0x41 PUSH1 0x4 MSTORE PUSH1 0x24 PUSH1 0x0 REVERT JUMPDEST PUSH1 0x40 DUP2 ADD SWAP1 DUP2 LT PUSH8 0xFFFFFFFFFFFFFFFF DUP3 GT OR PUSH2 0x1436 JUMPI PUSH1 0x40 MSTORE JUMP JUMPDEST SWAP1 PUSH1 0x1F DUP1 NOT SWAP2 ADD AND DUP2 ADD SWAP1 DUP2 LT PUSH8 0xFFFFFFFFFFFFFFFF DUP3 GT OR PUSH2 0x1436 JUMPI PUSH1 0x40 MSTORE JUMP JUMPDEST PUSH8 0xFFFFFFFFFFFFFFFF DUP2 GT PUSH2 0x1436 JUMPI PUSH1 0x1F ADD PUSH1 0x1F NOT AND PUSH1 0x20 ADD SWAP1 JUMP JUMPDEST SWAP3 SWAP2 SWAP3 PUSH2 0x14B2 DUP3 PUSH2 0x148A JUMP JUMPDEST SWAP2 PUSH2 0x14C0 PUSH1 0x40 MLOAD SWAP4 DUP5 PUSH2 0x1468 JUMP JUMPDEST DUP3 SWAP5 DUP2 DUP5 MSTORE DUP2 DUP4 ADD GT PUSH2 0x135B JUMPI DUP3 DUP2 PUSH1 0x20 SWAP4 DUP5 PUSH1 0x0 SWAP7 ADD CALLDATACOPY ADD ADD MSTORE JUMP JUMPDEST SWAP1 DUP1 PUSH1 0x1F DUP4 ADD SLT ISZERO PUSH2 0x135B JUMPI DUP2 PUSH1 0x20 PUSH2 0x14F8 SWAP4 CALLDATALOAD SWAP2 ADD PUSH2 0x14A6 JUMP JUMPDEST SWAP1 JUMP JUMPDEST PUSH1 0x0 SLOAD PUSH1 0x1 PUSH1 0x1 PUSH1 0xA0 SHL SUB AND CALLER SUB PUSH2 0x150F JUMPI JUMP JUMPDEST PUSH1 0x64 PUSH1 0x40 MLOAD PUSH3 0x461BCD PUSH1 0xE5 SHL DUP2 MSTORE PUSH1 0x20 PUSH1 0x4 DUP3 ADD MSTORE PUSH1 0x20 PUSH1 0x24 DUP3 ADD MSTORE PUSH32 0x4F776E61626C653A2063616C6C6572206973206E6F7420746865206F776E6572 PUSH1 0x44 DUP3 ADD MSTORE REVERT JUMPDEST PUSH1 0x0 DUP1 SLOAD PUSH1 0x1 PUSH1 0x1 PUSH1 0xA0 SHL SUB SWAP3 DUP4 AND PUSH1 0x1 PUSH1 0x1 PUSH1 0xA0 SHL SUB NOT DUP3 AND DUP2 OR DUP4 SSTORE SWAP3 AND SWAP1 PUSH32 0x8BE0079C531659141344CD1FD0A4F28419497F9722A3DAAFE3B4186F6B6457E0 SWAP1 DUP1 LOG3 JUMP JUMPDEST PUSH1 0x40 MLOAD SWAP1 PUSH2 0x15A7 DUP3 PUSH2 0x141A JUMP JUMPDEST PUSH1 0x35 DUP3 MSTORE PUSH21 0x161034B734BA34B0B634BD32B21039BA30BA3AB99D PUSH1 0x59 SHL PUSH1 0x40 DUP4 PUSH32 0x4261736541637469766974793A20496E697469616C697A65722063616C6C6564 PUSH1 0x20 DUP3 ADD MSTORE ADD MSTORE JUMP JUMPDEST ISZERO PUSH2 0x15F8 JUMPI JUMP JUMPDEST PUSH1 0x40 MLOAD PUSH3 0x461BCD PUSH1 0xE5 SHL DUP2 MSTORE PUSH1 0x20 PUSH1 0x4 DUP3 ADD MSTORE PUSH1 0x13 PUSH1 0x24 DUP3 ADD MSTORE PUSH19 0x105B1C9958591E481A5B9A5D1A585B1A5E9959 PUSH1 0x6A SHL PUSH1 0x44 DUP3 ADD MSTORE PUSH1 0x64 SWAP1 REVERT JUMPDEST PUSH1 0x40 MLOAD SWAP1 PUSH2 0x1640 DUP3 PUSH2 0x141A JUMP JUMPDEST PUSH1 0x22 DUP3 MSTORE PUSH2 0x1959 PUSH1 0xF2 SHL PUSH1 0x40 DUP4 PUSH32 0x4261736541637469766974793A20436F6E747261637420696E697469616C697A PUSH1 0x20 DUP3 ADD MSTORE ADD MSTORE JUMP JUMPDEST PUSH1 0x40 MLOAD SWAP1 PUSH2 0x1684 DUP3 PUSH2 0x144C JUMP JUMPDEST PUSH1 0x2 DUP3 MSTORE PUSH2 0x746F PUSH1 0xF0 SHL PUSH1 0x20 DUP4 ADD MSTORE JUMP JUMPDEST PUSH1 0x40 SWAP1 DUP2 MLOAD SWAP1 PUSH2 0x16A4 DUP3 PUSH2 0x144C JUMP JUMPDEST PUSH1 0x18 DUP3 MSTORE PUSH2 0x16D8 PUSH1 0x20 SWAP3 PUSH32 0x42757958546F6B656E733A20496E697469616C697A696E670000000000000000 DUP5 DUP3 ADD MSTORE PUSH2 0x2554 JUMP JUMPDEST PUSH1 0xA0 DUP2 DUP1 MLOAD DUP2 ADD SUB SLT PUSH2 0x135B JUMPI DUP1 DUP3 ADD MLOAD PUSH1 0x1 PUSH1 0x1 PUSH1 0xA0 SHL SUB DUP2 AND SWAP4 SWAP1 DUP5 SWAP1 SUB PUSH2 0x135B JUMPI PUSH2 0x18D5 SWAP4 DUP3 DUP3 PUSH3 0x657465 PUSH1 0xE8 SHL SWAP5 ADD MLOAD PUSH1 0x60 DUP3 ADD MLOAD SWAP1 PUSH1 0xA0 PUSH1 0x80 DUP5 ADD MLOAD SWAP4 ADD MLOAD SWAP4 PUSH2 0x1768 DUP2 DUP8 MLOAD PUSH2 0x172C DUP2 PUSH2 0x141A JUMP JUMPDEST PUSH1 0x26 DUP2 MSTORE PUSH32 0x42757958546F6B656E733A204465636F64656420636F6E666967207769746820 DUP12 DUP3 ADD MSTORE PUSH6 0x3A37B5B2B71D PUSH1 0xD1 SHL DUP10 DUP3 ADD MSTORE PUSH2 0x262F JUMP JUMPDEST PUSH2 0x17A5 DUP3 DUP8 MLOAD PUSH2 0x1777 DUP2 PUSH2 0x144C JUMP JUMPDEST PUSH1 0x1C DUP2 MSTORE PUSH32 0x42757958546F6B656E733A20526571756972656420616D6F756E743A00000000 DUP12 DUP3 ADD MSTORE PUSH2 0x25A3 JUMP JUMPDEST PUSH2 0x17E2 DUP4 DUP8 MLOAD PUSH2 0x17B4 DUP2 PUSH2 0x144C JUMP JUMPDEST PUSH1 0x17 DUP2 MSTORE PUSH32 0x42757958546F6B656E733A20537461727420646174653A000000000000000000 DUP12 DUP3 ADD MSTORE PUSH2 0x25A3 JUMP JUMPDEST PUSH2 0x1817 DUP5 DUP8 MLOAD PUSH2 0x17F1 DUP2 PUSH2 0x144C JUMP JUMPDEST PUSH1 0x15 DUP2 MSTORE PUSH21 0x213ABCAC2A37B5B2B7399D1022B732103230BA329D PUSH1 0x59 SHL DUP12 DUP3 ADD MSTORE PUSH2 0x25A3 JUMP JUMPDEST PUSH2 0x1860 DUP6 DUP8 MLOAD PUSH2 0x1826 DUP2 PUSH2 0x141A JUMP JUMPDEST PUSH1 0x24 DUP2 MSTORE PUSH32 0x42757958546F6B656E733A204D696E696D756D20707572636861736520616D6F DUP12 DUP3 ADD MSTORE PUSH4 0x3AB73A1D PUSH1 0xE1 SHL DUP10 DUP3 ADD MSTORE PUSH2 0x25A3 JUMP JUMPDEST PUSH1 0x1 PUSH1 0x1 PUSH1 0x60 SHL SUB PUSH1 0xA0 SHL DUP2 DUP2 PUSH1 0x9 SLOAD AND OR PUSH1 0x9 SSTORE DUP3 PUSH1 0xA SSTORE DUP4 PUSH1 0xB SSTORE DUP5 PUSH1 0xC SSTORE DUP6 PUSH1 0xD SSTORE PUSH1 0x4 SLOAD AND OR PUSH1 0x4 SSTORE PUSH1 0x5 SSTORE PUSH1 0x6 SSTORE PUSH1 0x7 SSTORE PUSH1 0x8 SSTORE PUSH32 0x42757958546F6B656E733A20496E697469616C697A6174696F6E20636F6D706C DUP2 MLOAD SWAP4 PUSH2 0x18C6 DUP6 PUSH2 0x141A JUMP JUMPDEST PUSH1 0x23 DUP6 MSTORE DUP5 ADD MSTORE DUP3 ADD MSTORE PUSH2 0x2554 JUMP JUMPDEST JUMP JUMPDEST PUSH1 0x40 MLOAD SWAP1 PUSH2 0x18E4 DUP3 PUSH2 0x144C JUMP JUMPDEST PUSH1 0xC DUP3 MSTORE PUSH12 0x4255595F585F544F4B454E53 PUSH1 0xA0 SHL PUSH1 0x20 DUP4 ADD MSTORE JUMP JUMPDEST PUSH1 0xA0 SWAP1 MLOAD LT PUSH2 0x190D JUMPI PUSH1 0x1 SWAP1 JUMP JUMPDEST PUSH1 0x0 SWAP1 JUMP JUMPDEST PUSH1 0x40 MLOAD SWAP1 PUSH2 0x191F DUP3 PUSH2 0x141A JUMP JUMPDEST PUSH1 0x27 DUP3 MSTORE PUSH7 0x37B9103AB9B2B9 PUSH1 0xC9 SHL PUSH1 0x40 DUP4 PUSH32 0x42757958546F6B656E733A20566572696679696E672070757263686173652066 PUSH1 0x20 DUP3 ADD MSTORE ADD MSTORE JUMP JUMPDEST PUSH8 0xFFFFFFFFFFFFFFFF DUP2 GT PUSH2 0x1436 JUMPI PUSH1 0x5 SHL PUSH1 0x20 ADD SWAP1 JUMP JUMPDEST DUP1 MLOAD ISZERO PUSH2 0x1980 JUMPI PUSH1 0x20 ADD SWAP1 JUMP JUMPDEST PUSH4 0x4E487B71 PUSH1 0xE0 SHL PUSH1 0x0 MSTORE PUSH1 0x32 PUSH1 0x4 MSTORE PUSH1 0x24 PUSH1 0x0 REVERT JUMPDEST DUP1 MLOAD DUP3 LT ISZERO PUSH2 0x1980 JUMPI PUSH1 0x20 SWAP2 PUSH1 0x5 SHL ADD ADD SWAP1 JUMP JUMPDEST PUSH1 0x40 MLOAD PUSH2 0x19B6 DUP2 PUSH2 0x144C JUMP JUMPDEST PUSH1 0x1 DUP2 MSTORE DUP1 PUSH1 0x0 JUMPDEST PUSH1 0x20 DUP1 DUP3 LT ISZERO PUSH2 0x19D9 JUMPI SWAP1 PUSH1 0x60 PUSH1 0x20 SWAP3 DUP3 DUP6 ADD ADD MSTORE ADD PUSH2 0x19BE JUMP JUMPDEST POP POP POP SWAP1 JUMP JUMPDEST ISZERO PUSH2 0x19E6 JUMPI JUMP JUMPDEST PUSH1 0x40 MLOAD PUSH3 0x461BCD PUSH1 0xE5 SHL DUP2 MSTORE PUSH1 0x20 PUSH1 0x4 DUP3 ADD MSTORE PUSH1 0x15 PUSH1 0x24 DUP3 ADD MSTORE PUSH21 0x82E4E4C2F240D8CADCCEE8D040DAD2E6DAC2E8C6D PUSH1 0x5B SHL PUSH1 0x44 DUP3 ADD MSTORE PUSH1 0x64 SWAP1 REVERT JUMPDEST PUSH1 0x40 MLOAD SWAP1 PUSH2 0x1A30 DUP3 PUSH2 0x144C JUMP JUMPDEST PUSH1 0x5 DUP3 MSTORE PUSH5 0x7573657273 PUSH1 0xD8 SHL PUSH1 0x20 DUP4 ADD MSTORE JUMP JUMPDEST PUSH1 0x0 NOT DUP2 EQ PUSH2 0x1A53 JUMPI PUSH1 0x1 ADD SWAP1 JUMP JUMPDEST PUSH4 0x4E487B71 PUSH1 0xE0 SHL PUSH1 0x0 MSTORE PUSH1 0x11 PUSH1 0x4 MSTORE PUSH1 0x24 PUSH1 0x0 REVERT JUMPDEST SWAP2 SWAP1 DUP3 ADD DUP1 SWAP3 GT PUSH2 0x1A53 JUMPI JUMP JUMPDEST SWAP1 CALLER ISZERO DUP1 PUSH2 0x1E4C JUMPI JUMPDEST PUSH1 0x1 SLOAD PUSH1 0x1 PUSH1 0x1 PUSH1 0xA0 SHL SUB SWAP1 DUP2 AND SWAP1 DUP2 ISZERO PUSH2 0x1DEA JUMPI DUP4 MLOAD DUP5 ADD PUSH1 0x20 SWAP6 DUP6 DUP8 DUP4 ADD SWAP3 PUSH1 0x40 SWAP8 DUP9 SWAP2 SUB SLT PUSH2 0x135B JUMPI DUP8 DUP2 ADD MLOAD PUSH8 0xFFFFFFFFFFFFFFFF DUP2 GT PUSH2 0x135B JUMPI DUP2 ADD SWAP1 DUP4 PUSH1 0x3F DUP4 ADD SLT ISZERO PUSH2 0x135B JUMPI DUP9 DUP3 ADD MLOAD SWAP1 PUSH2 0x1ADA DUP3 PUSH2 0x148A JUMP JUMPDEST SWAP5 PUSH2 0x1AE7 DUP11 MLOAD SWAP7 DUP8 PUSH2 0x1468 JUMP JUMPDEST DUP3 DUP7 MSTORE DUP10 DUP4 DUP6 ADD ADD GT PUSH2 0x135B JUMPI PUSH2 0x1B06 DUP10 SWAP3 DUP10 SWAP5 DUP5 DUP14 DUP10 ADD SWAP2 ADD PUSH2 0x13D2 JUMP JUMPDEST ADD MLOAD SWAP1 PUSH2 0x1D1F JUMPI JUMPDEST PUSH1 0x2 SLOAD DUP1 ISZERO ISZERO SWAP1 DUP2 PUSH2 0x1D0C JUMPI JUMPDEST POP PUSH2 0x1CB5 JUMPI PUSH2 0x1BCD SWAP3 DUP7 DUP1 SWAP4 DUP11 PUSH2 0x1B7A PUSH1 0x54 PUSH2 0x1BC5 SWAP7 DUP14 PUSH2 0x1B6A PUSH2 0x1B3D PUSH2 0x18D7 JUMP JUMPDEST SWAP2 MLOAD SWAP6 DUP7 SWAP4 DUP2 DUP6 ADD SWAP9 PUSH1 0x1 PUSH1 0x1 PUSH1 0x60 SHL SUB NOT SWAP1 PUSH1 0x60 SHL AND DUP10 MSTORE PUSH1 0x34 DUP6 ADD MSTORE DUP3 MLOAD SWAP3 DUP4 SWAP2 DUP7 DUP7 ADD SWAP2 ADD PUSH2 0x13D2 JUMP JUMPDEST DUP2 ADD SUB PUSH1 0x34 DUP2 ADD DUP5 MSTORE ADD DUP3 PUSH2 0x1468 JUMP JUMPDEST MLOAD SWAP1 KECCAK256 DUP10 MLOAD DUP12 DUP2 ADD SWAP2 PUSH32 0x19457468657265756D205369676E6564204D6573736167653A0A333200000000 DUP4 MSTORE PUSH1 0x3C DUP3 ADD MSTORE PUSH1 0x3C DUP2 MSTORE PUSH2 0x1BB8 DUP2 PUSH2 0x141A JUMP JUMPDEST MLOAD SWAP1 KECCAK256 SWAP1 PUSH2 0x1C75 JUMPI PUSH2 0x200D JUMP JUMPDEST SWAP3 SWAP1 SWAP3 PUSH2 0x1EF3 JUMP JUMPDEST PUSH2 0x1C33 JUMPI JUMPDEST AND EQ SWAP3 DUP4 SWAP2 PUSH2 0x1BE1 JUMPI POP POP POP SWAP1 JUMP JUMPDEST PUSH6 0x32B9BAB63A1D PUSH1 0xD1 SHL DUP4 PUSH32 0x42757958546F6B656E733A2050726F6F6620766572696669636174696F6E2072 PUSH2 0x1C2B SWAP6 MLOAD SWAP4 PUSH2 0x1C1C DUP6 PUSH2 0x141A JUMP JUMPDEST PUSH1 0x26 DUP6 MSTORE DUP5 ADD MSTORE DUP3 ADD MSTORE PUSH2 0x25E8 JUMP JUMPDEST CODESIZE DUP2 DUP2 PUSH2 0x19D9 JUMP JUMPDEST PUSH2 0x1C70 DUP2 DUP7 MLOAD PUSH2 0x1C42 DUP2 PUSH2 0x144C JUMP JUMPDEST PUSH1 0x1D DUP2 MSTORE PUSH32 0x42757958546F6B656E733A205265636F7665726564207369676E65723A000000 DUP10 DUP3 ADD MSTORE PUSH2 0x262F JUMP JUMPDEST PUSH2 0x1BD2 JUMP JUMPDEST PUSH2 0x1CB0 DUP10 MLOAD PUSH2 0x1C83 DUP2 PUSH2 0x144C JUMP JUMPDEST DUP12 DUP2 MSTORE PUSH32 0x42757958546F6B656E733A204D65737361676520686173682063726561746564 DUP13 DUP3 ADD MSTORE PUSH2 0x2554 JUMP JUMPDEST PUSH2 0x200D JUMP JUMPDEST POP POP POP POP POP SWAP2 SWAP1 SWAP2 PUSH2 0x1CC9 JUMPI JUMPDEST POP POP PUSH1 0x0 SWAP1 JUMP JUMPDEST PUSH32 0x42757958546F6B656E733A2050726F6F66206861732065787069726564000000 PUSH2 0x1D05 SWAP3 MLOAD SWAP2 PUSH2 0x1CF9 DUP4 PUSH2 0x144C JUMP JUMPDEST PUSH1 0x1D DUP4 MSTORE DUP3 ADD MSTORE PUSH2 0x2554 JUMP JUMPDEST CODESIZE DUP1 PUSH2 0x1CC2 JUMP JUMPDEST PUSH2 0x1D17 SWAP2 POP DUP3 PUSH2 0x1A69 JUMP JUMPDEST TIMESTAMP GT CODESIZE PUSH2 0x1B1B JUMP JUMPDEST PUSH2 0x1D5C DUP2 DUP9 MLOAD PUSH2 0x1D2E DUP2 PUSH2 0x144C JUMP JUMPDEST PUSH1 0x1C DUP2 MSTORE PUSH32 0x42757958546F6B656E733A2050726F6F662074696D657374616D703A00000000 DUP12 DUP3 ADD MSTORE PUSH2 0x25A3 JUMP JUMPDEST PUSH2 0x1D9A DUP8 MLOAD PUSH2 0x1D6A DUP2 PUSH2 0x144C JUMP JUMPDEST PUSH1 0x1E DUP2 MSTORE PUSH32 0x42757958546F6B656E733A2043757272656E742074696D657374616D703A0000 DUP11 DUP3 ADD MSTORE TIMESTAMP SWAP1 PUSH2 0x25A3 JUMP JUMPDEST PUSH2 0x1DE5 PUSH1 0x2 SLOAD DUP9 MLOAD PUSH2 0x1DAB DUP2 PUSH2 0x141A JUMP JUMPDEST PUSH1 0x24 DUP2 MSTORE PUSH32 0x42757958546F6B656E733A2050726F6F662076616C6964697479206475726174 DUP12 DUP3 ADD MSTORE PUSH4 0x34B7B71D PUSH1 0xE1 SHL DUP11 DUP3 ADD MSTORE PUSH2 0x25A3 JUMP JUMPDEST PUSH2 0x1B0E JUMP JUMPDEST POP POP SWAP2 POP POP PUSH2 0x1DF8 JUMPI PUSH1 0x0 SWAP1 JUMP JUMPDEST PUSH2 0x190D PUSH1 0x40 MLOAD PUSH2 0x1E07 DUP2 PUSH2 0x141A JUMP JUMPDEST PUSH1 0x2D DUP2 MSTORE PUSH32 0x42757958546F6B656E733A204E6F207369676E696E67206B6579207365742C20 PUSH1 0x20 DUP3 ADD MSTORE PUSH13 0x1C1C9BDBD9881A5B9D985B1A59 PUSH1 0x9A SHL PUSH1 0x40 DUP3 ADD MSTORE PUSH2 0x2554 JUMP JUMPDEST PUSH2 0x1E98 DUP4 PUSH1 0x40 MLOAD PUSH2 0x1E5C DUP2 PUSH2 0x141A JUMP JUMPDEST PUSH1 0x24 DUP2 MSTORE PUSH32 0x42757958546F6B656E733A20566572696679696E672070726F6F6620666F7220 PUSH1 0x20 DUP3 ADD MSTORE PUSH4 0x3AB9B2B9 PUSH1 0xE1 SHL PUSH1 0x40 DUP3 ADD MSTORE PUSH2 0x262F JUMP JUMPDEST PUSH1 0x1 SLOAD PUSH1 0x40 MLOAD PUSH2 0x1EEE SWAP2 PUSH1 0x1 PUSH1 0x1 PUSH1 0xA0 SHL SUB AND SWAP1 PUSH2 0x1EB5 DUP2 PUSH2 0x141A JUMP JUMPDEST PUSH1 0x21 DUP2 MSTORE PUSH32 0x42757958546F6B656E733A205369676E696E67206B6579206973207365742074 PUSH1 0x20 DUP3 ADD MSTORE PUSH1 0x6F PUSH1 0xF8 SHL PUSH1 0x40 DUP3 ADD MSTORE PUSH2 0x262F JUMP JUMPDEST PUSH2 0x1A7F JUMP JUMPDEST PUSH1 0x5 DUP2 LT ISZERO PUSH2 0x1FF7 JUMPI DUP1 PUSH2 0x1F04 JUMPI POP JUMP JUMPDEST PUSH1 0x1 DUP2 SUB PUSH2 0x1F51 JUMPI PUSH1 0x40 MLOAD PUSH3 0x461BCD PUSH1 0xE5 SHL DUP2 MSTORE PUSH1 0x20 PUSH1 0x4 DUP3 ADD MSTORE PUSH1 0x18 PUSH1 0x24 DUP3 ADD MSTORE PUSH32 0x45434453413A20696E76616C6964207369676E61747572650000000000000000 PUSH1 0x44 DUP3 ADD MSTORE PUSH1 0x64 SWAP1 REVERT JUMPDEST PUSH1 0x2 DUP2 SUB PUSH2 0x1F9E JUMPI PUSH1 0x40 MLOAD PUSH3 0x461BCD PUSH1 0xE5 SHL DUP2 MSTORE PUSH1 0x20 PUSH1 0x4 DUP3 ADD MSTORE PUSH1 0x1F PUSH1 0x24 DUP3 ADD MSTORE PUSH32 0x45434453413A20696E76616C6964207369676E6174757265206C656E67746800 PUSH1 0x44 DUP3 ADD MSTORE PUSH1 0x64 SWAP1 REVERT JUMPDEST PUSH1 0x3 EQ PUSH2 0x1FA7 JUMPI JUMP JUMPDEST PUSH1 0x40 MLOAD PUSH3 0x461BCD PUSH1 0xE5 SHL DUP2 MSTORE PUSH1 0x20 PUSH1 0x4 DUP3 ADD MSTORE PUSH1 0x22 PUSH1 0x24 DUP3 ADD MSTORE PUSH32 0x45434453413A20696E76616C6964207369676E6174757265202773272076616C PUSH1 0x44 DUP3 ADD MSTORE PUSH2 0x7565 PUSH1 0xF0 SHL PUSH1 0x64 DUP3 ADD MSTORE PUSH1 0x84 SWAP1 REVERT JUMPDEST PUSH4 0x4E487B71 PUSH1 0xE0 SHL PUSH1 0x0 MSTORE PUSH1 0x21 PUSH1 0x4 MSTORE PUSH1 0x24 PUSH1 0x0 REVERT JUMPDEST SWAP1 PUSH1 0x41 DUP2 MLOAD EQ PUSH1 0x0 EQ PUSH2 0x2037 JUMPI PUSH2 0x13CE SWAP2 PUSH1 0x20 DUP3 ADD MLOAD SWAP1 PUSH1 0x60 PUSH1 0x40 DUP5 ADD MLOAD SWAP4 ADD MLOAD PUSH1 0x0 BYTE SWAP1 PUSH2 0x2041 JUMP JUMPDEST POP POP PUSH1 0x0 SWAP1 PUSH1 0x2 SWAP1 JUMP JUMPDEST SWAP3 SWAP2 SWAP1 PUSH32 0x7FFFFFFFFFFFFFFFFFFFFFFFFFFFFFFF5D576E7357A4501DDFE92F46681B20A0 DUP4 GT PUSH2 0x20C4 JUMPI SWAP2 PUSH1 0x80 SWAP5 SWAP4 SWAP2 PUSH1 0xFF PUSH1 0x20 SWAP5 PUSH1 0x40 MLOAD SWAP5 DUP6 MSTORE AND DUP5 DUP5 ADD MSTORE PUSH1 0x40 DUP4 ADD MSTORE PUSH1 0x60 DUP3 ADD MSTORE PUSH1 0x0 SWAP4 DUP5 SWAP2 DUP3 DUP1 MSTORE PUSH1 0x1 GAS STATICCALL ISZERO PUSH2 0x20B7 JUMPI DUP2 MLOAD PUSH1 0x1 PUSH1 0x1 PUSH1 0xA0 SHL SUB DUP2 AND ISZERO PUSH2 0x20B1 JUMPI SWAP2 SWAP1 JUMP JUMPDEST POP PUSH1 0x1 SWAP1 JUMP JUMPDEST POP PUSH1 0x40 MLOAD SWAP1 RETURNDATASIZE SWAP1 DUP3 RETURNDATACOPY RETURNDATASIZE SWAP1 REVERT JUMPDEST POP POP POP POP PUSH1 0x0 SWAP1 PUSH1 0x3 SWAP1 JUMP JUMPDEST PUSH1 0x40 MLOAD SWAP1 PUSH2 0x20DD DUP3 PUSH2 0x141A JUMP JUMPDEST PUSH1 0x29 DUP3 MSTORE PUSH9 0x103337B9103AB9B2B9 PUSH1 0xB9 SHL PUSH1 0x40 DUP4 PUSH32 0x42757958546F6B656E733A20436865636B696E6720656C69676962696C697479 PUSH1 0x20 DUP3 ADD MSTORE ADD MSTORE JUMP JUMPDEST PUSH1 0x40 MLOAD SWAP1 PUSH2 0x2128 DUP3 PUSH2 0x144C JUMP JUMPDEST PUSH1 0x1 DUP3 MSTORE PUSH1 0x1D PUSH1 0xF9 SHL PUSH1 0x20 DUP4 ADD MSTORE JUMP JUMPDEST SWAP1 CALLER ISZERO SWAP2 DUP3 PUSH2 0x2491 JUMPI JUMPDEST PUSH1 0x40 SWAP1 DUP2 MLOAD SWAP2 PUSH2 0x2151 DUP4 PUSH2 0x144C JUMP JUMPDEST PUSH1 0x1 SWAP5 DUP6 DUP5 MSTORE PUSH1 0x20 SWAP1 DUP2 CALLDATASIZE DUP2 DUP8 ADD CALLDATACOPY DUP7 PUSH2 0x216A DUP7 PUSH2 0x1973 JUMP JUMPDEST PUSH1 0x1 PUSH1 0x1 PUSH1 0xA0 SHL SUB DUP7 DUP2 AND SWAP1 SWAP2 MSTORE DUP7 MLOAD SWAP7 PUSH2 0x2184 DUP9 PUSH2 0x195B JUMP JUMPDEST SWAP8 PUSH2 0x2191 DUP8 MLOAD SWAP10 DUP11 PUSH2 0x1468 JUMP JUMPDEST DUP1 DUP10 MSTORE PUSH2 0x21A0 PUSH1 0x1F NOT SWAP2 PUSH2 0x195B JUMP JUMPDEST ADD CALLDATASIZE DUP7 DUP11 ADD CALLDATACOPY PUSH1 0x0 SWAP2 PUSH1 0xB SLOAD TIMESTAMP LT SWAP1 PUSH1 0xC SLOAD SWAP3 DUP4 ISZERO ISZERO SWAP5 PUSH1 0xA SLOAD SWAP14 JUMPDEST PUSH2 0x224A JUMPI JUMPDEST POP POP POP POP POP POP POP PUSH2 0x21DB SWAP6 SWAP7 POP PUSH2 0x21E1 JUMPI JUMPDEST POP POP POP PUSH2 0x1973 JUMP JUMPDEST MLOAD ISZERO ISZERO SWAP1 JUMP JUMPDEST PUSH2 0x2242 SWAP3 PUSH7 0x37B9103AB9B2B9 PUSH1 0xC9 SHL PUSH2 0x21F9 DUP7 PUSH2 0x1973 JUMP JUMPDEST MLOAD ISZERO ISZERO SWAP4 PUSH32 0x42757958546F6B656E733A20456C69676962696C69747920726573756C742066 DUP2 MLOAD SWAP5 PUSH2 0x222A DUP7 PUSH2 0x141A JUMP JUMPDEST PUSH1 0x27 DUP7 MSTORE DUP6 ADD MSTORE DUP4 ADD MSTORE PUSH2 0x223C PUSH2 0x211B JUMP JUMPDEST SWAP2 PUSH2 0x26B4 JUMP JUMPDEST CODESIZE DUP1 DUP1 PUSH2 0x21D3 JUMP JUMPDEST DUP2 MLOAD DUP2 LT ISZERO PUSH2 0x248C JUMPI DUP1 DUP13 DUP16 DUP12 DUP12 DUP5 DUP16 SWAP4 DUP3 SWAP1 DUP12 DUP12 PUSH2 0x226C PUSH2 0x22AC SWAP12 DUP14 PUSH2 0x1996 JUMP JUMPDEST MLOAD AND SWAP5 PUSH2 0x23F4 JUMPI JUMPDEST PUSH2 0x238B JUMPI DUP14 DUP1 PUSH2 0x2382 JUMPI JUMPDEST PUSH2 0x231D JUMPI DUP4 PUSH1 0x0 MSTORE PUSH1 0xE DUP6 MSTORE DUP6 PUSH1 0x0 KECCAK256 SLOAD LT ISZERO PUSH2 0x229C DUP4 DUP9 PUSH2 0x1996 JUMP JUMPDEST MSTORE PUSH2 0x22B2 JUMPI JUMPDEST POP POP POP POP POP PUSH2 0x1A44 JUMP JUMPDEST DUP7 PUSH2 0x21BC JUMP JUMPDEST PUSH2 0x22D0 PUSH13 0x39BAB63A103337B9103AB9B2B9 PUSH1 0x99 SHL SWAP2 PUSH2 0x2313 SWAP7 PUSH2 0x1996 JUMP JUMPDEST MLOAD ISZERO ISZERO SWAP4 PUSH32 0x42757958546F6B656E733A20456C69676962696C69747920636865636B207265 DUP2 MLOAD SWAP5 PUSH2 0x2301 DUP7 PUSH2 0x141A JUMP JUMPDEST PUSH1 0x2D DUP7 MSTORE DUP6 ADD MSTORE DUP4 ADD MSTORE PUSH2 0x223C PUSH2 0x211B JUMP JUMPDEST DUP13 DUP12 DUP12 CODESIZE DUP5 PUSH2 0x22A2 JUMP JUMPDEST POP PUSH1 0x0 SWAP6 SWAP3 POP SWAP3 PUSH2 0x2336 SWAP5 SWAP2 SWAP4 PUSH2 0x233C JUMPI JUMPDEST POP POP PUSH2 0x1996 JUMP JUMPDEST MSTORE PUSH2 0x1A44 JUMP JUMPDEST PUSH10 0x7220656E642064617465 PUSH1 0xB0 SHL DUP3 PUSH32 0x42757958546F6B656E733A2043757272656E742074696D652069732061667465 PUSH2 0x237B SWAP5 MLOAD SWAP4 PUSH2 0xB40 DUP6 PUSH2 0x141A JUMP JUMPDEST DUP15 DUP15 PUSH2 0x232F JUMP JUMPDEST POP DUP13 TIMESTAMP GT PUSH2 0x227F JUMP JUMPDEST POP PUSH1 0x0 SWAP6 SWAP3 POP SWAP3 PUSH2 0x2336 SWAP5 SWAP2 SWAP4 PUSH2 0x23A3 JUMPI POP POP PUSH2 0x1996 JUMP JUMPDEST PUSH13 0x72652073746172742064617465 PUSH1 0x98 SHL DUP3 PUSH32 0x42757958546F6B656E733A2043757272656E742074696D65206973206265666F PUSH2 0x237B SWAP5 MLOAD SWAP4 PUSH2 0x23E5 DUP6 PUSH2 0x141A JUMP JUMPDEST PUSH1 0x2D DUP6 MSTORE DUP5 ADD MSTORE DUP3 ADD MSTORE PUSH2 0x2554 JUMP JUMPDEST POP PUSH2 0x2401 DUP5 PUSH2 0x9B2 PUSH2 0x20D0 JUMP JUMPDEST DUP4 PUSH1 0x0 MSTORE PUSH1 0xE DUP6 MSTORE PUSH2 0x2449 DUP7 PUSH1 0x0 KECCAK256 SLOAD DUP8 MLOAD PUSH2 0x241C DUP2 PUSH2 0x144C JUMP JUMPDEST DUP8 DUP2 MSTORE PUSH32 0x42757958546F6B656E733A205573657220707572636861736520616D6F756E74 DUP9 DUP3 ADD MSTORE PUSH2 0x25A3 JUMP JUMPDEST DUP12 PUSH2 0x2487 DUP3 DUP9 MLOAD PUSH2 0x2459 DUP2 PUSH2 0x144C JUMP JUMPDEST PUSH1 0x1B DUP2 MSTORE PUSH32 0x42757958546F6B656E733A20526571756972656420616D6F756E740000000000 DUP10 DUP3 ADD MSTORE PUSH2 0x25A3 JUMP JUMPDEST PUSH2 0x2274 JUMP JUMPDEST PUSH2 0x21C1 JUMP JUMPDEST PUSH2 0x249D DUP2 PUSH2 0x9B2 PUSH2 0x20D0 JUMP JUMPDEST PUSH2 0x24DD PUSH1 0x40 MLOAD PUSH2 0x24AC DUP2 PUSH2 0x144C JUMP JUMPDEST PUSH1 0x18 DUP2 MSTORE PUSH32 0x42757958546F6B656E733A2043757272656E742074696D650000000000000000 PUSH1 0x20 DUP3 ADD MSTORE TIMESTAMP SWAP1 PUSH2 0x25A3 JUMP JUMPDEST PUSH2 0x2517 PUSH1 0xB SLOAD PUSH1 0x40 MLOAD PUSH2 0x24EF DUP2 PUSH2 0x144C JUMP JUMPDEST PUSH1 0x16 DUP2 MSTORE PUSH22 0x42757958546F6B656E733A2053746172742064617465 PUSH1 0x50 SHL PUSH1 0x20 DUP3 ADD MSTORE PUSH2 0x25A3 JUMP JUMPDEST PUSH2 0x254F PUSH1 0xC SLOAD PUSH1 0x40 MLOAD PUSH2 0x2529 DUP2 PUSH2 0x144C JUMP JUMPDEST PUSH1 0x14 DUP2 MSTORE PUSH20 0x42757958546F6B656E733A20456E642064617465 PUSH1 0x60 SHL PUSH1 0x20 DUP3 ADD MSTORE PUSH2 0x25A3 JUMP JUMPDEST PUSH2 0x2142 JUMP JUMPDEST PUSH1 0x0 DUP1 SWAP2 PUSH1 0x40 MLOAD PUSH2 0x2590 DUP2 PUSH2 0x2582 PUSH1 0x20 DUP3 ADD SWAP5 PUSH4 0x104C13EB PUSH1 0xE2 SHL DUP7 MSTORE PUSH1 0x20 PUSH1 0x24 DUP5 ADD MSTORE PUSH1 0x44 DUP4 ADD SWAP1 PUSH2 0x13F5 JUMP JUMPDEST SUB PUSH1 0x1F NOT DUP2 ADD DUP4 MSTORE DUP3 PUSH2 0x1468 JUMP JUMPDEST MLOAD SWAP1 PUSH11 0x636F6E736F6C652E6C6F67 GAS STATICCALL POP JUMP JUMPDEST PUSH1 0x0 SWAP2 SWAP1 DUP3 SWAP2 PUSH2 0x2590 PUSH1 0x40 MLOAD DUP1 SWAP3 PUSH2 0x25D4 PUSH1 0x20 DUP4 ADD SWAP6 PUSH4 0x2D839CB3 PUSH1 0xE2 SHL DUP8 MSTORE PUSH1 0x40 PUSH1 0x24 DUP6 ADD MSTORE PUSH1 0x64 DUP5 ADD SWAP1 PUSH2 0x13F5 JUMP JUMPDEST SWAP1 PUSH1 0x44 DUP4 ADD MSTORE SUB PUSH1 0x1F NOT DUP2 ADD DUP4 MSTORE DUP3 PUSH2 0x1468 JUMP JUMPDEST PUSH1 0x0 SWAP2 SWAP1 DUP3 SWAP2 PUSH2 0x2590 PUSH1 0x40 MLOAD DUP1 SWAP3 PUSH2 0x2619 PUSH1 0x20 DUP4 ADD SWAP6 PUSH4 0xC3B55635 PUSH1 0xE0 SHL DUP8 MSTORE PUSH1 0x40 PUSH1 0x24 DUP6 ADD MSTORE PUSH1 0x64 DUP5 ADD SWAP1 PUSH2 0x13F5 JUMP JUMPDEST SWAP1 ISZERO ISZERO PUSH1 0x44 DUP4 ADD MSTORE SUB PUSH1 0x1F NOT DUP2 ADD DUP4 MSTORE DUP3 PUSH2 0x1468 JUMP JUMPDEST PUSH1 0x0 SWAP2 SWAP1 DUP3 SWAP2 PUSH2 0x2590 PUSH1 0x40 MLOAD DUP1 SWAP3 PUSH2 0x2660 PUSH1 0x20 DUP4 ADD SWAP6 PUSH4 0x319AF333 PUSH1 0xE0 SHL DUP8 MSTORE PUSH1 0x40 PUSH1 0x24 DUP6 ADD MSTORE PUSH1 0x64 DUP5 ADD SWAP1 PUSH2 0x13F5 JUMP JUMPDEST PUSH1 0x1 PUSH1 0x1 PUSH1 0xA0 SHL SUB SWAP2 SWAP1 SWAP2 AND PUSH1 0x44 DUP4 ADD MSTORE SUB PUSH1 0x1F NOT DUP2 ADD DUP4 MSTORE DUP3 PUSH2 0x1468 JUMP JUMPDEST PUSH1 0x0 SWAP3 SWAP2 PUSH2 0x2590 DUP5 SWAP4 PUSH2 0x2582 PUSH1 0x40 MLOAD SWAP4 DUP5 SWAP3 PUSH2 0x894 PUSH1 0x20 DUP6 ADD SWAP8 PUSH4 0x5970E089 PUSH1 0xE0 SHL DUP10 MSTORE PUSH1 0x60 PUSH1 0x24 DUP8 ADD MSTORE PUSH1 0x84 DUP7 ADD SWAP1 PUSH2 0x13F5 JUMP JUMPDEST SWAP1 PUSH2 0x2590 PUSH1 0x0 SWAP5 SWAP4 DUP6 SWAP5 PUSH2 0x270B PUSH1 0x40 MLOAD SWAP5 DUP6 SWAP4 PUSH2 0x26EA PUSH1 0x20 DUP7 ADD SWAP9 PUSH4 0x17C574A3 PUSH1 0xE2 SHL DUP11 MSTORE PUSH1 0x80 PUSH1 0x24 DUP9 ADD MSTORE PUSH1 0xA4 DUP8 ADD SWAP1 PUSH2 0x13F5 JUMP JUMPDEST PUSH1 0x1 PUSH1 0x1 PUSH1 0xA0 SHL SUB SWAP1 SWAP3 AND PUSH1 0x44 DUP7 ADD MSTORE DUP5 DUP3 SUB PUSH1 0x23 NOT ADD PUSH1 0x64 DUP7 ADD MSTORE PUSH2 0x13F5 JUMP JUMPDEST SWAP1 ISZERO ISZERO PUSH1 0x84 DUP4 ADD MSTORE SUB PUSH1 0x1F NOT DUP2 ADD DUP4 MSTORE DUP3 PUSH2 0x1468 JUMP INVALID LOG2 PUSH5 0x6970667358 0x22 SLT KECCAK256 0xD4 CALLER PUSH25 0xEE859A3B498F3867BFE5FF54C6E6CE1BB01FD344777052581F LOG1 0xCE 0xB4 0x5E PUSH5 0x736F6C6343 STOP ADDMOD EQ STOP CALLER "},"methodIdentifiers":{"checkEligibility(address)":"7723bafb","debugActivityState()":"77fa0ae3","debugState()":"4435e157","endDate()":"c24a0f8b","getActivityType()":"185cbe94","getConfig()":"c3f909d4","getUserPurchaseAmount(address)":"69b4a3d9","initialize(bytes)":"439fab91","initializeClone(bytes,address)":"e26d518a","isEligible(address)":"66e305fd","minPurchaseAmount()":"b47dbf22","owner()":"8da5cb5b","processEligibilityProof(address,bytes)":"0d36b304","proofValidityDuration()":"52520d08","purchaseAmount(address)":"6c5cde68","renounceOwnership()":"715018a6","requiredAmount()":"48b9ef40","setProofValidityDuration(uint256)":"3bd60ea7","setSigningKey(address)":"0ab4423e","signingKey()":"66f27fd3","startDate()":"0b97bc86","tokenAddress()":"9d76ea58","transferOwnership(address)":"f2fde38b","validateConfig(bytes)":"a913b881","verifyEligibilityProof(address,bytes)":"0624549b","verifyPurchase(address,uint256,bytes)":"0eeb4529"}}}}}