{"contracts/rewards/NFTAirdropReward.sol":{"NFTAirdropReward":{"abi":[{"anonymous":false,"inputs":[],"name":"AutomaticDistributionDisabled","type":"event"},{"anonymous":false,"inputs":[{"indexed":false,"internalType":"uint256","name":"distributionDate","type":"uint256"}],"name":"AutomaticDistributionEnabled","type":"event"},{"anonymous":false,"inputs":[{"indexed":true,"internalType":"address","name":"oldBroker","type":"address"},{"indexed":true,"internalType":"address","name":"newBroker","type":"address"}],"name":"BrokerWalletUpdated","type":"event"},{"anonymous":false,"inputs":[{"indexed":false,"internalType":"uint256","name":"startDate","type":"uint256"},{"indexed":false,"internalType":"uint256","name":"finishDate","type":"uint256"}],"name":"ClaimPeriodUpdated","type":"event"},{"anonymous":false,"inputs":[{"indexed":true,"internalType":"address","name":"user","type":"address"},{"indexed":false,"internalType":"uint256","name":"timestamp","type":"uint256"}],"name":"Claimed","type":"event"},{"anonymous":false,"inputs":[{"indexed":false,"internalType":"address","name":"controller","type":"address"}],"name":"ControllerUpdated","type":"event"},{"anonymous":false,"inputs":[{"indexed":true,"internalType":"address","name":"user","type":"address"},{"indexed":false,"internalType":"uint256","name":"tokenId","type":"uint256"}],"name":"EligibleUserClaimed","type":"event"},{"anonymous":false,"inputs":[{"indexed":true,"internalType":"address","name":"user","type":"address"},{"indexed":false,"internalType":"uint256","name":"tokenId","type":"uint256"},{"indexed":false,"internalType":"uint256","name":"timestamp","type":"uint256"}],"name":"NFTClaimed","type":"event"},{"anonymous":false,"inputs":[{"indexed":true,"internalType":"address","name":"previousOwner","type":"address"},{"indexed":true,"internalType":"address","name":"newOwner","type":"address"}],"name":"OwnershipTransferred","type":"event"},{"anonymous":false,"inputs":[{"indexed":false,"internalType":"bool","name":"active","type":"bool"}],"name":"StatusChanged","type":"event"},{"anonymous":false,"inputs":[{"indexed":true,"internalType":"address","name":"user","type":"address"},{"indexed":false,"internalType":"uint256","name":"tokenId","type":"uint256"}],"name":"TokenIdAssigned","type":"event"},{"inputs":[],"name":"activate","outputs":[],"stateMutability":"nonpayable","type":"function"},{"inputs":[],"name":"active","outputs":[{"internalType":"bool","name":"","type":"bool"}],"stateMutability":"view","type":"function"},{"inputs":[{"internalType":"address[]","name":"users","type":"address[]"},{"internalType":"uint256[]","name":"tokenIds","type":"uint256[]"}],"name":"assignTokenIds","outputs":[],"stateMutability":"nonpayable","type":"function"},{"inputs":[],"name":"brokerWallet","outputs":[{"internalType":"address","name":"","type":"address"}],"stateMutability":"view","type":"function"},{"inputs":[{"internalType":"address","name":"user","type":"address"}],"name":"canClaim","outputs":[{"internalType":"bool","name":"","type":"bool"}],"stateMutability":"view","type":"function"},{"inputs":[{"internalType":"address","name":"user","type":"address"}],"name":"claim","outputs":[],"stateMutability":"nonpayable","type":"function"},{"inputs":[],"name":"claimFinishDate","outputs":[{"internalType":"uint256","name":"","type":"uint256"}],"stateMutability":"view","type":"function"},{"inputs":[],"name":"claimNFT","outputs":[],"stateMutability":"nonpayable","type":"function"},{"inputs":[],"name":"claimStartDate","outputs":[{"internalType":"uint256","name":"","type":"uint256"}],"stateMutability":"view","type":"function"},{"inputs":[],"name":"config","outputs":[{"internalType":"string","name":"airdropName","type":"string"},{"internalType":"address","name":"nftAddress","type":"address"},{"internalType":"uint256","name":"totalAirdropAmount","type":"uint256"},{"internalType":"bool","name":"automaticDistribution","type":"bool"},{"internalType":"uint256","name":"distributionDate","type":"uint256"}],"stateMutability":"view","type":"function"},{"inputs":[],"name":"controller","outputs":[{"internalType":"address","name":"","type":"address"}],"stateMutability":"view","type":"function"},{"inputs":[],"name":"deactivate","outputs":[],"stateMutability":"nonpayable","type":"function"},{"inputs":[{"internalType":"address","name":"user","type":"address"}],"name":"debugState","outputs":[{"internalType":"bool","name":"isInitialized","type":"bool"},{"internalType":"bool","name":"isActive","type":"bool"},{"internalType":"uint256","name":"totalClaimsCount","type":"uint256"},{"internalType":"uint256","name":"claimStart","type":"uint256"},{"internalType":"uint256","name":"claimEnd","type":"uint256"},{"internalType":"bool","name":"userHasClaimed","type":"bool"},{"internalType":"bool","name":"userNFTClaimed","type":"bool"},{"internalType":"uint256","name":"userTokenId","type":"uint256"},{"internalType":"address","name":"controllerAddr","type":"address"},{"internalType":"address","name":"ownerAddr","type":"address"},{"internalType":"address","name":"brokerAddr","type":"address"},{"internalType":"uint256","name":"totalAmount","type":"uint256"},{"internalType":"uint256","name":"claimedAmount","type":"uint256"},{"internalType":"bool","name":"isAutomatic","type":"bool"},{"internalType":"uint256","name":"distributionDate","type":"uint256"}],"stateMutability":"view","type":"function"},{"inputs":[{"internalType":"uint256","name":"extension","type":"uint256"}],"name":"extendClaimPeriod","outputs":[],"stateMutability":"nonpayable","type":"function"},{"inputs":[],"name":"getAirdropStats","outputs":[{"internalType":"string","name":"airdropName","type":"string"},{"internalType":"address","name":"nftAddress","type":"address"},{"internalType":"uint256","name":"totalAmount","type":"uint256"},{"internalType":"uint256","name":"claimedAmount","type":"uint256"},{"internalType":"uint256","name":"claimedUsers","type":"uint256"},{"internalType":"bool","name":"isAutomatic","type":"bool"},{"internalType":"uint256","name":"distributionDate","type":"uint256"}],"stateMutability":"view","type":"function"},{"inputs":[],"name":"getBrokerNFTCount","outputs":[{"internalType":"uint256","name":"","type":"uint256"}],"stateMutability":"view","type":"function"},{"inputs":[],"name":"getRewardType","outputs":[{"internalType":"string","name":"","type":"string"}],"stateMutability":"pure","type":"function"},{"inputs":[{"internalType":"address","name":"user","type":"address"}],"name":"getUserTokenId","outputs":[{"internalType":"uint256","name":"","type":"uint256"}],"stateMutability":"view","type":"function"},{"inputs":[{"internalType":"address","name":"","type":"address"}],"name":"hasClaimed","outputs":[{"internalType":"bool","name":"","type":"bool"}],"stateMutability":"view","type":"function"},{"inputs":[{"internalType":"address","name":"user","type":"address"}],"name":"hasUserClaimed","outputs":[{"internalType":"bool","name":"","type":"bool"}],"stateMutability":"view","type":"function"},{"inputs":[{"internalType":"bytes","name":"configData","type":"bytes"}],"name":"initialize","outputs":[],"stateMutability":"nonpayable","type":"function"},{"inputs":[{"internalType":"bytes","name":"config","type":"bytes"},{"internalType":"address","name":"owner","type":"address"},{"internalType":"address","name":"controller","type":"address"}],"name":"initializeClone","outputs":[],"stateMutability":"nonpayable","type":"function"},{"inputs":[],"name":"isClaimPeriodActive","outputs":[{"internalType":"bool","name":"","type":"bool"}],"stateMutability":"view","type":"function"},{"inputs":[],"name":"isInitialized","outputs":[{"internalType":"bool","name":"","type":"bool"}],"stateMutability":"view","type":"function"},{"inputs":[{"internalType":"uint256","name":"tokenId","type":"uint256"}],"name":"isTokenIdAssigned","outputs":[{"internalType":"bool","name":"","type":"bool"}],"stateMutability":"view","type":"function"},{"inputs":[{"internalType":"address","name":"","type":"address"}],"name":"nftClaimed","outputs":[{"internalType":"bool","name":"","type":"bool"}],"stateMutability":"view","type":"function"},{"inputs":[],"name":"owner","outputs":[{"internalType":"address","name":"","type":"address"}],"stateMutability":"view","type":"function"},{"inputs":[{"internalType":"address","name":"user","type":"address"}],"name":"processFeeOnClaim","outputs":[{"internalType":"bool","name":"","type":"bool"}],"stateMutability":"nonpayable","type":"function"},{"inputs":[{"internalType":"address","name":"user","type":"address"},{"internalType":"uint256","name":"discountRate","type":"uint256"},{"internalType":"bytes32[]","name":"merkleProof","type":"bytes32[]"}],"name":"processFeeWithDiscount","outputs":[{"internalType":"bool","name":"","type":"bool"}],"stateMutability":"nonpayable","type":"function"},{"inputs":[],"name":"renounceOwnership","outputs":[],"stateMutability":"nonpayable","type":"function"},{"inputs":[{"internalType":"bool","name":"enable","type":"bool"},{"internalType":"uint256","name":"newDistributionDate","type":"uint256"}],"name":"setAutomaticDistribution","outputs":[],"stateMutability":"nonpayable","type":"function"},{"inputs":[{"internalType":"uint256","name":"startDate","type":"uint256"},{"internalType":"uint256","name":"finishDate","type":"uint256"}],"name":"setClaimPeriod","outputs":[],"stateMutability":"nonpayable","type":"function"},{"inputs":[{"internalType":"address","name":"_controller","type":"address"}],"name":"setController","outputs":[],"stateMutability":"nonpayable","type":"function"},{"inputs":[{"internalType":"uint256","name":"","type":"uint256"}],"name":"tokenIdAssigned","outputs":[{"internalType":"bool","name":"","type":"bool"}],"stateMutability":"view","type":"function"},{"inputs":[],"name":"totalClaimed","outputs":[{"internalType":"uint256","name":"","type":"uint256"}],"stateMutability":"view","type":"function"},{"inputs":[],"name":"totalClaims","outputs":[{"internalType":"uint256","name":"","type":"uint256"}],"stateMutability":"view","type":"function"},{"inputs":[{"internalType":"address","name":"newOwner","type":"address"}],"name":"transferOwnership","outputs":[],"stateMutability":"nonpayable","type":"function"},{"inputs":[{"internalType":"address[]","name":"eligibleUsers","type":"address[]"}],"name":"triggerAutomaticDistribution","outputs":[],"stateMutability":"nonpayable","type":"function"},{"inputs":[{"internalType":"address","name":"newBrokerWallet","type":"address"}],"name":"updateBrokerWallet","outputs":[],"stateMutability":"nonpayable","type":"function"},{"inputs":[{"internalType":"uint256","name":"newTotalAmount","type":"uint256"}],"name":"updateTotalAirdropAmount","outputs":[],"stateMutability":"nonpayable","type":"function"},{"inputs":[{"internalType":"address","name":"","type":"address"}],"name":"userToTokenId","outputs":[{"internalType":"uint256","name":"","type":"uint256"}],"stateMutability":"view","type":"function"},{"inputs":[{"internalType":"bytes","name":"configData","type":"bytes"}],"name":"validateConfig","outputs":[{"internalType":"bool","name":"","type":"bool"}],"stateMutability":"pure","type":"function"}],"evm":{"bytecode":{"linkReferences":{},"object":"608060409080825234620001055762000018336200010a565b600180556001600160401b03908083019082821181831017620000ef576200006c918452601e81527f426173655265776172643a20436f6e7374727563746f722063616c6c65640000602082015262000151565b61010061ff0019600654161760065562000086336200010a565b81516060810191821181831017620000ef57620000e1918352602a81527f426173655265776172643a20496d706c656d656e746174696f6e20636f6e74726020820152691858dd081b1bd8dad95960b21b8382015262000151565b5161498e9081620001ee8239f35b634e487b7160e01b600052604160045260246000fd5b600080fd5b600080546001600160a01b039283166001600160a01b03198216811783559216907f8be0079c531659141344cd1fd0a4f28419497f9722a3daafe3b4186f6b6457e09080a3565b60405190602090828281019263104c13eb60e21b845280602483015282519283604484015260005b848110620001d557505050808260006064601f9560839501015283199384910116810103604481018552011682019082821060018060401b03831117620000ef57600092839260405251906a636f6e736f6c652e6c6f675afa50565b8181018301518782016064015286935082016200017956fe6040608081526004908136101561001557600080fd5b600091823560e01c90816201d8911461285757816302fb0c5e1461283357816303f5866b146123f25781630f15f4c0146123275781631e83409a14611ed2578163392e53cd14611eab57816341c6138314611e8c57816343512db7146107f0578163439fab9114611e025781634a313aae14611d215781634e14f8ea1461094057816351b42b0014611c5a5781635f03b6b214611c3c578163649d310014611b13578163672756ad1461162f5781636f60049f146113fb578163715018a6146113a157816373b2e80e1461136357816374ea186d1461130357816379502c551461129e578163809b9cf614610d315781638a51f86014610ce25781638bb0401d14610b0c5781638da5cb5b14610ae457816392eefe9b146109f057816393903df31461097e578163a195b69c14610940578163a913b88114610901578163af24b07b146108d9578163b48251691461083c578163b71b7a321461081d578163bec98755146107f0578163bf3506c1146107c1578163c4d92a751461074f578163d535074b14610667578163d54ad2a114610648578163d5defd3c146104ac578163df153ca514610483578163df6ec1bd146102e8578163f2fde38b1461025257508063f77c47911461022a5763fefd4e4f146101f057600080fd5b346102265760203660031901126102265760209181906001600160a01b03610216612a32565b168152600f845220549051908152f35b5080fd5b5034610226578160031936011261022657600d5490516001600160a01b039091168152602090f35b9050346102e45760203660031901126102e45761026d612a32565b91610276612c60565b6001600160a01b03831615610292578361028f84612cb8565b80f35b906020608492519162461bcd60e51b8352820152602660248201527f4f776e61626c653a206e6577206f776e657220697320746865207a65726f206160448201526564647265737360d01b6064820152fd5b8280fd5b919050346102e457806003193601126102e4578135602435610308612c60565b80821180159061047b575b1561044157917fc43f4c577663ce7707a53baebf64360730cf3c3a19c52c07a90cee2aff1210a2818361028f96957f426173655265776172643a20436c61696d20706572696f6420757064617465649583519761036f89612a79565b6103a26020998a81527f426173655265776172643a2053657474696e6720636c61696d20706572696f648b8201526146ec565b6103df8286516103b181612a79565b601781527f426173655265776172643a20537461727420646174653a0000000000000000008c82015261472d565b61041c8386516103ee81612a79565b601881527f426173655265776172643a2046696e69736820646174653a00000000000000008c82015261472d565b5580600555825191825286820152a1519161043683612a79565b8083528201526146ec565b825162461bcd60e51b81526020818601526014602482015273125b9d985b1a590818db185a5b481c195c9a5bd960621b6044820152606490fd5b508015610313565b505034610226578160031936011261022657600c5490516001600160a01b039091168152602090f35b838334610226576020806003193601126102e4578335916104cb612c60565b6005549283156106105761053e82516104e381612a48565b602581527f426173655265776172643a20457874656e64696e6720636c61696d207065726985820152646f6420627960d81b848201528284519161052683612a79565b60078352667365636f6e647360c81b87840152614809565b61058484835161054d81612a48565b602181527f426173655265776172643a204f726967696e616c2066696e697368206461746586820152601d60f91b8582015261472d565b83018093116105fd57807fc43f4c577663ce7707a53baebf64360730cf3c3a19c52c07a90cee2aff1210a27f426173655265776172643a204e65772066696e69736820646174653a000000009261028f9697866005555481519081528686820152a151916105f183612a79565b601c835282015261472d565b634e487b7160e01b845260118552602484fd5b815162461bcd60e51b81528087018490526012602482015271139bc8199a5b9a5cda0819185d19481cd95d60721b6044820152606490fd5b5050346102265781600319360112610226576020906011549051908152f35b9050346102e45760203660031901126102e457610682612a32565b926006549360035492549160055491600160a01b60019003809116825260026020528582205460ff1691600e6020528681205460ff16600f60205287822054908380600d541693541693600c5416946009549660115498600a5460ff169a600b549c80519e8f908060081c60ff161515825260ff1615156020820152015260608d015260808c0152151560a08b0152151560c08a015260e089015261010088015261012087015261014086015261016085015261018084015215156101a08301526101c08201526101e090f35b50503461022657816003193601126102265761079d9060018060a01b036008541660095460115460ff600a541690600b5492610789612b6c565b95805197889760e0895260e0890190612c3b565b9560208801528601528060608601526080850152151560a084015260c08301520390f35b505034610226576020366003190112610226576020906107e76107e2612a32565b614296565b90519015158152f35b9050346102e45760203660031901126102e4578160209360ff923581526010855220541690519015158152f35b5050346102265781600319360112610226576020906005549051908152f35b919050346102e457826003193601126102e457600854600c5482516370a0823160e01b81526001600160a01b039182169481019490945260209184916024918391165afa9182156108cf578392610898575b6020838351908152f35b9091506020813d82116108c7575b816108b360209383612aaf565b810103126102e4576020925051903861088e565b3d91506108a6565b81513d85823e3d90fd5b5050346102265760203660031901126102265760209181906001600160a01b03610216612a32565b82843461093d57602036600319011261093d578235906001600160401b03821161093d57506109386020936107e792369101612aeb565b613608565b80fd5b5050346102265760203660031901126102265760209160ff9082906001600160a01b0361096b612a32565b168152600e855220541690519015158152f35b505034610226576020366003190112610226576020906109e961099f612a32565b82516109aa81612a48565b602981527f4e465441697264726f705265776172643a2050726f63657373696e67206665658582015268103337b9103ab9b2b960b91b848201526147b9565b5160018152f35b9050346102e45760203660031901126102e457610a0b612a32565b90610a14612c60565b600d5491835190610a2482612a48565b603282527f4e465441697264726f705265776172643a204d616e75616c6c792073657474696020830152716e6720636f6e74726f6c6c65722066726f6d60701b85830152610a8681610a746146ce565b6001600160a01b0394878616906148aa565b16928315610aa15750506001600160a01b03191617600d5580f35b906020606492519162461bcd60e51b8352820152601a60248201527f496e76616c696420636f6e74726f6c6c657220616464726573730000000000006044820152fd5b505034610226578160031936011261022657905490516001600160a01b039091168152602090f35b83833461022657806003193601126102265782359283151584036102e45760243593610b36612c60565b610b8f818451610b4581612a48565b603381527f4e465441697264726f705265776172643a2053657474696e67206175746f6d6160208201527274696320646973747269627574696f6e20746f60681b86820152614772565b15610c8457507f991d63b6a99732d94eda42bec59d2dc29056a434c3ea89b24d18d3977b521463602061028f9394610bc8428211612e34565b610c1b818551610bd781612a48565b602e81527f4e465441697264726f705265776172643a2053657474696e6720646973747269858201526d627574696f6e206461746520746f60901b8782015261472d565b600160ff19600a541617600a5580600b55806005558351908152a15b7f7269627574696f6e2075706461746564207375636365737366756c6c79000000815191610c6483612a48565b603d835260008051602061493983398151915260208401528201526146ec565b925060ff19600a5416600a5562278d004201804211610ccf5761028f9293506005557f88afc90084128cbb9137ec527935a280b18f8e248f2d110bb4072b5403e9342f8380a1610c37565b634e487b7160e01b835260118452602483fd5b5050346102265781600319360112610226578051610d2d91610d0382612a79565b600b82526a04e46545f41495244524f560ac1b602083015251918291602083526020830190612c3b565b0390f35b83833461022657602090816003193601126102e45783356001600160401b03811161129a57610d6390369086016129fd565b9490610d6d6137f7565b610dd08351610d7b81612a48565b603881527f4e465441697264726f705265776172643a20747269676765724175746f6d6174868201527f6963446973747269627574696f6e2063616c6c656420627900000000000000008582015233906147b9565b84546001600160a01b039081163314801561128d575b80610dfb610e0092610df661384d565b614772565b613886565b60ff9081600a5416855194610e1486612a48565b603191828752610e518160008051602061493983398151915298898c820152707269627574696f6e20656e61626c65643f60781b8b820152614772565b1561123f57610e948751610e6481612a79565b601e81527f4e465441697264726f705265776172643a2043757272656e742074696d6500008a820152429061472d565b600b54610edf818951610ea681612a48565b602381527f4e465441697264726f705265776172643a20446973747269627574696f6e20648c8201526261746560e81b8b82015261472d565b42106111fc5750610f658651610ef481612a48565b603781527f4e465441697264726f705265776172643a2050726f63657373696e6720617574898201527f6f6d6174696320646973747269627574696f6e20666f72000000000000000000888201528a885191610f4f83612a79565b6005835264757365727360d81b8b840152614809565b875b898110610fae575b88610fa789711c9a589d5d1a5bdb8818dbdb5c1b195d195960721b8a8a815193610f9885612a48565b603285528401528201526146ec565b6001805580f35b610fc1610fbc828c88613a8f565b613ab5565b838116808b52600e90818b52868a8d20541680156111f4575b6111945760119182546009541115611100579183918b8e8e956110466110b89998845161100681612a48565b602a81527f4e465441697264726f705265776172643a20446973747269627574696e67204e8a82015269232a103a37903ab9b2b960b11b868201526147b9565b838252600f8752828220549687156110d4575b906110989392916110718961106c613935565b61472d565b85835252209460019360ff19968588825416179055611090815461397b565b905584613dcd565b8d5260028c528a8d2090815493898516156110bd575b505050505061397b565b610f67565b6110ca941617905561398a565b8b808080806110ae565b96509061109892916110ec6110e76138c3565b6146ec565b6110f587613ae8565b979091929350611059565b505050505050505050610fa793945090711c9a589d5d1a5bdb8818dbdb5c1b195d195960721b91611188825161113581612a48565b603e81527f4e465441697264726f705265776172643a2041697264726f70206c696d697420868201527f726561636865642c2073746f7070696e6720646973747269627574696f6e0000848201526146ec565b90918594878080610f6f565b5050906111ef6110b89289516111a981612a48565b8581527f4e465441697264726f705265776172643a205573657220616c726561647920638c820152701b185a5b5959081bdc881a5b9d985b1a59607a1b8b8201526147b9565b61397b565b508015610fda565b865162461bcd60e51b8152908101889052601d60248201527f446973747269627574696f6e2064617465206e6f7420726561636865640000006044820152606490fd5b865162461bcd60e51b8152908101889052602260248201527f4175746f6d6174696320646973747269627574696f6e206e6f7420656e61626c604482015261195960f21b6064820152608490fd5b50600d5481163314610de6565b8380fd5b5050346102265781600319360112610226576112ea906112bc612b6c565b9060018060a01b03600854169060095460ff600a541690600b5492805196879660a0885260a0880190612c3b565b9460208701528501521515606084015260808301520390f35b919050346102e457826003193601126102e4576020925060ff600654169182611357575b5081611336575b519015158152f35b9050600554801590811561134c575b509061132e565b905042111538611345565b54421015915038611327565b5050346102265760203660031901126102265760209160ff9082906001600160a01b0361138e612a32565b1681526002855220541690519015158152f35b833461093d578060031936011261093d576113ba612c60565b80546001600160a01b03198116825581906001600160a01b03167f8be0079c531659141344cd1fd0a4f28419497f9722a3daafe3b4186f6b6457e08280a380f35b8383346102265760603660031901126102265782356001600160401b0381116102e45761142b9036908501612aeb565b6001600160a01b03602435818116929083810361162b5760443596838816948589036116275761146f60ff60065460081c1661146981610df6612cff565b15612d54565b6114bf83885161147e81612a48565b602a81527f426173655265776172643a20496e697469616c697a696e6720636c6f6e65207760208201526934ba341037bbb732b91d60b11b8a8201526147b9565b6114fd8988516114ce81612a79565b601781527f426173655265776172643a20436f6e74726f6c6c65723a00000000000000000060208201526147b9565b156115ec57509561151d611578926115186115d29899612cb8565b612e90565b600d5492855161152c81612a48565b602981527f4e465441697264726f705265776172643a2053657474696e6720636f6e74726f6020820152686c6c65722066726f6d60b81b8782015261156f6146ce565b918516906148aa565b6001600160a01b03191617600d558051906820636f6d706c65746560b81b906115a083612a48565b602983527f426173655265776172643a20436c6f6e6520696e697469616c697a6174696f6e60208401528201526146ec565b61010061ff0019600654161760065561028f6110e7612d96565b606490602087519162461bcd60e51b83528201526015602482015274496e76616c6964206f776e6572206164647265737360581b6044820152fd5b8780fd5b8580fd5b8391503461022657816003193601126102265761164a6137f7565b6116556110e761361b565b6116b860ff6006541661166a81610df6613654565b6116764261106c61368d565b82546116848161106c6136c6565b61169c600554926116978461106c6136ff565b613738565b4210159081611af6575b506116b381610df661377b565b6137b4565b8251906116c482612a48565b602482526117066020927f4e465441697264726f705265776172643a20636c61696d4e46542063616c6c6584820152636420627960e01b8682015233906147b9565b61170e6137f7565b6117196110e761361b565b61177160ff6006541661172e81610df6613654565b61173a4261106c61368d565b82546117488161106c6136c6565b61175b600554926116978461106c6136ff565b4210159081611ad957506116b381610df661377b565b6117be845161177f81612a48565b602781527f4e465441697264726f705265776172643a20636c61696d2063616c6c65642066848201526637b9103ab9b2b960c91b8682015233906147b9565b6117fb84516117cc81612a79565b8381527f4e465441697264726f705265776172643a204d6573736167652073656e6465728482015233906147b9565b61187c60018060a01b0361184681600d5416875161181881612a79565b601c81527f4e465441697264726f705265776172643a20436f6e74726f6c6c657200000000878201526147b9565b845416855161185481612a79565b601781527627232a20b4b9323937b82932bbb0b9321d1027bbb732b960491b858201526147b9565b61188533614296565b6118cb81865161189481612a48565b602181527f4e465441697264726f705265776172643a2043616e207573657220636c61696d86820152603f60f81b88820152614772565b15611aa557338352600e825261192860ff858520541685516118ec81612a48565b602681527f4e465441697264726f705265776172643a2048617320616c726561647920636c858201526561696d65643f60d01b87820152614772565b338352600e825260ff8484205416611a72576011546009541115611a39575071321039bab1b1b2b9b9b33ab6363c903337b960711b610fa79293338552600f8352808520548015611a1f575b6119808161106c613935565b338652600e84526119af8287209160ff19926001848254161790556119a660115461397b565b60115533613dcd565b338652600284528186209081549060ff821615611a08575b5050507f4e465441697264726f705265776172643a20436c61696d20636f6d706c6574658151936119f785612a48565b6032855284015282015233906147b9565b166001179055611a173361398a565b8580806119c7565b50611a2b6110e76138c3565b611a3433613ae8565b611974565b60649184519162461bcd60e51b83528201526015602482015274105a5c991c9bdc081b1a5b5a5d081c995858da1959605a1b6044820152fd5b60649184519162461bcd60e51b8352820152600f60248201526e105b1c9958591e4818db185a5b5959608a1b6044820152fd5b60649184519162461bcd60e51b8352820152601060248201526f10d85b9b9bdd0818db185a5b4813919560821b6044820152fd5b801591508115611aeb575b50866116a6565b905042111586611ae4565b801591508115611b08575b50856116a6565b905042111585611b01565b5050346102265760203660031901126102265761028f90611b32612a32565b611b3a612c60565b600c549060018060a01b0380831691611ba6818651611b5881612a48565b602d81527f4e465441697264726f705265776172643a205570646174696e672062726f6b6560208201526c722077616c6c65742066726f6d60981b8882015285611ba06146ce565b916148aa565b168092611bb4821515612df0565b6001600160a01b03191617600c557fb8b525bfada17a1571012558ec7690617e34bb1fb0d6b59a84f3ed31ae88e5e18580a37375706461746564207375636365737366756c6c7960601b815191611c0a83612a48565b603483527f4e465441697264726f705265776172643a2042726f6b65722077616c6c65742060208401528201526146ec565b9050346102e457826003193601126102e45760209250549051908152f35b50503461022657816003193601126102265761028f90611c78612c60565b611cb58151611c8681612a79565b601f81527f426173655265776172643a20446561637469766174696e67207265776172640060208201526146ec565b60ff19600654166006557f4dcbe1841ee9bd9c888e46c0b35574429b1c0f1071806180028dee2f9a10643060208251858152a151611cf281612a79565b601e81527f426173655265776172643a20526577617264206465616374697661746564000060208201526146ec565b9050346102e45760603660031901126102e457611d3c612a32565b92604435906001600160401b03821161093d575092611d63611dc3926020953691016129fd565b50508251611d7081612a48565b603781527f4e465441697264726f705265776172643a2050726f63657373696e6720666565858201527f207769746820646973636f756e7420666f722075736572000000000000000000848201526147b9565b6109e98151611dd181612a79565b8381527f4e465441697264726f705265776172643a20446973636f756e7420726174653a848201526024359061472d565b919050346102e45760203660031901126102e4578135916001600160401b03831161129a57611e3a611518916115d294369101612aeb565b91611e5360ff60065460081c1661146981610df6612cff565b51611e5d81612a79565b601e81527f4e465441697264726f705265776172643a20496e697469616c697a696e67000060208201526146ec565b5050346102265781600319360112610226576020906003549051908152f35b50503461022657816003193601126102265760209060ff60065460081c1690519015158152f35b919050346102e4576020908160031936011261129a57611ef0612a32565b92611ef96137f7565b611f046110e761361b565b611f5c60ff60065416611f1981610df6613654565b611f254261106c61368d565b8254611f338161106c6136c6565b611f46600554926116978461106c6136ff565b421015908161230a57506116b381610df661377b565b611fa8848351611f6b81612a48565b602781527f4e465441697264726f705265776172643a20636c61696d2063616c6c65642066868201526637b9103ab9b2b960c91b858201526147b9565b611fe58251611fb681612a79565b8481527f4e465441697264726f705265776172643a204d6573736167652073656e6465728582015233906147b9565b60018060a01b039081600d54169161203083855161200281612a79565b601c81527f4e465441697264726f705265776172643a20436f6e74726f6c6c657200000000888201526147b9565b808754169061206c82865161204481612a79565b601781527627232a20b4b9323937b82932bbb0b9321d1027bbb732b960491b898201526147b9565b8616928333036122de575b505061208285614296565b6120c881855161209181612a48565b602181527f4e465441697264726f705265776172643a2043616e207573657220636c61696d88820152603f60f81b87820152614772565b156122a857818652600e845261212560ff848820541684516120e981612a48565b602681527f4e465441697264726f705265776172643a2048617320616c726561647920636c878201526561696d65643f60d01b86820152614772565b818652600e845260ff83872054166122735760115460095411156122385750610fa79392918171321039bab1b1b2b9b9b33ab6363c903337b960711b928752600f84528187205490811561221c575b6121808261106c613935565b808852600e85526121af8389209260ff19936001858254161790556121a660115461397b565b60115587613dcd565b8752600284528187209081549060ff821615612205575b5050507f4e465441697264726f705265776172643a20436c61696d20636f6d706c6574658151936121f685612a48565b603285528401528201526147b9565b1660011790556122148461398a565b3880806121c6565b90506122296110e76138c3565b61223285613ae8565b90612174565b825162461bcd60e51b81529081018490526015602482015274105a5c991c9bdc081b1a5b5a5d081c995858da1959605a1b6044820152606490fd5b825162461bcd60e51b8152908101849052600f60248201526e105b1c9958591e4818db185a5b5959608a1b6044820152606490fd5b825162461bcd60e51b8152908101849052601060248201526f10d85b9b9bdd0818db185a5b4813919560821b6044820152606490fd5b6122f9913314908115612300575b50610dfb81610df661384d565b3880612077565b90503314386122ec565b80159150811561231c575b50386116a6565b905042111538612315565b50503461022657816003193601126102265761028f90612345612c60565b612382815161235381612a79565b601d81527f426173655265776172643a2041637469766174696e672072657761726400000060208201526146ec565b600160ff1960065416176006557f4dcbe1841ee9bd9c888e46c0b35574429b1c0f1071806180028dee2f9a1064306020825160018152a1516123c381612a79565b601c81527f426173655265776172643a20526577617264206163746976617465640000000060208201526146ec565b839150346102265782600319360112610226576001600160401b0392813584811161129a5761242490369084016129fd565b929094602490813590811161162b5761244090369084016129fd565b969061244a612c60565b84519561245687612a48565b602e87526124a06020977f4e465441697264726f705265776172643a2041737369676e696e6720746f6b65898201526d6e2049447320746f20757365727360901b888201526146ec565b8881036127f15780156127af5760085493986001600160a01b0394851691895b81811061251e578a61028f8b70676e6564207375636365737366756c6c7960781b8c7f4e465441697264726f705265776172643a20546f6b656e20494473206173736981519361250f85612a48565b603185528401528201526146ec565b612530610fbc8284899e9a9b9e613a8f565b8861253c838689613a8f565b35911690818952600e8c5260ff808c8b20541661276b57811561273457818a5260108d528b8a2054166126f157808c8f8f82918f519485926331a9108f60e11b8452830152818b5afa9182918c936126c2575b50506125d9575050895162461bcd60e51b8152808d018c90526017818f01527f546f6b656e20494420646f6573206e6f742065786973740000000000000000006044820152606490fd5b8a9e999d9a80600c541691160361266f57907f840011356c296d81892f86d80e0a894310d2382c21ca958210fbe6da8f3e179a8c838f948e6126509796868152600f8086528282205480612658575b5083825260108652828220805460ff19166001179055878252855220558d51908152a261397b565b9a959a6124c0565b825260108652828220805460ff1916905538612628565b8a5162461bcd60e51b8152808b018d90526028818b01527f42726f6b65722077616c6c657420646f6573206e6f74206f776e2074686973206044820152671d1bdad95b88125160c21b6064820152608490fd5b6126e2929350803d106126ea575b6126da8183612aaf565b810190613ac9565b90388e61258f565b503d6126d0565b50895162461bcd60e51b8152808d018c90526019818f01527f546f6b656e20494420616c72656164792061737369676e6564000000000000006044820152606490fd5b5050895162461bcd60e51b8152808d018c90526010818f01526f125b9d985b1a59081d1bdad95b88125160821b6044820152606490fd5b5050895162461bcd60e51b8152808d018c90526018818f01527f557365722068617320616c726561647920636c61696d656400000000000000006044820152606490fd5b855162461bcd60e51b81528086018890526017818601527f4e6f2061737369676e6d656e74732070726f76696465640000000000000000006044820152606490fd5b855162461bcd60e51b81528086018890526018818601527f4172726179206c656e67746873206d757374206d6174636800000000000000006044820152606490fd5b50503461022657816003193601126102265760209060ff6006541690519015158152f35b9050346102e45760203660031901126102e457803590612875612c60565b838060095485519061288682612a48565b603482527f4e465441697264726f705265776172643a205570646174696e6720746f74616c6020830152732061697264726f7020616d6f756e742066726f6d60601b8783015261292d6128d76146ce565b6129198951938492612902602085019763c67ea9d160e01b89526080602487015260a4860190612c3b565b916044850152602319848303016064850152612c3b565b88608483015203601f198101835282612aaf565b51906a636f6e736f6c652e6c6f675afa5060115482106129ae5750600955805161028f917f616d6f756e742075706461746564207375636365737366756c6c7900000000009061297c83612a48565b603b83527f4e465441697264726f705265776172643a20546f74616c2061697264726f702060208401528201526146ec565b608490602084519162461bcd60e51b83528201526024808201527f4e657720746f74616c206d757374206265203e3d20616c726561647920636c616044820152631a5b595960e21b6064820152fd5b9181601f84011215612a2d578235916001600160401b038311612a2d576020808501948460051b010111612a2d57565b600080fd5b600435906001600160a01b0382168203612a2d57565b606081019081106001600160401b03821117612a6357604052565b634e487b7160e01b600052604160045260246000fd5b604081019081106001600160401b03821117612a6357604052565b608081019081106001600160401b03821117612a6357604052565b90601f801991011681019081106001600160401b03821117612a6357604052565b6001600160401b038111612a6357601f01601f191660200190565b81601f82011215612a2d57803590612b0282612ad0565b92612b106040519485612aaf565b82845260208383010111612a2d57816000926020809301838601378301015290565b90600182811c92168015612b62575b6020831014612b4c57565b634e487b7160e01b600052602260045260246000fd5b91607f1691612b41565b6040519060008260075491612b8083612b32565b80835292600190818116908115612bf65750600114612ba9575b50612ba792500383612aaf565b565b6007600090815291506000805160206149198339815191525b848310612bdb5750612ba7935050810160200138612b9a565b81935090816020925483858a01015201910190918592612bc2565b905060209250612ba794915060ff191682840152151560051b82010138612b9a565b60005b838110612c2b5750506000910152565b8181015183820152602001612c1b565b90602091612c5481518092818552858086019101612c18565b601f01601f1916010190565b6000546001600160a01b03163303612c7457565b606460405162461bcd60e51b815260206004820152602060248201527f4f776e61626c653a2063616c6c6572206973206e6f7420746865206f776e65726044820152fd5b600080546001600160a01b039283166001600160a01b03198216811783559216907f8be0079c531659141344cd1fd0a4f28419497f9722a3daafe3b4186f6b6457e09080a3565b60405190612d0c82612a48565b603382527234b734ba34b0b634bd32b21039ba30ba3ab99d60691b6040837f426173655265776172643a20496e697469616c697a65722063616c6c65642c2060208201520152565b15612d5b57565b60405162461bcd60e51b8152602060048201526013602482015272105b1c9958591e481a5b9a5d1a585b1a5e9959606a1b6044820152606490fd5b60405190612da382612a79565b602082527f426173655265776172643a20436f6e747261637420696e697469616c697a65646020830152565b51906001600160a01b0382168203612a2d57565b51908115158203612a2d57565b15612df757565b60405162461bcd60e51b8152602060048201526015602482015274125b9d985b1a5908189c9bdad95c881dd85b1b195d605a1b6044820152606490fd5b15612e3b57565b60405162461bcd60e51b815260206004820152602760248201527f446973747269627574696f6e2064617465206d75737420626520696e207468656044820152662066757475726560c81b6064820152608490fd5b612edb604051612e9f81612a48565b602481527f4e465441697264726f705265776172643a205f696e697469616c697a652063616020820152631b1b195960e21b60408201526146ec565b805181019060c08160208401930312612a2d576020810151906001600160401b0391828111612a2d57810183603f82011215612a2d576020810151612f1f81612ad0565b94612f2d6040519687612aaf565b81865260408284010111612a2d57612f4c916040602087019101612c18565b612f5860408201612dcf565b91606082015190612f6b60808401612dcf565b9460c0612f7a60a08601612de3565b9401519460018060a01b031692600080604051612f9681612a79565b601f81527f4e465441697264726f705265776172643a2041697264726f70206e616d653a00602082015260405161300d81612fff612fed6020830195634b5c427760e01b8752604060248501526064840190612c3b565b82810360231901604484015289612c3b565b03601f198101835282612aaf565b51906a636f6e736f6c652e6c6f675afa5061305d8460405161302e81612a79565b601e81527f4e465441697264726f705265776172643a204e465420616464726573733a000060208201526147b9565b6130ac8160405161306d81612a48565b602781527f4e465441697264726f705265776172643a20546f74616c2061697264726f702060208201526630b6b7bab73a1d60c91b604082015261472d565b6130f56040516130bb81612a79565b60208082527f4e465441697264726f705265776172643a2042726f6b65722077616c6c65743a908201526001600160a01b038916906147b9565b6131348560405161310581612a48565b602981526000805160206149398339815191526020820152683934b13aba34b7b71d60b91b6040820152614772565b8151156135cc578315613591578015613555578461315c6001600160a01b0389161515612df0565b6134f9575b6040519360a0850185811085821117612a63576040528285526020850152604084015283151560608401528460808401528051918211612a63576131a6600754612b32565b601f8111613490575b50602090601f83116001146134175760019392916000918361340c575b5050600019600383901b1c191690831b176007555b818060a01b03602082015116946bffffffffffffffffffffffff60a01b9586600854161760085560408201516009556080606083015115159260ff199360ff85600a5416911617600a550151600b55828060a01b031685600c541617600c556006541617600655426004556000146133e0576005555b3390600d541617600d556132b260045460405161327381612a48565b602781527f4e465441697264726f705265776172643a2053657420636c61696d20737461726020820152663a103230ba329d60c91b604082015261472d565b6133046005546040516132c481612a48565b602881527f4e465441697264726f705265776172643a2053657420636c61696d2066696e6960208201526739b4103230ba329d60c11b604082015261472d565b61334860ff6006541660405161331981612a79565b601d81527f4e465441697264726f705265776172643a20536574206163746976653a0000006020820152614772565b61339260405161335781612a48565b602181527f4e465441697264726f705265776172643a2053657420636f6e74726f6c6c65726020820152601d60f91b604082015233906147b9565b612ba76040516133a181612a48565b602781527f4e465441697264726f705265776172643a205f696e697469616c697a6520636f6020820152661b5c1b195d195960ca1b60408201526146ec565b5062278d0042018042116133f657600555613257565b634e487b7160e01b600052601160045260246000fd5b0151905038806131cc565b9060076000526000805160206149198339815191529160005b601f1985168110613478575091839160019594938694601f1981161061345f575b505050811b016007556131e1565b015160001960f88460031b161c19169055388080613451565b91926020600181928685015181550194019201613430565b6007600052601f830160051c60008051602061491983398151915201602084106134e4575b601f820160051c6000805160206149198339815191520181106134d857506131af565b600081556001016134b5565b506000805160206149198339815191526134b5565b6135458660405161350981612a48565b602481527f4e465441697264726f705265776172643a20446973747269627574696f6e206460208201526330ba329d60e11b604082015261472d565b613550428711612e34565b613161565b60405162461bcd60e51b8152602060048201526014602482015273125b9d985b1a59081d1bdd185b08185b5bdd5b9d60621b6044820152606490fd5b60405162461bcd60e51b8152602060048201526013602482015272496e76616c6964204e4654206164647265737360681b6044820152606490fd5b60405162461bcd60e51b8152602060048201526014602482015273496e76616c69642061697264726f70206e616d6560601b6044820152606490fd5b60c090511061361657600190565b600090565b6040519061362882612a79565b601c82527f426173655265776172643a207768656e41637469766520636865636b000000006020830152565b6040519061366182612a79565b601a82527f426173655265776172643a20416374697665207374617475733a0000000000006020830152565b6040519061369a82612a79565b601e82527f426173655265776172643a2043757272656e742074696d657374616d703a00006020830152565b604051906136d382612a79565b601d82527f426173655265776172643a20436c61696d20737461727420646174653a0000006020830152565b6040519061370c82612a79565b601e82527f426173655265776172643a20436c61696d2066696e69736820646174653a00006020830152565b1561373f57565b60405162461bcd60e51b8152602060048201526014602482015273526577617264206973206e6f742061637469766560601b6044820152606490fd5b6040519061378882612a79565b601f82527f426173655265776172643a2057697468696e2074696d652077696e646f773a006020830152565b156137bb57565b60405162461bcd60e51b815260206004820152601460248201527313dd5d1cda59194818db185a5b481c195c9a5bd960621b6044820152606490fd5b600260015414613808576002600155565b60405162461bcd60e51b815260206004820152601f60248201527f5265656e7472616e637947756172643a207265656e7472616e742063616c6c006044820152606490fd5b6040519061385a82612a79565b602082527f4e465441697264726f705265776172643a20497320617574686f72697a65643f6020830152565b1561388d57565b60405162461bcd60e51b815260206004820152600e60248201526d139bdd08185d5d1a1bdc9a5e995960921b6044820152606490fd5b604051906138d082612a94565b604a82526934b7339037b73297171760b11b6060837f4e465441697264726f705265776172643a205573657220646f65736e2774206860208201527f61766520616e2061737369676e656420746f6b656e2049442c2061737369676e60408201520152565b6040519061394282612a48565b60248252633732b21d60e11b6040837f4e465441697264726f705265776172643a20546f6b656e20494420617373696760208201520152565b60001981146133f65760010190565b612ba7906040906139da8183516139a081612a48565b602381527f426173655265776172643a20547261636b696e6720636c61696d20666f72207560208201526239b2b960e91b858201526147b9565b6001600160a01b031660008181526002602052829020805460ff19166001179055600354909190613a0a9061397b565b91826003557fd8138f8a3f377c5259ca548e70e4c2de94f129f5a11036a15b69513cba2b426a60208351428152a27439b33ab6363c96103a37ba30b61031b630b4b6b99d60591b815191613a5d83612a48565b603583527f426173655265776172643a20436c61696d20747261636b656420737563636573602084015282015261472d565b9190811015613a9f5760051b0190565b634e487b7160e01b600052603260045260246000fd5b356001600160a01b0381168103612a2d5790565b90816020910312612a2d57516001600160a01b0381168103612a2d5790565b600854600c54604080516370a0823160e01b81526001600160a01b03928316600480830182905291959294602094939291602491851686898481845afa988915613da457600099613d75575b508815613d3357600098895b818110613c9d575b50508815613ba8575b50505050907f840011356c296d81892f86d80e0a894310d2382c21ca958210fbe6da8f3e179a9291856000526010835284600020600160ff19825416179055169283600052600f825284816000205551848152a290565b600091600190815b6103e98110613c05575b5050505015613bca578080613b51565b855162461bcd60e51b8152918201859052601690820152754e6f20617661696c61626c6520746f6b656e2049447360501b6044820152606490fd5b81898c516331a9108f60e11b8152838a8201528c80828b818b5afa918291600093613c7e575b5050613c4257505050613c3d9061397b565b613bb0565b161480613c67575b613c5757613c3d9061397b565b9350509850509638808080613bba565b508060005260108a5260ff8b600020541615613c4a565b613c95929350803d106126ea576126da8183612aaf565b90388e613c2b565b8951632f745c5960e01b8152848782015281868201528981604481875afa60009181613d04575b50613cd85750613cd39061397b565b613b40565b8060005260108a5260ff8b600020541615613cf75750613cd39061397b565b929a505050973880613b48565b90918b82813d8311613d2c575b613d1b8183612aaf565b8101031261093d5750519038613cc4565b503d613d11565b875162461bcd60e51b8152808501889052601d818501527f4e6f204e465473206c65667420696e2062726f6b65722077616c6c65740000006044820152606490fd5b90988782813d8311613d9d575b613d8c8183612aaf565b8101031261093d5750519738613b34565b503d613d82565b88513d6000823e3d90fd5b60405190613dbc82612a79565b6002825261697360f01b6020830152565b60408051909392613ddd82612a48565b60258252613e3f836020937f4e465441697264726f705265776172643a205472616e7366657272696e67204e8582015264119508125160da1b8882015283885191613e2783612a79565b60078352663a37903ab9b2b960c91b8784015261483e565b60085485516331a9108f60e11b815260048082018490526001600160a01b039283169392916024919086818481895afa801561428b57849160009161426e575b50613edb818c6a1bd9881d1bdad95b88125160aa1b815191613ea083612a48565b602b83527f4e465441697264726f705265776172643a2043757272656e74206f776e6572208d84015282015288613ed5613daf565b9161483e565b81600c5416918291160361421f57895163020604bf60e21b8152828101869052878185818a5afa908115614214576000916141f7575b508a5163e985e9c560e01b815283810183905230858201529088826044818b5afa918c83156141ed578a916000946141a3575b50613fea9165391030b6361d60d11b82613fae868d89965190613f6682612a48565b602f82527f4e465441697264726f705265776172643a20417070726f766564206164647265878301526e1cdcc8199bdc881d1bdad95b881251608a1b85830152613ed5613daf565b7f4e465441697264726f705265776172643a20497320617070726f76656420666f815193613fdb85612a48565b60268552840152820152614772565b8516301490811561419b575b501561414357853b15612a2d57600093606485928c519687938492632142170760e11b8452878401528c16998a888401528960448401525af18015614138576140eb575b50505094817fc3cd54d1a5efe601b3ad455524bb55b2466336cfeab1da71c511bede04485e7684612ba797987064207375636365737366756c6c7920746f60781b957fd93bbb9e10b7af5aa4b410ac845ae87a717d305e8a4777959ad1dd06e6a1ac988680518481524286820152a28451908152a27f4e465441697264726f705265776172643a204e4654207472616e7366657272658151936140dc85612a48565b603185528401528201526147b9565b6001600160401b0383116141255750508652817fc3cd54d1a5efe601b3ad455524bb55b2466336cfeab1da71c511bede04485e768461403a565b604190634e487b7160e01b600052526000fd5b89513d6000823e3d90fd5b50602e608492878b519362461bcd60e51b85528401528201527f4e4654206e6f7420617070726f76656420666f72207472616e7366657220627960448201526d08189c9bdad95c881dd85b1b195d60921b6064820152fd5b905038613ff6565b828194959392503d83116141e6575b6141bc8183612aaf565b8101031261093d575090613fea8c8a6141de65391030b6361d60d11b95612de3565b945091613f44565b503d6141b2565b513d6000823e3d90fd5b61420e9150883d8a116126ea576126da8183612aaf565b38613f11565b8b513d6000823e3d90fd5b506025608492878b519362461bcd60e51b85528401528201527f42726f6b65722077616c6c6574206e6f206c6f6e676572206f776e73207468696044820152641cc813919560da1b6064820152fd5b6142859150883d8a116126ea576126da8183612aaf565b38613e7f565b8a513d6000823e3d90fd5b60ff600654169060018060a01b0316806000526020600e81526040809260ff8260002054166004544210156005549182159283156146c3575b5060ff600a541680806146b6575b8760115460095411963315988961441e575b505050506143915787614388575b5086614380575b5085614378575b5084614370575b50908391614321575b50505090565b62363a1d60e91b837f4e465441697264726f705265776172643a2043616e20636c61696d207265737561436895519361435985612a48565b60238552840152820152614772565b38818161431b565b935038614312565b94503861430b565b955038614304565b159650386142fd565b50505050909192506143a5575b5050600090565b7f6674657220646973747269627574696f6e206461746520696e206175746f6d61827f4e465441697264726f705265776172643a2043616e6e6f7420636c61696d20616144179451936143f785612a94565b6048855284015282015267746963206d6f646560c01b60608201526146ec565b388061439e565b6129026144ae600094612fff869585519561443887612a48565b602287527f4e465441697264726f705265776172643a20436865636b696e67206966207573848801526132b960f11b8188015280519061447782612a79565b600982526863616e20636c61696d60b81b858301525195869485019763e0e9ad4f60e01b8952606060248701526084860190612c3b565b51906a636f6e736f6c652e6c6f675afa506144fc8a8a516144ce81612a79565b601981527f4e465441697264726f705265776172643a204163746976653f000000000000008b820152614772565b614543838a5161450b81612a48565b602281527f4e465441697264726f705265776172643a20416c726561647920636c61696d658b82015261643f60f01b8c820152614772565b61458b848a5161455281612a48565b602381527f4e465441697264726f705265776172643a2041667465722073746172742074698b820152626d653f60e81b8c820152614772565b6145d2858a5161459a81612a48565b602281527f4e465441697264726f705265776172643a204265666f726520656e642074696d8b82015261653f60f01b8c820152614772565b614618868a516145e181612a48565b602181527f4e465441697264726f705265776172643a204e46547320617661696c61626c658b820152603f60f81b8c820152614772565b614654818a5161462781612a48565b602981526000805160206149398339815191528b820152687269627574696f6e3f60b81b8c820152614772565b614662575b3887818a6142ef565b6146b181895161467181612a48565b602a81527f4e465441697264726f705265776172643a2041667465722064697374726962758a8201526974696f6e20646174653f60b01b8b820152614772565b614659565b600b5442101591506142dd565b4211159250386142cf565b604051906146db82612a79565b6002825261746f60f01b6020830152565b6000809160405161471a81612fff602082019463104c13eb60e21b8652602060248401526044830190612c3b565b51906a636f6e736f6c652e6c6f675afa50565b60009190829161471a604051809261475e6020830195632d839cb360e21b8752604060248501526064840190612c3b565b90604483015203601f198101835282612aaf565b60009190829161471a60405180926147a3602083019563c3b5563560e01b8752604060248501526064840190612c3b565b901515604483015203601f198101835282612aaf565b60009190829161471a60405180926147ea602083019563319af33360e01b8752604060248501526064840190612c3b565b6001600160a01b0391909116604483015203601f198101835282612aaf565b6000929161471a8493612fff6040519384926129026020850197635970e08960e01b8952606060248701526084860190612c3b565b9061471a60009493859461488b6040519485936148746020860198631f118ca960e21b8a526080602488015260a4870190612c3b565b916044860152602319858303016064860152612c3b565b6001600160a01b0391909116608483015203601f198101835282612aaf565b9061471a600094938594614903936040519485936148e1602086019863aabc9a3160e01b8a526080602488015260a4870190612c3b565b6001600160a01b03938416604487015285810360231901606487015290612c3b565b9116608483015203601f198101835282612aaf56fea66cc928b5edb82af9bd49922954155ab7b0942694bea4ce44661d9a8736c6884e465441697264726f705265776172643a204175746f6d617469632064697374a2646970667358221220140278db70c7913ca860fb5ccd9f99265f07e93365e190a7cbf722f83ddb541864736f6c63430008140033","opcodes":"PUSH1 0x80 PUSH1 0x40 SWAP1 DUP1 DUP3 MSTORE CALLVALUE PUSH3 0x105 JUMPI PUSH3 0x18 CALLER PUSH3 0x10A JUMP JUMPDEST PUSH1 0x1 DUP1 SSTORE PUSH1 0x1 PUSH1 0x1 PUSH1 0x40 SHL SUB SWAP1 DUP1 DUP4 ADD SWAP1 DUP3 DUP3 GT DUP2 DUP4 LT OR PUSH3 0xEF JUMPI PUSH3 0x6C SWAP2 DUP5 MSTORE PUSH1 0x1E DUP2 MSTORE PUSH32 0x426173655265776172643A20436F6E7374727563746F722063616C6C65640000 PUSH1 0x20 DUP3 ADD MSTORE PUSH3 0x151 JUMP JUMPDEST PUSH2 0x100 PUSH2 0xFF00 NOT PUSH1 0x6 SLOAD AND OR PUSH1 0x6 SSTORE PUSH3 0x86 CALLER PUSH3 0x10A JUMP JUMPDEST DUP2 MLOAD PUSH1 0x60 DUP2 ADD SWAP2 DUP3 GT DUP2 DUP4 LT OR PUSH3 0xEF JUMPI PUSH3 0xE1 SWAP2 DUP4 MSTORE PUSH1 0x2A DUP2 MSTORE PUSH32 0x426173655265776172643A20496D706C656D656E746174696F6E20636F6E7472 PUSH1 0x20 DUP3 ADD MSTORE PUSH10 0x1858DD081B1BD8DAD959 PUSH1 0xB2 SHL DUP4 DUP3 ADD MSTORE PUSH3 0x151 JUMP JUMPDEST MLOAD PUSH2 0x498E SWAP1 DUP2 PUSH3 0x1EE DUP3 CODECOPY RETURN JUMPDEST PUSH4 0x4E487B71 PUSH1 0xE0 SHL PUSH1 0x0 MSTORE PUSH1 0x41 PUSH1 0x4 MSTORE PUSH1 0x24 PUSH1 0x0 REVERT JUMPDEST PUSH1 0x0 DUP1 REVERT JUMPDEST PUSH1 0x0 DUP1 SLOAD PUSH1 0x1 PUSH1 0x1 PUSH1 0xA0 SHL SUB SWAP3 DUP4 AND PUSH1 0x1 PUSH1 0x1 PUSH1 0xA0 SHL SUB NOT DUP3 AND DUP2 OR DUP4 SSTORE SWAP3 AND SWAP1 PUSH32 0x8BE0079C531659141344CD1FD0A4F28419497F9722A3DAAFE3B4186F6B6457E0 SWAP1 DUP1 LOG3 JUMP JUMPDEST PUSH1 0x40 MLOAD SWAP1 PUSH1 0x20 SWAP1 DUP3 DUP3 DUP2 ADD SWAP3 PUSH4 0x104C13EB PUSH1 0xE2 SHL DUP5 MSTORE DUP1 PUSH1 0x24 DUP4 ADD MSTORE DUP3 MLOAD SWAP3 DUP4 PUSH1 0x44 DUP5 ADD MSTORE PUSH1 0x0 JUMPDEST DUP5 DUP2 LT PUSH3 0x1D5 JUMPI POP POP POP DUP1 DUP3 PUSH1 0x0 PUSH1 0x64 PUSH1 0x1F SWAP6 PUSH1 0x83 SWAP6 ADD ADD MSTORE DUP4 NOT SWAP4 DUP5 SWAP2 ADD AND DUP2 ADD SUB PUSH1 0x44 DUP2 ADD DUP6 MSTORE ADD AND DUP3 ADD SWAP1 DUP3 DUP3 LT PUSH1 0x1 DUP1 PUSH1 0x40 SHL SUB DUP4 GT OR PUSH3 0xEF JUMPI PUSH1 0x0 SWAP3 DUP4 SWAP3 PUSH1 0x40 MSTORE MLOAD SWAP1 PUSH11 0x636F6E736F6C652E6C6F67 GAS STATICCALL POP JUMP JUMPDEST DUP2 DUP2 ADD DUP4 ADD MLOAD DUP8 DUP3 ADD PUSH1 0x64 ADD MSTORE DUP7 SWAP4 POP DUP3 ADD PUSH3 0x179 JUMP INVALID PUSH1 0x40 PUSH1 0x80 DUP2 MSTORE PUSH1 0x4 SWAP1 DUP2 CALLDATASIZE LT ISZERO PUSH2 0x15 JUMPI PUSH1 0x0 DUP1 REVERT JUMPDEST PUSH1 0x0 SWAP2 DUP3 CALLDATALOAD PUSH1 0xE0 SHR SWAP1 DUP2 PUSH3 0x1D891 EQ PUSH2 0x2857 JUMPI DUP2 PUSH4 0x2FB0C5E EQ PUSH2 0x2833 JUMPI DUP2 PUSH4 0x3F5866B EQ PUSH2 0x23F2 JUMPI DUP2 PUSH4 0xF15F4C0 EQ PUSH2 0x2327 JUMPI DUP2 PUSH4 0x1E83409A EQ PUSH2 0x1ED2 JUMPI DUP2 PUSH4 0x392E53CD EQ PUSH2 0x1EAB JUMPI DUP2 PUSH4 0x41C61383 EQ PUSH2 0x1E8C JUMPI DUP2 PUSH4 0x43512DB7 EQ PUSH2 0x7F0 JUMPI DUP2 PUSH4 0x439FAB91 EQ PUSH2 0x1E02 JUMPI DUP2 PUSH4 0x4A313AAE EQ PUSH2 0x1D21 JUMPI DUP2 PUSH4 0x4E14F8EA EQ PUSH2 0x940 JUMPI DUP2 PUSH4 0x51B42B00 EQ PUSH2 0x1C5A JUMPI DUP2 PUSH4 0x5F03B6B2 EQ PUSH2 0x1C3C JUMPI DUP2 PUSH4 0x649D3100 EQ PUSH2 0x1B13 JUMPI DUP2 PUSH4 0x672756AD EQ PUSH2 0x162F JUMPI DUP2 PUSH4 0x6F60049F EQ PUSH2 0x13FB JUMPI DUP2 PUSH4 0x715018A6 EQ PUSH2 0x13A1 JUMPI DUP2 PUSH4 0x73B2E80E EQ PUSH2 0x1363 JUMPI DUP2 PUSH4 0x74EA186D EQ PUSH2 0x1303 JUMPI DUP2 PUSH4 0x79502C55 EQ PUSH2 0x129E JUMPI DUP2 PUSH4 0x809B9CF6 EQ PUSH2 0xD31 JUMPI DUP2 PUSH4 0x8A51F860 EQ PUSH2 0xCE2 JUMPI DUP2 PUSH4 0x8BB0401D EQ PUSH2 0xB0C JUMPI DUP2 PUSH4 0x8DA5CB5B EQ PUSH2 0xAE4 JUMPI DUP2 PUSH4 0x92EEFE9B EQ PUSH2 0x9F0 JUMPI DUP2 PUSH4 0x93903DF3 EQ PUSH2 0x97E JUMPI DUP2 PUSH4 0xA195B69C EQ PUSH2 0x940 JUMPI DUP2 PUSH4 0xA913B881 EQ PUSH2 0x901 JUMPI DUP2 PUSH4 0xAF24B07B EQ PUSH2 0x8D9 JUMPI DUP2 PUSH4 0xB4825169 EQ PUSH2 0x83C JUMPI DUP2 PUSH4 0xB71B7A32 EQ PUSH2 0x81D JUMPI DUP2 PUSH4 0xBEC98755 EQ PUSH2 0x7F0 JUMPI DUP2 PUSH4 0xBF3506C1 EQ PUSH2 0x7C1 JUMPI DUP2 PUSH4 0xC4D92A75 EQ PUSH2 0x74F JUMPI DUP2 PUSH4 0xD535074B EQ PUSH2 0x667 JUMPI DUP2 PUSH4 0xD54AD2A1 EQ PUSH2 0x648 JUMPI DUP2 PUSH4 0xD5DEFD3C EQ PUSH2 0x4AC JUMPI DUP2 PUSH4 0xDF153CA5 EQ PUSH2 0x483 JUMPI DUP2 PUSH4 0xDF6EC1BD EQ PUSH2 0x2E8 JUMPI DUP2 PUSH4 0xF2FDE38B EQ PUSH2 0x252 JUMPI POP DUP1 PUSH4 0xF77C4791 EQ PUSH2 0x22A JUMPI PUSH4 0xFEFD4E4F EQ PUSH2 0x1F0 JUMPI PUSH1 0x0 DUP1 REVERT JUMPDEST CALLVALUE PUSH2 0x226 JUMPI PUSH1 0x20 CALLDATASIZE PUSH1 0x3 NOT ADD SLT PUSH2 0x226 JUMPI PUSH1 0x20 SWAP2 DUP2 SWAP1 PUSH1 0x1 PUSH1 0x1 PUSH1 0xA0 SHL SUB PUSH2 0x216 PUSH2 0x2A32 JUMP JUMPDEST AND DUP2 MSTORE PUSH1 0xF DUP5 MSTORE KECCAK256 SLOAD SWAP1 MLOAD SWAP1 DUP2 MSTORE RETURN JUMPDEST POP DUP1 REVERT JUMPDEST POP CALLVALUE PUSH2 0x226 JUMPI DUP2 PUSH1 0x3 NOT CALLDATASIZE ADD SLT PUSH2 0x226 JUMPI PUSH1 0xD SLOAD SWAP1 MLOAD PUSH1 0x1 PUSH1 0x1 PUSH1 0xA0 SHL SUB SWAP1 SWAP2 AND DUP2 MSTORE PUSH1 0x20 SWAP1 RETURN JUMPDEST SWAP1 POP CALLVALUE PUSH2 0x2E4 JUMPI PUSH1 0x20 CALLDATASIZE PUSH1 0x3 NOT ADD SLT PUSH2 0x2E4 JUMPI PUSH2 0x26D PUSH2 0x2A32 JUMP JUMPDEST SWAP2 PUSH2 0x276 PUSH2 0x2C60 JUMP JUMPDEST PUSH1 0x1 PUSH1 0x1 PUSH1 0xA0 SHL SUB DUP4 AND ISZERO PUSH2 0x292 JUMPI DUP4 PUSH2 0x28F DUP5 PUSH2 0x2CB8 JUMP JUMPDEST DUP1 RETURN JUMPDEST SWAP1 PUSH1 0x20 PUSH1 0x84 SWAP3 MLOAD SWAP2 PUSH3 0x461BCD PUSH1 0xE5 SHL DUP4 MSTORE DUP3 ADD MSTORE PUSH1 0x26 PUSH1 0x24 DUP3 ADD MSTORE PUSH32 0x4F776E61626C653A206E6577206F776E657220697320746865207A65726F2061 PUSH1 0x44 DUP3 ADD MSTORE PUSH6 0x646472657373 PUSH1 0xD0 SHL PUSH1 0x64 DUP3 ADD MSTORE REVERT JUMPDEST DUP3 DUP1 REVERT JUMPDEST SWAP2 SWAP1 POP CALLVALUE PUSH2 0x2E4 JUMPI DUP1 PUSH1 0x3 NOT CALLDATASIZE ADD SLT PUSH2 0x2E4 JUMPI DUP2 CALLDATALOAD PUSH1 0x24 CALLDATALOAD PUSH2 0x308 PUSH2 0x2C60 JUMP JUMPDEST DUP1 DUP3 GT DUP1 ISZERO SWAP1 PUSH2 0x47B JUMPI JUMPDEST ISZERO PUSH2 0x441 JUMPI SWAP2 PUSH32 0xC43F4C577663CE7707A53BAEBF64360730CF3C3A19C52C07A90CEE2AFF1210A2 DUP2 DUP4 PUSH2 0x28F SWAP7 SWAP6 PUSH32 0x426173655265776172643A20436C61696D20706572696F642075706461746564 SWAP6 DUP4 MLOAD SWAP8 PUSH2 0x36F DUP10 PUSH2 0x2A79 JUMP JUMPDEST PUSH2 0x3A2 PUSH1 0x20 SWAP10 DUP11 DUP2 MSTORE PUSH32 0x426173655265776172643A2053657474696E6720636C61696D20706572696F64 DUP12 DUP3 ADD MSTORE PUSH2 0x46EC JUMP JUMPDEST PUSH2 0x3DF DUP3 DUP7 MLOAD PUSH2 0x3B1 DUP2 PUSH2 0x2A79 JUMP JUMPDEST PUSH1 0x17 DUP2 MSTORE PUSH32 0x426173655265776172643A20537461727420646174653A000000000000000000 DUP13 DUP3 ADD MSTORE PUSH2 0x472D JUMP JUMPDEST PUSH2 0x41C DUP4 DUP7 MLOAD PUSH2 0x3EE DUP2 PUSH2 0x2A79 JUMP JUMPDEST PUSH1 0x18 DUP2 MSTORE PUSH32 0x426173655265776172643A2046696E69736820646174653A0000000000000000 DUP13 DUP3 ADD MSTORE PUSH2 0x472D JUMP JUMPDEST SSTORE DUP1 PUSH1 0x5 SSTORE DUP3 MLOAD SWAP2 DUP3 MSTORE DUP7 DUP3 ADD MSTORE LOG1 MLOAD SWAP2 PUSH2 0x436 DUP4 PUSH2 0x2A79 JUMP JUMPDEST DUP1 DUP4 MSTORE DUP3 ADD MSTORE PUSH2 0x46EC JUMP JUMPDEST DUP3 MLOAD PUSH3 0x461BCD PUSH1 0xE5 SHL DUP2 MSTORE PUSH1 0x20 DUP2 DUP7 ADD MSTORE PUSH1 0x14 PUSH1 0x24 DUP3 ADD MSTORE PUSH20 0x125B9D985B1A590818DB185A5B481C195C9A5BD9 PUSH1 0x62 SHL PUSH1 0x44 DUP3 ADD MSTORE PUSH1 0x64 SWAP1 REVERT JUMPDEST POP DUP1 ISZERO PUSH2 0x313 JUMP JUMPDEST POP POP CALLVALUE PUSH2 0x226 JUMPI DUP2 PUSH1 0x3 NOT CALLDATASIZE ADD SLT PUSH2 0x226 JUMPI PUSH1 0xC SLOAD SWAP1 MLOAD PUSH1 0x1 PUSH1 0x1 PUSH1 0xA0 SHL SUB SWAP1 SWAP2 AND DUP2 MSTORE PUSH1 0x20 SWAP1 RETURN JUMPDEST DUP4 DUP4 CALLVALUE PUSH2 0x226 JUMPI PUSH1 0x20 DUP1 PUSH1 0x3 NOT CALLDATASIZE ADD SLT PUSH2 0x2E4 JUMPI DUP4 CALLDATALOAD SWAP2 PUSH2 0x4CB PUSH2 0x2C60 JUMP JUMPDEST PUSH1 0x5 SLOAD SWAP3 DUP4 ISZERO PUSH2 0x610 JUMPI PUSH2 0x53E DUP3 MLOAD PUSH2 0x4E3 DUP2 PUSH2 0x2A48 JUMP JUMPDEST PUSH1 0x25 DUP2 MSTORE PUSH32 0x426173655265776172643A20457874656E64696E6720636C61696D2070657269 DUP6 DUP3 ADD MSTORE PUSH5 0x6F64206279 PUSH1 0xD8 SHL DUP5 DUP3 ADD MSTORE DUP3 DUP5 MLOAD SWAP2 PUSH2 0x526 DUP4 PUSH2 0x2A79 JUMP JUMPDEST PUSH1 0x7 DUP4 MSTORE PUSH7 0x7365636F6E6473 PUSH1 0xC8 SHL DUP8 DUP5 ADD MSTORE PUSH2 0x4809 JUMP JUMPDEST PUSH2 0x584 DUP5 DUP4 MLOAD PUSH2 0x54D DUP2 PUSH2 0x2A48 JUMP JUMPDEST PUSH1 0x21 DUP2 MSTORE PUSH32 0x426173655265776172643A204F726967696E616C2066696E6973682064617465 DUP7 DUP3 ADD MSTORE PUSH1 0x1D PUSH1 0xF9 SHL DUP6 DUP3 ADD MSTORE PUSH2 0x472D JUMP JUMPDEST DUP4 ADD DUP1 SWAP4 GT PUSH2 0x5FD JUMPI DUP1 PUSH32 0xC43F4C577663CE7707A53BAEBF64360730CF3C3A19C52C07A90CEE2AFF1210A2 PUSH32 0x426173655265776172643A204E65772066696E69736820646174653A00000000 SWAP3 PUSH2 0x28F SWAP7 SWAP8 DUP7 PUSH1 0x5 SSTORE SLOAD DUP2 MLOAD SWAP1 DUP2 MSTORE DUP7 DUP7 DUP3 ADD MSTORE LOG1 MLOAD SWAP2 PUSH2 0x5F1 DUP4 PUSH2 0x2A79 JUMP JUMPDEST PUSH1 0x1C DUP4 MSTORE DUP3 ADD MSTORE PUSH2 0x472D JUMP JUMPDEST PUSH4 0x4E487B71 PUSH1 0xE0 SHL DUP5 MSTORE PUSH1 0x11 DUP6 MSTORE PUSH1 0x24 DUP5 REVERT JUMPDEST DUP2 MLOAD PUSH3 0x461BCD PUSH1 0xE5 SHL DUP2 MSTORE DUP1 DUP8 ADD DUP5 SWAP1 MSTORE PUSH1 0x12 PUSH1 0x24 DUP3 ADD MSTORE PUSH18 0x139BC8199A5B9A5CDA0819185D19481CD95D PUSH1 0x72 SHL PUSH1 0x44 DUP3 ADD MSTORE PUSH1 0x64 SWAP1 REVERT JUMPDEST POP POP CALLVALUE PUSH2 0x226 JUMPI DUP2 PUSH1 0x3 NOT CALLDATASIZE ADD SLT PUSH2 0x226 JUMPI PUSH1 0x20 SWAP1 PUSH1 0x11 SLOAD SWAP1 MLOAD SWAP1 DUP2 MSTORE RETURN JUMPDEST SWAP1 POP CALLVALUE PUSH2 0x2E4 JUMPI PUSH1 0x20 CALLDATASIZE PUSH1 0x3 NOT ADD SLT PUSH2 0x2E4 JUMPI PUSH2 0x682 PUSH2 0x2A32 JUMP JUMPDEST SWAP3 PUSH1 0x6 SLOAD SWAP4 PUSH1 0x3 SLOAD SWAP3 SLOAD SWAP2 PUSH1 0x5 SLOAD SWAP2 PUSH1 0x1 PUSH1 0xA0 SHL PUSH1 0x1 SWAP1 SUB DUP1 SWAP2 AND DUP3 MSTORE PUSH1 0x2 PUSH1 0x20 MSTORE DUP6 DUP3 KECCAK256 SLOAD PUSH1 0xFF AND SWAP2 PUSH1 0xE PUSH1 0x20 MSTORE DUP7 DUP2 KECCAK256 SLOAD PUSH1 0xFF AND PUSH1 0xF PUSH1 0x20 MSTORE DUP8 DUP3 KECCAK256 SLOAD SWAP1 DUP4 DUP1 PUSH1 0xD SLOAD AND SWAP4 SLOAD AND SWAP4 PUSH1 0xC SLOAD AND SWAP5 PUSH1 0x9 SLOAD SWAP7 PUSH1 0x11 SLOAD SWAP9 PUSH1 0xA SLOAD PUSH1 0xFF AND SWAP11 PUSH1 0xB SLOAD SWAP13 DUP1 MLOAD SWAP15 DUP16 SWAP1 DUP1 PUSH1 0x8 SHR PUSH1 0xFF AND ISZERO ISZERO DUP3 MSTORE PUSH1 0xFF AND ISZERO ISZERO PUSH1 0x20 DUP3 ADD MSTORE ADD MSTORE PUSH1 0x60 DUP14 ADD MSTORE PUSH1 0x80 DUP13 ADD MSTORE ISZERO ISZERO PUSH1 0xA0 DUP12 ADD MSTORE ISZERO ISZERO PUSH1 0xC0 DUP11 ADD MSTORE PUSH1 0xE0 DUP10 ADD MSTORE PUSH2 0x100 DUP9 ADD MSTORE PUSH2 0x120 DUP8 ADD MSTORE PUSH2 0x140 DUP7 ADD MSTORE PUSH2 0x160 DUP6 ADD MSTORE PUSH2 0x180 DUP5 ADD MSTORE ISZERO ISZERO PUSH2 0x1A0 DUP4 ADD MSTORE PUSH2 0x1C0 DUP3 ADD MSTORE PUSH2 0x1E0 SWAP1 RETURN JUMPDEST POP POP CALLVALUE PUSH2 0x226 JUMPI DUP2 PUSH1 0x3 NOT CALLDATASIZE ADD SLT PUSH2 0x226 JUMPI PUSH2 0x79D SWAP1 PUSH1 0x1 DUP1 PUSH1 0xA0 SHL SUB PUSH1 0x8 SLOAD AND PUSH1 0x9 SLOAD PUSH1 0x11 SLOAD PUSH1 0xFF PUSH1 0xA SLOAD AND SWAP1 PUSH1 0xB SLOAD SWAP3 PUSH2 0x789 PUSH2 0x2B6C JUMP JUMPDEST SWAP6 DUP1 MLOAD SWAP8 DUP9 SWAP8 PUSH1 0xE0 DUP10 MSTORE PUSH1 0xE0 DUP10 ADD SWAP1 PUSH2 0x2C3B JUMP JUMPDEST SWAP6 PUSH1 0x20 DUP9 ADD MSTORE DUP7 ADD MSTORE DUP1 PUSH1 0x60 DUP7 ADD MSTORE PUSH1 0x80 DUP6 ADD MSTORE ISZERO ISZERO PUSH1 0xA0 DUP5 ADD MSTORE PUSH1 0xC0 DUP4 ADD MSTORE SUB SWAP1 RETURN JUMPDEST POP POP CALLVALUE PUSH2 0x226 JUMPI PUSH1 0x20 CALLDATASIZE PUSH1 0x3 NOT ADD SLT PUSH2 0x226 JUMPI PUSH1 0x20 SWAP1 PUSH2 0x7E7 PUSH2 0x7E2 PUSH2 0x2A32 JUMP JUMPDEST PUSH2 0x4296 JUMP JUMPDEST SWAP1 MLOAD SWAP1 ISZERO ISZERO DUP2 MSTORE RETURN JUMPDEST SWAP1 POP CALLVALUE PUSH2 0x2E4 JUMPI PUSH1 0x20 CALLDATASIZE PUSH1 0x3 NOT ADD SLT PUSH2 0x2E4 JUMPI DUP2 PUSH1 0x20 SWAP4 PUSH1 0xFF SWAP3 CALLDATALOAD DUP2 MSTORE PUSH1 0x10 DUP6 MSTORE KECCAK256 SLOAD AND SWAP1 MLOAD SWAP1 ISZERO ISZERO DUP2 MSTORE RETURN JUMPDEST POP POP CALLVALUE PUSH2 0x226 JUMPI DUP2 PUSH1 0x3 NOT CALLDATASIZE ADD SLT PUSH2 0x226 JUMPI PUSH1 0x20 SWAP1 PUSH1 0x5 SLOAD SWAP1 MLOAD SWAP1 DUP2 MSTORE RETURN JUMPDEST SWAP2 SWAP1 POP CALLVALUE PUSH2 0x2E4 JUMPI DUP3 PUSH1 0x3 NOT CALLDATASIZE ADD SLT PUSH2 0x2E4 JUMPI PUSH1 0x8 SLOAD PUSH1 0xC SLOAD DUP3 MLOAD PUSH4 0x70A08231 PUSH1 0xE0 SHL DUP2 MSTORE PUSH1 0x1 PUSH1 0x1 PUSH1 0xA0 SHL SUB SWAP2 DUP3 AND SWAP5 DUP2 ADD SWAP5 SWAP1 SWAP5 MSTORE PUSH1 0x20 SWAP2 DUP5 SWAP2 PUSH1 0x24 SWAP2 DUP4 SWAP2 AND GAS STATICCALL SWAP2 DUP3 ISZERO PUSH2 0x8CF JUMPI DUP4 SWAP3 PUSH2 0x898 JUMPI JUMPDEST PUSH1 0x20 DUP4 DUP4 MLOAD SWAP1 DUP2 MSTORE RETURN JUMPDEST SWAP1 SWAP2 POP PUSH1 0x20 DUP2 RETURNDATASIZE DUP3 GT PUSH2 0x8C7 JUMPI JUMPDEST DUP2 PUSH2 0x8B3 PUSH1 0x20 SWAP4 DUP4 PUSH2 0x2AAF JUMP JUMPDEST DUP2 ADD SUB SLT PUSH2 0x2E4 JUMPI PUSH1 0x20 SWAP3 POP MLOAD SWAP1 CODESIZE PUSH2 0x88E JUMP JUMPDEST RETURNDATASIZE SWAP2 POP PUSH2 0x8A6 JUMP JUMPDEST DUP2 MLOAD RETURNDATASIZE DUP6 DUP3 RETURNDATACOPY RETURNDATASIZE SWAP1 REVERT JUMPDEST POP POP CALLVALUE PUSH2 0x226 JUMPI PUSH1 0x20 CALLDATASIZE PUSH1 0x3 NOT ADD SLT PUSH2 0x226 JUMPI PUSH1 0x20 SWAP2 DUP2 SWAP1 PUSH1 0x1 PUSH1 0x1 PUSH1 0xA0 SHL SUB PUSH2 0x216 PUSH2 0x2A32 JUMP JUMPDEST DUP3 DUP5 CALLVALUE PUSH2 0x93D JUMPI PUSH1 0x20 CALLDATASIZE PUSH1 0x3 NOT ADD SLT PUSH2 0x93D JUMPI DUP3 CALLDATALOAD SWAP1 PUSH1 0x1 PUSH1 0x1 PUSH1 0x40 SHL SUB DUP3 GT PUSH2 0x93D JUMPI POP PUSH2 0x938 PUSH1 0x20 SWAP4 PUSH2 0x7E7 SWAP3 CALLDATASIZE SWAP2 ADD PUSH2 0x2AEB JUMP JUMPDEST PUSH2 0x3608 JUMP JUMPDEST DUP1 REVERT JUMPDEST POP POP CALLVALUE PUSH2 0x226 JUMPI PUSH1 0x20 CALLDATASIZE PUSH1 0x3 NOT ADD SLT PUSH2 0x226 JUMPI PUSH1 0x20 SWAP2 PUSH1 0xFF SWAP1 DUP3 SWAP1 PUSH1 0x1 PUSH1 0x1 PUSH1 0xA0 SHL SUB PUSH2 0x96B PUSH2 0x2A32 JUMP JUMPDEST AND DUP2 MSTORE PUSH1 0xE DUP6 MSTORE KECCAK256 SLOAD AND SWAP1 MLOAD SWAP1 ISZERO ISZERO DUP2 MSTORE RETURN JUMPDEST POP POP CALLVALUE PUSH2 0x226 JUMPI PUSH1 0x20 CALLDATASIZE PUSH1 0x3 NOT ADD SLT PUSH2 0x226 JUMPI PUSH1 0x20 SWAP1 PUSH2 0x9E9 PUSH2 0x99F PUSH2 0x2A32 JUMP JUMPDEST DUP3 MLOAD PUSH2 0x9AA DUP2 PUSH2 0x2A48 JUMP JUMPDEST PUSH1 0x29 DUP2 MSTORE PUSH32 0x4E465441697264726F705265776172643A2050726F63657373696E6720666565 DUP6 DUP3 ADD MSTORE PUSH9 0x103337B9103AB9B2B9 PUSH1 0xB9 SHL DUP5 DUP3 ADD MSTORE PUSH2 0x47B9 JUMP JUMPDEST MLOAD PUSH1 0x1 DUP2 MSTORE RETURN JUMPDEST SWAP1 POP CALLVALUE PUSH2 0x2E4 JUMPI PUSH1 0x20 CALLDATASIZE PUSH1 0x3 NOT ADD SLT PUSH2 0x2E4 JUMPI PUSH2 0xA0B PUSH2 0x2A32 JUMP JUMPDEST SWAP1 PUSH2 0xA14 PUSH2 0x2C60 JUMP JUMPDEST PUSH1 0xD SLOAD SWAP2 DUP4 MLOAD SWAP1 PUSH2 0xA24 DUP3 PUSH2 0x2A48 JUMP JUMPDEST PUSH1 0x32 DUP3 MSTORE PUSH32 0x4E465441697264726F705265776172643A204D616E75616C6C79207365747469 PUSH1 0x20 DUP4 ADD MSTORE PUSH18 0x6E6720636F6E74726F6C6C65722066726F6D PUSH1 0x70 SHL DUP6 DUP4 ADD MSTORE PUSH2 0xA86 DUP2 PUSH2 0xA74 PUSH2 0x46CE JUMP JUMPDEST PUSH1 0x1 PUSH1 0x1 PUSH1 0xA0 SHL SUB SWAP5 DUP8 DUP7 AND SWAP1 PUSH2 0x48AA JUMP JUMPDEST AND SWAP3 DUP4 ISZERO PUSH2 0xAA1 JUMPI POP POP PUSH1 0x1 PUSH1 0x1 PUSH1 0xA0 SHL SUB NOT AND OR PUSH1 0xD SSTORE DUP1 RETURN JUMPDEST SWAP1 PUSH1 0x20 PUSH1 0x64 SWAP3 MLOAD SWAP2 PUSH3 0x461BCD PUSH1 0xE5 SHL DUP4 MSTORE DUP3 ADD MSTORE PUSH1 0x1A PUSH1 0x24 DUP3 ADD MSTORE PUSH32 0x496E76616C696420636F6E74726F6C6C65722061646472657373000000000000 PUSH1 0x44 DUP3 ADD MSTORE REVERT JUMPDEST POP POP CALLVALUE PUSH2 0x226 JUMPI DUP2 PUSH1 0x3 NOT CALLDATASIZE ADD SLT PUSH2 0x226 JUMPI SWAP1 SLOAD SWAP1 MLOAD PUSH1 0x1 PUSH1 0x1 PUSH1 0xA0 SHL SUB SWAP1 SWAP2 AND DUP2 MSTORE PUSH1 0x20 SWAP1 RETURN JUMPDEST DUP4 DUP4 CALLVALUE PUSH2 0x226 JUMPI DUP1 PUSH1 0x3 NOT CALLDATASIZE ADD SLT PUSH2 0x226 JUMPI DUP3 CALLDATALOAD SWAP3 DUP4 ISZERO ISZERO DUP5 SUB PUSH2 0x2E4 JUMPI PUSH1 0x24 CALLDATALOAD SWAP4 PUSH2 0xB36 PUSH2 0x2C60 JUMP JUMPDEST PUSH2 0xB8F DUP2 DUP5 MLOAD PUSH2 0xB45 DUP2 PUSH2 0x2A48 JUMP JUMPDEST PUSH1 0x33 DUP2 MSTORE PUSH32 0x4E465441697264726F705265776172643A2053657474696E67206175746F6D61 PUSH1 0x20 DUP3 ADD MSTORE PUSH19 0x74696320646973747269627574696F6E20746F PUSH1 0x68 SHL DUP7 DUP3 ADD MSTORE PUSH2 0x4772 JUMP JUMPDEST ISZERO PUSH2 0xC84 JUMPI POP PUSH32 0x991D63B6A99732D94EDA42BEC59D2DC29056A434C3EA89B24D18D3977B521463 PUSH1 0x20 PUSH2 0x28F SWAP4 SWAP5 PUSH2 0xBC8 TIMESTAMP DUP3 GT PUSH2 0x2E34 JUMP JUMPDEST PUSH2 0xC1B DUP2 DUP6 MLOAD PUSH2 0xBD7 DUP2 PUSH2 0x2A48 JUMP JUMPDEST PUSH1 0x2E DUP2 MSTORE PUSH32 0x4E465441697264726F705265776172643A2053657474696E6720646973747269 DUP6 DUP3 ADD MSTORE PUSH14 0x627574696F6E206461746520746F PUSH1 0x90 SHL DUP8 DUP3 ADD MSTORE PUSH2 0x472D JUMP JUMPDEST PUSH1 0x1 PUSH1 0xFF NOT PUSH1 0xA SLOAD AND OR PUSH1 0xA SSTORE DUP1 PUSH1 0xB SSTORE DUP1 PUSH1 0x5 SSTORE DUP4 MLOAD SWAP1 DUP2 MSTORE LOG1 JUMPDEST PUSH32 0x7269627574696F6E2075706461746564207375636365737366756C6C79000000 DUP2 MLOAD SWAP2 PUSH2 0xC64 DUP4 PUSH2 0x2A48 JUMP JUMPDEST PUSH1 0x3D DUP4 MSTORE PUSH1 0x0 DUP1 MLOAD PUSH1 0x20 PUSH2 0x4939 DUP4 CODECOPY DUP2 MLOAD SWAP2 MSTORE PUSH1 0x20 DUP5 ADD MSTORE DUP3 ADD MSTORE PUSH2 0x46EC JUMP JUMPDEST SWAP3 POP PUSH1 0xFF NOT PUSH1 0xA SLOAD AND PUSH1 0xA SSTORE PUSH3 0x278D00 TIMESTAMP ADD DUP1 TIMESTAMP GT PUSH2 0xCCF JUMPI PUSH2 0x28F SWAP3 SWAP4 POP PUSH1 0x5 SSTORE PUSH32 0x88AFC90084128CBB9137EC527935A280B18F8E248F2D110BB4072B5403E9342F DUP4 DUP1 LOG1 PUSH2 0xC37 JUMP JUMPDEST PUSH4 0x4E487B71 PUSH1 0xE0 SHL DUP4 MSTORE PUSH1 0x11 DUP5 MSTORE PUSH1 0x24 DUP4 REVERT JUMPDEST POP POP CALLVALUE PUSH2 0x226 JUMPI DUP2 PUSH1 0x3 NOT CALLDATASIZE ADD SLT PUSH2 0x226 JUMPI DUP1 MLOAD PUSH2 0xD2D SWAP2 PUSH2 0xD03 DUP3 PUSH2 0x2A79 JUMP JUMPDEST PUSH1 0xB DUP3 MSTORE PUSH11 0x4E46545F41495244524F5 PUSH1 0xAC SHL PUSH1 0x20 DUP4 ADD MSTORE MLOAD SWAP2 DUP3 SWAP2 PUSH1 0x20 DUP4 MSTORE PUSH1 0x20 DUP4 ADD SWAP1 PUSH2 0x2C3B JUMP JUMPDEST SUB SWAP1 RETURN JUMPDEST DUP4 DUP4 CALLVALUE PUSH2 0x226 JUMPI PUSH1 0x20 SWAP1 DUP2 PUSH1 0x3 NOT CALLDATASIZE ADD SLT PUSH2 0x2E4 JUMPI DUP4 CALLDATALOAD PUSH1 0x1 PUSH1 0x1 PUSH1 0x40 SHL SUB DUP2 GT PUSH2 0x129A JUMPI PUSH2 0xD63 SWAP1 CALLDATASIZE SWAP1 DUP7 ADD PUSH2 0x29FD JUMP JUMPDEST SWAP5 SWAP1 PUSH2 0xD6D PUSH2 0x37F7 JUMP JUMPDEST PUSH2 0xDD0 DUP4 MLOAD PUSH2 0xD7B DUP2 PUSH2 0x2A48 JUMP JUMPDEST PUSH1 0x38 DUP2 MSTORE PUSH32 0x4E465441697264726F705265776172643A20747269676765724175746F6D6174 DUP7 DUP3 ADD MSTORE PUSH32 0x6963446973747269627574696F6E2063616C6C65642062790000000000000000 DUP6 DUP3 ADD MSTORE CALLER SWAP1 PUSH2 0x47B9 JUMP JUMPDEST DUP5 SLOAD PUSH1 0x1 PUSH1 0x1 PUSH1 0xA0 SHL SUB SWAP1 DUP2 AND CALLER EQ DUP1 ISZERO PUSH2 0x128D JUMPI JUMPDEST DUP1 PUSH2 0xDFB PUSH2 0xE00 SWAP3 PUSH2 0xDF6 PUSH2 0x384D JUMP JUMPDEST PUSH2 0x4772 JUMP JUMPDEST PUSH2 0x3886 JUMP JUMPDEST PUSH1 0xFF SWAP1 DUP2 PUSH1 0xA SLOAD AND DUP6 MLOAD SWAP5 PUSH2 0xE14 DUP7 PUSH2 0x2A48 JUMP JUMPDEST PUSH1 0x31 SWAP2 DUP3 DUP8 MSTORE PUSH2 0xE51 DUP2 PUSH1 0x0 DUP1 MLOAD PUSH1 0x20 PUSH2 0x4939 DUP4 CODECOPY DUP2 MLOAD SWAP2 MSTORE SWAP9 DUP10 DUP13 DUP3 ADD MSTORE PUSH17 0x7269627574696F6E20656E61626C65643F PUSH1 0x78 SHL DUP12 DUP3 ADD MSTORE PUSH2 0x4772 JUMP JUMPDEST ISZERO PUSH2 0x123F JUMPI PUSH2 0xE94 DUP8 MLOAD PUSH2 0xE64 DUP2 PUSH2 0x2A79 JUMP JUMPDEST PUSH1 0x1E DUP2 MSTORE PUSH32 0x4E465441697264726F705265776172643A2043757272656E742074696D650000 DUP11 DUP3 ADD MSTORE TIMESTAMP SWAP1 PUSH2 0x472D JUMP JUMPDEST PUSH1 0xB SLOAD PUSH2 0xEDF DUP2 DUP10 MLOAD PUSH2 0xEA6 DUP2 PUSH2 0x2A48 JUMP JUMPDEST PUSH1 0x23 DUP2 MSTORE PUSH32 0x4E465441697264726F705265776172643A20446973747269627574696F6E2064 DUP13 DUP3 ADD MSTORE PUSH3 0x617465 PUSH1 0xE8 SHL DUP12 DUP3 ADD MSTORE PUSH2 0x472D JUMP JUMPDEST TIMESTAMP LT PUSH2 0x11FC JUMPI POP PUSH2 0xF65 DUP7 MLOAD PUSH2 0xEF4 DUP2 PUSH2 0x2A48 JUMP JUMPDEST PUSH1 0x37 DUP2 MSTORE PUSH32 0x4E465441697264726F705265776172643A2050726F63657373696E6720617574 DUP10 DUP3 ADD MSTORE PUSH32 0x6F6D6174696320646973747269627574696F6E20666F72000000000000000000 DUP9 DUP3 ADD MSTORE DUP11 DUP9 MLOAD SWAP2 PUSH2 0xF4F DUP4 PUSH2 0x2A79 JUMP JUMPDEST PUSH1 0x5 DUP4 MSTORE PUSH5 0x7573657273 PUSH1 0xD8 SHL DUP12 DUP5 ADD MSTORE PUSH2 0x4809 JUMP JUMPDEST DUP8 JUMPDEST DUP10 DUP2 LT PUSH2 0xFAE JUMPI JUMPDEST DUP9 PUSH2 0xFA7 DUP10 PUSH18 0x1C9A589D5D1A5BDB8818DBDB5C1B195D1959 PUSH1 0x72 SHL DUP11 DUP11 DUP2 MLOAD SWAP4 PUSH2 0xF98 DUP6 PUSH2 0x2A48 JUMP JUMPDEST PUSH1 0x32 DUP6 MSTORE DUP5 ADD MSTORE DUP3 ADD MSTORE PUSH2 0x46EC JUMP JUMPDEST PUSH1 0x1 DUP1 SSTORE DUP1 RETURN JUMPDEST PUSH2 0xFC1 PUSH2 0xFBC DUP3 DUP13 DUP9 PUSH2 0x3A8F JUMP JUMPDEST PUSH2 0x3AB5 JUMP JUMPDEST DUP4 DUP2 AND DUP1 DUP12 MSTORE PUSH1 0xE SWAP1 DUP2 DUP12 MSTORE DUP7 DUP11 DUP14 KECCAK256 SLOAD AND DUP1 ISZERO PUSH2 0x11F4 JUMPI JUMPDEST PUSH2 0x1194 JUMPI PUSH1 0x11 SWAP2 DUP3 SLOAD PUSH1 0x9 SLOAD GT ISZERO PUSH2 0x1100 JUMPI SWAP2 DUP4 SWAP2 DUP12 DUP15 DUP15 SWAP6 PUSH2 0x1046 PUSH2 0x10B8 SWAP10 SWAP9 DUP5 MLOAD PUSH2 0x1006 DUP2 PUSH2 0x2A48 JUMP JUMPDEST PUSH1 0x2A DUP2 MSTORE PUSH32 0x4E465441697264726F705265776172643A20446973747269627574696E67204E DUP11 DUP3 ADD MSTORE PUSH10 0x232A103A37903AB9B2B9 PUSH1 0xB1 SHL DUP7 DUP3 ADD MSTORE PUSH2 0x47B9 JUMP JUMPDEST DUP4 DUP3 MSTORE PUSH1 0xF DUP8 MSTORE DUP3 DUP3 KECCAK256 SLOAD SWAP7 DUP8 ISZERO PUSH2 0x10D4 JUMPI JUMPDEST SWAP1 PUSH2 0x1098 SWAP4 SWAP3 SWAP2 PUSH2 0x1071 DUP10 PUSH2 0x106C PUSH2 0x3935 JUMP JUMPDEST PUSH2 0x472D JUMP JUMPDEST DUP6 DUP4 MSTORE MSTORE KECCAK256 SWAP5 PUSH1 0x1 SWAP4 PUSH1 0xFF NOT SWAP7 DUP6 DUP9 DUP3 SLOAD AND OR SWAP1 SSTORE PUSH2 0x1090 DUP2 SLOAD PUSH2 0x397B JUMP JUMPDEST SWAP1 SSTORE DUP5 PUSH2 0x3DCD JUMP JUMPDEST DUP14 MSTORE PUSH1 0x2 DUP13 MSTORE DUP11 DUP14 KECCAK256 SWAP1 DUP2 SLOAD SWAP4 DUP10 DUP6 AND ISZERO PUSH2 0x10BD JUMPI JUMPDEST POP POP POP POP POP PUSH2 0x397B JUMP JUMPDEST PUSH2 0xF67 JUMP JUMPDEST PUSH2 0x10CA SWAP5 AND OR SWAP1 SSTORE PUSH2 0x398A JUMP JUMPDEST DUP12 DUP1 DUP1 DUP1 DUP1 PUSH2 0x10AE JUMP JUMPDEST SWAP7 POP SWAP1 PUSH2 0x1098 SWAP3 SWAP2 PUSH2 0x10EC PUSH2 0x10E7 PUSH2 0x38C3 JUMP JUMPDEST PUSH2 0x46EC JUMP JUMPDEST PUSH2 0x10F5 DUP8 PUSH2 0x3AE8 JUMP JUMPDEST SWAP8 SWAP1 SWAP2 SWAP3 SWAP4 POP PUSH2 0x1059 JUMP JUMPDEST POP POP POP POP POP POP POP POP POP PUSH2 0xFA7 SWAP4 SWAP5 POP SWAP1 PUSH18 0x1C9A589D5D1A5BDB8818DBDB5C1B195D1959 PUSH1 0x72 SHL SWAP2 PUSH2 0x1188 DUP3 MLOAD PUSH2 0x1135 DUP2 PUSH2 0x2A48 JUMP JUMPDEST PUSH1 0x3E DUP2 MSTORE PUSH32 0x4E465441697264726F705265776172643A2041697264726F70206C696D697420 DUP7 DUP3 ADD MSTORE PUSH32 0x726561636865642C2073746F7070696E6720646973747269627574696F6E0000 DUP5 DUP3 ADD MSTORE PUSH2 0x46EC JUMP JUMPDEST SWAP1 SWAP2 DUP6 SWAP5 DUP8 DUP1 DUP1 PUSH2 0xF6F JUMP JUMPDEST POP POP SWAP1 PUSH2 0x11EF PUSH2 0x10B8 SWAP3 DUP10 MLOAD PUSH2 0x11A9 DUP2 PUSH2 0x2A48 JUMP JUMPDEST DUP6 DUP2 MSTORE PUSH32 0x4E465441697264726F705265776172643A205573657220616C72656164792063 DUP13 DUP3 ADD MSTORE PUSH17 0x1B185A5B5959081BDC881A5B9D985B1A59 PUSH1 0x7A SHL DUP12 DUP3 ADD MSTORE PUSH2 0x47B9 JUMP JUMPDEST PUSH2 0x397B JUMP JUMPDEST POP DUP1 ISZERO PUSH2 0xFDA JUMP JUMPDEST DUP7 MLOAD PUSH3 0x461BCD PUSH1 0xE5 SHL DUP2 MSTORE SWAP1 DUP2 ADD DUP9 SWAP1 MSTORE PUSH1 0x1D PUSH1 0x24 DUP3 ADD MSTORE PUSH32 0x446973747269627574696F6E2064617465206E6F742072656163686564000000 PUSH1 0x44 DUP3 ADD MSTORE PUSH1 0x64 SWAP1 REVERT JUMPDEST DUP7 MLOAD PUSH3 0x461BCD PUSH1 0xE5 SHL DUP2 MSTORE SWAP1 DUP2 ADD DUP9 SWAP1 MSTORE PUSH1 0x22 PUSH1 0x24 DUP3 ADD MSTORE PUSH32 0x4175746F6D6174696320646973747269627574696F6E206E6F7420656E61626C PUSH1 0x44 DUP3 ADD MSTORE PUSH2 0x1959 PUSH1 0xF2 SHL PUSH1 0x64 DUP3 ADD MSTORE PUSH1 0x84 SWAP1 REVERT JUMPDEST POP PUSH1 0xD SLOAD DUP2 AND CALLER EQ PUSH2 0xDE6 JUMP JUMPDEST DUP4 DUP1 REVERT JUMPDEST POP POP CALLVALUE PUSH2 0x226 JUMPI DUP2 PUSH1 0x3 NOT CALLDATASIZE ADD SLT PUSH2 0x226 JUMPI PUSH2 0x12EA SWAP1 PUSH2 0x12BC PUSH2 0x2B6C JUMP JUMPDEST SWAP1 PUSH1 0x1 DUP1 PUSH1 0xA0 SHL SUB PUSH1 0x8 SLOAD AND SWAP1 PUSH1 0x9 SLOAD PUSH1 0xFF PUSH1 0xA SLOAD AND SWAP1 PUSH1 0xB SLOAD SWAP3 DUP1 MLOAD SWAP7 DUP8 SWAP7 PUSH1 0xA0 DUP9 MSTORE PUSH1 0xA0 DUP9 ADD SWAP1 PUSH2 0x2C3B JUMP JUMPDEST SWAP5 PUSH1 0x20 DUP8 ADD MSTORE DUP6 ADD MSTORE ISZERO ISZERO PUSH1 0x60 DUP5 ADD MSTORE PUSH1 0x80 DUP4 ADD MSTORE SUB SWAP1 RETURN JUMPDEST SWAP2 SWAP1 POP CALLVALUE PUSH2 0x2E4 JUMPI DUP3 PUSH1 0x3 NOT CALLDATASIZE ADD SLT PUSH2 0x2E4 JUMPI PUSH1 0x20 SWAP3 POP PUSH1 0xFF PUSH1 0x6 SLOAD AND SWAP2 DUP3 PUSH2 0x1357 JUMPI JUMPDEST POP DUP2 PUSH2 0x1336 JUMPI JUMPDEST MLOAD SWAP1 ISZERO ISZERO DUP2 MSTORE RETURN JUMPDEST SWAP1 POP PUSH1 0x5 SLOAD DUP1 ISZERO SWAP1 DUP2 ISZERO PUSH2 0x134C JUMPI JUMPDEST POP SWAP1 PUSH2 0x132E JUMP JUMPDEST SWAP1 POP TIMESTAMP GT ISZERO CODESIZE PUSH2 0x1345 JUMP JUMPDEST SLOAD TIMESTAMP LT ISZERO SWAP2 POP CODESIZE PUSH2 0x1327 JUMP JUMPDEST POP POP CALLVALUE PUSH2 0x226 JUMPI PUSH1 0x20 CALLDATASIZE PUSH1 0x3 NOT ADD SLT PUSH2 0x226 JUMPI PUSH1 0x20 SWAP2 PUSH1 0xFF SWAP1 DUP3 SWAP1 PUSH1 0x1 PUSH1 0x1 PUSH1 0xA0 SHL SUB PUSH2 0x138E PUSH2 0x2A32 JUMP JUMPDEST AND DUP2 MSTORE PUSH1 0x2 DUP6 MSTORE KECCAK256 SLOAD AND SWAP1 MLOAD SWAP1 ISZERO ISZERO DUP2 MSTORE RETURN JUMPDEST DUP4 CALLVALUE PUSH2 0x93D JUMPI DUP1 PUSH1 0x3 NOT CALLDATASIZE ADD SLT PUSH2 0x93D JUMPI PUSH2 0x13BA PUSH2 0x2C60 JUMP JUMPDEST DUP1 SLOAD PUSH1 0x1 PUSH1 0x1 PUSH1 0xA0 SHL SUB NOT DUP2 AND DUP3 SSTORE DUP2 SWAP1 PUSH1 0x1 PUSH1 0x1 PUSH1 0xA0 SHL SUB AND PUSH32 0x8BE0079C531659141344CD1FD0A4F28419497F9722A3DAAFE3B4186F6B6457E0 DUP3 DUP1 LOG3 DUP1 RETURN JUMPDEST DUP4 DUP4 CALLVALUE PUSH2 0x226 JUMPI PUSH1 0x60 CALLDATASIZE PUSH1 0x3 NOT ADD SLT PUSH2 0x226 JUMPI DUP3 CALLDATALOAD PUSH1 0x1 PUSH1 0x1 PUSH1 0x40 SHL SUB DUP2 GT PUSH2 0x2E4 JUMPI PUSH2 0x142B SWAP1 CALLDATASIZE SWAP1 DUP6 ADD PUSH2 0x2AEB JUMP JUMPDEST PUSH1 0x1 PUSH1 0x1 PUSH1 0xA0 SHL SUB PUSH1 0x24 CALLDATALOAD DUP2 DUP2 AND SWAP3 SWAP1 DUP4 DUP2 SUB PUSH2 0x162B JUMPI PUSH1 0x44 CALLDATALOAD SWAP7 DUP4 DUP9 AND SWAP5 DUP6 DUP10 SUB PUSH2 0x1627 JUMPI PUSH2 0x146F PUSH1 0xFF PUSH1 0x6 SLOAD PUSH1 0x8 SHR AND PUSH2 0x1469 DUP2 PUSH2 0xDF6 PUSH2 0x2CFF JUMP JUMPDEST ISZERO PUSH2 0x2D54 JUMP JUMPDEST PUSH2 0x14BF DUP4 DUP9 MLOAD PUSH2 0x147E DUP2 PUSH2 0x2A48 JUMP JUMPDEST PUSH1 0x2A DUP2 MSTORE PUSH32 0x426173655265776172643A20496E697469616C697A696E6720636C6F6E652077 PUSH1 0x20 DUP3 ADD MSTORE PUSH10 0x34BA341037BBB732B91D PUSH1 0xB1 SHL DUP11 DUP3 ADD MSTORE PUSH2 0x47B9 JUMP JUMPDEST PUSH2 0x14FD DUP10 DUP9 MLOAD PUSH2 0x14CE DUP2 PUSH2 0x2A79 JUMP JUMPDEST PUSH1 0x17 DUP2 MSTORE PUSH32 0x426173655265776172643A20436F6E74726F6C6C65723A000000000000000000 PUSH1 0x20 DUP3 ADD MSTORE PUSH2 0x47B9 JUMP JUMPDEST ISZERO PUSH2 0x15EC JUMPI POP SWAP6 PUSH2 0x151D PUSH2 0x1578 SWAP3 PUSH2 0x1518 PUSH2 0x15D2 SWAP9 SWAP10 PUSH2 0x2CB8 JUMP JUMPDEST PUSH2 0x2E90 JUMP JUMPDEST PUSH1 0xD SLOAD SWAP3 DUP6 MLOAD PUSH2 0x152C DUP2 PUSH2 0x2A48 JUMP JUMPDEST PUSH1 0x29 DUP2 MSTORE PUSH32 0x4E465441697264726F705265776172643A2053657474696E6720636F6E74726F PUSH1 0x20 DUP3 ADD MSTORE PUSH9 0x6C6C65722066726F6D PUSH1 0xB8 SHL DUP8 DUP3 ADD MSTORE PUSH2 0x156F PUSH2 0x46CE JUMP JUMPDEST SWAP2 DUP6 AND SWAP1 PUSH2 0x48AA JUMP JUMPDEST PUSH1 0x1 PUSH1 0x1 PUSH1 0xA0 SHL SUB NOT AND OR PUSH1 0xD SSTORE DUP1 MLOAD SWAP1 PUSH9 0x20636F6D706C657465 PUSH1 0xB8 SHL SWAP1 PUSH2 0x15A0 DUP4 PUSH2 0x2A48 JUMP JUMPDEST PUSH1 0x29 DUP4 MSTORE PUSH32 0x426173655265776172643A20436C6F6E6520696E697469616C697A6174696F6E PUSH1 0x20 DUP5 ADD MSTORE DUP3 ADD MSTORE PUSH2 0x46EC JUMP JUMPDEST PUSH2 0x100 PUSH2 0xFF00 NOT PUSH1 0x6 SLOAD AND OR PUSH1 0x6 SSTORE PUSH2 0x28F PUSH2 0x10E7 PUSH2 0x2D96 JUMP JUMPDEST PUSH1 0x64 SWAP1 PUSH1 0x20 DUP8 MLOAD SWAP2 PUSH3 0x461BCD PUSH1 0xE5 SHL DUP4 MSTORE DUP3 ADD MSTORE PUSH1 0x15 PUSH1 0x24 DUP3 ADD MSTORE PUSH21 0x496E76616C6964206F776E65722061646472657373 PUSH1 0x58 SHL PUSH1 0x44 DUP3 ADD MSTORE REVERT JUMPDEST DUP8 DUP1 REVERT JUMPDEST DUP6 DUP1 REVERT JUMPDEST DUP4 SWAP2 POP CALLVALUE PUSH2 0x226 JUMPI DUP2 PUSH1 0x3 NOT CALLDATASIZE ADD SLT PUSH2 0x226 JUMPI PUSH2 0x164A PUSH2 0x37F7 JUMP JUMPDEST PUSH2 0x1655 PUSH2 0x10E7 PUSH2 0x361B JUMP JUMPDEST PUSH2 0x16B8 PUSH1 0xFF PUSH1 0x6 SLOAD AND PUSH2 0x166A DUP2 PUSH2 0xDF6 PUSH2 0x3654 JUMP JUMPDEST PUSH2 0x1676 TIMESTAMP PUSH2 0x106C PUSH2 0x368D JUMP JUMPDEST DUP3 SLOAD PUSH2 0x1684 DUP2 PUSH2 0x106C PUSH2 0x36C6 JUMP JUMPDEST PUSH2 0x169C PUSH1 0x5 SLOAD SWAP3 PUSH2 0x1697 DUP5 PUSH2 0x106C PUSH2 0x36FF JUMP JUMPDEST PUSH2 0x3738 JUMP JUMPDEST TIMESTAMP LT ISZERO SWAP1 DUP2 PUSH2 0x1AF6 JUMPI JUMPDEST POP PUSH2 0x16B3 DUP2 PUSH2 0xDF6 PUSH2 0x377B JUMP JUMPDEST PUSH2 0x37B4 JUMP JUMPDEST DUP3 MLOAD SWAP1 PUSH2 0x16C4 DUP3 PUSH2 0x2A48 JUMP JUMPDEST PUSH1 0x24 DUP3 MSTORE PUSH2 0x1706 PUSH1 0x20 SWAP3 PUSH32 0x4E465441697264726F705265776172643A20636C61696D4E46542063616C6C65 DUP5 DUP3 ADD MSTORE PUSH4 0x64206279 PUSH1 0xE0 SHL DUP7 DUP3 ADD MSTORE CALLER SWAP1 PUSH2 0x47B9 JUMP JUMPDEST PUSH2 0x170E PUSH2 0x37F7 JUMP JUMPDEST PUSH2 0x1719 PUSH2 0x10E7 PUSH2 0x361B JUMP JUMPDEST PUSH2 0x1771 PUSH1 0xFF PUSH1 0x6 SLOAD AND PUSH2 0x172E DUP2 PUSH2 0xDF6 PUSH2 0x3654 JUMP JUMPDEST PUSH2 0x173A TIMESTAMP PUSH2 0x106C PUSH2 0x368D JUMP JUMPDEST DUP3 SLOAD PUSH2 0x1748 DUP2 PUSH2 0x106C PUSH2 0x36C6 JUMP JUMPDEST PUSH2 0x175B PUSH1 0x5 SLOAD SWAP3 PUSH2 0x1697 DUP5 PUSH2 0x106C PUSH2 0x36FF JUMP JUMPDEST TIMESTAMP LT ISZERO SWAP1 DUP2 PUSH2 0x1AD9 JUMPI POP PUSH2 0x16B3 DUP2 PUSH2 0xDF6 PUSH2 0x377B JUMP JUMPDEST PUSH2 0x17BE DUP5 MLOAD PUSH2 0x177F DUP2 PUSH2 0x2A48 JUMP JUMPDEST PUSH1 0x27 DUP2 MSTORE PUSH32 0x4E465441697264726F705265776172643A20636C61696D2063616C6C65642066 DUP5 DUP3 ADD MSTORE PUSH7 0x37B9103AB9B2B9 PUSH1 0xC9 SHL DUP7 DUP3 ADD MSTORE CALLER SWAP1 PUSH2 0x47B9 JUMP JUMPDEST PUSH2 0x17FB DUP5 MLOAD PUSH2 0x17CC DUP2 PUSH2 0x2A79 JUMP JUMPDEST DUP4 DUP2 MSTORE PUSH32 0x4E465441697264726F705265776172643A204D6573736167652073656E646572 DUP5 DUP3 ADD MSTORE CALLER SWAP1 PUSH2 0x47B9 JUMP JUMPDEST PUSH2 0x187C PUSH1 0x1 DUP1 PUSH1 0xA0 SHL SUB PUSH2 0x1846 DUP2 PUSH1 0xD SLOAD AND DUP8 MLOAD PUSH2 0x1818 DUP2 PUSH2 0x2A79 JUMP JUMPDEST PUSH1 0x1C DUP2 MSTORE PUSH32 0x4E465441697264726F705265776172643A20436F6E74726F6C6C657200000000 DUP8 DUP3 ADD MSTORE PUSH2 0x47B9 JUMP JUMPDEST DUP5 SLOAD AND DUP6 MLOAD PUSH2 0x1854 DUP2 PUSH2 0x2A79 JUMP JUMPDEST PUSH1 0x17 DUP2 MSTORE PUSH23 0x27232A20B4B9323937B82932BBB0B9321D1027BBB732B9 PUSH1 0x49 SHL DUP6 DUP3 ADD MSTORE PUSH2 0x47B9 JUMP JUMPDEST PUSH2 0x1885 CALLER PUSH2 0x4296 JUMP JUMPDEST PUSH2 0x18CB DUP2 DUP7 MLOAD PUSH2 0x1894 DUP2 PUSH2 0x2A48 JUMP JUMPDEST PUSH1 0x21 DUP2 MSTORE PUSH32 0x4E465441697264726F705265776172643A2043616E207573657220636C61696D DUP7 DUP3 ADD MSTORE PUSH1 0x3F PUSH1 0xF8 SHL DUP9 DUP3 ADD MSTORE PUSH2 0x4772 JUMP JUMPDEST ISZERO PUSH2 0x1AA5 JUMPI CALLER DUP4 MSTORE PUSH1 0xE DUP3 MSTORE PUSH2 0x1928 PUSH1 0xFF DUP6 DUP6 KECCAK256 SLOAD AND DUP6 MLOAD PUSH2 0x18EC DUP2 PUSH2 0x2A48 JUMP JUMPDEST PUSH1 0x26 DUP2 MSTORE PUSH32 0x4E465441697264726F705265776172643A2048617320616C726561647920636C DUP6 DUP3 ADD MSTORE PUSH6 0x61696D65643F PUSH1 0xD0 SHL DUP8 DUP3 ADD MSTORE PUSH2 0x4772 JUMP JUMPDEST CALLER DUP4 MSTORE PUSH1 0xE DUP3 MSTORE PUSH1 0xFF DUP5 DUP5 KECCAK256 SLOAD AND PUSH2 0x1A72 JUMPI PUSH1 0x11 SLOAD PUSH1 0x9 SLOAD GT ISZERO PUSH2 0x1A39 JUMPI POP PUSH18 0x321039BAB1B1B2B9B9B33AB6363C903337B9 PUSH1 0x71 SHL PUSH2 0xFA7 SWAP3 SWAP4 CALLER DUP6 MSTORE PUSH1 0xF DUP4 MSTORE DUP1 DUP6 KECCAK256 SLOAD DUP1 ISZERO PUSH2 0x1A1F JUMPI JUMPDEST PUSH2 0x1980 DUP2 PUSH2 0x106C PUSH2 0x3935 JUMP JUMPDEST CALLER DUP7 MSTORE PUSH1 0xE DUP5 MSTORE PUSH2 0x19AF DUP3 DUP8 KECCAK256 SWAP2 PUSH1 0xFF NOT SWAP3 PUSH1 0x1 DUP5 DUP3 SLOAD AND OR SWAP1 SSTORE PUSH2 0x19A6 PUSH1 0x11 SLOAD PUSH2 0x397B JUMP JUMPDEST PUSH1 0x11 SSTORE CALLER PUSH2 0x3DCD JUMP JUMPDEST CALLER DUP7 MSTORE PUSH1 0x2 DUP5 MSTORE DUP2 DUP7 KECCAK256 SWAP1 DUP2 SLOAD SWAP1 PUSH1 0xFF DUP3 AND ISZERO PUSH2 0x1A08 JUMPI JUMPDEST POP POP POP PUSH32 0x4E465441697264726F705265776172643A20436C61696D20636F6D706C657465 DUP2 MLOAD SWAP4 PUSH2 0x19F7 DUP6 PUSH2 0x2A48 JUMP JUMPDEST PUSH1 0x32 DUP6 MSTORE DUP5 ADD MSTORE DUP3 ADD MSTORE CALLER SWAP1 PUSH2 0x47B9 JUMP JUMPDEST AND PUSH1 0x1 OR SWAP1 SSTORE PUSH2 0x1A17 CALLER PUSH2 0x398A JUMP JUMPDEST DUP6 DUP1 DUP1 PUSH2 0x19C7 JUMP JUMPDEST POP PUSH2 0x1A2B PUSH2 0x10E7 PUSH2 0x38C3 JUMP JUMPDEST PUSH2 0x1A34 CALLER PUSH2 0x3AE8 JUMP JUMPDEST PUSH2 0x1974 JUMP JUMPDEST PUSH1 0x64 SWAP2 DUP5 MLOAD SWAP2 PUSH3 0x461BCD PUSH1 0xE5 SHL DUP4 MSTORE DUP3 ADD MSTORE PUSH1 0x15 PUSH1 0x24 DUP3 ADD MSTORE PUSH21 0x105A5C991C9BDC081B1A5B5A5D081C995858DA1959 PUSH1 0x5A SHL PUSH1 0x44 DUP3 ADD MSTORE REVERT JUMPDEST PUSH1 0x64 SWAP2 DUP5 MLOAD SWAP2 PUSH3 0x461BCD PUSH1 0xE5 SHL DUP4 MSTORE DUP3 ADD MSTORE PUSH1 0xF PUSH1 0x24 DUP3 ADD MSTORE PUSH15 0x105B1C9958591E4818DB185A5B5959 PUSH1 0x8A SHL PUSH1 0x44 DUP3 ADD MSTORE REVERT JUMPDEST PUSH1 0x64 SWAP2 DUP5 MLOAD SWAP2 PUSH3 0x461BCD PUSH1 0xE5 SHL DUP4 MSTORE DUP3 ADD MSTORE PUSH1 0x10 PUSH1 0x24 DUP3 ADD MSTORE PUSH16 0x10D85B9B9BDD0818DB185A5B48139195 PUSH1 0x82 SHL PUSH1 0x44 DUP3 ADD MSTORE REVERT JUMPDEST DUP1 ISZERO SWAP2 POP DUP2 ISZERO PUSH2 0x1AEB JUMPI JUMPDEST POP DUP7 PUSH2 0x16A6 JUMP JUMPDEST SWAP1 POP TIMESTAMP GT ISZERO DUP7 PUSH2 0x1AE4 JUMP JUMPDEST DUP1 ISZERO SWAP2 POP DUP2 ISZERO PUSH2 0x1B08 JUMPI JUMPDEST POP DUP6 PUSH2 0x16A6 JUMP JUMPDEST SWAP1 POP TIMESTAMP GT ISZERO DUP6 PUSH2 0x1B01 JUMP JUMPDEST POP POP CALLVALUE PUSH2 0x226 JUMPI PUSH1 0x20 CALLDATASIZE PUSH1 0x3 NOT ADD SLT PUSH2 0x226 JUMPI PUSH2 0x28F SWAP1 PUSH2 0x1B32 PUSH2 0x2A32 JUMP JUMPDEST PUSH2 0x1B3A PUSH2 0x2C60 JUMP JUMPDEST PUSH1 0xC SLOAD SWAP1 PUSH1 0x1 DUP1 PUSH1 0xA0 SHL SUB DUP1 DUP4 AND SWAP2 PUSH2 0x1BA6 DUP2 DUP7 MLOAD PUSH2 0x1B58 DUP2 PUSH2 0x2A48 JUMP JUMPDEST PUSH1 0x2D DUP2 MSTORE PUSH32 0x4E465441697264726F705265776172643A205570646174696E672062726F6B65 PUSH1 0x20 DUP3 ADD MSTORE PUSH13 0x722077616C6C65742066726F6D PUSH1 0x98 SHL DUP9 DUP3 ADD MSTORE DUP6 PUSH2 0x1BA0 PUSH2 0x46CE JUMP JUMPDEST SWAP2 PUSH2 0x48AA JUMP JUMPDEST AND DUP1 SWAP3 PUSH2 0x1BB4 DUP3 ISZERO ISZERO PUSH2 0x2DF0 JUMP JUMPDEST PUSH1 0x1 PUSH1 0x1 PUSH1 0xA0 SHL SUB NOT AND OR PUSH1 0xC SSTORE PUSH32 0xB8B525BFADA17A1571012558EC7690617E34BB1FB0D6B59A84F3ED31AE88E5E1 DUP6 DUP1 LOG3 PUSH20 0x75706461746564207375636365737366756C6C79 PUSH1 0x60 SHL DUP2 MLOAD SWAP2 PUSH2 0x1C0A DUP4 PUSH2 0x2A48 JUMP JUMPDEST PUSH1 0x34 DUP4 MSTORE PUSH32 0x4E465441697264726F705265776172643A2042726F6B65722077616C6C657420 PUSH1 0x20 DUP5 ADD MSTORE DUP3 ADD MSTORE PUSH2 0x46EC JUMP JUMPDEST SWAP1 POP CALLVALUE PUSH2 0x2E4 JUMPI DUP3 PUSH1 0x3 NOT CALLDATASIZE ADD SLT PUSH2 0x2E4 JUMPI PUSH1 0x20 SWAP3 POP SLOAD SWAP1 MLOAD SWAP1 DUP2 MSTORE RETURN JUMPDEST POP POP CALLVALUE PUSH2 0x226 JUMPI DUP2 PUSH1 0x3 NOT CALLDATASIZE ADD SLT PUSH2 0x226 JUMPI PUSH2 0x28F SWAP1 PUSH2 0x1C78 PUSH2 0x2C60 JUMP JUMPDEST PUSH2 0x1CB5 DUP2 MLOAD PUSH2 0x1C86 DUP2 PUSH2 0x2A79 JUMP JUMPDEST PUSH1 0x1F DUP2 MSTORE PUSH32 0x426173655265776172643A20446561637469766174696E672072657761726400 PUSH1 0x20 DUP3 ADD MSTORE PUSH2 0x46EC JUMP JUMPDEST PUSH1 0xFF NOT PUSH1 0x6 SLOAD AND PUSH1 0x6 SSTORE PUSH32 0x4DCBE1841EE9BD9C888E46C0B35574429B1C0F1071806180028DEE2F9A106430 PUSH1 0x20 DUP3 MLOAD DUP6 DUP2 MSTORE LOG1 MLOAD PUSH2 0x1CF2 DUP2 PUSH2 0x2A79 JUMP JUMPDEST PUSH1 0x1E DUP2 MSTORE PUSH32 0x426173655265776172643A205265776172642064656163746976617465640000 PUSH1 0x20 DUP3 ADD MSTORE PUSH2 0x46EC JUMP JUMPDEST SWAP1 POP CALLVALUE PUSH2 0x2E4 JUMPI PUSH1 0x60 CALLDATASIZE PUSH1 0x3 NOT ADD SLT PUSH2 0x2E4 JUMPI PUSH2 0x1D3C PUSH2 0x2A32 JUMP JUMPDEST SWAP3 PUSH1 0x44 CALLDATALOAD SWAP1 PUSH1 0x1 PUSH1 0x1 PUSH1 0x40 SHL SUB DUP3 GT PUSH2 0x93D JUMPI POP SWAP3 PUSH2 0x1D63 PUSH2 0x1DC3 SWAP3 PUSH1 0x20 SWAP6 CALLDATASIZE SWAP2 ADD PUSH2 0x29FD JUMP JUMPDEST POP POP DUP3 MLOAD PUSH2 0x1D70 DUP2 PUSH2 0x2A48 JUMP JUMPDEST PUSH1 0x37 DUP2 MSTORE PUSH32 0x4E465441697264726F705265776172643A2050726F63657373696E6720666565 DUP6 DUP3 ADD MSTORE PUSH32 0x207769746820646973636F756E7420666F722075736572000000000000000000 DUP5 DUP3 ADD MSTORE PUSH2 0x47B9 JUMP JUMPDEST PUSH2 0x9E9 DUP2 MLOAD PUSH2 0x1DD1 DUP2 PUSH2 0x2A79 JUMP JUMPDEST DUP4 DUP2 MSTORE PUSH32 0x4E465441697264726F705265776172643A20446973636F756E7420726174653A DUP5 DUP3 ADD MSTORE PUSH1 0x24 CALLDATALOAD SWAP1 PUSH2 0x472D JUMP JUMPDEST SWAP2 SWAP1 POP CALLVALUE PUSH2 0x2E4 JUMPI PUSH1 0x20 CALLDATASIZE PUSH1 0x3 NOT ADD SLT PUSH2 0x2E4 JUMPI DUP2 CALLDATALOAD SWAP2 PUSH1 0x1 PUSH1 0x1 PUSH1 0x40 SHL SUB DUP4 GT PUSH2 0x129A JUMPI PUSH2 0x1E3A PUSH2 0x1518 SWAP2 PUSH2 0x15D2 SWAP5 CALLDATASIZE SWAP2 ADD PUSH2 0x2AEB JUMP JUMPDEST SWAP2 PUSH2 0x1E53 PUSH1 0xFF PUSH1 0x6 SLOAD PUSH1 0x8 SHR AND PUSH2 0x1469 DUP2 PUSH2 0xDF6 PUSH2 0x2CFF JUMP JUMPDEST MLOAD PUSH2 0x1E5D DUP2 PUSH2 0x2A79 JUMP JUMPDEST PUSH1 0x1E DUP2 MSTORE PUSH32 0x4E465441697264726F705265776172643A20496E697469616C697A696E670000 PUSH1 0x20 DUP3 ADD MSTORE PUSH2 0x46EC JUMP JUMPDEST POP POP CALLVALUE PUSH2 0x226 JUMPI DUP2 PUSH1 0x3 NOT CALLDATASIZE ADD SLT PUSH2 0x226 JUMPI PUSH1 0x20 SWAP1 PUSH1 0x3 SLOAD SWAP1 MLOAD SWAP1 DUP2 MSTORE RETURN JUMPDEST POP POP CALLVALUE PUSH2 0x226 JUMPI DUP2 PUSH1 0x3 NOT CALLDATASIZE ADD SLT PUSH2 0x226 JUMPI PUSH1 0x20 SWAP1 PUSH1 0xFF PUSH1 0x6 SLOAD PUSH1 0x8 SHR AND SWAP1 MLOAD SWAP1 ISZERO ISZERO DUP2 MSTORE RETURN JUMPDEST SWAP2 SWAP1 POP CALLVALUE PUSH2 0x2E4 JUMPI PUSH1 0x20 SWAP1 DUP2 PUSH1 0x3 NOT CALLDATASIZE ADD SLT PUSH2 0x129A JUMPI PUSH2 0x1EF0 PUSH2 0x2A32 JUMP JUMPDEST SWAP3 PUSH2 0x1EF9 PUSH2 0x37F7 JUMP JUMPDEST PUSH2 0x1F04 PUSH2 0x10E7 PUSH2 0x361B JUMP JUMPDEST PUSH2 0x1F5C PUSH1 0xFF PUSH1 0x6 SLOAD AND PUSH2 0x1F19 DUP2 PUSH2 0xDF6 PUSH2 0x3654 JUMP JUMPDEST PUSH2 0x1F25 TIMESTAMP PUSH2 0x106C PUSH2 0x368D JUMP JUMPDEST DUP3 SLOAD PUSH2 0x1F33 DUP2 PUSH2 0x106C PUSH2 0x36C6 JUMP JUMPDEST PUSH2 0x1F46 PUSH1 0x5 SLOAD SWAP3 PUSH2 0x1697 DUP5 PUSH2 0x106C PUSH2 0x36FF JUMP JUMPDEST TIMESTAMP LT ISZERO SWAP1 DUP2 PUSH2 0x230A JUMPI POP PUSH2 0x16B3 DUP2 PUSH2 0xDF6 PUSH2 0x377B JUMP JUMPDEST PUSH2 0x1FA8 DUP5 DUP4 MLOAD PUSH2 0x1F6B DUP2 PUSH2 0x2A48 JUMP JUMPDEST PUSH1 0x27 DUP2 MSTORE PUSH32 0x4E465441697264726F705265776172643A20636C61696D2063616C6C65642066 DUP7 DUP3 ADD MSTORE PUSH7 0x37B9103AB9B2B9 PUSH1 0xC9 SHL DUP6 DUP3 ADD MSTORE PUSH2 0x47B9 JUMP JUMPDEST PUSH2 0x1FE5 DUP3 MLOAD PUSH2 0x1FB6 DUP2 PUSH2 0x2A79 JUMP JUMPDEST DUP5 DUP2 MSTORE PUSH32 0x4E465441697264726F705265776172643A204D6573736167652073656E646572 DUP6 DUP3 ADD MSTORE CALLER SWAP1 PUSH2 0x47B9 JUMP JUMPDEST PUSH1 0x1 DUP1 PUSH1 0xA0 SHL SUB SWAP1 DUP2 PUSH1 0xD SLOAD AND SWAP2 PUSH2 0x2030 DUP4 DUP6 MLOAD PUSH2 0x2002 DUP2 PUSH2 0x2A79 JUMP JUMPDEST PUSH1 0x1C DUP2 MSTORE PUSH32 0x4E465441697264726F705265776172643A20436F6E74726F6C6C657200000000 DUP9 DUP3 ADD MSTORE PUSH2 0x47B9 JUMP JUMPDEST DUP1 DUP8 SLOAD AND SWAP1 PUSH2 0x206C DUP3 DUP7 MLOAD PUSH2 0x2044 DUP2 PUSH2 0x2A79 JUMP JUMPDEST PUSH1 0x17 DUP2 MSTORE PUSH23 0x27232A20B4B9323937B82932BBB0B9321D1027BBB732B9 PUSH1 0x49 SHL DUP10 DUP3 ADD MSTORE PUSH2 0x47B9 JUMP JUMPDEST DUP7 AND SWAP3 DUP4 CALLER SUB PUSH2 0x22DE JUMPI JUMPDEST POP POP PUSH2 0x2082 DUP6 PUSH2 0x4296 JUMP JUMPDEST PUSH2 0x20C8 DUP2 DUP6 MLOAD PUSH2 0x2091 DUP2 PUSH2 0x2A48 JUMP JUMPDEST PUSH1 0x21 DUP2 MSTORE PUSH32 0x4E465441697264726F705265776172643A2043616E207573657220636C61696D DUP9 DUP3 ADD MSTORE PUSH1 0x3F PUSH1 0xF8 SHL DUP8 DUP3 ADD MSTORE PUSH2 0x4772 JUMP JUMPDEST ISZERO PUSH2 0x22A8 JUMPI DUP2 DUP7 MSTORE PUSH1 0xE DUP5 MSTORE PUSH2 0x2125 PUSH1 0xFF DUP5 DUP9 KECCAK256 SLOAD AND DUP5 MLOAD PUSH2 0x20E9 DUP2 PUSH2 0x2A48 JUMP JUMPDEST PUSH1 0x26 DUP2 MSTORE PUSH32 0x4E465441697264726F705265776172643A2048617320616C726561647920636C DUP8 DUP3 ADD MSTORE PUSH6 0x61696D65643F PUSH1 0xD0 SHL DUP7 DUP3 ADD MSTORE PUSH2 0x4772 JUMP JUMPDEST DUP2 DUP7 MSTORE PUSH1 0xE DUP5 MSTORE PUSH1 0xFF DUP4 DUP8 KECCAK256 SLOAD AND PUSH2 0x2273 JUMPI PUSH1 0x11 SLOAD PUSH1 0x9 SLOAD GT ISZERO PUSH2 0x2238 JUMPI POP PUSH2 0xFA7 SWAP4 SWAP3 SWAP2 DUP2 PUSH18 0x321039BAB1B1B2B9B9B33AB6363C903337B9 PUSH1 0x71 SHL SWAP3 DUP8 MSTORE PUSH1 0xF DUP5 MSTORE DUP2 DUP8 KECCAK256 SLOAD SWAP1 DUP2 ISZERO PUSH2 0x221C JUMPI JUMPDEST PUSH2 0x2180 DUP3 PUSH2 0x106C PUSH2 0x3935 JUMP JUMPDEST DUP1 DUP9 MSTORE PUSH1 0xE DUP6 MSTORE PUSH2 0x21AF DUP4 DUP10 KECCAK256 SWAP3 PUSH1 0xFF NOT SWAP4 PUSH1 0x1 DUP6 DUP3 SLOAD AND OR SWAP1 SSTORE PUSH2 0x21A6 PUSH1 0x11 SLOAD PUSH2 0x397B JUMP JUMPDEST PUSH1 0x11 SSTORE DUP8 PUSH2 0x3DCD JUMP JUMPDEST DUP8 MSTORE PUSH1 0x2 DUP5 MSTORE DUP2 DUP8 KECCAK256 SWAP1 DUP2 SLOAD SWAP1 PUSH1 0xFF DUP3 AND ISZERO PUSH2 0x2205 JUMPI JUMPDEST POP POP POP PUSH32 0x4E465441697264726F705265776172643A20436C61696D20636F6D706C657465 DUP2 MLOAD SWAP4 PUSH2 0x21F6 DUP6 PUSH2 0x2A48 JUMP JUMPDEST PUSH1 0x32 DUP6 MSTORE DUP5 ADD MSTORE DUP3 ADD MSTORE PUSH2 0x47B9 JUMP JUMPDEST AND PUSH1 0x1 OR SWAP1 SSTORE PUSH2 0x2214 DUP5 PUSH2 0x398A JUMP JUMPDEST CODESIZE DUP1 DUP1 PUSH2 0x21C6 JUMP JUMPDEST SWAP1 POP PUSH2 0x2229 PUSH2 0x10E7 PUSH2 0x38C3 JUMP JUMPDEST PUSH2 0x2232 DUP6 PUSH2 0x3AE8 JUMP JUMPDEST SWAP1 PUSH2 0x2174 JUMP JUMPDEST DUP3 MLOAD PUSH3 0x461BCD PUSH1 0xE5 SHL DUP2 MSTORE SWAP1 DUP2 ADD DUP5 SWAP1 MSTORE PUSH1 0x15 PUSH1 0x24 DUP3 ADD MSTORE PUSH21 0x105A5C991C9BDC081B1A5B5A5D081C995858DA1959 PUSH1 0x5A SHL PUSH1 0x44 DUP3 ADD MSTORE PUSH1 0x64 SWAP1 REVERT JUMPDEST DUP3 MLOAD PUSH3 0x461BCD PUSH1 0xE5 SHL DUP2 MSTORE SWAP1 DUP2 ADD DUP5 SWAP1 MSTORE PUSH1 0xF PUSH1 0x24 DUP3 ADD MSTORE PUSH15 0x105B1C9958591E4818DB185A5B5959 PUSH1 0x8A SHL PUSH1 0x44 DUP3 ADD MSTORE PUSH1 0x64 SWAP1 REVERT JUMPDEST DUP3 MLOAD PUSH3 0x461BCD PUSH1 0xE5 SHL DUP2 MSTORE SWAP1 DUP2 ADD DUP5 SWAP1 MSTORE PUSH1 0x10 PUSH1 0x24 DUP3 ADD MSTORE PUSH16 0x10D85B9B9BDD0818DB185A5B48139195 PUSH1 0x82 SHL PUSH1 0x44 DUP3 ADD MSTORE PUSH1 0x64 SWAP1 REVERT JUMPDEST PUSH2 0x22F9 SWAP2 CALLER EQ SWAP1 DUP2 ISZERO PUSH2 0x2300 JUMPI JUMPDEST POP PUSH2 0xDFB DUP2 PUSH2 0xDF6 PUSH2 0x384D JUMP JUMPDEST CODESIZE DUP1 PUSH2 0x2077 JUMP JUMPDEST SWAP1 POP CALLER EQ CODESIZE PUSH2 0x22EC JUMP JUMPDEST DUP1 ISZERO SWAP2 POP DUP2 ISZERO PUSH2 0x231C JUMPI JUMPDEST POP CODESIZE PUSH2 0x16A6 JUMP JUMPDEST SWAP1 POP TIMESTAMP GT ISZERO CODESIZE PUSH2 0x2315 JUMP JUMPDEST POP POP CALLVALUE PUSH2 0x226 JUMPI DUP2 PUSH1 0x3 NOT CALLDATASIZE ADD SLT PUSH2 0x226 JUMPI PUSH2 0x28F SWAP1 PUSH2 0x2345 PUSH2 0x2C60 JUMP JUMPDEST PUSH2 0x2382 DUP2 MLOAD PUSH2 0x2353 DUP2 PUSH2 0x2A79 JUMP JUMPDEST PUSH1 0x1D DUP2 MSTORE PUSH32 0x426173655265776172643A2041637469766174696E6720726577617264000000 PUSH1 0x20 DUP3 ADD MSTORE PUSH2 0x46EC JUMP JUMPDEST PUSH1 0x1 PUSH1 0xFF NOT PUSH1 0x6 SLOAD AND OR PUSH1 0x6 SSTORE PUSH32 0x4DCBE1841EE9BD9C888E46C0B35574429B1C0F1071806180028DEE2F9A106430 PUSH1 0x20 DUP3 MLOAD PUSH1 0x1 DUP2 MSTORE LOG1 MLOAD PUSH2 0x23C3 DUP2 PUSH2 0x2A79 JUMP JUMPDEST PUSH1 0x1C DUP2 MSTORE PUSH32 0x426173655265776172643A205265776172642061637469766174656400000000 PUSH1 0x20 DUP3 ADD MSTORE PUSH2 0x46EC JUMP JUMPDEST DUP4 SWAP2 POP CALLVALUE PUSH2 0x226 JUMPI DUP3 PUSH1 0x3 NOT CALLDATASIZE ADD SLT PUSH2 0x226 JUMPI PUSH1 0x1 PUSH1 0x1 PUSH1 0x40 SHL SUB SWAP3 DUP2 CALLDATALOAD DUP5 DUP2 GT PUSH2 0x129A JUMPI PUSH2 0x2424 SWAP1 CALLDATASIZE SWAP1 DUP5 ADD PUSH2 0x29FD JUMP JUMPDEST SWAP3 SWAP1 SWAP5 PUSH1 0x24 SWAP1 DUP2 CALLDATALOAD SWAP1 DUP2 GT PUSH2 0x162B JUMPI PUSH2 0x2440 SWAP1 CALLDATASIZE SWAP1 DUP5 ADD PUSH2 0x29FD JUMP JUMPDEST SWAP7 SWAP1 PUSH2 0x244A PUSH2 0x2C60 JUMP JUMPDEST DUP5 MLOAD SWAP6 PUSH2 0x2456 DUP8 PUSH2 0x2A48 JUMP JUMPDEST PUSH1 0x2E DUP8 MSTORE PUSH2 0x24A0 PUSH1 0x20 SWAP8 PUSH32 0x4E465441697264726F705265776172643A2041737369676E696E6720746F6B65 DUP10 DUP3 ADD MSTORE PUSH14 0x6E2049447320746F207573657273 PUSH1 0x90 SHL DUP9 DUP3 ADD MSTORE PUSH2 0x46EC JUMP JUMPDEST DUP9 DUP2 SUB PUSH2 0x27F1 JUMPI DUP1 ISZERO PUSH2 0x27AF JUMPI PUSH1 0x8 SLOAD SWAP4 SWAP9 PUSH1 0x1 PUSH1 0x1 PUSH1 0xA0 SHL SUB SWAP5 DUP6 AND SWAP2 DUP10 JUMPDEST DUP2 DUP2 LT PUSH2 0x251E JUMPI DUP11 PUSH2 0x28F DUP12 PUSH17 0x676E6564207375636365737366756C6C79 PUSH1 0x78 SHL DUP13 PUSH32 0x4E465441697264726F705265776172643A20546F6B656E204944732061737369 DUP2 MLOAD SWAP4 PUSH2 0x250F DUP6 PUSH2 0x2A48 JUMP JUMPDEST PUSH1 0x31 DUP6 MSTORE DUP5 ADD MSTORE DUP3 ADD MSTORE PUSH2 0x46EC JUMP JUMPDEST PUSH2 0x2530 PUSH2 0xFBC DUP3 DUP5 DUP10 SWAP15 SWAP11 SWAP12 SWAP15 PUSH2 0x3A8F JUMP JUMPDEST DUP9 PUSH2 0x253C DUP4 DUP7 DUP10 PUSH2 0x3A8F JUMP JUMPDEST CALLDATALOAD SWAP2 AND SWAP1 DUP2 DUP10 MSTORE PUSH1 0xE DUP13 MSTORE PUSH1 0xFF DUP1 DUP13 DUP12 KECCAK256 SLOAD AND PUSH2 0x276B JUMPI DUP2 ISZERO PUSH2 0x2734 JUMPI DUP2 DUP11 MSTORE PUSH1 0x10 DUP14 MSTORE DUP12 DUP11 KECCAK256 SLOAD AND PUSH2 0x26F1 JUMPI DUP1 DUP13 DUP16 DUP16 DUP3 SWAP2 DUP16 MLOAD SWAP5 DUP6 SWAP3 PUSH4 0x31A9108F PUSH1 0xE1 SHL DUP5 MSTORE DUP4 ADD MSTORE DUP2 DUP12 GAS STATICCALL SWAP2 DUP3 SWAP2 DUP13 SWAP4 PUSH2 0x26C2 JUMPI JUMPDEST POP POP PUSH2 0x25D9 JUMPI POP POP DUP10 MLOAD PUSH3 0x461BCD PUSH1 0xE5 SHL DUP2 MSTORE DUP1 DUP14 ADD DUP13 SWAP1 MSTORE PUSH1 0x17 DUP2 DUP16 ADD MSTORE PUSH32 0x546F6B656E20494420646F6573206E6F74206578697374000000000000000000 PUSH1 0x44 DUP3 ADD MSTORE PUSH1 0x64 SWAP1 REVERT JUMPDEST DUP11 SWAP15 SWAP10 SWAP14 SWAP11 DUP1 PUSH1 0xC SLOAD AND SWAP2 AND SUB PUSH2 0x266F JUMPI SWAP1 PUSH32 0x840011356C296D81892F86D80E0A894310D2382C21CA958210FBE6DA8F3E179A DUP13 DUP4 DUP16 SWAP5 DUP15 PUSH2 0x2650 SWAP8 SWAP7 DUP7 DUP2 MSTORE PUSH1 0xF DUP1 DUP7 MSTORE DUP3 DUP3 KECCAK256 SLOAD DUP1 PUSH2 0x2658 JUMPI JUMPDEST POP DUP4 DUP3 MSTORE PUSH1 0x10 DUP7 MSTORE DUP3 DUP3 KECCAK256 DUP1 SLOAD PUSH1 0xFF NOT AND PUSH1 0x1 OR SWAP1 SSTORE DUP8 DUP3 MSTORE DUP6 MSTORE KECCAK256 SSTORE DUP14 MLOAD SWAP1 DUP2 MSTORE LOG2 PUSH2 0x397B JUMP JUMPDEST SWAP11 SWAP6 SWAP11 PUSH2 0x24C0 JUMP JUMPDEST DUP3 MSTORE PUSH1 0x10 DUP7 MSTORE DUP3 DUP3 KECCAK256 DUP1 SLOAD PUSH1 0xFF NOT AND SWAP1 SSTORE CODESIZE PUSH2 0x2628 JUMP JUMPDEST DUP11 MLOAD PUSH3 0x461BCD PUSH1 0xE5 SHL DUP2 MSTORE DUP1 DUP12 ADD DUP14 SWAP1 MSTORE PUSH1 0x28 DUP2 DUP12 ADD MSTORE PUSH32 0x42726F6B65722077616C6C657420646F6573206E6F74206F776E207468697320 PUSH1 0x44 DUP3 ADD MSTORE PUSH8 0x1D1BDAD95B881251 PUSH1 0xC2 SHL PUSH1 0x64 DUP3 ADD MSTORE PUSH1 0x84 SWAP1 REVERT JUMPDEST PUSH2 0x26E2 SWAP3 SWAP4 POP DUP1 RETURNDATASIZE LT PUSH2 0x26EA JUMPI JUMPDEST PUSH2 0x26DA DUP2 DUP4 PUSH2 0x2AAF JUMP JUMPDEST DUP2 ADD SWAP1 PUSH2 0x3AC9 JUMP JUMPDEST SWAP1 CODESIZE DUP15 PUSH2 0x258F JUMP JUMPDEST POP RETURNDATASIZE PUSH2 0x26D0 JUMP JUMPDEST POP DUP10 MLOAD PUSH3 0x461BCD PUSH1 0xE5 SHL DUP2 MSTORE DUP1 DUP14 ADD DUP13 SWAP1 MSTORE PUSH1 0x19 DUP2 DUP16 ADD MSTORE PUSH32 0x546F6B656E20494420616C72656164792061737369676E656400000000000000 PUSH1 0x44 DUP3 ADD MSTORE PUSH1 0x64 SWAP1 REVERT JUMPDEST POP POP DUP10 MLOAD PUSH3 0x461BCD PUSH1 0xE5 SHL DUP2 MSTORE DUP1 DUP14 ADD DUP13 SWAP1 MSTORE PUSH1 0x10 DUP2 DUP16 ADD MSTORE PUSH16 0x125B9D985B1A59081D1BDAD95B881251 PUSH1 0x82 SHL PUSH1 0x44 DUP3 ADD MSTORE PUSH1 0x64 SWAP1 REVERT JUMPDEST POP POP DUP10 MLOAD PUSH3 0x461BCD PUSH1 0xE5 SHL DUP2 MSTORE DUP1 DUP14 ADD DUP13 SWAP1 MSTORE PUSH1 0x18 DUP2 DUP16 ADD MSTORE PUSH32 0x557365722068617320616C726561647920636C61696D65640000000000000000 PUSH1 0x44 DUP3 ADD MSTORE PUSH1 0x64 SWAP1 REVERT JUMPDEST DUP6 MLOAD PUSH3 0x461BCD PUSH1 0xE5 SHL DUP2 MSTORE DUP1 DUP7 ADD DUP9 SWAP1 MSTORE PUSH1 0x17 DUP2 DUP7 ADD MSTORE PUSH32 0x4E6F2061737369676E6D656E74732070726F7669646564000000000000000000 PUSH1 0x44 DUP3 ADD MSTORE PUSH1 0x64 SWAP1 REVERT JUMPDEST DUP6 MLOAD PUSH3 0x461BCD PUSH1 0xE5 SHL DUP2 MSTORE DUP1 DUP7 ADD DUP9 SWAP1 MSTORE PUSH1 0x18 DUP2 DUP7 ADD MSTORE PUSH32 0x4172726179206C656E67746873206D757374206D617463680000000000000000 PUSH1 0x44 DUP3 ADD MSTORE PUSH1 0x64 SWAP1 REVERT JUMPDEST POP POP CALLVALUE PUSH2 0x226 JUMPI DUP2 PUSH1 0x3 NOT CALLDATASIZE ADD SLT PUSH2 0x226 JUMPI PUSH1 0x20 SWAP1 PUSH1 0xFF PUSH1 0x6 SLOAD AND SWAP1 MLOAD SWAP1 ISZERO ISZERO DUP2 MSTORE RETURN JUMPDEST SWAP1 POP CALLVALUE PUSH2 0x2E4 JUMPI PUSH1 0x20 CALLDATASIZE PUSH1 0x3 NOT ADD SLT PUSH2 0x2E4 JUMPI DUP1 CALLDATALOAD SWAP1 PUSH2 0x2875 PUSH2 0x2C60 JUMP JUMPDEST DUP4 DUP1 PUSH1 0x9 SLOAD DUP6 MLOAD SWAP1 PUSH2 0x2886 DUP3 PUSH2 0x2A48 JUMP JUMPDEST PUSH1 0x34 DUP3 MSTORE PUSH32 0x4E465441697264726F705265776172643A205570646174696E6720746F74616C PUSH1 0x20 DUP4 ADD MSTORE PUSH20 0x2061697264726F7020616D6F756E742066726F6D PUSH1 0x60 SHL DUP8 DUP4 ADD MSTORE PUSH2 0x292D PUSH2 0x28D7 PUSH2 0x46CE JUMP JUMPDEST PUSH2 0x2919 DUP10 MLOAD SWAP4 DUP5 SWAP3 PUSH2 0x2902 PUSH1 0x20 DUP6 ADD SWAP8 PUSH4 0xC67EA9D1 PUSH1 0xE0 SHL DUP10 MSTORE PUSH1 0x80 PUSH1 0x24 DUP8 ADD MSTORE PUSH1 0xA4 DUP7 ADD SWAP1 PUSH2 0x2C3B JUMP JUMPDEST SWAP2 PUSH1 0x44 DUP6 ADD MSTORE PUSH1 0x23 NOT DUP5 DUP4 SUB ADD PUSH1 0x64 DUP6 ADD MSTORE PUSH2 0x2C3B JUMP JUMPDEST DUP9 PUSH1 0x84 DUP4 ADD MSTORE SUB PUSH1 0x1F NOT DUP2 ADD DUP4 MSTORE DUP3 PUSH2 0x2AAF JUMP JUMPDEST MLOAD SWAP1 PUSH11 0x636F6E736F6C652E6C6F67 GAS STATICCALL POP PUSH1 0x11 SLOAD DUP3 LT PUSH2 0x29AE JUMPI POP PUSH1 0x9 SSTORE DUP1 MLOAD PUSH2 0x28F SWAP2 PUSH32 0x616D6F756E742075706461746564207375636365737366756C6C790000000000 SWAP1 PUSH2 0x297C DUP4 PUSH2 0x2A48 JUMP JUMPDEST PUSH1 0x3B DUP4 MSTORE PUSH32 0x4E465441697264726F705265776172643A20546F74616C2061697264726F7020 PUSH1 0x20 DUP5 ADD MSTORE DUP3 ADD MSTORE PUSH2 0x46EC JUMP JUMPDEST PUSH1 0x84 SWAP1 PUSH1 0x20 DUP5 MLOAD SWAP2 PUSH3 0x461BCD PUSH1 0xE5 SHL DUP4 MSTORE DUP3 ADD MSTORE PUSH1 0x24 DUP1 DUP3 ADD MSTORE PUSH32 0x4E657720746F74616C206D757374206265203E3D20616C726561647920636C61 PUSH1 0x44 DUP3 ADD MSTORE PUSH4 0x1A5B5959 PUSH1 0xE2 SHL PUSH1 0x64 DUP3 ADD MSTORE REVERT JUMPDEST SWAP2 DUP2 PUSH1 0x1F DUP5 ADD SLT ISZERO PUSH2 0x2A2D JUMPI DUP3 CALLDATALOAD SWAP2 PUSH1 0x1 PUSH1 0x1 PUSH1 0x40 SHL SUB DUP4 GT PUSH2 0x2A2D JUMPI PUSH1 0x20 DUP1 DUP6 ADD SWAP5 DUP5 PUSH1 0x5 SHL ADD ADD GT PUSH2 0x2A2D JUMPI JUMP JUMPDEST PUSH1 0x0 DUP1 REVERT JUMPDEST PUSH1 0x4 CALLDATALOAD SWAP1 PUSH1 0x1 PUSH1 0x1 PUSH1 0xA0 SHL SUB DUP3 AND DUP3 SUB PUSH2 0x2A2D JUMPI JUMP JUMPDEST PUSH1 0x60 DUP2 ADD SWAP1 DUP2 LT PUSH1 0x1 PUSH1 0x1 PUSH1 0x40 SHL SUB DUP3 GT OR PUSH2 0x2A63 JUMPI PUSH1 0x40 MSTORE JUMP JUMPDEST PUSH4 0x4E487B71 PUSH1 0xE0 SHL PUSH1 0x0 MSTORE PUSH1 0x41 PUSH1 0x4 MSTORE PUSH1 0x24 PUSH1 0x0 REVERT JUMPDEST PUSH1 0x40 DUP2 ADD SWAP1 DUP2 LT PUSH1 0x1 PUSH1 0x1 PUSH1 0x40 SHL SUB DUP3 GT OR PUSH2 0x2A63 JUMPI PUSH1 0x40 MSTORE JUMP JUMPDEST PUSH1 0x80 DUP2 ADD SWAP1 DUP2 LT PUSH1 0x1 PUSH1 0x1 PUSH1 0x40 SHL SUB DUP3 GT OR PUSH2 0x2A63 JUMPI PUSH1 0x40 MSTORE JUMP JUMPDEST SWAP1 PUSH1 0x1F DUP1 NOT SWAP2 ADD AND DUP2 ADD SWAP1 DUP2 LT PUSH1 0x1 PUSH1 0x1 PUSH1 0x40 SHL SUB DUP3 GT OR PUSH2 0x2A63 JUMPI PUSH1 0x40 MSTORE JUMP JUMPDEST PUSH1 0x1 PUSH1 0x1 PUSH1 0x40 SHL SUB DUP2 GT PUSH2 0x2A63 JUMPI PUSH1 0x1F ADD PUSH1 0x1F NOT AND PUSH1 0x20 ADD SWAP1 JUMP JUMPDEST DUP2 PUSH1 0x1F DUP3 ADD SLT ISZERO PUSH2 0x2A2D JUMPI DUP1 CALLDATALOAD SWAP1 PUSH2 0x2B02 DUP3 PUSH2 0x2AD0 JUMP JUMPDEST SWAP3 PUSH2 0x2B10 PUSH1 0x40 MLOAD SWAP5 DUP6 PUSH2 0x2AAF JUMP JUMPDEST DUP3 DUP5 MSTORE PUSH1 0x20 DUP4 DUP4 ADD ADD GT PUSH2 0x2A2D JUMPI DUP2 PUSH1 0x0 SWAP3 PUSH1 0x20 DUP1 SWAP4 ADD DUP4 DUP7 ADD CALLDATACOPY DUP4 ADD ADD MSTORE SWAP1 JUMP JUMPDEST SWAP1 PUSH1 0x1 DUP3 DUP2 SHR SWAP3 AND DUP1 ISZERO PUSH2 0x2B62 JUMPI JUMPDEST PUSH1 0x20 DUP4 LT EQ PUSH2 0x2B4C JUMPI JUMP JUMPDEST PUSH4 0x4E487B71 PUSH1 0xE0 SHL PUSH1 0x0 MSTORE PUSH1 0x22 PUSH1 0x4 MSTORE PUSH1 0x24 PUSH1 0x0 REVERT JUMPDEST SWAP2 PUSH1 0x7F AND SWAP2 PUSH2 0x2B41 JUMP JUMPDEST PUSH1 0x40 MLOAD SWAP1 PUSH1 0x0 DUP3 PUSH1 0x7 SLOAD SWAP2 PUSH2 0x2B80 DUP4 PUSH2 0x2B32 JUMP JUMPDEST DUP1 DUP4 MSTORE SWAP3 PUSH1 0x1 SWAP1 DUP2 DUP2 AND SWAP1 DUP2 ISZERO PUSH2 0x2BF6 JUMPI POP PUSH1 0x1 EQ PUSH2 0x2BA9 JUMPI JUMPDEST POP PUSH2 0x2BA7 SWAP3 POP SUB DUP4 PUSH2 0x2AAF JUMP JUMPDEST JUMP JUMPDEST PUSH1 0x7 PUSH1 0x0 SWAP1 DUP2 MSTORE SWAP2 POP PUSH1 0x0 DUP1 MLOAD PUSH1 0x20 PUSH2 0x4919 DUP4 CODECOPY DUP2 MLOAD SWAP2 MSTORE JUMPDEST DUP5 DUP4 LT PUSH2 0x2BDB JUMPI POP PUSH2 0x2BA7 SWAP4 POP POP DUP2 ADD PUSH1 0x20 ADD CODESIZE PUSH2 0x2B9A JUMP JUMPDEST DUP2 SWAP4 POP SWAP1 DUP2 PUSH1 0x20 SWAP3 SLOAD DUP4 DUP6 DUP11 ADD ADD MSTORE ADD SWAP2 ADD SWAP1 SWAP2 DUP6 SWAP3 PUSH2 0x2BC2 JUMP JUMPDEST SWAP1 POP PUSH1 0x20 SWAP3 POP PUSH2 0x2BA7 SWAP5 SWAP2 POP PUSH1 0xFF NOT AND DUP3 DUP5 ADD MSTORE ISZERO ISZERO PUSH1 0x5 SHL DUP3 ADD ADD CODESIZE PUSH2 0x2B9A JUMP JUMPDEST PUSH1 0x0 JUMPDEST DUP4 DUP2 LT PUSH2 0x2C2B JUMPI POP POP PUSH1 0x0 SWAP2 ADD MSTORE JUMP JUMPDEST DUP2 DUP2 ADD MLOAD DUP4 DUP3 ADD MSTORE PUSH1 0x20 ADD PUSH2 0x2C1B JUMP JUMPDEST SWAP1 PUSH1 0x20 SWAP2 PUSH2 0x2C54 DUP2 MLOAD DUP1 SWAP3 DUP2 DUP6 MSTORE DUP6 DUP1 DUP7 ADD SWAP2 ADD PUSH2 0x2C18 JUMP JUMPDEST PUSH1 0x1F ADD PUSH1 0x1F NOT AND ADD ADD SWAP1 JUMP JUMPDEST PUSH1 0x0 SLOAD PUSH1 0x1 PUSH1 0x1 PUSH1 0xA0 SHL SUB AND CALLER SUB PUSH2 0x2C74 JUMPI JUMP JUMPDEST PUSH1 0x64 PUSH1 0x40 MLOAD PUSH3 0x461BCD PUSH1 0xE5 SHL DUP2 MSTORE PUSH1 0x20 PUSH1 0x4 DUP3 ADD MSTORE PUSH1 0x20 PUSH1 0x24 DUP3 ADD MSTORE PUSH32 0x4F776E61626C653A2063616C6C6572206973206E6F7420746865206F776E6572 PUSH1 0x44 DUP3 ADD MSTORE REVERT JUMPDEST PUSH1 0x0 DUP1 SLOAD PUSH1 0x1 PUSH1 0x1 PUSH1 0xA0 SHL SUB SWAP3 DUP4 AND PUSH1 0x1 PUSH1 0x1 PUSH1 0xA0 SHL SUB NOT DUP3 AND DUP2 OR DUP4 SSTORE SWAP3 AND SWAP1 PUSH32 0x8BE0079C531659141344CD1FD0A4F28419497F9722A3DAAFE3B4186F6B6457E0 SWAP1 DUP1 LOG3 JUMP JUMPDEST PUSH1 0x40 MLOAD SWAP1 PUSH2 0x2D0C DUP3 PUSH2 0x2A48 JUMP JUMPDEST PUSH1 0x33 DUP3 MSTORE PUSH19 0x34B734BA34B0B634BD32B21039BA30BA3AB99D PUSH1 0x69 SHL PUSH1 0x40 DUP4 PUSH32 0x426173655265776172643A20496E697469616C697A65722063616C6C65642C20 PUSH1 0x20 DUP3 ADD MSTORE ADD MSTORE JUMP JUMPDEST ISZERO PUSH2 0x2D5B JUMPI JUMP JUMPDEST PUSH1 0x40 MLOAD PUSH3 0x461BCD PUSH1 0xE5 SHL DUP2 MSTORE PUSH1 0x20 PUSH1 0x4 DUP3 ADD MSTORE PUSH1 0x13 PUSH1 0x24 DUP3 ADD MSTORE PUSH19 0x105B1C9958591E481A5B9A5D1A585B1A5E9959 PUSH1 0x6A SHL PUSH1 0x44 DUP3 ADD MSTORE PUSH1 0x64 SWAP1 REVERT JUMPDEST PUSH1 0x40 MLOAD SWAP1 PUSH2 0x2DA3 DUP3 PUSH2 0x2A79 JUMP JUMPDEST PUSH1 0x20 DUP3 MSTORE PUSH32 0x426173655265776172643A20436F6E747261637420696E697469616C697A6564 PUSH1 0x20 DUP4 ADD MSTORE JUMP JUMPDEST MLOAD SWAP1 PUSH1 0x1 PUSH1 0x1 PUSH1 0xA0 SHL SUB DUP3 AND DUP3 SUB PUSH2 0x2A2D JUMPI JUMP JUMPDEST MLOAD SWAP1 DUP2 ISZERO ISZERO DUP3 SUB PUSH2 0x2A2D JUMPI JUMP JUMPDEST ISZERO PUSH2 0x2DF7 JUMPI JUMP JUMPDEST PUSH1 0x40 MLOAD PUSH3 0x461BCD PUSH1 0xE5 SHL DUP2 MSTORE PUSH1 0x20 PUSH1 0x4 DUP3 ADD MSTORE PUSH1 0x15 PUSH1 0x24 DUP3 ADD MSTORE PUSH21 0x125B9D985B1A5908189C9BDAD95C881DD85B1B195D PUSH1 0x5A SHL PUSH1 0x44 DUP3 ADD MSTORE PUSH1 0x64 SWAP1 REVERT JUMPDEST ISZERO PUSH2 0x2E3B JUMPI JUMP JUMPDEST PUSH1 0x40 MLOAD PUSH3 0x461BCD PUSH1 0xE5 SHL DUP2 MSTORE PUSH1 0x20 PUSH1 0x4 DUP3 ADD MSTORE PUSH1 0x27 PUSH1 0x24 DUP3 ADD MSTORE PUSH32 0x446973747269627574696F6E2064617465206D75737420626520696E20746865 PUSH1 0x44 DUP3 ADD MSTORE PUSH7 0x20667574757265 PUSH1 0xC8 SHL PUSH1 0x64 DUP3 ADD MSTORE PUSH1 0x84 SWAP1 REVERT JUMPDEST PUSH2 0x2EDB PUSH1 0x40 MLOAD PUSH2 0x2E9F DUP2 PUSH2 0x2A48 JUMP JUMPDEST PUSH1 0x24 DUP2 MSTORE PUSH32 0x4E465441697264726F705265776172643A205F696E697469616C697A65206361 PUSH1 0x20 DUP3 ADD MSTORE PUSH4 0x1B1B1959 PUSH1 0xE2 SHL PUSH1 0x40 DUP3 ADD MSTORE PUSH2 0x46EC JUMP JUMPDEST DUP1 MLOAD DUP2 ADD SWAP1 PUSH1 0xC0 DUP2 PUSH1 0x20 DUP5 ADD SWAP4 SUB SLT PUSH2 0x2A2D JUMPI PUSH1 0x20 DUP2 ADD MLOAD SWAP1 PUSH1 0x1 PUSH1 0x1 PUSH1 0x40 SHL SUB SWAP2 DUP3 DUP2 GT PUSH2 0x2A2D JUMPI DUP2 ADD DUP4 PUSH1 0x3F DUP3 ADD SLT ISZERO PUSH2 0x2A2D JUMPI PUSH1 0x20 DUP2 ADD MLOAD PUSH2 0x2F1F DUP2 PUSH2 0x2AD0 JUMP JUMPDEST SWAP5 PUSH2 0x2F2D PUSH1 0x40 MLOAD SWAP7 DUP8 PUSH2 0x2AAF JUMP JUMPDEST DUP2 DUP7 MSTORE PUSH1 0x40 DUP3 DUP5 ADD ADD GT PUSH2 0x2A2D JUMPI PUSH2 0x2F4C SWAP2 PUSH1 0x40 PUSH1 0x20 DUP8 ADD SWAP2 ADD PUSH2 0x2C18 JUMP JUMPDEST PUSH2 0x2F58 PUSH1 0x40 DUP3 ADD PUSH2 0x2DCF JUMP JUMPDEST SWAP2 PUSH1 0x60 DUP3 ADD MLOAD SWAP1 PUSH2 0x2F6B PUSH1 0x80 DUP5 ADD PUSH2 0x2DCF JUMP JUMPDEST SWAP5 PUSH1 0xC0 PUSH2 0x2F7A PUSH1 0xA0 DUP7 ADD PUSH2 0x2DE3 JUMP JUMPDEST SWAP5 ADD MLOAD SWAP5 PUSH1 0x1 DUP1 PUSH1 0xA0 SHL SUB AND SWAP3 PUSH1 0x0 DUP1 PUSH1 0x40 MLOAD PUSH2 0x2F96 DUP2 PUSH2 0x2A79 JUMP JUMPDEST PUSH1 0x1F DUP2 MSTORE PUSH32 0x4E465441697264726F705265776172643A2041697264726F70206E616D653A00 PUSH1 0x20 DUP3 ADD MSTORE PUSH1 0x40 MLOAD PUSH2 0x300D DUP2 PUSH2 0x2FFF PUSH2 0x2FED PUSH1 0x20 DUP4 ADD SWAP6 PUSH4 0x4B5C4277 PUSH1 0xE0 SHL DUP8 MSTORE PUSH1 0x40 PUSH1 0x24 DUP6 ADD MSTORE PUSH1 0x64 DUP5 ADD SWAP1 PUSH2 0x2C3B JUMP JUMPDEST DUP3 DUP2 SUB PUSH1 0x23 NOT ADD PUSH1 0x44 DUP5 ADD MSTORE DUP10 PUSH2 0x2C3B JUMP JUMPDEST SUB PUSH1 0x1F NOT DUP2 ADD DUP4 MSTORE DUP3 PUSH2 0x2AAF JUMP JUMPDEST MLOAD SWAP1 PUSH11 0x636F6E736F6C652E6C6F67 GAS STATICCALL POP PUSH2 0x305D DUP5 PUSH1 0x40 MLOAD PUSH2 0x302E DUP2 PUSH2 0x2A79 JUMP JUMPDEST PUSH1 0x1E DUP2 MSTORE PUSH32 0x4E465441697264726F705265776172643A204E465420616464726573733A0000 PUSH1 0x20 DUP3 ADD MSTORE PUSH2 0x47B9 JUMP JUMPDEST PUSH2 0x30AC DUP2 PUSH1 0x40 MLOAD PUSH2 0x306D DUP2 PUSH2 0x2A48 JUMP JUMPDEST PUSH1 0x27 DUP2 MSTORE PUSH32 0x4E465441697264726F705265776172643A20546F74616C2061697264726F7020 PUSH1 0x20 DUP3 ADD MSTORE PUSH7 0x30B6B7BAB73A1D PUSH1 0xC9 SHL PUSH1 0x40 DUP3 ADD MSTORE PUSH2 0x472D JUMP JUMPDEST PUSH2 0x30F5 PUSH1 0x40 MLOAD PUSH2 0x30BB DUP2 PUSH2 0x2A79 JUMP JUMPDEST PUSH1 0x20 DUP1 DUP3 MSTORE PUSH32 0x4E465441697264726F705265776172643A2042726F6B65722077616C6C65743A SWAP1 DUP3 ADD MSTORE PUSH1 0x1 PUSH1 0x1 PUSH1 0xA0 SHL SUB DUP10 AND SWAP1 PUSH2 0x47B9 JUMP JUMPDEST PUSH2 0x3134 DUP6 PUSH1 0x40 MLOAD PUSH2 0x3105 DUP2 PUSH2 0x2A48 JUMP JUMPDEST PUSH1 0x29 DUP2 MSTORE PUSH1 0x0 DUP1 MLOAD PUSH1 0x20 PUSH2 0x4939 DUP4 CODECOPY DUP2 MLOAD SWAP2 MSTORE PUSH1 0x20 DUP3 ADD MSTORE PUSH9 0x3934B13ABA34B7B71D PUSH1 0xB9 SHL PUSH1 0x40 DUP3 ADD MSTORE PUSH2 0x4772 JUMP JUMPDEST DUP2 MLOAD ISZERO PUSH2 0x35CC JUMPI DUP4 ISZERO PUSH2 0x3591 JUMPI DUP1 ISZERO PUSH2 0x3555 JUMPI DUP5 PUSH2 0x315C PUSH1 0x1 PUSH1 0x1 PUSH1 0xA0 SHL SUB DUP10 AND ISZERO ISZERO PUSH2 0x2DF0 JUMP JUMPDEST PUSH2 0x34F9 JUMPI JUMPDEST PUSH1 0x40 MLOAD SWAP4 PUSH1 0xA0 DUP6 ADD DUP6 DUP2 LT DUP6 DUP3 GT OR PUSH2 0x2A63 JUMPI PUSH1 0x40 MSTORE DUP3 DUP6 MSTORE PUSH1 0x20 DUP6 ADD MSTORE PUSH1 0x40 DUP5 ADD MSTORE DUP4 ISZERO ISZERO PUSH1 0x60 DUP5 ADD MSTORE DUP5 PUSH1 0x80 DUP5 ADD MSTORE DUP1 MLOAD SWAP2 DUP3 GT PUSH2 0x2A63 JUMPI PUSH2 0x31A6 PUSH1 0x7 SLOAD PUSH2 0x2B32 JUMP JUMPDEST PUSH1 0x1F DUP2 GT PUSH2 0x3490 JUMPI JUMPDEST POP PUSH1 0x20 SWAP1 PUSH1 0x1F DUP4 GT PUSH1 0x1 EQ PUSH2 0x3417 JUMPI PUSH1 0x1 SWAP4 SWAP3 SWAP2 PUSH1 0x0 SWAP2 DUP4 PUSH2 0x340C JUMPI JUMPDEST POP POP PUSH1 0x0 NOT PUSH1 0x3 DUP4 SWAP1 SHL SHR NOT AND SWAP1 DUP4 SHL OR PUSH1 0x7 SSTORE JUMPDEST DUP2 DUP1 PUSH1 0xA0 SHL SUB PUSH1 0x20 DUP3 ADD MLOAD AND SWAP5 PUSH12 0xFFFFFFFFFFFFFFFFFFFFFFFF PUSH1 0xA0 SHL SWAP6 DUP7 PUSH1 0x8 SLOAD AND OR PUSH1 0x8 SSTORE PUSH1 0x40 DUP3 ADD MLOAD PUSH1 0x9 SSTORE PUSH1 0x80 PUSH1 0x60 DUP4 ADD MLOAD ISZERO ISZERO SWAP3 PUSH1 0xFF NOT SWAP4 PUSH1 0xFF DUP6 PUSH1 0xA SLOAD AND SWAP2 AND OR PUSH1 0xA SSTORE ADD MLOAD PUSH1 0xB SSTORE DUP3 DUP1 PUSH1 0xA0 SHL SUB AND DUP6 PUSH1 0xC SLOAD AND OR PUSH1 0xC SSTORE PUSH1 0x6 SLOAD AND OR PUSH1 0x6 SSTORE TIMESTAMP PUSH1 0x4 SSTORE PUSH1 0x0 EQ PUSH2 0x33E0 JUMPI PUSH1 0x5 SSTORE JUMPDEST CALLER SWAP1 PUSH1 0xD SLOAD AND OR PUSH1 0xD SSTORE PUSH2 0x32B2 PUSH1 0x4 SLOAD PUSH1 0x40 MLOAD PUSH2 0x3273 DUP2 PUSH2 0x2A48 JUMP JUMPDEST PUSH1 0x27 DUP2 MSTORE PUSH32 0x4E465441697264726F705265776172643A2053657420636C61696D2073746172 PUSH1 0x20 DUP3 ADD MSTORE PUSH7 0x3A103230BA329D PUSH1 0xC9 SHL PUSH1 0x40 DUP3 ADD MSTORE PUSH2 0x472D JUMP JUMPDEST PUSH2 0x3304 PUSH1 0x5 SLOAD PUSH1 0x40 MLOAD PUSH2 0x32C4 DUP2 PUSH2 0x2A48 JUMP JUMPDEST PUSH1 0x28 DUP2 MSTORE PUSH32 0x4E465441697264726F705265776172643A2053657420636C61696D2066696E69 PUSH1 0x20 DUP3 ADD MSTORE PUSH8 0x39B4103230BA329D PUSH1 0xC1 SHL PUSH1 0x40 DUP3 ADD MSTORE PUSH2 0x472D JUMP JUMPDEST PUSH2 0x3348 PUSH1 0xFF PUSH1 0x6 SLOAD AND PUSH1 0x40 MLOAD PUSH2 0x3319 DUP2 PUSH2 0x2A79 JUMP JUMPDEST PUSH1 0x1D DUP2 MSTORE PUSH32 0x4E465441697264726F705265776172643A20536574206163746976653A000000 PUSH1 0x20 DUP3 ADD MSTORE PUSH2 0x4772 JUMP JUMPDEST PUSH2 0x3392 PUSH1 0x40 MLOAD PUSH2 0x3357 DUP2 PUSH2 0x2A48 JUMP JUMPDEST PUSH1 0x21 DUP2 MSTORE PUSH32 0x4E465441697264726F705265776172643A2053657420636F6E74726F6C6C6572 PUSH1 0x20 DUP3 ADD MSTORE PUSH1 0x1D PUSH1 0xF9 SHL PUSH1 0x40 DUP3 ADD MSTORE CALLER SWAP1 PUSH2 0x47B9 JUMP JUMPDEST PUSH2 0x2BA7 PUSH1 0x40 MLOAD PUSH2 0x33A1 DUP2 PUSH2 0x2A48 JUMP JUMPDEST PUSH1 0x27 DUP2 MSTORE PUSH32 0x4E465441697264726F705265776172643A205F696E697469616C697A6520636F PUSH1 0x20 DUP3 ADD MSTORE PUSH7 0x1B5C1B195D1959 PUSH1 0xCA SHL PUSH1 0x40 DUP3 ADD MSTORE PUSH2 0x46EC JUMP JUMPDEST POP PUSH3 0x278D00 TIMESTAMP ADD DUP1 TIMESTAMP GT PUSH2 0x33F6 JUMPI PUSH1 0x5 SSTORE PUSH2 0x3257 JUMP JUMPDEST PUSH4 0x4E487B71 PUSH1 0xE0 SHL PUSH1 0x0 MSTORE PUSH1 0x11 PUSH1 0x4 MSTORE PUSH1 0x24 PUSH1 0x0 REVERT JUMPDEST ADD MLOAD SWAP1 POP CODESIZE DUP1 PUSH2 0x31CC JUMP JUMPDEST SWAP1 PUSH1 0x7 PUSH1 0x0 MSTORE PUSH1 0x0 DUP1 MLOAD PUSH1 0x20 PUSH2 0x4919 DUP4 CODECOPY DUP2 MLOAD SWAP2 MSTORE SWAP2 PUSH1 0x0 JUMPDEST PUSH1 0x1F NOT DUP6 AND DUP2 LT PUSH2 0x3478 JUMPI POP SWAP2 DUP4 SWAP2 PUSH1 0x1 SWAP6 SWAP5 SWAP4 DUP7 SWAP5 PUSH1 0x1F NOT DUP2 AND LT PUSH2 0x345F JUMPI JUMPDEST POP POP POP DUP2 SHL ADD PUSH1 0x7 SSTORE PUSH2 0x31E1 JUMP JUMPDEST ADD MLOAD PUSH1 0x0 NOT PUSH1 0xF8 DUP5 PUSH1 0x3 SHL AND SHR NOT AND SWAP1 SSTORE CODESIZE DUP1 DUP1 PUSH2 0x3451 JUMP JUMPDEST SWAP2 SWAP3 PUSH1 0x20 PUSH1 0x1 DUP2 SWAP3 DUP7 DUP6 ADD MLOAD DUP2 SSTORE ADD SWAP5 ADD SWAP3 ADD PUSH2 0x3430 JUMP JUMPDEST PUSH1 0x7 PUSH1 0x0 MSTORE PUSH1 0x1F DUP4 ADD PUSH1 0x5 SHR PUSH1 0x0 DUP1 MLOAD PUSH1 0x20 PUSH2 0x4919 DUP4 CODECOPY DUP2 MLOAD SWAP2 MSTORE ADD PUSH1 0x20 DUP5 LT PUSH2 0x34E4 JUMPI JUMPDEST PUSH1 0x1F DUP3 ADD PUSH1 0x5 SHR PUSH1 0x0 DUP1 MLOAD PUSH1 0x20 PUSH2 0x4919 DUP4 CODECOPY DUP2 MLOAD SWAP2 MSTORE ADD DUP2 LT PUSH2 0x34D8 JUMPI POP PUSH2 0x31AF JUMP JUMPDEST PUSH1 0x0 DUP2 SSTORE PUSH1 0x1 ADD PUSH2 0x34B5 JUMP JUMPDEST POP PUSH1 0x0 DUP1 MLOAD PUSH1 0x20 PUSH2 0x4919 DUP4 CODECOPY DUP2 MLOAD SWAP2 MSTORE PUSH2 0x34B5 JUMP JUMPDEST PUSH2 0x3545 DUP7 PUSH1 0x40 MLOAD PUSH2 0x3509 DUP2 PUSH2 0x2A48 JUMP JUMPDEST PUSH1 0x24 DUP2 MSTORE PUSH32 0x4E465441697264726F705265776172643A20446973747269627574696F6E2064 PUSH1 0x20 DUP3 ADD MSTORE PUSH4 0x30BA329D PUSH1 0xE1 SHL PUSH1 0x40 DUP3 ADD MSTORE PUSH2 0x472D JUMP JUMPDEST PUSH2 0x3550 TIMESTAMP DUP8 GT PUSH2 0x2E34 JUMP JUMPDEST PUSH2 0x3161 JUMP JUMPDEST PUSH1 0x40 MLOAD PUSH3 0x461BCD PUSH1 0xE5 SHL DUP2 MSTORE PUSH1 0x20 PUSH1 0x4 DUP3 ADD MSTORE PUSH1 0x14 PUSH1 0x24 DUP3 ADD MSTORE PUSH20 0x125B9D985B1A59081D1BDD185B08185B5BDD5B9D PUSH1 0x62 SHL PUSH1 0x44 DUP3 ADD MSTORE PUSH1 0x64 SWAP1 REVERT JUMPDEST PUSH1 0x40 MLOAD PUSH3 0x461BCD PUSH1 0xE5 SHL DUP2 MSTORE PUSH1 0x20 PUSH1 0x4 DUP3 ADD MSTORE PUSH1 0x13 PUSH1 0x24 DUP3 ADD MSTORE PUSH19 0x496E76616C6964204E46542061646472657373 PUSH1 0x68 SHL PUSH1 0x44 DUP3 ADD MSTORE PUSH1 0x64 SWAP1 REVERT JUMPDEST PUSH1 0x40 MLOAD PUSH3 0x461BCD PUSH1 0xE5 SHL DUP2 MSTORE PUSH1 0x20 PUSH1 0x4 DUP3 ADD MSTORE PUSH1 0x14 PUSH1 0x24 DUP3 ADD MSTORE PUSH20 0x496E76616C69642061697264726F70206E616D65 PUSH1 0x60 SHL PUSH1 0x44 DUP3 ADD MSTORE PUSH1 0x64 SWAP1 REVERT JUMPDEST PUSH1 0xC0 SWAP1 MLOAD LT PUSH2 0x3616 JUMPI PUSH1 0x1 SWAP1 JUMP JUMPDEST PUSH1 0x0 SWAP1 JUMP JUMPDEST PUSH1 0x40 MLOAD SWAP1 PUSH2 0x3628 DUP3 PUSH2 0x2A79 JUMP JUMPDEST PUSH1 0x1C DUP3 MSTORE PUSH32 0x426173655265776172643A207768656E41637469766520636865636B00000000 PUSH1 0x20 DUP4 ADD MSTORE JUMP JUMPDEST PUSH1 0x40 MLOAD SWAP1 PUSH2 0x3661 DUP3 PUSH2 0x2A79 JUMP JUMPDEST PUSH1 0x1A DUP3 MSTORE PUSH32 0x426173655265776172643A20416374697665207374617475733A000000000000 PUSH1 0x20 DUP4 ADD MSTORE JUMP JUMPDEST PUSH1 0x40 MLOAD SWAP1 PUSH2 0x369A DUP3 PUSH2 0x2A79 JUMP JUMPDEST PUSH1 0x1E DUP3 MSTORE PUSH32 0x426173655265776172643A2043757272656E742074696D657374616D703A0000 PUSH1 0x20 DUP4 ADD MSTORE JUMP JUMPDEST PUSH1 0x40 MLOAD SWAP1 PUSH2 0x36D3 DUP3 PUSH2 0x2A79 JUMP JUMPDEST PUSH1 0x1D DUP3 MSTORE PUSH32 0x426173655265776172643A20436C61696D20737461727420646174653A000000 PUSH1 0x20 DUP4 ADD MSTORE JUMP JUMPDEST PUSH1 0x40 MLOAD SWAP1 PUSH2 0x370C DUP3 PUSH2 0x2A79 JUMP JUMPDEST PUSH1 0x1E DUP3 MSTORE PUSH32 0x426173655265776172643A20436C61696D2066696E69736820646174653A0000 PUSH1 0x20 DUP4 ADD MSTORE JUMP JUMPDEST ISZERO PUSH2 0x373F JUMPI JUMP JUMPDEST PUSH1 0x40 MLOAD PUSH3 0x461BCD PUSH1 0xE5 SHL DUP2 MSTORE PUSH1 0x20 PUSH1 0x4 DUP3 ADD MSTORE PUSH1 0x14 PUSH1 0x24 DUP3 ADD MSTORE PUSH20 0x526577617264206973206E6F7420616374697665 PUSH1 0x60 SHL PUSH1 0x44 DUP3 ADD MSTORE PUSH1 0x64 SWAP1 REVERT JUMPDEST PUSH1 0x40 MLOAD SWAP1 PUSH2 0x3788 DUP3 PUSH2 0x2A79 JUMP JUMPDEST PUSH1 0x1F DUP3 MSTORE PUSH32 0x426173655265776172643A2057697468696E2074696D652077696E646F773A00 PUSH1 0x20 DUP4 ADD MSTORE JUMP JUMPDEST ISZERO PUSH2 0x37BB JUMPI JUMP JUMPDEST PUSH1 0x40 MLOAD PUSH3 0x461BCD PUSH1 0xE5 SHL DUP2 MSTORE PUSH1 0x20 PUSH1 0x4 DUP3 ADD MSTORE PUSH1 0x14 PUSH1 0x24 DUP3 ADD MSTORE PUSH20 0x13DD5D1CDA59194818DB185A5B481C195C9A5BD9 PUSH1 0x62 SHL PUSH1 0x44 DUP3 ADD MSTORE PUSH1 0x64 SWAP1 REVERT JUMPDEST PUSH1 0x2 PUSH1 0x1 SLOAD EQ PUSH2 0x3808 JUMPI PUSH1 0x2 PUSH1 0x1 SSTORE JUMP JUMPDEST PUSH1 0x40 MLOAD PUSH3 0x461BCD PUSH1 0xE5 SHL DUP2 MSTORE PUSH1 0x20 PUSH1 0x4 DUP3 ADD MSTORE PUSH1 0x1F PUSH1 0x24 DUP3 ADD MSTORE PUSH32 0x5265656E7472616E637947756172643A207265656E7472616E742063616C6C00 PUSH1 0x44 DUP3 ADD MSTORE PUSH1 0x64 SWAP1 REVERT JUMPDEST PUSH1 0x40 MLOAD SWAP1 PUSH2 0x385A DUP3 PUSH2 0x2A79 JUMP JUMPDEST PUSH1 0x20 DUP3 MSTORE PUSH32 0x4E465441697264726F705265776172643A20497320617574686F72697A65643F PUSH1 0x20 DUP4 ADD MSTORE JUMP JUMPDEST ISZERO PUSH2 0x388D JUMPI JUMP JUMPDEST PUSH1 0x40 MLOAD PUSH3 0x461BCD PUSH1 0xE5 SHL DUP2 MSTORE PUSH1 0x20 PUSH1 0x4 DUP3 ADD MSTORE PUSH1 0xE PUSH1 0x24 DUP3 ADD MSTORE PUSH14 0x139BDD08185D5D1A1BDC9A5E9959 PUSH1 0x92 SHL PUSH1 0x44 DUP3 ADD MSTORE PUSH1 0x64 SWAP1 REVERT JUMPDEST PUSH1 0x40 MLOAD SWAP1 PUSH2 0x38D0 DUP3 PUSH2 0x2A94 JUMP JUMPDEST PUSH1 0x4A DUP3 MSTORE PUSH10 0x34B7339037B732971717 PUSH1 0xB1 SHL PUSH1 0x60 DUP4 PUSH32 0x4E465441697264726F705265776172643A205573657220646F65736E27742068 PUSH1 0x20 DUP3 ADD MSTORE PUSH32 0x61766520616E2061737369676E656420746F6B656E2049442C2061737369676E PUSH1 0x40 DUP3 ADD MSTORE ADD MSTORE JUMP JUMPDEST PUSH1 0x40 MLOAD SWAP1 PUSH2 0x3942 DUP3 PUSH2 0x2A48 JUMP JUMPDEST PUSH1 0x24 DUP3 MSTORE PUSH4 0x3732B21D PUSH1 0xE1 SHL PUSH1 0x40 DUP4 PUSH32 0x4E465441697264726F705265776172643A20546F6B656E204944206173736967 PUSH1 0x20 DUP3 ADD MSTORE ADD MSTORE JUMP JUMPDEST PUSH1 0x0 NOT DUP2 EQ PUSH2 0x33F6 JUMPI PUSH1 0x1 ADD SWAP1 JUMP JUMPDEST PUSH2 0x2BA7 SWAP1 PUSH1 0x40 SWAP1 PUSH2 0x39DA DUP2 DUP4 MLOAD PUSH2 0x39A0 DUP2 PUSH2 0x2A48 JUMP JUMPDEST PUSH1 0x23 DUP2 MSTORE PUSH32 0x426173655265776172643A20547261636B696E6720636C61696D20666F722075 PUSH1 0x20 DUP3 ADD MSTORE PUSH3 0x39B2B9 PUSH1 0xE9 SHL DUP6 DUP3 ADD MSTORE PUSH2 0x47B9 JUMP JUMPDEST PUSH1 0x1 PUSH1 0x1 PUSH1 0xA0 SHL SUB AND PUSH1 0x0 DUP2 DUP2 MSTORE PUSH1 0x2 PUSH1 0x20 MSTORE DUP3 SWAP1 KECCAK256 DUP1 SLOAD PUSH1 0xFF NOT AND PUSH1 0x1 OR SWAP1 SSTORE PUSH1 0x3 SLOAD SWAP1 SWAP2 SWAP1 PUSH2 0x3A0A SWAP1 PUSH2 0x397B JUMP JUMPDEST SWAP2 DUP3 PUSH1 0x3 SSTORE PUSH32 0xD8138F8A3F377C5259CA548E70E4C2DE94F129F5A11036A15B69513CBA2B426A PUSH1 0x20 DUP4 MLOAD TIMESTAMP DUP2 MSTORE LOG2 PUSH21 0x39B33AB6363C96103A37BA30B61031B630B4B6B99D PUSH1 0x59 SHL DUP2 MLOAD SWAP2 PUSH2 0x3A5D DUP4 PUSH2 0x2A48 JUMP JUMPDEST PUSH1 0x35 DUP4 MSTORE PUSH32 0x426173655265776172643A20436C61696D20747261636B656420737563636573 PUSH1 0x20 DUP5 ADD MSTORE DUP3 ADD MSTORE PUSH2 0x472D JUMP JUMPDEST SWAP2 SWAP1 DUP2 LT ISZERO PUSH2 0x3A9F JUMPI PUSH1 0x5 SHL ADD SWAP1 JUMP JUMPDEST PUSH4 0x4E487B71 PUSH1 0xE0 SHL PUSH1 0x0 MSTORE PUSH1 0x32 PUSH1 0x4 MSTORE PUSH1 0x24 PUSH1 0x0 REVERT JUMPDEST CALLDATALOAD PUSH1 0x1 PUSH1 0x1 PUSH1 0xA0 SHL SUB DUP2 AND DUP2 SUB PUSH2 0x2A2D JUMPI SWAP1 JUMP JUMPDEST SWAP1 DUP2 PUSH1 0x20 SWAP2 SUB SLT PUSH2 0x2A2D JUMPI MLOAD PUSH1 0x1 PUSH1 0x1 PUSH1 0xA0 SHL SUB DUP2 AND DUP2 SUB PUSH2 0x2A2D JUMPI SWAP1 JUMP JUMPDEST PUSH1 0x8 SLOAD PUSH1 0xC SLOAD PUSH1 0x40 DUP1 MLOAD PUSH4 0x70A08231 PUSH1 0xE0 SHL DUP2 MSTORE PUSH1 0x1 PUSH1 0x1 PUSH1 0xA0 SHL SUB SWAP3 DUP4 AND PUSH1 0x4 DUP1 DUP4 ADD DUP3 SWAP1 MSTORE SWAP2 SWAP6 SWAP3 SWAP5 PUSH1 0x20 SWAP5 SWAP4 SWAP3 SWAP2 PUSH1 0x24 SWAP2 DUP6 AND DUP7 DUP10 DUP5 DUP2 DUP5 GAS STATICCALL SWAP9 DUP10 ISZERO PUSH2 0x3DA4 JUMPI PUSH1 0x0 SWAP10 PUSH2 0x3D75 JUMPI JUMPDEST POP DUP9 ISZERO PUSH2 0x3D33 JUMPI PUSH1 0x0 SWAP9 DUP10 JUMPDEST DUP2 DUP2 LT PUSH2 0x3C9D JUMPI JUMPDEST POP POP DUP9 ISZERO PUSH2 0x3BA8 JUMPI JUMPDEST POP POP POP POP SWAP1 PUSH32 0x840011356C296D81892F86D80E0A894310D2382C21CA958210FBE6DA8F3E179A SWAP3 SWAP2 DUP6 PUSH1 0x0 MSTORE PUSH1 0x10 DUP4 MSTORE DUP5 PUSH1 0x0 KECCAK256 PUSH1 0x1 PUSH1 0xFF NOT DUP3 SLOAD AND OR SWAP1 SSTORE AND SWAP3 DUP4 PUSH1 0x0 MSTORE PUSH1 0xF DUP3 MSTORE DUP5 DUP2 PUSH1 0x0 KECCAK256 SSTORE MLOAD DUP5 DUP2 MSTORE LOG2 SWAP1 JUMP JUMPDEST PUSH1 0x0 SWAP2 PUSH1 0x1 SWAP1 DUP2 JUMPDEST PUSH2 0x3E9 DUP2 LT PUSH2 0x3C05 JUMPI JUMPDEST POP POP POP POP ISZERO PUSH2 0x3BCA JUMPI DUP1 DUP1 PUSH2 0x3B51 JUMP JUMPDEST DUP6 MLOAD PUSH3 0x461BCD PUSH1 0xE5 SHL DUP2 MSTORE SWAP2 DUP3 ADD DUP6 SWAP1 MSTORE PUSH1 0x16 SWAP1 DUP3 ADD MSTORE PUSH22 0x4E6F20617661696C61626C6520746F6B656E20494473 PUSH1 0x50 SHL PUSH1 0x44 DUP3 ADD MSTORE PUSH1 0x64 SWAP1 REVERT JUMPDEST DUP2 DUP10 DUP13 MLOAD PUSH4 0x31A9108F PUSH1 0xE1 SHL DUP2 MSTORE DUP4 DUP11 DUP3 ADD MSTORE DUP13 DUP1 DUP3 DUP12 DUP2 DUP12 GAS STATICCALL SWAP2 DUP3 SWAP2 PUSH1 0x0 SWAP4 PUSH2 0x3C7E JUMPI JUMPDEST POP POP PUSH2 0x3C42 JUMPI POP POP POP PUSH2 0x3C3D SWAP1 PUSH2 0x397B JUMP JUMPDEST PUSH2 0x3BB0 JUMP JUMPDEST AND EQ DUP1 PUSH2 0x3C67 JUMPI JUMPDEST PUSH2 0x3C57 JUMPI PUSH2 0x3C3D SWAP1 PUSH2 0x397B JUMP JUMPDEST SWAP4 POP POP SWAP9 POP POP SWAP7 CODESIZE DUP1 DUP1 DUP1 PUSH2 0x3BBA JUMP JUMPDEST POP DUP1 PUSH1 0x0 MSTORE PUSH1 0x10 DUP11 MSTORE PUSH1 0xFF DUP12 PUSH1 0x0 KECCAK256 SLOAD AND ISZERO PUSH2 0x3C4A JUMP JUMPDEST PUSH2 0x3C95 SWAP3 SWAP4 POP DUP1 RETURNDATASIZE LT PUSH2 0x26EA JUMPI PUSH2 0x26DA DUP2 DUP4 PUSH2 0x2AAF JUMP JUMPDEST SWAP1 CODESIZE DUP15 PUSH2 0x3C2B JUMP JUMPDEST DUP10 MLOAD PUSH4 0x2F745C59 PUSH1 0xE0 SHL DUP2 MSTORE DUP5 DUP8 DUP3 ADD MSTORE DUP2 DUP7 DUP3 ADD MSTORE DUP10 DUP2 PUSH1 0x44 DUP2 DUP8 GAS STATICCALL PUSH1 0x0 SWAP2 DUP2 PUSH2 0x3D04 JUMPI JUMPDEST POP PUSH2 0x3CD8 JUMPI POP PUSH2 0x3CD3 SWAP1 PUSH2 0x397B JUMP JUMPDEST PUSH2 0x3B40 JUMP JUMPDEST DUP1 PUSH1 0x0 MSTORE PUSH1 0x10 DUP11 MSTORE PUSH1 0xFF DUP12 PUSH1 0x0 KECCAK256 SLOAD AND ISZERO PUSH2 0x3CF7 JUMPI POP PUSH2 0x3CD3 SWAP1 PUSH2 0x397B JUMP JUMPDEST SWAP3 SWAP11 POP POP POP SWAP8 CODESIZE DUP1 PUSH2 0x3B48 JUMP JUMPDEST SWAP1 SWAP2 DUP12 DUP3 DUP2 RETURNDATASIZE DUP4 GT PUSH2 0x3D2C JUMPI JUMPDEST PUSH2 0x3D1B DUP2 DUP4 PUSH2 0x2AAF JUMP JUMPDEST DUP2 ADD SUB SLT PUSH2 0x93D JUMPI POP MLOAD SWAP1 CODESIZE PUSH2 0x3CC4 JUMP JUMPDEST POP RETURNDATASIZE PUSH2 0x3D11 JUMP JUMPDEST DUP8 MLOAD PUSH3 0x461BCD PUSH1 0xE5 SHL DUP2 MSTORE DUP1 DUP6 ADD DUP9 SWAP1 MSTORE PUSH1 0x1D DUP2 DUP6 ADD MSTORE PUSH32 0x4E6F204E465473206C65667420696E2062726F6B65722077616C6C6574000000 PUSH1 0x44 DUP3 ADD MSTORE PUSH1 0x64 SWAP1 REVERT JUMPDEST SWAP1 SWAP9 DUP8 DUP3 DUP2 RETURNDATASIZE DUP4 GT PUSH2 0x3D9D JUMPI JUMPDEST PUSH2 0x3D8C DUP2 DUP4 PUSH2 0x2AAF JUMP JUMPDEST DUP2 ADD SUB SLT PUSH2 0x93D JUMPI POP MLOAD SWAP8 CODESIZE PUSH2 0x3B34 JUMP JUMPDEST POP RETURNDATASIZE PUSH2 0x3D82 JUMP JUMPDEST DUP9 MLOAD RETURNDATASIZE PUSH1 0x0 DUP3 RETURNDATACOPY RETURNDATASIZE SWAP1 REVERT JUMPDEST PUSH1 0x40 MLOAD SWAP1 PUSH2 0x3DBC DUP3 PUSH2 0x2A79 JUMP JUMPDEST PUSH1 0x2 DUP3 MSTORE PUSH2 0x6973 PUSH1 0xF0 SHL PUSH1 0x20 DUP4 ADD MSTORE JUMP JUMPDEST PUSH1 0x40 DUP1 MLOAD SWAP1 SWAP4 SWAP3 PUSH2 0x3DDD DUP3 PUSH2 0x2A48 JUMP JUMPDEST PUSH1 0x25 DUP3 MSTORE PUSH2 0x3E3F DUP4 PUSH1 0x20 SWAP4 PUSH32 0x4E465441697264726F705265776172643A205472616E7366657272696E67204E DUP6 DUP3 ADD MSTORE PUSH5 0x1195081251 PUSH1 0xDA SHL DUP9 DUP3 ADD MSTORE DUP4 DUP9 MLOAD SWAP2 PUSH2 0x3E27 DUP4 PUSH2 0x2A79 JUMP JUMPDEST PUSH1 0x7 DUP4 MSTORE PUSH7 0x3A37903AB9B2B9 PUSH1 0xC9 SHL DUP8 DUP5 ADD MSTORE PUSH2 0x483E JUMP JUMPDEST PUSH1 0x8 SLOAD DUP6 MLOAD PUSH4 0x31A9108F PUSH1 0xE1 SHL DUP2 MSTORE PUSH1 0x4 DUP1 DUP3 ADD DUP5 SWAP1 MSTORE PUSH1 0x1 PUSH1 0x1 PUSH1 0xA0 SHL SUB SWAP3 DUP4 AND SWAP4 SWAP3 SWAP2 PUSH1 0x24 SWAP2 SWAP1 DUP7 DUP2 DUP5 DUP2 DUP10 GAS STATICCALL DUP1 ISZERO PUSH2 0x428B JUMPI DUP5 SWAP2 PUSH1 0x0 SWAP2 PUSH2 0x426E JUMPI JUMPDEST POP PUSH2 0x3EDB DUP2 DUP13 PUSH11 0x1BD9881D1BDAD95B881251 PUSH1 0xAA SHL DUP2 MLOAD SWAP2 PUSH2 0x3EA0 DUP4 PUSH2 0x2A48 JUMP JUMPDEST PUSH1 0x2B DUP4 MSTORE PUSH32 0x4E465441697264726F705265776172643A2043757272656E74206F776E657220 DUP14 DUP5 ADD MSTORE DUP3 ADD MSTORE DUP9 PUSH2 0x3ED5 PUSH2 0x3DAF JUMP JUMPDEST SWAP2 PUSH2 0x483E JUMP JUMPDEST DUP2 PUSH1 0xC SLOAD AND SWAP2 DUP3 SWAP2 AND SUB PUSH2 0x421F JUMPI DUP10 MLOAD PUSH4 0x20604BF PUSH1 0xE2 SHL DUP2 MSTORE DUP3 DUP2 ADD DUP7 SWAP1 MSTORE DUP8 DUP2 DUP6 DUP2 DUP11 GAS STATICCALL SWAP1 DUP2 ISZERO PUSH2 0x4214 JUMPI PUSH1 0x0 SWAP2 PUSH2 0x41F7 JUMPI JUMPDEST POP DUP11 MLOAD PUSH4 0xE985E9C5 PUSH1 0xE0 SHL DUP2 MSTORE DUP4 DUP2 ADD DUP4 SWAP1 MSTORE ADDRESS DUP6 DUP3 ADD MSTORE SWAP1 DUP9 DUP3 PUSH1 0x44 DUP2 DUP12 GAS STATICCALL SWAP2 DUP13 DUP4 ISZERO PUSH2 0x41ED JUMPI DUP11 SWAP2 PUSH1 0x0 SWAP5 PUSH2 0x41A3 JUMPI JUMPDEST POP PUSH2 0x3FEA SWAP2 PUSH6 0x391030B6361D PUSH1 0xD1 SHL DUP3 PUSH2 0x3FAE DUP7 DUP14 DUP10 SWAP7 MLOAD SWAP1 PUSH2 0x3F66 DUP3 PUSH2 0x2A48 JUMP JUMPDEST PUSH1 0x2F DUP3 MSTORE PUSH32 0x4E465441697264726F705265776172643A20417070726F766564206164647265 DUP8 DUP4 ADD MSTORE PUSH15 0x1CDCC8199BDC881D1BDAD95B881251 PUSH1 0x8A SHL DUP6 DUP4 ADD MSTORE PUSH2 0x3ED5 PUSH2 0x3DAF JUMP JUMPDEST PUSH32 0x4E465441697264726F705265776172643A20497320617070726F76656420666F DUP2 MLOAD SWAP4 PUSH2 0x3FDB DUP6 PUSH2 0x2A48 JUMP JUMPDEST PUSH1 0x26 DUP6 MSTORE DUP5 ADD MSTORE DUP3 ADD MSTORE PUSH2 0x4772 JUMP JUMPDEST DUP6 AND ADDRESS EQ SWAP1 DUP2 ISZERO PUSH2 0x419B JUMPI JUMPDEST POP ISZERO PUSH2 0x4143 JUMPI DUP6 EXTCODESIZE ISZERO PUSH2 0x2A2D JUMPI PUSH1 0x0 SWAP4 PUSH1 0x64 DUP6 SWAP3 DUP13 MLOAD SWAP7 DUP8 SWAP4 DUP5 SWAP3 PUSH4 0x21421707 PUSH1 0xE1 SHL DUP5 MSTORE DUP8 DUP5 ADD MSTORE DUP13 AND SWAP10 DUP11 DUP9 DUP5 ADD MSTORE DUP10 PUSH1 0x44 DUP5 ADD MSTORE GAS CALL DUP1 ISZERO PUSH2 0x4138 JUMPI PUSH2 0x40EB JUMPI JUMPDEST POP POP POP SWAP5 DUP2 PUSH32 0xC3CD54D1A5EFE601B3AD455524BB55B2466336CFEAB1DA71C511BEDE04485E76 DUP5 PUSH2 0x2BA7 SWAP8 SWAP9 PUSH17 0x64207375636365737366756C6C7920746F PUSH1 0x78 SHL SWAP6 PUSH32 0xD93BBB9E10B7AF5AA4B410AC845AE87A717D305E8A4777959AD1DD06E6A1AC98 DUP7 DUP1 MLOAD DUP5 DUP2 MSTORE TIMESTAMP DUP7 DUP3 ADD MSTORE LOG2 DUP5 MLOAD SWAP1 DUP2 MSTORE LOG2 PUSH32 0x4E465441697264726F705265776172643A204E4654207472616E736665727265 DUP2 MLOAD SWAP4 PUSH2 0x40DC DUP6 PUSH2 0x2A48 JUMP JUMPDEST PUSH1 0x31 DUP6 MSTORE DUP5 ADD MSTORE DUP3 ADD MSTORE PUSH2 0x47B9 JUMP JUMPDEST PUSH1 0x1 PUSH1 0x1 PUSH1 0x40 SHL SUB DUP4 GT PUSH2 0x4125 JUMPI POP POP DUP7 MSTORE DUP2 PUSH32 0xC3CD54D1A5EFE601B3AD455524BB55B2466336CFEAB1DA71C511BEDE04485E76 DUP5 PUSH2 0x403A JUMP JUMPDEST PUSH1 0x41 SWAP1 PUSH4 0x4E487B71 PUSH1 0xE0 SHL PUSH1 0x0 MSTORE MSTORE PUSH1 0x0 REVERT JUMPDEST DUP10 MLOAD RETURNDATASIZE PUSH1 0x0 DUP3 RETURNDATACOPY RETURNDATASIZE SWAP1 REVERT JUMPDEST POP PUSH1 0x2E PUSH1 0x84 SWAP3 DUP8 DUP12 MLOAD SWAP4 PUSH3 0x461BCD PUSH1 0xE5 SHL DUP6 MSTORE DUP5 ADD MSTORE DUP3 ADD MSTORE PUSH32 0x4E4654206E6F7420617070726F76656420666F72207472616E73666572206279 PUSH1 0x44 DUP3 ADD MSTORE PUSH14 0x8189C9BDAD95C881DD85B1B195D PUSH1 0x92 SHL PUSH1 0x64 DUP3 ADD MSTORE REVERT JUMPDEST SWAP1 POP CODESIZE PUSH2 0x3FF6 JUMP JUMPDEST DUP3 DUP2 SWAP5 SWAP6 SWAP4 SWAP3 POP RETURNDATASIZE DUP4 GT PUSH2 0x41E6 JUMPI JUMPDEST PUSH2 0x41BC DUP2 DUP4 PUSH2 0x2AAF JUMP JUMPDEST DUP2 ADD SUB SLT PUSH2 0x93D JUMPI POP SWAP1 PUSH2 0x3FEA DUP13 DUP11 PUSH2 0x41DE PUSH6 0x391030B6361D PUSH1 0xD1 SHL SWAP6 PUSH2 0x2DE3 JUMP JUMPDEST SWAP5 POP SWAP2 PUSH2 0x3F44 JUMP JUMPDEST POP RETURNDATASIZE PUSH2 0x41B2 JUMP JUMPDEST MLOAD RETURNDATASIZE PUSH1 0x0 DUP3 RETURNDATACOPY RETURNDATASIZE SWAP1 REVERT JUMPDEST PUSH2 0x420E SWAP2 POP DUP9 RETURNDATASIZE DUP11 GT PUSH2 0x26EA JUMPI PUSH2 0x26DA DUP2 DUP4 PUSH2 0x2AAF JUMP JUMPDEST CODESIZE PUSH2 0x3F11 JUMP JUMPDEST DUP12 MLOAD RETURNDATASIZE PUSH1 0x0 DUP3 RETURNDATACOPY RETURNDATASIZE SWAP1 REVERT JUMPDEST POP PUSH1 0x25 PUSH1 0x84 SWAP3 DUP8 DUP12 MLOAD SWAP4 PUSH3 0x461BCD PUSH1 0xE5 SHL DUP6 MSTORE DUP5 ADD MSTORE DUP3 ADD MSTORE PUSH32 0x42726F6B65722077616C6C6574206E6F206C6F6E676572206F776E7320746869 PUSH1 0x44 DUP3 ADD MSTORE PUSH5 0x1CC8139195 PUSH1 0xDA SHL PUSH1 0x64 DUP3 ADD MSTORE REVERT JUMPDEST PUSH2 0x4285 SWAP2 POP DUP9 RETURNDATASIZE DUP11 GT PUSH2 0x26EA JUMPI PUSH2 0x26DA DUP2 DUP4 PUSH2 0x2AAF JUMP JUMPDEST CODESIZE PUSH2 0x3E7F JUMP JUMPDEST DUP11 MLOAD RETURNDATASIZE PUSH1 0x0 DUP3 RETURNDATACOPY RETURNDATASIZE SWAP1 REVERT JUMPDEST PUSH1 0xFF PUSH1 0x6 SLOAD AND SWAP1 PUSH1 0x1 DUP1 PUSH1 0xA0 SHL SUB AND DUP1 PUSH1 0x0 MSTORE PUSH1 0x20 PUSH1 0xE DUP2 MSTORE PUSH1 0x40 DUP1 SWAP3 PUSH1 0xFF DUP3 PUSH1 0x0 KECCAK256 SLOAD AND PUSH1 0x4 SLOAD TIMESTAMP LT ISZERO PUSH1 0x5 SLOAD SWAP2 DUP3 ISZERO SWAP3 DUP4 ISZERO PUSH2 0x46C3 JUMPI JUMPDEST POP PUSH1 0xFF PUSH1 0xA SLOAD AND DUP1 DUP1 PUSH2 0x46B6 JUMPI JUMPDEST DUP8 PUSH1 0x11 SLOAD PUSH1 0x9 SLOAD GT SWAP7 CALLER ISZERO SWAP9 DUP10 PUSH2 0x441E JUMPI JUMPDEST POP POP POP POP PUSH2 0x4391 JUMPI DUP8 PUSH2 0x4388 JUMPI JUMPDEST POP DUP7 PUSH2 0x4380 JUMPI JUMPDEST POP DUP6 PUSH2 0x4378 JUMPI JUMPDEST POP DUP5 PUSH2 0x4370 JUMPI JUMPDEST POP SWAP1 DUP4 SWAP2 PUSH2 0x4321 JUMPI JUMPDEST POP POP POP SWAP1 JUMP JUMPDEST PUSH3 0x363A1D PUSH1 0xE9 SHL DUP4 PUSH32 0x4E465441697264726F705265776172643A2043616E20636C61696D2072657375 PUSH2 0x4368 SWAP6 MLOAD SWAP4 PUSH2 0x4359 DUP6 PUSH2 0x2A48 JUMP JUMPDEST PUSH1 0x23 DUP6 MSTORE DUP5 ADD MSTORE DUP3 ADD MSTORE PUSH2 0x4772 JUMP JUMPDEST CODESIZE DUP2 DUP2 PUSH2 0x431B JUMP JUMPDEST SWAP4 POP CODESIZE PUSH2 0x4312 JUMP JUMPDEST SWAP5 POP CODESIZE PUSH2 0x430B JUMP JUMPDEST SWAP6 POP CODESIZE PUSH2 0x4304 JUMP JUMPDEST ISZERO SWAP7 POP CODESIZE PUSH2 0x42FD JUMP JUMPDEST POP POP POP POP SWAP1 SWAP2 SWAP3 POP PUSH2 0x43A5 JUMPI JUMPDEST POP POP PUSH1 0x0 SWAP1 JUMP JUMPDEST PUSH32 0x6674657220646973747269627574696F6E206461746520696E206175746F6D61 DUP3 PUSH32 0x4E465441697264726F705265776172643A2043616E6E6F7420636C61696D2061 PUSH2 0x4417 SWAP5 MLOAD SWAP4 PUSH2 0x43F7 DUP6 PUSH2 0x2A94 JUMP JUMPDEST PUSH1 0x48 DUP6 MSTORE DUP5 ADD MSTORE DUP3 ADD MSTORE PUSH8 0x746963206D6F6465 PUSH1 0xC0 SHL PUSH1 0x60 DUP3 ADD MSTORE PUSH2 0x46EC JUMP JUMPDEST CODESIZE DUP1 PUSH2 0x439E JUMP JUMPDEST PUSH2 0x2902 PUSH2 0x44AE PUSH1 0x0 SWAP5 PUSH2 0x2FFF DUP7 SWAP6 DUP6 MLOAD SWAP6 PUSH2 0x4438 DUP8 PUSH2 0x2A48 JUMP JUMPDEST PUSH1 0x22 DUP8 MSTORE PUSH32 0x4E465441697264726F705265776172643A20436865636B696E67206966207573 DUP5 DUP9 ADD MSTORE PUSH2 0x32B9 PUSH1 0xF1 SHL DUP2 DUP9 ADD MSTORE DUP1 MLOAD SWAP1 PUSH2 0x4477 DUP3 PUSH2 0x2A79 JUMP JUMPDEST PUSH1 0x9 DUP3 MSTORE PUSH9 0x63616E20636C61696D PUSH1 0xB8 SHL DUP6 DUP4 ADD MSTORE MLOAD SWAP6 DUP7 SWAP5 DUP6 ADD SWAP8 PUSH4 0xE0E9AD4F PUSH1 0xE0 SHL DUP10 MSTORE PUSH1 0x60 PUSH1 0x24 DUP8 ADD MSTORE PUSH1 0x84 DUP7 ADD SWAP1 PUSH2 0x2C3B JUMP JUMPDEST MLOAD SWAP1 PUSH11 0x636F6E736F6C652E6C6F67 GAS STATICCALL POP PUSH2 0x44FC DUP11 DUP11 MLOAD PUSH2 0x44CE DUP2 PUSH2 0x2A79 JUMP JUMPDEST PUSH1 0x19 DUP2 MSTORE PUSH32 0x4E465441697264726F705265776172643A204163746976653F00000000000000 DUP12 DUP3 ADD MSTORE PUSH2 0x4772 JUMP JUMPDEST PUSH2 0x4543 DUP4 DUP11 MLOAD PUSH2 0x450B DUP2 PUSH2 0x2A48 JUMP JUMPDEST PUSH1 0x22 DUP2 MSTORE PUSH32 0x4E465441697264726F705265776172643A20416C726561647920636C61696D65 DUP12 DUP3 ADD MSTORE PUSH2 0x643F PUSH1 0xF0 SHL DUP13 DUP3 ADD MSTORE PUSH2 0x4772 JUMP JUMPDEST PUSH2 0x458B DUP5 DUP11 MLOAD PUSH2 0x4552 DUP2 PUSH2 0x2A48 JUMP JUMPDEST PUSH1 0x23 DUP2 MSTORE PUSH32 0x4E465441697264726F705265776172643A204166746572207374617274207469 DUP12 DUP3 ADD MSTORE PUSH3 0x6D653F PUSH1 0xE8 SHL DUP13 DUP3 ADD MSTORE PUSH2 0x4772 JUMP JUMPDEST PUSH2 0x45D2 DUP6 DUP11 MLOAD PUSH2 0x459A DUP2 PUSH2 0x2A48 JUMP JUMPDEST PUSH1 0x22 DUP2 MSTORE PUSH32 0x4E465441697264726F705265776172643A204265666F726520656E642074696D DUP12 DUP3 ADD MSTORE PUSH2 0x653F PUSH1 0xF0 SHL DUP13 DUP3 ADD MSTORE PUSH2 0x4772 JUMP JUMPDEST PUSH2 0x4618 DUP7 DUP11 MLOAD PUSH2 0x45E1 DUP2 PUSH2 0x2A48 JUMP JUMPDEST PUSH1 0x21 DUP2 MSTORE PUSH32 0x4E465441697264726F705265776172643A204E46547320617661696C61626C65 DUP12 DUP3 ADD MSTORE PUSH1 0x3F PUSH1 0xF8 SHL DUP13 DUP3 ADD MSTORE PUSH2 0x4772 JUMP JUMPDEST PUSH2 0x4654 DUP2 DUP11 MLOAD PUSH2 0x4627 DUP2 PUSH2 0x2A48 JUMP JUMPDEST PUSH1 0x29 DUP2 MSTORE PUSH1 0x0 DUP1 MLOAD PUSH1 0x20 PUSH2 0x4939 DUP4 CODECOPY DUP2 MLOAD SWAP2 MSTORE DUP12 DUP3 ADD MSTORE PUSH9 0x7269627574696F6E3F PUSH1 0xB8 SHL DUP13 DUP3 ADD MSTORE PUSH2 0x4772 JUMP JUMPDEST PUSH2 0x4662 JUMPI JUMPDEST CODESIZE DUP8 DUP2 DUP11 PUSH2 0x42EF JUMP JUMPDEST PUSH2 0x46B1 DUP2 DUP10 MLOAD PUSH2 0x4671 DUP2 PUSH2 0x2A48 JUMP JUMPDEST PUSH1 0x2A DUP2 MSTORE PUSH32 0x4E465441697264726F705265776172643A204166746572206469737472696275 DUP11 DUP3 ADD MSTORE PUSH10 0x74696F6E20646174653F PUSH1 0xB0 SHL DUP12 DUP3 ADD MSTORE PUSH2 0x4772 JUMP JUMPDEST PUSH2 0x4659 JUMP JUMPDEST PUSH1 0xB SLOAD TIMESTAMP LT ISZERO SWAP2 POP PUSH2 0x42DD JUMP JUMPDEST TIMESTAMP GT ISZERO SWAP3 POP CODESIZE PUSH2 0x42CF JUMP JUMPDEST PUSH1 0x40 MLOAD SWAP1 PUSH2 0x46DB DUP3 PUSH2 0x2A79 JUMP JUMPDEST PUSH1 0x2 DUP3 MSTORE PUSH2 0x746F PUSH1 0xF0 SHL PUSH1 0x20 DUP4 ADD MSTORE JUMP JUMPDEST PUSH1 0x0 DUP1 SWAP2 PUSH1 0x40 MLOAD PUSH2 0x471A DUP2 PUSH2 0x2FFF PUSH1 0x20 DUP3 ADD SWAP5 PUSH4 0x104C13EB PUSH1 0xE2 SHL DUP7 MSTORE PUSH1 0x20 PUSH1 0x24 DUP5 ADD MSTORE PUSH1 0x44 DUP4 ADD SWAP1 PUSH2 0x2C3B JUMP JUMPDEST MLOAD SWAP1 PUSH11 0x636F6E736F6C652E6C6F67 GAS STATICCALL POP JUMP JUMPDEST PUSH1 0x0 SWAP2 SWAP1 DUP3 SWAP2 PUSH2 0x471A PUSH1 0x40 MLOAD DUP1 SWAP3 PUSH2 0x475E PUSH1 0x20 DUP4 ADD SWAP6 PUSH4 0x2D839CB3 PUSH1 0xE2 SHL DUP8 MSTORE PUSH1 0x40 PUSH1 0x24 DUP6 ADD MSTORE PUSH1 0x64 DUP5 ADD SWAP1 PUSH2 0x2C3B JUMP JUMPDEST SWAP1 PUSH1 0x44 DUP4 ADD MSTORE SUB PUSH1 0x1F NOT DUP2 ADD DUP4 MSTORE DUP3 PUSH2 0x2AAF JUMP JUMPDEST PUSH1 0x0 SWAP2 SWAP1 DUP3 SWAP2 PUSH2 0x471A PUSH1 0x40 MLOAD DUP1 SWAP3 PUSH2 0x47A3 PUSH1 0x20 DUP4 ADD SWAP6 PUSH4 0xC3B55635 PUSH1 0xE0 SHL DUP8 MSTORE PUSH1 0x40 PUSH1 0x24 DUP6 ADD MSTORE PUSH1 0x64 DUP5 ADD SWAP1 PUSH2 0x2C3B JUMP JUMPDEST SWAP1 ISZERO ISZERO PUSH1 0x44 DUP4 ADD MSTORE SUB PUSH1 0x1F NOT DUP2 ADD DUP4 MSTORE DUP3 PUSH2 0x2AAF JUMP JUMPDEST PUSH1 0x0 SWAP2 SWAP1 DUP3 SWAP2 PUSH2 0x471A PUSH1 0x40 MLOAD DUP1 SWAP3 PUSH2 0x47EA PUSH1 0x20 DUP4 ADD SWAP6 PUSH4 0x319AF333 PUSH1 0xE0 SHL DUP8 MSTORE PUSH1 0x40 PUSH1 0x24 DUP6 ADD MSTORE PUSH1 0x64 DUP5 ADD SWAP1 PUSH2 0x2C3B JUMP JUMPDEST PUSH1 0x1 PUSH1 0x1 PUSH1 0xA0 SHL SUB SWAP2 SWAP1 SWAP2 AND PUSH1 0x44 DUP4 ADD MSTORE SUB PUSH1 0x1F NOT DUP2 ADD DUP4 MSTORE DUP3 PUSH2 0x2AAF JUMP JUMPDEST PUSH1 0x0 SWAP3 SWAP2 PUSH2 0x471A DUP5 SWAP4 PUSH2 0x2FFF PUSH1 0x40 MLOAD SWAP4 DUP5 SWAP3 PUSH2 0x2902 PUSH1 0x20 DUP6 ADD SWAP8 PUSH4 0x5970E089 PUSH1 0xE0 SHL DUP10 MSTORE PUSH1 0x60 PUSH1 0x24 DUP8 ADD MSTORE PUSH1 0x84 DUP7 ADD SWAP1 PUSH2 0x2C3B JUMP JUMPDEST SWAP1 PUSH2 0x471A PUSH1 0x0 SWAP5 SWAP4 DUP6 SWAP5 PUSH2 0x488B PUSH1 0x40 MLOAD SWAP5 DUP6 SWAP4 PUSH2 0x4874 PUSH1 0x20 DUP7 ADD SWAP9 PUSH4 0x1F118CA9 PUSH1 0xE2 SHL DUP11 MSTORE PUSH1 0x80 PUSH1 0x24 DUP9 ADD MSTORE PUSH1 0xA4 DUP8 ADD SWAP1 PUSH2 0x2C3B JUMP JUMPDEST SWAP2 PUSH1 0x44 DUP7 ADD MSTORE PUSH1 0x23 NOT DUP6 DUP4 SUB ADD PUSH1 0x64 DUP7 ADD MSTORE PUSH2 0x2C3B JUMP JUMPDEST PUSH1 0x1 PUSH1 0x1 PUSH1 0xA0 SHL SUB SWAP2 SWAP1 SWAP2 AND PUSH1 0x84 DUP4 ADD MSTORE SUB PUSH1 0x1F NOT DUP2 ADD DUP4 MSTORE DUP3 PUSH2 0x2AAF JUMP JUMPDEST SWAP1 PUSH2 0x471A PUSH1 0x0 SWAP5 SWAP4 DUP6 SWAP5 PUSH2 0x4903 SWAP4 PUSH1 0x40 MLOAD SWAP5 DUP6 SWAP4 PUSH2 0x48E1 PUSH1 0x20 DUP7 ADD SWAP9 PUSH4 0xAABC9A31 PUSH1 0xE0 SHL DUP11 MSTORE PUSH1 0x80 PUSH1 0x24 DUP9 ADD MSTORE PUSH1 0xA4 DUP8 ADD SWAP1 PUSH2 0x2C3B JUMP JUMPDEST PUSH1 0x1 PUSH1 0x1 PUSH1 0xA0 SHL SUB SWAP4 DUP5 AND PUSH1 0x44 DUP8 ADD MSTORE DUP6 DUP2 SUB PUSH1 0x23 NOT ADD PUSH1 0x64 DUP8 ADD MSTORE SWAP1 PUSH2 0x2C3B JUMP JUMPDEST SWAP2 AND PUSH1 0x84 DUP4 ADD MSTORE SUB PUSH1 0x1F NOT DUP2 ADD DUP4 MSTORE DUP3 PUSH2 0x2AAF JUMP INVALID 0xA6 PUSH13 0xC928B5EDB82AF9BD4992295415 GAS 0xB7 0xB0 SWAP5 0x26 SWAP5 0xBE LOG4 0xCE PREVRANDAO PUSH7 0x1D9A8736C6884E CHAINID SLOAD COINBASE PUSH10 0x7264726F705265776172 PUSH5 0x3A20417574 PUSH16 0x6D617469632064697374A26469706673 PC 0x22 SLT KECCAK256 EQ MUL PUSH25 0xDB70C7913CA860FB5CCD9F99265F07E93365E190A7CBF722F8 RETURNDATASIZE 0xDB SLOAD XOR PUSH5 0x736F6C6343 STOP ADDMOD EQ STOP CALLER "},"methodIdentifiers":{"activate()":"0f15f4c0","active()":"02fb0c5e","assignTokenIds(address[],uint256[])":"03f5866b","brokerWallet()":"df153ca5","canClaim(address)":"bf3506c1","claim(address)":"1e83409a","claimFinishDate()":"b71b7a32","claimNFT()":"672756ad","claimStartDate()":"5f03b6b2","config()":"79502c55","controller()":"f77c4791","deactivate()":"51b42b00","debugState(address)":"d535074b","extendClaimPeriod(uint256)":"d5defd3c","getAirdropStats()":"c4d92a75","getBrokerNFTCount()":"b4825169","getRewardType()":"8a51f860","getUserTokenId(address)":"fefd4e4f","hasClaimed(address)":"73b2e80e","hasUserClaimed(address)":"a195b69c","initialize(bytes)":"439fab91","initializeClone(bytes,address,address)":"6f60049f","isClaimPeriodActive()":"74ea186d","isInitialized()":"392e53cd","isTokenIdAssigned(uint256)":"bec98755","nftClaimed(address)":"4e14f8ea","owner()":"8da5cb5b","processFeeOnClaim(address)":"93903df3","processFeeWithDiscount(address,uint256,bytes32[])":"4a313aae","renounceOwnership()":"715018a6","setAutomaticDistribution(bool,uint256)":"8bb0401d","setClaimPeriod(uint256,uint256)":"df6ec1bd","setController(address)":"92eefe9b","tokenIdAssigned(uint256)":"43512db7","totalClaimed()":"d54ad2a1","totalClaims()":"41c61383","transferOwnership(address)":"f2fde38b","triggerAutomaticDistribution(address[])":"809b9cf6","updateBrokerWallet(address)":"649d3100","updateTotalAirdropAmount(uint256)":"0001d891","userToTokenId(address)":"af24b07b","validateConfig(bytes)":"a913b881"}}}}}