{"contracts/rewards/WhitelistRaffleReward.sol":{"WhitelistRaffleReward":{"abi":[{"anonymous":false,"inputs":[],"name":"AutomaticDistributionDisabled","type":"event"},{"anonymous":false,"inputs":[{"indexed":false,"internalType":"uint256","name":"distributionDate","type":"uint256"}],"name":"AutomaticDistributionEnabled","type":"event"},{"anonymous":false,"inputs":[{"indexed":false,"internalType":"uint256","name":"startDate","type":"uint256"},{"indexed":false,"internalType":"uint256","name":"finishDate","type":"uint256"}],"name":"ClaimPeriodUpdated","type":"event"},{"anonymous":false,"inputs":[{"indexed":true,"internalType":"address","name":"user","type":"address"},{"indexed":false,"internalType":"uint256","name":"timestamp","type":"uint256"}],"name":"Claimed","type":"event"},{"anonymous":false,"inputs":[{"indexed":false,"internalType":"address","name":"controller","type":"address"}],"name":"ControllerUpdated","type":"event"},{"anonymous":false,"inputs":[{"indexed":true,"internalType":"address","name":"previousOwner","type":"address"},{"indexed":true,"internalType":"address","name":"newOwner","type":"address"}],"name":"OwnershipTransferred","type":"event"},{"anonymous":false,"inputs":[{"indexed":true,"internalType":"address","name":"winner","type":"address"},{"indexed":false,"internalType":"uint256","name":"timestamp","type":"uint256"}],"name":"SpotAssigned","type":"event"},{"anonymous":false,"inputs":[{"indexed":false,"internalType":"bool","name":"active","type":"bool"}],"name":"StatusChanged","type":"event"},{"anonymous":false,"inputs":[{"indexed":true,"internalType":"address","name":"winner","type":"address"},{"indexed":false,"internalType":"uint256","name":"timestamp","type":"uint256"}],"name":"WinnerAdded","type":"event"},{"anonymous":false,"inputs":[{"indexed":true,"internalType":"address","name":"winner","type":"address"},{"indexed":false,"internalType":"uint256","name":"timestamp","type":"uint256"}],"name":"WinnerRemoved","type":"event"},{"inputs":[],"name":"activate","outputs":[],"stateMutability":"nonpayable","type":"function"},{"inputs":[],"name":"active","outputs":[{"internalType":"bool","name":"","type":"bool"}],"stateMutability":"view","type":"function"},{"inputs":[{"internalType":"address","name":"winner","type":"address"}],"name":"addWinner","outputs":[],"stateMutability":"nonpayable","type":"function"},{"inputs":[],"name":"assignSpot","outputs":[],"stateMutability":"nonpayable","type":"function"},{"inputs":[{"internalType":"address","name":"user","type":"address"}],"name":"canClaim","outputs":[{"internalType":"bool","name":"","type":"bool"}],"stateMutability":"view","type":"function"},{"inputs":[{"internalType":"address","name":"user","type":"address"}],"name":"checkAssignmentStatus","outputs":[{"internalType":"bool","name":"","type":"bool"}],"stateMutability":"view","type":"function"},{"inputs":[{"internalType":"address","name":"user","type":"address"}],"name":"checkWinnerStatus","outputs":[{"internalType":"bool","name":"","type":"bool"},{"internalType":"bool","name":"","type":"bool"}],"stateMutability":"view","type":"function"},{"inputs":[{"internalType":"address","name":"user","type":"address"}],"name":"claim","outputs":[],"stateMutability":"nonpayable","type":"function"},{"inputs":[],"name":"claimFinishDate","outputs":[{"internalType":"uint256","name":"","type":"uint256"}],"stateMutability":"view","type":"function"},{"inputs":[],"name":"claimStartDate","outputs":[{"internalType":"uint256","name":"","type":"uint256"}],"stateMutability":"view","type":"function"},{"inputs":[],"name":"config","outputs":[{"internalType":"string","name":"raffleName","type":"string"},{"internalType":"uint256","name":"spotsCount","type":"uint256"},{"internalType":"uint256","name":"winnersCount","type":"uint256"},{"internalType":"bool","name":"automaticDistribution","type":"bool"},{"internalType":"uint256","name":"distributionDate","type":"uint256"}],"stateMutability":"view","type":"function"},{"inputs":[],"name":"controller","outputs":[{"internalType":"address","name":"","type":"address"}],"stateMutability":"view","type":"function"},{"inputs":[],"name":"deactivate","outputs":[],"stateMutability":"nonpayable","type":"function"},{"inputs":[{"internalType":"uint256","name":"extension","type":"uint256"}],"name":"extendClaimPeriod","outputs":[],"stateMutability":"nonpayable","type":"function"},{"inputs":[],"name":"getAssignedCount","outputs":[{"internalType":"uint256","name":"","type":"uint256"}],"stateMutability":"view","type":"function"},{"inputs":[],"name":"getRaffleStats","outputs":[{"internalType":"string","name":"raffleName","type":"string"},{"internalType":"uint256","name":"spotsCount","type":"uint256"},{"internalType":"uint256","name":"winnersCount","type":"uint256"},{"internalType":"uint256","name":"assignedCount","type":"uint256"},{"internalType":"uint256","name":"totalWinnersClaimed","type":"uint256"},{"internalType":"bool","name":"isAutomatic","type":"bool"},{"internalType":"uint256","name":"distributionDate","type":"uint256"}],"stateMutability":"view","type":"function"},{"inputs":[],"name":"getRewardType","outputs":[{"internalType":"string","name":"","type":"string"}],"stateMutability":"pure","type":"function"},{"inputs":[],"name":"getWinnerCount","outputs":[{"internalType":"uint256","name":"","type":"uint256"}],"stateMutability":"view","type":"function"},{"inputs":[{"internalType":"address","name":"","type":"address"}],"name":"hasClaimed","outputs":[{"internalType":"bool","name":"","type":"bool"}],"stateMutability":"view","type":"function"},{"inputs":[{"internalType":"bytes","name":"configData","type":"bytes"}],"name":"initialize","outputs":[],"stateMutability":"nonpayable","type":"function"},{"inputs":[{"internalType":"bytes","name":"config","type":"bytes"},{"internalType":"address","name":"owner","type":"address"},{"internalType":"address","name":"controller","type":"address"}],"name":"initializeClone","outputs":[],"stateMutability":"nonpayable","type":"function"},{"inputs":[{"internalType":"address","name":"","type":"address"}],"name":"isAssigned","outputs":[{"internalType":"bool","name":"","type":"bool"}],"stateMutability":"view","type":"function"},{"inputs":[],"name":"isClaimPeriodActive","outputs":[{"internalType":"bool","name":"","type":"bool"}],"stateMutability":"view","type":"function"},{"inputs":[],"name":"isInitialized","outputs":[{"internalType":"bool","name":"","type":"bool"}],"stateMutability":"view","type":"function"},{"inputs":[{"internalType":"address","name":"","type":"address"}],"name":"isWinner","outputs":[{"internalType":"bool","name":"","type":"bool"}],"stateMutability":"view","type":"function"},{"inputs":[],"name":"owner","outputs":[{"internalType":"address","name":"","type":"address"}],"stateMutability":"view","type":"function"},{"inputs":[{"internalType":"address","name":"user","type":"address"}],"name":"processFeeOnClaim","outputs":[{"internalType":"bool","name":"","type":"bool"}],"stateMutability":"nonpayable","type":"function"},{"inputs":[{"internalType":"address","name":"user","type":"address"},{"internalType":"uint256","name":"discountRate","type":"uint256"},{"internalType":"bytes32[]","name":"merkleProof","type":"bytes32[]"}],"name":"processFeeWithDiscount","outputs":[{"internalType":"bool","name":"","type":"bool"}],"stateMutability":"nonpayable","type":"function"},{"inputs":[{"internalType":"address","name":"winner","type":"address"}],"name":"removeWinner","outputs":[],"stateMutability":"nonpayable","type":"function"},{"inputs":[],"name":"renounceOwnership","outputs":[],"stateMutability":"nonpayable","type":"function"},{"inputs":[{"internalType":"bool","name":"enable","type":"bool"},{"internalType":"uint256","name":"newDistributionDate","type":"uint256"}],"name":"setAutomaticDistribution","outputs":[],"stateMutability":"nonpayable","type":"function"},{"inputs":[{"internalType":"uint256","name":"startDate","type":"uint256"},{"internalType":"uint256","name":"finishDate","type":"uint256"}],"name":"setClaimPeriod","outputs":[],"stateMutability":"nonpayable","type":"function"},{"inputs":[{"internalType":"address","name":"_controller","type":"address"}],"name":"setController","outputs":[],"stateMutability":"nonpayable","type":"function"},{"inputs":[{"internalType":"address[]","name":"winners","type":"address[]"}],"name":"setWinners","outputs":[],"stateMutability":"nonpayable","type":"function"},{"inputs":[],"name":"totalAssigned","outputs":[{"internalType":"uint256","name":"","type":"uint256"}],"stateMutability":"view","type":"function"},{"inputs":[],"name":"totalClaims","outputs":[{"internalType":"uint256","name":"","type":"uint256"}],"stateMutability":"view","type":"function"},{"inputs":[],"name":"totalWinners","outputs":[{"internalType":"uint256","name":"","type":"uint256"}],"stateMutability":"view","type":"function"},{"inputs":[{"internalType":"address","name":"newOwner","type":"address"}],"name":"transferOwnership","outputs":[],"stateMutability":"nonpayable","type":"function"},{"inputs":[{"internalType":"address[]","name":"winners","type":"address[]"}],"name":"triggerAutomaticDistribution","outputs":[],"stateMutability":"nonpayable","type":"function"},{"inputs":[{"internalType":"bytes","name":"configData","type":"bytes"}],"name":"validateConfig","outputs":[{"internalType":"bool","name":"","type":"bool"}],"stateMutability":"pure","type":"function"}],"evm":{"bytecode":{"linkReferences":{},"object":"608060409080825234620001055762000018336200010a565b600180556001600160401b03908083019082821181831017620000ef576200006c918452601e81527f426173655265776172643a20436f6e7374727563746f722063616c6c65640000602082015262000151565b61010061ff0019600654161760065562000086336200010a565b81516060810191821181831017620000ef57620000e1918352602a81527f426173655265776172643a20496d706c656d656e746174696f6e20636f6e74726020820152691858dd081b1bd8dad95960b21b8382015262000151565b5161267d9081620001ee8239f35b634e487b7160e01b600052604160045260246000fd5b600080fd5b600080546001600160a01b039283166001600160a01b03198216811783559216907f8be0079c531659141344cd1fd0a4f28419497f9722a3daafe3b4186f6b6457e09080a3565b60405190602090828281019263104c13eb60e21b845280602483015282519283604484015260005b848110620001d557505050808260006064601f9560839501015283199384910116810103604481018552011682019082821060018060401b03831117620000ef57600092839260405251906a636f6e736f6c652e6c6f675afa50565b8181018301518782016064015286935082016200017956fe60806040908082526004918236101561001757600080fd5b600091823560e01c90816302fb0c5e14611874575080630f15f4c0146117aa57806310beb0701461173f5780631aa366f5146115a55780631b7ff614146115585780631e83409a14611386578063297f407b14611273578063392e53cd1461124d57806341c613831461122f578063439fab91146111e3578063445e6b391461108757806346bdda021461072b5780634a313aae1461103f57806351b42b0014610f795780635f03b6b214610f5b5780636f60049f14610d73578063715018a614610d1957806373b2e80e14610cdc57806374ea186d14610c7c57806379502c5514610c20578063809b9cf614610a7a57806387c1f40a1461090f5780638a51f86014610a275780638bb0401d1461094c5780638c153eb81461090f5780638da5cb5b146108e857806392eefe9b1461085557806393903df3146108305780639d9ca28d146107f3578063a46c363714610777578063a913b881146107b3578063b71b7a3214610795578063bcc941b614610777578063bf3506c114610749578063c6dd828f1461072b578063d5defd3c14610534578063df6ec1bd14610399578063f2fde38b14610307578063f77c4791146102df5763fa063d16146101dd57600080fd5b346102db576020806003193601126102d7576101f76118dd565b6101ff611af4565b6001600160a01b0316808452600d8252828420549092906102229060ff1661225c565b8284526002825260ff818520541661029457828452600d8252808420805460ff19169055600f5480156102815760001901600f55514281527f52b7a6706f935759949652b026b4e62f0109175413639db2c903e3cfb98895d69190a280f35b634e487b7160e01b855260118652602485fd5b5162461bcd60e51b815280850191909152601a60248201527f57696e6e65722068617320616c726561647920636c61696d65640000000000006044820152606490fd5b8280fd5b5080fd5b50346102db57816003193601126102db57600c5490516001600160a01b039091168152602090f35b5082346102d75760203660031901126102d7576103226118dd565b9161032b611af4565b6001600160a01b03831615610347578361034484611b4c565b80f35b906020608492519162461bcd60e51b8352820152602660248201527f4f776e61626c653a206e6577206f776e657220697320746865207a65726f206160448201526564647265737360d01b6064820152fd5b508290346102d757806003193601126102d75781356024356103b9611af4565b80821180159061052c575b156104f257917fc43f4c577663ce7707a53baebf64360730cf3c3a19c52c07a90cee2aff1210a2818361034496957f426173655265776172643a20436c61696d20706572696f64207570646174656495835197610420896118f8565b6104536020998a81527f426173655265776172643a2053657474696e6720636c61696d20706572696f648b82015261252a565b610490828651610462816118f8565b601781527f426173655265776172643a20537461727420646174653a0000000000000000008c82015261256b565b6104cd83865161049f816118f8565b601881527f426173655265776172643a2046696e69736820646174653a00000000000000008c82015261256b565b5580600555825191825286820152a151916104e7836118f8565b80835282015261252a565b825162461bcd60e51b81526020818601526014602482015273125b9d985b1a590818db185a5b481c195c9a5bd960621b6044820152606490fd5b5080156103c4565b50346102db576020806003193601126102d757833591610552611af4565b6005549283156106f357848083516105698161192a565b602581527f426173655265776172643a20457874656e64696e6720636c61696d207065726986820152646f6420627960d81b8582015261060261061086516105b0816118f8565b60078152667365636f6e647360c81b8982015287519283916105ea8b840196635970e08960e01b88526060602486015260848501906118b8565b908960448501526023198483030160648501526118b8565b03601f198101835282611946565b51906a636f6e736f6c652e6c6f675afa506106678483516106308161192a565b602181527f426173655265776172643a204f726967696e616c2066696e697368206461746586820152601d60f91b8582015261256b565b83018093116106e057807fc43f4c577663ce7707a53baebf64360730cf3c3a19c52c07a90cee2aff1210a27f426173655265776172643a204e65772066696e69736820646174653a00000000926103449697866005555481519081528686820152a151916106d4836118f8565b601c835282015261256b565b634e487b7160e01b845260118552602484fd5b815162461bcd60e51b81528087018490526012602482015271139bc8199a5b9a5cda0819185d19481cd95d60721b6044820152606490fd5b50346102db57816003193601126102db576020906010549051908152f35b50346102db5760203660031901126102db5760209061076e6107696118dd565b612450565b90519015158152f35b50346102db57816003193601126102db57602090600f549051908152f35b50346102db57816003193601126102db576020906005549051908152f35b5090346107f05760203660031901126107f05782359067ffffffffffffffff82116107f057506107eb60209361076e92369101611984565b611fda565b80fd5b50346102db5760203660031901126102db5760209160ff9082906001600160a01b0361081d6118dd565b168152600d855220541690519015158152f35b50346102db5760203660031901126102db5760209061084d6118dd565b505160018152f35b5082346102d75760203660031901126102d7576108706118dd565b610878611af4565b6001600160a01b03169182156108a55750506bffffffffffffffffffffffff60a01b600c541617600c5580f35b906020606492519162461bcd60e51b8352820152601a60248201527f496e76616c696420636f6e74726f6c6c657220616464726573730000000000006044820152fd5b50346102db57816003193601126102db57905490516001600160a01b039091168152602090f35b50346102db5760203660031901126102db5760209160ff9082906001600160a01b036109396118dd565b168152600e855220541690519015158152f35b508290346102d757806003193601126102d7578135918215158303610a235760243592610977611af4565b156109ca57507f991d63b6a99732d94eda42bec59d2dc29056a434c3ea89b24d18d3977b521463916020916109ad428311611c63565b600160ff19600a541617600a5581600b558160055551908152a180f35b91505060ff19600a5416600a5562278d00420190814211610a1057506005557f88afc90084128cbb9137ec527935a280b18f8e248f2d110bb4072b5403e9342f8180a180f35b634e487b7160e01b835260119052602482fd5b8380fd5b50346102db57816003193601126102db578051610a7691610a47826118f8565b601082526f57484954454c4953545f524146464c4560801b6020830152519182916020835260208301906118b8565b0390f35b5082346102d75760209182600319360112610a2357813567ffffffffffffffff8111610c1c57610aad90369084016119cb565b919093610ab86121c9565b85546001600160a01b039390841633148015610c0f575b610ad89061221f565b60ff9485600a541615610bc157600b544210610b7e5750865b818110610b0057876001805580f35b80610b17610b12610b6b93858b6123ab565b6123d1565b8681168a52600d855287868b20541615610b785760028552858a2090815491898316610b70576001610b669360ff19161790556003610b568154612297565b9055610b61816123e5565b6122a6565b612297565b610af1565b505050612297565b50612297565b835162461bcd60e51b8152908101839052601d60248201527f446973747269627574696f6e2064617465206e6f7420726561636865640000006044820152606490fd5b835162461bcd60e51b8152908101839052602260248201527f4175746f6d6174696320646973747269627574696f6e206e6f7420656e61626c604482015261195960f21b6064820152608490fd5b50600c5484163314610acf565b8480fd5b50346102db57816003193601126102db57610c6390610c3d611a36565b906008549060095460ff600a541690600b5492805196879660a0885260a08801906118b8565b9460208701528501521515606084015260808301520390f35b508290346102d757826003193601126102d7576020925060ff600654169182610cd0575b5081610caf575b519015158152f35b90506005548015908115610cc5575b5090610ca7565b905042111583610cbe565b54421015915083610ca0565b50346102db5760203660031901126102db5760209160ff9082906001600160a01b03610d066118dd565b1681526002855220541690519015158152f35b82346107f057806003193601126107f057610d32611af4565b80546001600160a01b03198116825581906001600160a01b03167f8be0079c531659141344cd1fd0a4f28419497f9722a3daafe3b4186f6b6457e08280a380f35b50346102db5760603660031901126102db57823567ffffffffffffffff81116102d757610da39036908501611984565b926001600160a01b039060243590828216808303610f575760443593841693848103610f5357610e7a90610df060ff60065460081c16610dea81610de5611b93565b6125b0565b15611be8565b610e40858851610dff8161192a565b602a81527f426173655265776172643a20496e697469616c697a696e6720636c6f6e65207760208201526934ba341037bbb732b91d60b11b8a8201526125f7565b8651610e4b816118f8565b601781527f426173655265776172643a20436f6e74726f6c6c65723a00000000000000000060208201526125f7565b15610f185750610ef99394610e91610e9692611b4c565b611cbf565b6bffffffffffffffffffffffff60a01b600c541617600c556820636f6d706c65746560b81b815191610ec78361192a565b602983527f426173655265776172643a20436c6f6e6520696e697469616c697a6174696f6e602084015282015261252a565b61010061ff00196006541617600655610344610f13611c2a565b61252a565b606490602085519162461bcd60e51b83528201526015602482015274496e76616c6964206f776e6572206164647265737360581b6044820152fd5b8680fd5b8580fd5b5082346102d757826003193601126102d75760209250549051908152f35b50346102db57816003193601126102db5761034490610f96611af4565b610fd38151610fa4816118f8565b601f81527f426173655265776172643a20446561637469766174696e672072657761726400602082015261252a565b60ff19600654166006557f4dcbe1841ee9bd9c888e46c0b35574429b1c0f1071806180028dee2f9a10643060208251858152a151611010816118f8565b601e81527f426173655265776172643a205265776172642064656163746976617465640000602082015261252a565b5090346107f05760603660031901126107f05761105a6118dd565b506044359067ffffffffffffffff82116107f0575060209261107e913691016119cb565b50505160018152f35b508290346102d75760209081600319360112610a2357823567ffffffffffffffff8111610c1c576110bb90369085016119cb565b936110c4611af4565b84156111aa5760085485116111745750600f90858255855b8581106110e7578680f35b611152906001600160a01b03611101610b12838a876123ab565b1661110d8115156124e5565b808952600d8752858920805460ff811615611157575b50507fe238085d33fbb21ea77ec1aedea0dc6a333b10d386381b11daf6042d45c9587a878751428152a2612297565b6110dc565b60ff19166001179055845461116b90612297565b85558980611123565b825162461bcd60e51b8152908101849052601060248201526f546f6f206d616e792077696e6e65727360801b6044820152606490fd5b825162461bcd60e51b81529081018490526013602482015272139bc81dda5b9b995c9cc81c1c9bdd9a591959606a1b6044820152606490fd5b8284346102db5760203660031901126102db57803567ffffffffffffffff81116102d757610ef99161121791369101611984565b610e9160ff60065460081c16610dea81610de5611b93565b50346102db57816003193601126102db576020906003549051908152f35b50346102db57816003193601126102db5760209060ff60065460081c1690519015158152f35b508290346102d75760209081600319360112610a23576112916118dd565b611299611af4565b6001600160a01b0316926112ae8415156124e5565b838552600d835260ff828620541661135257600f54600854111561131b5750907fe238085d33fbb21ea77ec1aedea0dc6a333b10d386381b11daf6042d45c9587a91838552600d8252808520600160ff19825416179055611310600f54612297565b600f5551428152a280f35b82606492519162461bcd60e51b83528201526013602482015272105b1b081cdc1bdd1cc8185b1b1bd8d85d1959606a1b6044820152fd5b82606492519162461bcd60e51b8352820152601060248201526f20b63932b0b23c9030903bb4b73732b960811b6044820152fd5b5091346102db57602092836003193601126102d7576113a36118dd565b916113ac6121c9565b6113b7610f13611fed565b61141f60ff600654166113cc81610de5612026565b6113dd426113d861205f565b61256b565b82546113eb816113d8612098565b611403600554926113fe846113d86120d1565b61210a565b421015908161153b575b5061141a81610de561214d565b612186565b6001600160a01b0383811691903383900361150f575b5061143f84612450565b156114d857818552600d865261145a60ff848720541661225c565b8185526002865260ff83862054166114a35750839460029161149c9552528320600160ff19825416179055611490600354612297565b600355610b61816123e5565b6001805580f35b825162461bcd60e51b8152908101869052600f60248201526e105b1c9958591e4818db185a5b5959608a1b6044820152606490fd5b825162461bcd60e51b8152908101869052601160248201527010d85b9b9bdd0818db185a5b481cdc1bdd607a1b6044820152606490fd5b8061152791875416331490811561152d575b5061221f565b38611435565b9050600c5416331438611521565b80159150811561154d575b503861140d565b905042111538611546565b5090346107f05760203660031901126107f0576001600160a01b0361157b6118dd565b168152600d60205260ff828181842054169260026020522054168251911515825215156020820152f35b5082346102d757826003193601126102d7576115bf6121c9565b6115ca610f13611fed565b61162260ff600654166115df81610de5612026565b6115eb426113d861205f565b82546115f9816113d8612098565b61160c600554926113fe846113d86120d1565b4210159081611722575061141a81610de561214d565b61162a6121c9565b611635610f13611fed565b61164a60ff600654166115df81610de5612026565b61165333612450565b156116ec57338352600d60205261166f60ff838520541661225c565b338352600260205260ff82842054166116b8575033825260026020528120600160ff198254161790556116a3600354612297565b6003556116af336123e5565b61149c336122a6565b6020606492519162461bcd60e51b8352820152600f60248201526e105b1c9958591e4818db185a5b5959608a1b6044820152fd5b6020606492519162461bcd60e51b8352820152601160248201527010d85b9b9bdd0818db185a5b481cdc1bdd607a1b6044820152fd5b801591508115611734575b508561140d565b90504211158561172d565b50346102db57816003193601126102db5761178790600854600f5460105460035460ff600a541691600b5493611773611a36565b96805198899860e08a5260e08a01906118b8565b96602089015287015260608601526080850152151560a084015260c08301520390f35b50346102db57816003193601126102db57610344906117c7611af4565b61180481516117d5816118f8565b601d81527f426173655265776172643a2041637469766174696e6720726577617264000000602082015261252a565b600160ff1960065416176006557f4dcbe1841ee9bd9c888e46c0b35574429b1c0f1071806180028dee2f9a1064306020825160018152a151611845816118f8565b601c81527f426173655265776172643a205265776172642061637469766174656400000000602082015261252a565b8390346102db57816003193601126102db5760209060ff6006541615158152f35b60005b8381106118a85750506000910152565b8181015183820152602001611898565b906020916118d181518092818552858086019101611895565b601f01601f1916010190565b600435906001600160a01b03821682036118f357565b600080fd5b6040810190811067ffffffffffffffff82111761191457604052565b634e487b7160e01b600052604160045260246000fd5b6060810190811067ffffffffffffffff82111761191457604052565b90601f8019910116810190811067ffffffffffffffff82111761191457604052565b67ffffffffffffffff811161191457601f01601f191660200190565b81601f820112156118f35780359061199b82611968565b926119a96040519485611946565b828452602083830101116118f357816000926020809301838601378301015290565b9181601f840112156118f35782359167ffffffffffffffff83116118f3576020808501948460051b0101116118f357565b90600182811c92168015611a2c575b6020831014611a1657565b634e487b7160e01b600052602260045260246000fd5b91607f1691611a0b565b6040519060008260075491611a4a836119fc565b80835292600190818116908115611ad25750600114611a73575b50611a7192500383611946565b565b6007600090815291507fa66cc928b5edb82af9bd49922954155ab7b0942694bea4ce44661d9a8736c6885b848310611ab75750611a71935050810160200138611a64565b81935090816020925483858a01015201910190918592611a9e565b905060209250611a7194915060ff191682840152151560051b82010138611a64565b6000546001600160a01b03163303611b0857565b606460405162461bcd60e51b815260206004820152602060248201527f4f776e61626c653a2063616c6c6572206973206e6f7420746865206f776e65726044820152fd5b600080546001600160a01b039283166001600160a01b03198216811783559216907f8be0079c531659141344cd1fd0a4f28419497f9722a3daafe3b4186f6b6457e09080a3565b60405190611ba08261192a565b603382527234b734ba34b0b634bd32b21039ba30ba3ab99d60691b6040837f426173655265776172643a20496e697469616c697a65722063616c6c65642c2060208201520152565b15611bef57565b60405162461bcd60e51b8152602060048201526013602482015272105b1c9958591e481a5b9a5d1a585b1a5e9959606a1b6044820152606490fd5b60405190611c37826118f8565b602082527f426173655265776172643a20436f6e747261637420696e697469616c697a65646020830152565b15611c6a57565b60405162461bcd60e51b815260206004820152602760248201527f446973747269627574696f6e2064617465206d75737420626520696e207468656044820152662066757475726560c81b6064820152608490fd5b9081518201602060a0848284019303126118f357808401519067ffffffffffffffff918281116118f35785019483603f870112156118f3578186015195611d0587611968565b96604095611d158751998a611946565b8189528682840101116118f357611d319186858a019101611895565b83810151606082015190608083015194851515938487036118f35760a0015196895115611fa1578215611f685786611f58575b805160a0810191818310848411176119145760809281528b82528782019485528101948552606081019586520194878652895191821161191457611da96007546119fc565b601f8111611ef3575b5080601f8311600114611e685750819060019798999a600092611e5d575b5050600019600383901b1c191690861b176007555b51600855516009555115159060ff199160ff83600a5416911617600a5551600b55600654161760065542600455600014611e31576005555b600c80546001600160a01b03191633179055565b5062278d004201804211611e4757600555611e1d565b634e487b7160e01b600052601160045260246000fd5b015190503880611dd0565b99601f19831660076000527fa66cc928b5edb82af9bd49922954155ab7b0942694bea4ce44661d9a8736c6889b6000905b828210611edb57505091600198999a9b91848a959410611ec2575b505050811b01600755611de5565b015160001960f88460031b161c19169055388080611eb4565b806001869f8294978701518155019e01940190611e99565b6000600781527fa66cc928b5edb82af9bd49922954155ab7b0942694bea4ce44661d9a8736c688601f850160051c810192848610611f4e575b601f0160051c01915b828110611f43575050611db2565b818155600101611f35565b9092508290611f2c565b611f63428911611c63565b611d64565b5162461bcd60e51b8152600481018690526013602482015272125b9d985b1a59081cdc1bdd1cc818dbdd5b9d606a1b6044820152606490fd5b5162461bcd60e51b8152600481018690526013602482015272496e76616c696420726166666c65206e616d6560681b6044820152606490fd5b60a0905110611fe857600190565b600090565b60405190611ffa826118f8565b601c82527f426173655265776172643a207768656e41637469766520636865636b000000006020830152565b60405190612033826118f8565b601a82527f426173655265776172643a20416374697665207374617475733a0000000000006020830152565b6040519061206c826118f8565b601e82527f426173655265776172643a2043757272656e742074696d657374616d703a00006020830152565b604051906120a5826118f8565b601d82527f426173655265776172643a20436c61696d20737461727420646174653a0000006020830152565b604051906120de826118f8565b601e82527f426173655265776172643a20436c61696d2066696e69736820646174653a00006020830152565b1561211157565b60405162461bcd60e51b8152602060048201526014602482015273526577617264206973206e6f742061637469766560601b6044820152606490fd5b6040519061215a826118f8565b601f82527f426173655265776172643a2057697468696e2074696d652077696e646f773a006020830152565b1561218d57565b60405162461bcd60e51b815260206004820152601460248201527313dd5d1cda59194818db185a5b481c195c9a5bd960621b6044820152606490fd5b6002600154146121da576002600155565b60405162461bcd60e51b815260206004820152601f60248201527f5265656e7472616e637947756172643a207265656e7472616e742063616c6c006044820152606490fd5b1561222657565b60405162461bcd60e51b815260206004820152600e60248201526d139bdd08185d5d1a1bdc9a5e995960921b6044820152606490fd5b1561226357565b60405162461bcd60e51b815260206004820152600c60248201526b2737ba1030903bb4b73732b960a11b6044820152606490fd5b6000198114611e475760010190565b611a71906040906122f68183516122bc8161192a565b602381527f426173655265776172643a20547261636b696e6720636c61696d20666f72207560208201526239b2b960e91b858201526125f7565b6001600160a01b031660008181526002602052829020805460ff1916600117905560035490919061232690612297565b91826003557fd8138f8a3f377c5259ca548e70e4c2de94f129f5a11036a15b69513cba2b426a60208351428152a27439b33ab6363c96103a37ba30b61031b630b4b6b99d60591b8151916123798361192a565b603583527f426173655265776172643a20436c61696d20747261636b656420737563636573602084015282015261256b565b91908110156123bb5760051b0190565b634e487b7160e01b600052603260045260246000fd5b356001600160a01b03811681036118f35790565b6001600160a01b03166000818152600e60205260409020805460ff81161561240c57505050565b60ff1916600117905560105461242190612297565b6010557f9c954464132321181183c4f89c263bc648ced7476b263f18a0eeac9c552b6e9b6020604051428152a2565b60ff60065416156124df576001600160a01b031660009081526002602052604081205460ff166124b257600d60205260ff604082205416156124b25760ff600a5416806124d3575b6124b257600454421080156124b5575b6124b25750600190565b90565b5060055480151590816124c9575b506124a8565b90504211386124c3565b50600b54421015612498565b50600090565b156124ec57565b60405162461bcd60e51b8152602060048201526016602482015275496e76616c69642077696e6e6572206164647265737360501b6044820152606490fd5b6000809160405161255881610602602082019463104c13eb60e21b86526020602484015260448301906118b8565b51906a636f6e736f6c652e6c6f675afa50565b600091908291612558604051809261259c6020830195632d839cb360e21b87526040602485015260648401906118b8565b90604483015203601f198101835282611946565b60009190829161255860405180926125e1602083019563c3b5563560e01b87526040602485015260648401906118b8565b901515604483015203601f198101835282611946565b6000919082916125586040518092612628602083019563319af33360e01b87526040602485015260648401906118b8565b6001600160a01b0391909116604483015203601f19810183528261194656fea26469706673582212203a04526ff78921f277119647ba54f70e0961b1e867fa238de2e43fb3c911b8bd64736f6c63430008140033","opcodes":"PUSH1 0x80 PUSH1 0x40 SWAP1 DUP1 DUP3 MSTORE CALLVALUE PUSH3 0x105 JUMPI PUSH3 0x18 CALLER PUSH3 0x10A JUMP JUMPDEST PUSH1 0x1 DUP1 SSTORE PUSH1 0x1 PUSH1 0x1 PUSH1 0x40 SHL SUB SWAP1 DUP1 DUP4 ADD SWAP1 DUP3 DUP3 GT DUP2 DUP4 LT OR PUSH3 0xEF JUMPI PUSH3 0x6C SWAP2 DUP5 MSTORE PUSH1 0x1E DUP2 MSTORE PUSH32 0x426173655265776172643A20436F6E7374727563746F722063616C6C65640000 PUSH1 0x20 DUP3 ADD MSTORE PUSH3 0x151 JUMP JUMPDEST PUSH2 0x100 PUSH2 0xFF00 NOT PUSH1 0x6 SLOAD AND OR PUSH1 0x6 SSTORE PUSH3 0x86 CALLER PUSH3 0x10A JUMP JUMPDEST DUP2 MLOAD PUSH1 0x60 DUP2 ADD SWAP2 DUP3 GT DUP2 DUP4 LT OR PUSH3 0xEF JUMPI PUSH3 0xE1 SWAP2 DUP4 MSTORE PUSH1 0x2A DUP2 MSTORE PUSH32 0x426173655265776172643A20496D706C656D656E746174696F6E20636F6E7472 PUSH1 0x20 DUP3 ADD MSTORE PUSH10 0x1858DD081B1BD8DAD959 PUSH1 0xB2 SHL DUP4 DUP3 ADD MSTORE PUSH3 0x151 JUMP JUMPDEST MLOAD PUSH2 0x267D SWAP1 DUP2 PUSH3 0x1EE DUP3 CODECOPY RETURN JUMPDEST PUSH4 0x4E487B71 PUSH1 0xE0 SHL PUSH1 0x0 MSTORE PUSH1 0x41 PUSH1 0x4 MSTORE PUSH1 0x24 PUSH1 0x0 REVERT JUMPDEST PUSH1 0x0 DUP1 REVERT JUMPDEST PUSH1 0x0 DUP1 SLOAD PUSH1 0x1 PUSH1 0x1 PUSH1 0xA0 SHL SUB SWAP3 DUP4 AND PUSH1 0x1 PUSH1 0x1 PUSH1 0xA0 SHL SUB NOT DUP3 AND DUP2 OR DUP4 SSTORE SWAP3 AND SWAP1 PUSH32 0x8BE0079C531659141344CD1FD0A4F28419497F9722A3DAAFE3B4186F6B6457E0 SWAP1 DUP1 LOG3 JUMP JUMPDEST PUSH1 0x40 MLOAD SWAP1 PUSH1 0x20 SWAP1 DUP3 DUP3 DUP2 ADD SWAP3 PUSH4 0x104C13EB PUSH1 0xE2 SHL DUP5 MSTORE DUP1 PUSH1 0x24 DUP4 ADD MSTORE DUP3 MLOAD SWAP3 DUP4 PUSH1 0x44 DUP5 ADD MSTORE PUSH1 0x0 JUMPDEST DUP5 DUP2 LT PUSH3 0x1D5 JUMPI POP POP POP DUP1 DUP3 PUSH1 0x0 PUSH1 0x64 PUSH1 0x1F SWAP6 PUSH1 0x83 SWAP6 ADD ADD MSTORE DUP4 NOT SWAP4 DUP5 SWAP2 ADD AND DUP2 ADD SUB PUSH1 0x44 DUP2 ADD DUP6 MSTORE ADD AND DUP3 ADD SWAP1 DUP3 DUP3 LT PUSH1 0x1 DUP1 PUSH1 0x40 SHL SUB DUP4 GT OR PUSH3 0xEF JUMPI PUSH1 0x0 SWAP3 DUP4 SWAP3 PUSH1 0x40 MSTORE MLOAD SWAP1 PUSH11 0x636F6E736F6C652E6C6F67 GAS STATICCALL POP JUMP JUMPDEST DUP2 DUP2 ADD DUP4 ADD MLOAD DUP8 DUP3 ADD PUSH1 0x64 ADD MSTORE DUP7 SWAP4 POP DUP3 ADD PUSH3 0x179 JUMP INVALID PUSH1 0x80 PUSH1 0x40 SWAP1 DUP1 DUP3 MSTORE PUSH1 0x4 SWAP2 DUP3 CALLDATASIZE LT ISZERO PUSH2 0x17 JUMPI PUSH1 0x0 DUP1 REVERT JUMPDEST PUSH1 0x0 SWAP2 DUP3 CALLDATALOAD PUSH1 0xE0 SHR SWAP1 DUP2 PUSH4 0x2FB0C5E EQ PUSH2 0x1874 JUMPI POP DUP1 PUSH4 0xF15F4C0 EQ PUSH2 0x17AA JUMPI DUP1 PUSH4 0x10BEB070 EQ PUSH2 0x173F JUMPI DUP1 PUSH4 0x1AA366F5 EQ PUSH2 0x15A5 JUMPI DUP1 PUSH4 0x1B7FF614 EQ PUSH2 0x1558 JUMPI DUP1 PUSH4 0x1E83409A EQ PUSH2 0x1386 JUMPI DUP1 PUSH4 0x297F407B EQ PUSH2 0x1273 JUMPI DUP1 PUSH4 0x392E53CD EQ PUSH2 0x124D JUMPI DUP1 PUSH4 0x41C61383 EQ PUSH2 0x122F JUMPI DUP1 PUSH4 0x439FAB91 EQ PUSH2 0x11E3 JUMPI DUP1 PUSH4 0x445E6B39 EQ PUSH2 0x1087 JUMPI DUP1 PUSH4 0x46BDDA02 EQ PUSH2 0x72B JUMPI DUP1 PUSH4 0x4A313AAE EQ PUSH2 0x103F JUMPI DUP1 PUSH4 0x51B42B00 EQ PUSH2 0xF79 JUMPI DUP1 PUSH4 0x5F03B6B2 EQ PUSH2 0xF5B JUMPI DUP1 PUSH4 0x6F60049F EQ PUSH2 0xD73 JUMPI DUP1 PUSH4 0x715018A6 EQ PUSH2 0xD19 JUMPI DUP1 PUSH4 0x73B2E80E EQ PUSH2 0xCDC JUMPI DUP1 PUSH4 0x74EA186D EQ PUSH2 0xC7C JUMPI DUP1 PUSH4 0x79502C55 EQ PUSH2 0xC20 JUMPI DUP1 PUSH4 0x809B9CF6 EQ PUSH2 0xA7A JUMPI DUP1 PUSH4 0x87C1F40A EQ PUSH2 0x90F JUMPI DUP1 PUSH4 0x8A51F860 EQ PUSH2 0xA27 JUMPI DUP1 PUSH4 0x8BB0401D EQ PUSH2 0x94C JUMPI DUP1 PUSH4 0x8C153EB8 EQ PUSH2 0x90F JUMPI DUP1 PUSH4 0x8DA5CB5B EQ PUSH2 0x8E8 JUMPI DUP1 PUSH4 0x92EEFE9B EQ PUSH2 0x855 JUMPI DUP1 PUSH4 0x93903DF3 EQ PUSH2 0x830 JUMPI DUP1 PUSH4 0x9D9CA28D EQ PUSH2 0x7F3 JUMPI DUP1 PUSH4 0xA46C3637 EQ PUSH2 0x777 JUMPI DUP1 PUSH4 0xA913B881 EQ PUSH2 0x7B3 JUMPI DUP1 PUSH4 0xB71B7A32 EQ PUSH2 0x795 JUMPI DUP1 PUSH4 0xBCC941B6 EQ PUSH2 0x777 JUMPI DUP1 PUSH4 0xBF3506C1 EQ PUSH2 0x749 JUMPI DUP1 PUSH4 0xC6DD828F EQ PUSH2 0x72B JUMPI DUP1 PUSH4 0xD5DEFD3C EQ PUSH2 0x534 JUMPI DUP1 PUSH4 0xDF6EC1BD EQ PUSH2 0x399 JUMPI DUP1 PUSH4 0xF2FDE38B EQ PUSH2 0x307 JUMPI DUP1 PUSH4 0xF77C4791 EQ PUSH2 0x2DF JUMPI PUSH4 0xFA063D16 EQ PUSH2 0x1DD JUMPI PUSH1 0x0 DUP1 REVERT JUMPDEST CALLVALUE PUSH2 0x2DB JUMPI PUSH1 0x20 DUP1 PUSH1 0x3 NOT CALLDATASIZE ADD SLT PUSH2 0x2D7 JUMPI PUSH2 0x1F7 PUSH2 0x18DD JUMP JUMPDEST PUSH2 0x1FF PUSH2 0x1AF4 JUMP JUMPDEST PUSH1 0x1 PUSH1 0x1 PUSH1 0xA0 SHL SUB AND DUP1 DUP5 MSTORE PUSH1 0xD DUP3 MSTORE DUP3 DUP5 KECCAK256 SLOAD SWAP1 SWAP3 SWAP1 PUSH2 0x222 SWAP1 PUSH1 0xFF AND PUSH2 0x225C JUMP JUMPDEST DUP3 DUP5 MSTORE PUSH1 0x2 DUP3 MSTORE PUSH1 0xFF DUP2 DUP6 KECCAK256 SLOAD AND PUSH2 0x294 JUMPI DUP3 DUP5 MSTORE PUSH1 0xD DUP3 MSTORE DUP1 DUP5 KECCAK256 DUP1 SLOAD PUSH1 0xFF NOT AND SWAP1 SSTORE PUSH1 0xF SLOAD DUP1 ISZERO PUSH2 0x281 JUMPI PUSH1 0x0 NOT ADD PUSH1 0xF SSTORE MLOAD TIMESTAMP DUP2 MSTORE PUSH32 0x52B7A6706F935759949652B026B4E62F0109175413639DB2C903E3CFB98895D6 SWAP2 SWAP1 LOG2 DUP1 RETURN JUMPDEST PUSH4 0x4E487B71 PUSH1 0xE0 SHL DUP6 MSTORE PUSH1 0x11 DUP7 MSTORE PUSH1 0x24 DUP6 REVERT JUMPDEST MLOAD PUSH3 0x461BCD PUSH1 0xE5 SHL DUP2 MSTORE DUP1 DUP6 ADD SWAP2 SWAP1 SWAP2 MSTORE PUSH1 0x1A PUSH1 0x24 DUP3 ADD MSTORE PUSH32 0x57696E6E65722068617320616C726561647920636C61696D6564000000000000 PUSH1 0x44 DUP3 ADD MSTORE PUSH1 0x64 SWAP1 REVERT JUMPDEST DUP3 DUP1 REVERT JUMPDEST POP DUP1 REVERT JUMPDEST POP CALLVALUE PUSH2 0x2DB JUMPI DUP2 PUSH1 0x3 NOT CALLDATASIZE ADD SLT PUSH2 0x2DB JUMPI PUSH1 0xC SLOAD SWAP1 MLOAD PUSH1 0x1 PUSH1 0x1 PUSH1 0xA0 SHL SUB SWAP1 SWAP2 AND DUP2 MSTORE PUSH1 0x20 SWAP1 RETURN JUMPDEST POP DUP3 CALLVALUE PUSH2 0x2D7 JUMPI PUSH1 0x20 CALLDATASIZE PUSH1 0x3 NOT ADD SLT PUSH2 0x2D7 JUMPI PUSH2 0x322 PUSH2 0x18DD JUMP JUMPDEST SWAP2 PUSH2 0x32B PUSH2 0x1AF4 JUMP JUMPDEST PUSH1 0x1 PUSH1 0x1 PUSH1 0xA0 SHL SUB DUP4 AND ISZERO PUSH2 0x347 JUMPI DUP4 PUSH2 0x344 DUP5 PUSH2 0x1B4C JUMP JUMPDEST DUP1 RETURN JUMPDEST SWAP1 PUSH1 0x20 PUSH1 0x84 SWAP3 MLOAD SWAP2 PUSH3 0x461BCD PUSH1 0xE5 SHL DUP4 MSTORE DUP3 ADD MSTORE PUSH1 0x26 PUSH1 0x24 DUP3 ADD MSTORE PUSH32 0x4F776E61626C653A206E6577206F776E657220697320746865207A65726F2061 PUSH1 0x44 DUP3 ADD MSTORE PUSH6 0x646472657373 PUSH1 0xD0 SHL PUSH1 0x64 DUP3 ADD MSTORE REVERT JUMPDEST POP DUP3 SWAP1 CALLVALUE PUSH2 0x2D7 JUMPI DUP1 PUSH1 0x3 NOT CALLDATASIZE ADD SLT PUSH2 0x2D7 JUMPI DUP2 CALLDATALOAD PUSH1 0x24 CALLDATALOAD PUSH2 0x3B9 PUSH2 0x1AF4 JUMP JUMPDEST DUP1 DUP3 GT DUP1 ISZERO SWAP1 PUSH2 0x52C JUMPI JUMPDEST ISZERO PUSH2 0x4F2 JUMPI SWAP2 PUSH32 0xC43F4C577663CE7707A53BAEBF64360730CF3C3A19C52C07A90CEE2AFF1210A2 DUP2 DUP4 PUSH2 0x344 SWAP7 SWAP6 PUSH32 0x426173655265776172643A20436C61696D20706572696F642075706461746564 SWAP6 DUP4 MLOAD SWAP8 PUSH2 0x420 DUP10 PUSH2 0x18F8 JUMP JUMPDEST PUSH2 0x453 PUSH1 0x20 SWAP10 DUP11 DUP2 MSTORE PUSH32 0x426173655265776172643A2053657474696E6720636C61696D20706572696F64 DUP12 DUP3 ADD MSTORE PUSH2 0x252A JUMP JUMPDEST PUSH2 0x490 DUP3 DUP7 MLOAD PUSH2 0x462 DUP2 PUSH2 0x18F8 JUMP JUMPDEST PUSH1 0x17 DUP2 MSTORE PUSH32 0x426173655265776172643A20537461727420646174653A000000000000000000 DUP13 DUP3 ADD MSTORE PUSH2 0x256B JUMP JUMPDEST PUSH2 0x4CD DUP4 DUP7 MLOAD PUSH2 0x49F DUP2 PUSH2 0x18F8 JUMP JUMPDEST PUSH1 0x18 DUP2 MSTORE PUSH32 0x426173655265776172643A2046696E69736820646174653A0000000000000000 DUP13 DUP3 ADD MSTORE PUSH2 0x256B JUMP JUMPDEST SSTORE DUP1 PUSH1 0x5 SSTORE DUP3 MLOAD SWAP2 DUP3 MSTORE DUP7 DUP3 ADD MSTORE LOG1 MLOAD SWAP2 PUSH2 0x4E7 DUP4 PUSH2 0x18F8 JUMP JUMPDEST DUP1 DUP4 MSTORE DUP3 ADD MSTORE PUSH2 0x252A JUMP JUMPDEST DUP3 MLOAD PUSH3 0x461BCD PUSH1 0xE5 SHL DUP2 MSTORE PUSH1 0x20 DUP2 DUP7 ADD MSTORE PUSH1 0x14 PUSH1 0x24 DUP3 ADD MSTORE PUSH20 0x125B9D985B1A590818DB185A5B481C195C9A5BD9 PUSH1 0x62 SHL PUSH1 0x44 DUP3 ADD MSTORE PUSH1 0x64 SWAP1 REVERT JUMPDEST POP DUP1 ISZERO PUSH2 0x3C4 JUMP JUMPDEST POP CALLVALUE PUSH2 0x2DB JUMPI PUSH1 0x20 DUP1 PUSH1 0x3 NOT CALLDATASIZE ADD SLT PUSH2 0x2D7 JUMPI DUP4 CALLDATALOAD SWAP2 PUSH2 0x552 PUSH2 0x1AF4 JUMP JUMPDEST PUSH1 0x5 SLOAD SWAP3 DUP4 ISZERO PUSH2 0x6F3 JUMPI DUP5 DUP1 DUP4 MLOAD PUSH2 0x569 DUP2 PUSH2 0x192A JUMP JUMPDEST PUSH1 0x25 DUP2 MSTORE PUSH32 0x426173655265776172643A20457874656E64696E6720636C61696D2070657269 DUP7 DUP3 ADD MSTORE PUSH5 0x6F64206279 PUSH1 0xD8 SHL DUP6 DUP3 ADD MSTORE PUSH2 0x602 PUSH2 0x610 DUP7 MLOAD PUSH2 0x5B0 DUP2 PUSH2 0x18F8 JUMP JUMPDEST PUSH1 0x7 DUP2 MSTORE PUSH7 0x7365636F6E6473 PUSH1 0xC8 SHL DUP10 DUP3 ADD MSTORE DUP8 MLOAD SWAP3 DUP4 SWAP2 PUSH2 0x5EA DUP12 DUP5 ADD SWAP7 PUSH4 0x5970E089 PUSH1 0xE0 SHL DUP9 MSTORE PUSH1 0x60 PUSH1 0x24 DUP7 ADD MSTORE PUSH1 0x84 DUP6 ADD SWAP1 PUSH2 0x18B8 JUMP JUMPDEST SWAP1 DUP10 PUSH1 0x44 DUP6 ADD MSTORE PUSH1 0x23 NOT DUP5 DUP4 SUB ADD PUSH1 0x64 DUP6 ADD MSTORE PUSH2 0x18B8 JUMP JUMPDEST SUB PUSH1 0x1F NOT DUP2 ADD DUP4 MSTORE DUP3 PUSH2 0x1946 JUMP JUMPDEST MLOAD SWAP1 PUSH11 0x636F6E736F6C652E6C6F67 GAS STATICCALL POP PUSH2 0x667 DUP5 DUP4 MLOAD PUSH2 0x630 DUP2 PUSH2 0x192A JUMP JUMPDEST PUSH1 0x21 DUP2 MSTORE PUSH32 0x426173655265776172643A204F726967696E616C2066696E6973682064617465 DUP7 DUP3 ADD MSTORE PUSH1 0x1D PUSH1 0xF9 SHL DUP6 DUP3 ADD MSTORE PUSH2 0x256B JUMP JUMPDEST DUP4 ADD DUP1 SWAP4 GT PUSH2 0x6E0 JUMPI DUP1 PUSH32 0xC43F4C577663CE7707A53BAEBF64360730CF3C3A19C52C07A90CEE2AFF1210A2 PUSH32 0x426173655265776172643A204E65772066696E69736820646174653A00000000 SWAP3 PUSH2 0x344 SWAP7 SWAP8 DUP7 PUSH1 0x5 SSTORE SLOAD DUP2 MLOAD SWAP1 DUP2 MSTORE DUP7 DUP7 DUP3 ADD MSTORE LOG1 MLOAD SWAP2 PUSH2 0x6D4 DUP4 PUSH2 0x18F8 JUMP JUMPDEST PUSH1 0x1C DUP4 MSTORE DUP3 ADD MSTORE PUSH2 0x256B JUMP JUMPDEST PUSH4 0x4E487B71 PUSH1 0xE0 SHL DUP5 MSTORE PUSH1 0x11 DUP6 MSTORE PUSH1 0x24 DUP5 REVERT JUMPDEST DUP2 MLOAD PUSH3 0x461BCD PUSH1 0xE5 SHL DUP2 MSTORE DUP1 DUP8 ADD DUP5 SWAP1 MSTORE PUSH1 0x12 PUSH1 0x24 DUP3 ADD MSTORE PUSH18 0x139BC8199A5B9A5CDA0819185D19481CD95D PUSH1 0x72 SHL PUSH1 0x44 DUP3 ADD MSTORE PUSH1 0x64 SWAP1 REVERT JUMPDEST POP CALLVALUE PUSH2 0x2DB JUMPI DUP2 PUSH1 0x3 NOT CALLDATASIZE ADD SLT PUSH2 0x2DB JUMPI PUSH1 0x20 SWAP1 PUSH1 0x10 SLOAD SWAP1 MLOAD SWAP1 DUP2 MSTORE RETURN JUMPDEST POP CALLVALUE PUSH2 0x2DB JUMPI PUSH1 0x20 CALLDATASIZE PUSH1 0x3 NOT ADD SLT PUSH2 0x2DB JUMPI PUSH1 0x20 SWAP1 PUSH2 0x76E PUSH2 0x769 PUSH2 0x18DD JUMP JUMPDEST PUSH2 0x2450 JUMP JUMPDEST SWAP1 MLOAD SWAP1 ISZERO ISZERO DUP2 MSTORE RETURN JUMPDEST POP CALLVALUE PUSH2 0x2DB JUMPI DUP2 PUSH1 0x3 NOT CALLDATASIZE ADD SLT PUSH2 0x2DB JUMPI PUSH1 0x20 SWAP1 PUSH1 0xF SLOAD SWAP1 MLOAD SWAP1 DUP2 MSTORE RETURN JUMPDEST POP CALLVALUE PUSH2 0x2DB JUMPI DUP2 PUSH1 0x3 NOT CALLDATASIZE ADD SLT PUSH2 0x2DB JUMPI PUSH1 0x20 SWAP1 PUSH1 0x5 SLOAD SWAP1 MLOAD SWAP1 DUP2 MSTORE RETURN JUMPDEST POP SWAP1 CALLVALUE PUSH2 0x7F0 JUMPI PUSH1 0x20 CALLDATASIZE PUSH1 0x3 NOT ADD SLT PUSH2 0x7F0 JUMPI DUP3 CALLDATALOAD SWAP1 PUSH8 0xFFFFFFFFFFFFFFFF DUP3 GT PUSH2 0x7F0 JUMPI POP PUSH2 0x7EB PUSH1 0x20 SWAP4 PUSH2 0x76E SWAP3 CALLDATASIZE SWAP2 ADD PUSH2 0x1984 JUMP JUMPDEST PUSH2 0x1FDA JUMP JUMPDEST DUP1 REVERT JUMPDEST POP CALLVALUE PUSH2 0x2DB JUMPI PUSH1 0x20 CALLDATASIZE PUSH1 0x3 NOT ADD SLT PUSH2 0x2DB JUMPI PUSH1 0x20 SWAP2 PUSH1 0xFF SWAP1 DUP3 SWAP1 PUSH1 0x1 PUSH1 0x1 PUSH1 0xA0 SHL SUB PUSH2 0x81D PUSH2 0x18DD JUMP JUMPDEST AND DUP2 MSTORE PUSH1 0xD DUP6 MSTORE KECCAK256 SLOAD AND SWAP1 MLOAD SWAP1 ISZERO ISZERO DUP2 MSTORE RETURN JUMPDEST POP CALLVALUE PUSH2 0x2DB JUMPI PUSH1 0x20 CALLDATASIZE PUSH1 0x3 NOT ADD SLT PUSH2 0x2DB JUMPI PUSH1 0x20 SWAP1 PUSH2 0x84D PUSH2 0x18DD JUMP JUMPDEST POP MLOAD PUSH1 0x1 DUP2 MSTORE RETURN JUMPDEST POP DUP3 CALLVALUE PUSH2 0x2D7 JUMPI PUSH1 0x20 CALLDATASIZE PUSH1 0x3 NOT ADD SLT PUSH2 0x2D7 JUMPI PUSH2 0x870 PUSH2 0x18DD JUMP JUMPDEST PUSH2 0x878 PUSH2 0x1AF4 JUMP JUMPDEST PUSH1 0x1 PUSH1 0x1 PUSH1 0xA0 SHL SUB AND SWAP2 DUP3 ISZERO PUSH2 0x8A5 JUMPI POP POP PUSH12 0xFFFFFFFFFFFFFFFFFFFFFFFF PUSH1 0xA0 SHL PUSH1 0xC SLOAD AND OR PUSH1 0xC SSTORE DUP1 RETURN JUMPDEST SWAP1 PUSH1 0x20 PUSH1 0x64 SWAP3 MLOAD SWAP2 PUSH3 0x461BCD PUSH1 0xE5 SHL DUP4 MSTORE DUP3 ADD MSTORE PUSH1 0x1A PUSH1 0x24 DUP3 ADD MSTORE PUSH32 0x496E76616C696420636F6E74726F6C6C65722061646472657373000000000000 PUSH1 0x44 DUP3 ADD MSTORE REVERT JUMPDEST POP CALLVALUE PUSH2 0x2DB JUMPI DUP2 PUSH1 0x3 NOT CALLDATASIZE ADD SLT PUSH2 0x2DB JUMPI SWAP1 SLOAD SWAP1 MLOAD PUSH1 0x1 PUSH1 0x1 PUSH1 0xA0 SHL SUB SWAP1 SWAP2 AND DUP2 MSTORE PUSH1 0x20 SWAP1 RETURN JUMPDEST POP CALLVALUE PUSH2 0x2DB JUMPI PUSH1 0x20 CALLDATASIZE PUSH1 0x3 NOT ADD SLT PUSH2 0x2DB JUMPI PUSH1 0x20 SWAP2 PUSH1 0xFF SWAP1 DUP3 SWAP1 PUSH1 0x1 PUSH1 0x1 PUSH1 0xA0 SHL SUB PUSH2 0x939 PUSH2 0x18DD JUMP JUMPDEST AND DUP2 MSTORE PUSH1 0xE DUP6 MSTORE KECCAK256 SLOAD AND SWAP1 MLOAD SWAP1 ISZERO ISZERO DUP2 MSTORE RETURN JUMPDEST POP DUP3 SWAP1 CALLVALUE PUSH2 0x2D7 JUMPI DUP1 PUSH1 0x3 NOT CALLDATASIZE ADD SLT PUSH2 0x2D7 JUMPI DUP2 CALLDATALOAD SWAP2 DUP3 ISZERO ISZERO DUP4 SUB PUSH2 0xA23 JUMPI PUSH1 0x24 CALLDATALOAD SWAP3 PUSH2 0x977 PUSH2 0x1AF4 JUMP JUMPDEST ISZERO PUSH2 0x9CA JUMPI POP PUSH32 0x991D63B6A99732D94EDA42BEC59D2DC29056A434C3EA89B24D18D3977B521463 SWAP2 PUSH1 0x20 SWAP2 PUSH2 0x9AD TIMESTAMP DUP4 GT PUSH2 0x1C63 JUMP JUMPDEST PUSH1 0x1 PUSH1 0xFF NOT PUSH1 0xA SLOAD AND OR PUSH1 0xA SSTORE DUP2 PUSH1 0xB SSTORE DUP2 PUSH1 0x5 SSTORE MLOAD SWAP1 DUP2 MSTORE LOG1 DUP1 RETURN JUMPDEST SWAP2 POP POP PUSH1 0xFF NOT PUSH1 0xA SLOAD AND PUSH1 0xA SSTORE PUSH3 0x278D00 TIMESTAMP ADD SWAP1 DUP2 TIMESTAMP GT PUSH2 0xA10 JUMPI POP PUSH1 0x5 SSTORE PUSH32 0x88AFC90084128CBB9137EC527935A280B18F8E248F2D110BB4072B5403E9342F DUP2 DUP1 LOG1 DUP1 RETURN JUMPDEST PUSH4 0x4E487B71 PUSH1 0xE0 SHL DUP4 MSTORE PUSH1 0x11 SWAP1 MSTORE PUSH1 0x24 DUP3 REVERT JUMPDEST DUP4 DUP1 REVERT JUMPDEST POP CALLVALUE PUSH2 0x2DB JUMPI DUP2 PUSH1 0x3 NOT CALLDATASIZE ADD SLT PUSH2 0x2DB JUMPI DUP1 MLOAD PUSH2 0xA76 SWAP2 PUSH2 0xA47 DUP3 PUSH2 0x18F8 JUMP JUMPDEST PUSH1 0x10 DUP3 MSTORE PUSH16 0x57484954454C4953545F524146464C45 PUSH1 0x80 SHL PUSH1 0x20 DUP4 ADD MSTORE MLOAD SWAP2 DUP3 SWAP2 PUSH1 0x20 DUP4 MSTORE PUSH1 0x20 DUP4 ADD SWAP1 PUSH2 0x18B8 JUMP JUMPDEST SUB SWAP1 RETURN JUMPDEST POP DUP3 CALLVALUE PUSH2 0x2D7 JUMPI PUSH1 0x20 SWAP2 DUP3 PUSH1 0x3 NOT CALLDATASIZE ADD SLT PUSH2 0xA23 JUMPI DUP2 CALLDATALOAD PUSH8 0xFFFFFFFFFFFFFFFF DUP2 GT PUSH2 0xC1C JUMPI PUSH2 0xAAD SWAP1 CALLDATASIZE SWAP1 DUP5 ADD PUSH2 0x19CB JUMP JUMPDEST SWAP2 SWAP1 SWAP4 PUSH2 0xAB8 PUSH2 0x21C9 JUMP JUMPDEST DUP6 SLOAD PUSH1 0x1 PUSH1 0x1 PUSH1 0xA0 SHL SUB SWAP4 SWAP1 DUP5 AND CALLER EQ DUP1 ISZERO PUSH2 0xC0F JUMPI JUMPDEST PUSH2 0xAD8 SWAP1 PUSH2 0x221F JUMP JUMPDEST PUSH1 0xFF SWAP5 DUP6 PUSH1 0xA SLOAD AND ISZERO PUSH2 0xBC1 JUMPI PUSH1 0xB SLOAD TIMESTAMP LT PUSH2 0xB7E JUMPI POP DUP7 JUMPDEST DUP2 DUP2 LT PUSH2 0xB00 JUMPI DUP8 PUSH1 0x1 DUP1 SSTORE DUP1 RETURN JUMPDEST DUP1 PUSH2 0xB17 PUSH2 0xB12 PUSH2 0xB6B SWAP4 DUP6 DUP12 PUSH2 0x23AB JUMP JUMPDEST PUSH2 0x23D1 JUMP JUMPDEST DUP7 DUP2 AND DUP11 MSTORE PUSH1 0xD DUP6 MSTORE DUP8 DUP7 DUP12 KECCAK256 SLOAD AND ISZERO PUSH2 0xB78 JUMPI PUSH1 0x2 DUP6 MSTORE DUP6 DUP11 KECCAK256 SWAP1 DUP2 SLOAD SWAP2 DUP10 DUP4 AND PUSH2 0xB70 JUMPI PUSH1 0x1 PUSH2 0xB66 SWAP4 PUSH1 0xFF NOT AND OR SWAP1 SSTORE PUSH1 0x3 PUSH2 0xB56 DUP2 SLOAD PUSH2 0x2297 JUMP JUMPDEST SWAP1 SSTORE PUSH2 0xB61 DUP2 PUSH2 0x23E5 JUMP JUMPDEST PUSH2 0x22A6 JUMP JUMPDEST PUSH2 0x2297 JUMP JUMPDEST PUSH2 0xAF1 JUMP JUMPDEST POP POP POP PUSH2 0x2297 JUMP JUMPDEST POP PUSH2 0x2297 JUMP JUMPDEST DUP4 MLOAD PUSH3 0x461BCD PUSH1 0xE5 SHL DUP2 MSTORE SWAP1 DUP2 ADD DUP4 SWAP1 MSTORE PUSH1 0x1D PUSH1 0x24 DUP3 ADD MSTORE PUSH32 0x446973747269627574696F6E2064617465206E6F742072656163686564000000 PUSH1 0x44 DUP3 ADD MSTORE PUSH1 0x64 SWAP1 REVERT JUMPDEST DUP4 MLOAD PUSH3 0x461BCD PUSH1 0xE5 SHL DUP2 MSTORE SWAP1 DUP2 ADD DUP4 SWAP1 MSTORE PUSH1 0x22 PUSH1 0x24 DUP3 ADD MSTORE PUSH32 0x4175746F6D6174696320646973747269627574696F6E206E6F7420656E61626C PUSH1 0x44 DUP3 ADD MSTORE PUSH2 0x1959 PUSH1 0xF2 SHL PUSH1 0x64 DUP3 ADD MSTORE PUSH1 0x84 SWAP1 REVERT JUMPDEST POP PUSH1 0xC SLOAD DUP5 AND CALLER EQ PUSH2 0xACF JUMP JUMPDEST DUP5 DUP1 REVERT JUMPDEST POP CALLVALUE PUSH2 0x2DB JUMPI DUP2 PUSH1 0x3 NOT CALLDATASIZE ADD SLT PUSH2 0x2DB JUMPI PUSH2 0xC63 SWAP1 PUSH2 0xC3D PUSH2 0x1A36 JUMP JUMPDEST SWAP1 PUSH1 0x8 SLOAD SWAP1 PUSH1 0x9 SLOAD PUSH1 0xFF PUSH1 0xA SLOAD AND SWAP1 PUSH1 0xB SLOAD SWAP3 DUP1 MLOAD SWAP7 DUP8 SWAP7 PUSH1 0xA0 DUP9 MSTORE PUSH1 0xA0 DUP9 ADD SWAP1 PUSH2 0x18B8 JUMP JUMPDEST SWAP5 PUSH1 0x20 DUP8 ADD MSTORE DUP6 ADD MSTORE ISZERO ISZERO PUSH1 0x60 DUP5 ADD MSTORE PUSH1 0x80 DUP4 ADD MSTORE SUB SWAP1 RETURN JUMPDEST POP DUP3 SWAP1 CALLVALUE PUSH2 0x2D7 JUMPI DUP3 PUSH1 0x3 NOT CALLDATASIZE ADD SLT PUSH2 0x2D7 JUMPI PUSH1 0x20 SWAP3 POP PUSH1 0xFF PUSH1 0x6 SLOAD AND SWAP2 DUP3 PUSH2 0xCD0 JUMPI JUMPDEST POP DUP2 PUSH2 0xCAF JUMPI JUMPDEST MLOAD SWAP1 ISZERO ISZERO DUP2 MSTORE RETURN JUMPDEST SWAP1 POP PUSH1 0x5 SLOAD DUP1 ISZERO SWAP1 DUP2 ISZERO PUSH2 0xCC5 JUMPI JUMPDEST POP SWAP1 PUSH2 0xCA7 JUMP JUMPDEST SWAP1 POP TIMESTAMP GT ISZERO DUP4 PUSH2 0xCBE JUMP JUMPDEST SLOAD TIMESTAMP LT ISZERO SWAP2 POP DUP4 PUSH2 0xCA0 JUMP JUMPDEST POP CALLVALUE PUSH2 0x2DB JUMPI PUSH1 0x20 CALLDATASIZE PUSH1 0x3 NOT ADD SLT PUSH2 0x2DB JUMPI PUSH1 0x20 SWAP2 PUSH1 0xFF SWAP1 DUP3 SWAP1 PUSH1 0x1 PUSH1 0x1 PUSH1 0xA0 SHL SUB PUSH2 0xD06 PUSH2 0x18DD JUMP JUMPDEST AND DUP2 MSTORE PUSH1 0x2 DUP6 MSTORE KECCAK256 SLOAD AND SWAP1 MLOAD SWAP1 ISZERO ISZERO DUP2 MSTORE RETURN JUMPDEST DUP3 CALLVALUE PUSH2 0x7F0 JUMPI DUP1 PUSH1 0x3 NOT CALLDATASIZE ADD SLT PUSH2 0x7F0 JUMPI PUSH2 0xD32 PUSH2 0x1AF4 JUMP JUMPDEST DUP1 SLOAD PUSH1 0x1 PUSH1 0x1 PUSH1 0xA0 SHL SUB NOT DUP2 AND DUP3 SSTORE DUP2 SWAP1 PUSH1 0x1 PUSH1 0x1 PUSH1 0xA0 SHL SUB AND PUSH32 0x8BE0079C531659141344CD1FD0A4F28419497F9722A3DAAFE3B4186F6B6457E0 DUP3 DUP1 LOG3 DUP1 RETURN JUMPDEST POP CALLVALUE PUSH2 0x2DB JUMPI PUSH1 0x60 CALLDATASIZE PUSH1 0x3 NOT ADD SLT PUSH2 0x2DB JUMPI DUP3 CALLDATALOAD PUSH8 0xFFFFFFFFFFFFFFFF DUP2 GT PUSH2 0x2D7 JUMPI PUSH2 0xDA3 SWAP1 CALLDATASIZE SWAP1 DUP6 ADD PUSH2 0x1984 JUMP JUMPDEST SWAP3 PUSH1 0x1 PUSH1 0x1 PUSH1 0xA0 SHL SUB SWAP1 PUSH1 0x24 CALLDATALOAD SWAP1 DUP3 DUP3 AND DUP1 DUP4 SUB PUSH2 0xF57 JUMPI PUSH1 0x44 CALLDATALOAD SWAP4 DUP5 AND SWAP4 DUP5 DUP2 SUB PUSH2 0xF53 JUMPI PUSH2 0xE7A SWAP1 PUSH2 0xDF0 PUSH1 0xFF PUSH1 0x6 SLOAD PUSH1 0x8 SHR AND PUSH2 0xDEA DUP2 PUSH2 0xDE5 PUSH2 0x1B93 JUMP JUMPDEST PUSH2 0x25B0 JUMP JUMPDEST ISZERO PUSH2 0x1BE8 JUMP JUMPDEST PUSH2 0xE40 DUP6 DUP9 MLOAD PUSH2 0xDFF DUP2 PUSH2 0x192A JUMP JUMPDEST PUSH1 0x2A DUP2 MSTORE PUSH32 0x426173655265776172643A20496E697469616C697A696E6720636C6F6E652077 PUSH1 0x20 DUP3 ADD MSTORE PUSH10 0x34BA341037BBB732B91D PUSH1 0xB1 SHL DUP11 DUP3 ADD MSTORE PUSH2 0x25F7 JUMP JUMPDEST DUP7 MLOAD PUSH2 0xE4B DUP2 PUSH2 0x18F8 JUMP JUMPDEST PUSH1 0x17 DUP2 MSTORE PUSH32 0x426173655265776172643A20436F6E74726F6C6C65723A000000000000000000 PUSH1 0x20 DUP3 ADD MSTORE PUSH2 0x25F7 JUMP JUMPDEST ISZERO PUSH2 0xF18 JUMPI POP PUSH2 0xEF9 SWAP4 SWAP5 PUSH2 0xE91 PUSH2 0xE96 SWAP3 PUSH2 0x1B4C JUMP JUMPDEST PUSH2 0x1CBF JUMP JUMPDEST PUSH12 0xFFFFFFFFFFFFFFFFFFFFFFFF PUSH1 0xA0 SHL PUSH1 0xC SLOAD AND OR PUSH1 0xC SSTORE PUSH9 0x20636F6D706C657465 PUSH1 0xB8 SHL DUP2 MLOAD SWAP2 PUSH2 0xEC7 DUP4 PUSH2 0x192A JUMP JUMPDEST PUSH1 0x29 DUP4 MSTORE PUSH32 0x426173655265776172643A20436C6F6E6520696E697469616C697A6174696F6E PUSH1 0x20 DUP5 ADD MSTORE DUP3 ADD MSTORE PUSH2 0x252A JUMP JUMPDEST PUSH2 0x100 PUSH2 0xFF00 NOT PUSH1 0x6 SLOAD AND OR PUSH1 0x6 SSTORE PUSH2 0x344 PUSH2 0xF13 PUSH2 0x1C2A JUMP JUMPDEST PUSH2 0x252A JUMP JUMPDEST PUSH1 0x64 SWAP1 PUSH1 0x20 DUP6 MLOAD SWAP2 PUSH3 0x461BCD PUSH1 0xE5 SHL DUP4 MSTORE DUP3 ADD MSTORE PUSH1 0x15 PUSH1 0x24 DUP3 ADD MSTORE PUSH21 0x496E76616C6964206F776E65722061646472657373 PUSH1 0x58 SHL PUSH1 0x44 DUP3 ADD MSTORE REVERT JUMPDEST DUP7 DUP1 REVERT JUMPDEST DUP6 DUP1 REVERT JUMPDEST POP DUP3 CALLVALUE PUSH2 0x2D7 JUMPI DUP3 PUSH1 0x3 NOT CALLDATASIZE ADD SLT PUSH2 0x2D7 JUMPI PUSH1 0x20 SWAP3 POP SLOAD SWAP1 MLOAD SWAP1 DUP2 MSTORE RETURN JUMPDEST POP CALLVALUE PUSH2 0x2DB JUMPI DUP2 PUSH1 0x3 NOT CALLDATASIZE ADD SLT PUSH2 0x2DB JUMPI PUSH2 0x344 SWAP1 PUSH2 0xF96 PUSH2 0x1AF4 JUMP JUMPDEST PUSH2 0xFD3 DUP2 MLOAD PUSH2 0xFA4 DUP2 PUSH2 0x18F8 JUMP JUMPDEST PUSH1 0x1F DUP2 MSTORE PUSH32 0x426173655265776172643A20446561637469766174696E672072657761726400 PUSH1 0x20 DUP3 ADD MSTORE PUSH2 0x252A JUMP JUMPDEST PUSH1 0xFF NOT PUSH1 0x6 SLOAD AND PUSH1 0x6 SSTORE PUSH32 0x4DCBE1841EE9BD9C888E46C0B35574429B1C0F1071806180028DEE2F9A106430 PUSH1 0x20 DUP3 MLOAD DUP6 DUP2 MSTORE LOG1 MLOAD PUSH2 0x1010 DUP2 PUSH2 0x18F8 JUMP JUMPDEST PUSH1 0x1E DUP2 MSTORE PUSH32 0x426173655265776172643A205265776172642064656163746976617465640000 PUSH1 0x20 DUP3 ADD MSTORE PUSH2 0x252A JUMP JUMPDEST POP SWAP1 CALLVALUE PUSH2 0x7F0 JUMPI PUSH1 0x60 CALLDATASIZE PUSH1 0x3 NOT ADD SLT PUSH2 0x7F0 JUMPI PUSH2 0x105A PUSH2 0x18DD JUMP JUMPDEST POP PUSH1 0x44 CALLDATALOAD SWAP1 PUSH8 0xFFFFFFFFFFFFFFFF DUP3 GT PUSH2 0x7F0 JUMPI POP PUSH1 0x20 SWAP3 PUSH2 0x107E SWAP2 CALLDATASIZE SWAP2 ADD PUSH2 0x19CB JUMP JUMPDEST POP POP MLOAD PUSH1 0x1 DUP2 MSTORE RETURN JUMPDEST POP DUP3 SWAP1 CALLVALUE PUSH2 0x2D7 JUMPI PUSH1 0x20 SWAP1 DUP2 PUSH1 0x3 NOT CALLDATASIZE ADD SLT PUSH2 0xA23 JUMPI DUP3 CALLDATALOAD PUSH8 0xFFFFFFFFFFFFFFFF DUP2 GT PUSH2 0xC1C JUMPI PUSH2 0x10BB SWAP1 CALLDATASIZE SWAP1 DUP6 ADD PUSH2 0x19CB JUMP JUMPDEST SWAP4 PUSH2 0x10C4 PUSH2 0x1AF4 JUMP JUMPDEST DUP5 ISZERO PUSH2 0x11AA JUMPI PUSH1 0x8 SLOAD DUP6 GT PUSH2 0x1174 JUMPI POP PUSH1 0xF SWAP1 DUP6 DUP3 SSTORE DUP6 JUMPDEST DUP6 DUP2 LT PUSH2 0x10E7 JUMPI DUP7 DUP1 RETURN JUMPDEST PUSH2 0x1152 SWAP1 PUSH1 0x1 PUSH1 0x1 PUSH1 0xA0 SHL SUB PUSH2 0x1101 PUSH2 0xB12 DUP4 DUP11 DUP8 PUSH2 0x23AB JUMP JUMPDEST AND PUSH2 0x110D DUP2 ISZERO ISZERO PUSH2 0x24E5 JUMP JUMPDEST DUP1 DUP10 MSTORE PUSH1 0xD DUP8 MSTORE DUP6 DUP10 KECCAK256 DUP1 SLOAD PUSH1 0xFF DUP2 AND ISZERO PUSH2 0x1157 JUMPI JUMPDEST POP POP PUSH32 0xE238085D33FBB21EA77EC1AEDEA0DC6A333B10D386381B11DAF6042D45C9587A DUP8 DUP8 MLOAD TIMESTAMP DUP2 MSTORE LOG2 PUSH2 0x2297 JUMP JUMPDEST PUSH2 0x10DC JUMP JUMPDEST PUSH1 0xFF NOT AND PUSH1 0x1 OR SWAP1 SSTORE DUP5 SLOAD PUSH2 0x116B SWAP1 PUSH2 0x2297 JUMP JUMPDEST DUP6 SSTORE DUP10 DUP1 PUSH2 0x1123 JUMP JUMPDEST DUP3 MLOAD PUSH3 0x461BCD PUSH1 0xE5 SHL DUP2 MSTORE SWAP1 DUP2 ADD DUP5 SWAP1 MSTORE PUSH1 0x10 PUSH1 0x24 DUP3 ADD MSTORE PUSH16 0x546F6F206D616E792077696E6E657273 PUSH1 0x80 SHL PUSH1 0x44 DUP3 ADD MSTORE PUSH1 0x64 SWAP1 REVERT JUMPDEST DUP3 MLOAD PUSH3 0x461BCD PUSH1 0xE5 SHL DUP2 MSTORE SWAP1 DUP2 ADD DUP5 SWAP1 MSTORE PUSH1 0x13 PUSH1 0x24 DUP3 ADD MSTORE PUSH19 0x139BC81DDA5B9B995C9CC81C1C9BDD9A591959 PUSH1 0x6A SHL PUSH1 0x44 DUP3 ADD MSTORE PUSH1 0x64 SWAP1 REVERT JUMPDEST DUP3 DUP5 CALLVALUE PUSH2 0x2DB JUMPI PUSH1 0x20 CALLDATASIZE PUSH1 0x3 NOT ADD SLT PUSH2 0x2DB JUMPI DUP1 CALLDATALOAD PUSH8 0xFFFFFFFFFFFFFFFF DUP2 GT PUSH2 0x2D7 JUMPI PUSH2 0xEF9 SWAP2 PUSH2 0x1217 SWAP2 CALLDATASIZE SWAP2 ADD PUSH2 0x1984 JUMP JUMPDEST PUSH2 0xE91 PUSH1 0xFF PUSH1 0x6 SLOAD PUSH1 0x8 SHR AND PUSH2 0xDEA DUP2 PUSH2 0xDE5 PUSH2 0x1B93 JUMP JUMPDEST POP CALLVALUE PUSH2 0x2DB JUMPI DUP2 PUSH1 0x3 NOT CALLDATASIZE ADD SLT PUSH2 0x2DB JUMPI PUSH1 0x20 SWAP1 PUSH1 0x3 SLOAD SWAP1 MLOAD SWAP1 DUP2 MSTORE RETURN JUMPDEST POP CALLVALUE PUSH2 0x2DB JUMPI DUP2 PUSH1 0x3 NOT CALLDATASIZE ADD SLT PUSH2 0x2DB JUMPI PUSH1 0x20 SWAP1 PUSH1 0xFF PUSH1 0x6 SLOAD PUSH1 0x8 SHR AND SWAP1 MLOAD SWAP1 ISZERO ISZERO DUP2 MSTORE RETURN JUMPDEST POP DUP3 SWAP1 CALLVALUE PUSH2 0x2D7 JUMPI PUSH1 0x20 SWAP1 DUP2 PUSH1 0x3 NOT CALLDATASIZE ADD SLT PUSH2 0xA23 JUMPI PUSH2 0x1291 PUSH2 0x18DD JUMP JUMPDEST PUSH2 0x1299 PUSH2 0x1AF4 JUMP JUMPDEST PUSH1 0x1 PUSH1 0x1 PUSH1 0xA0 SHL SUB AND SWAP3 PUSH2 0x12AE DUP5 ISZERO ISZERO PUSH2 0x24E5 JUMP JUMPDEST DUP4 DUP6 MSTORE PUSH1 0xD DUP4 MSTORE PUSH1 0xFF DUP3 DUP7 KECCAK256 SLOAD AND PUSH2 0x1352 JUMPI PUSH1 0xF SLOAD PUSH1 0x8 SLOAD GT ISZERO PUSH2 0x131B JUMPI POP SWAP1 PUSH32 0xE238085D33FBB21EA77EC1AEDEA0DC6A333B10D386381B11DAF6042D45C9587A SWAP2 DUP4 DUP6 MSTORE PUSH1 0xD DUP3 MSTORE DUP1 DUP6 KECCAK256 PUSH1 0x1 PUSH1 0xFF NOT DUP3 SLOAD AND OR SWAP1 SSTORE PUSH2 0x1310 PUSH1 0xF SLOAD PUSH2 0x2297 JUMP JUMPDEST PUSH1 0xF SSTORE MLOAD TIMESTAMP DUP2 MSTORE LOG2 DUP1 RETURN JUMPDEST DUP3 PUSH1 0x64 SWAP3 MLOAD SWAP2 PUSH3 0x461BCD PUSH1 0xE5 SHL DUP4 MSTORE DUP3 ADD MSTORE PUSH1 0x13 PUSH1 0x24 DUP3 ADD MSTORE PUSH19 0x105B1B081CDC1BDD1CC8185B1B1BD8D85D1959 PUSH1 0x6A SHL PUSH1 0x44 DUP3 ADD MSTORE REVERT JUMPDEST DUP3 PUSH1 0x64 SWAP3 MLOAD SWAP2 PUSH3 0x461BCD PUSH1 0xE5 SHL DUP4 MSTORE DUP3 ADD MSTORE PUSH1 0x10 PUSH1 0x24 DUP3 ADD MSTORE PUSH16 0x20B63932B0B23C9030903BB4B73732B9 PUSH1 0x81 SHL PUSH1 0x44 DUP3 ADD MSTORE REVERT JUMPDEST POP SWAP2 CALLVALUE PUSH2 0x2DB JUMPI PUSH1 0x20 SWAP3 DUP4 PUSH1 0x3 NOT CALLDATASIZE ADD SLT PUSH2 0x2D7 JUMPI PUSH2 0x13A3 PUSH2 0x18DD JUMP JUMPDEST SWAP2 PUSH2 0x13AC PUSH2 0x21C9 JUMP JUMPDEST PUSH2 0x13B7 PUSH2 0xF13 PUSH2 0x1FED JUMP JUMPDEST PUSH2 0x141F PUSH1 0xFF PUSH1 0x6 SLOAD AND PUSH2 0x13CC DUP2 PUSH2 0xDE5 PUSH2 0x2026 JUMP JUMPDEST PUSH2 0x13DD TIMESTAMP PUSH2 0x13D8 PUSH2 0x205F JUMP JUMPDEST PUSH2 0x256B JUMP JUMPDEST DUP3 SLOAD PUSH2 0x13EB DUP2 PUSH2 0x13D8 PUSH2 0x2098 JUMP JUMPDEST PUSH2 0x1403 PUSH1 0x5 SLOAD SWAP3 PUSH2 0x13FE DUP5 PUSH2 0x13D8 PUSH2 0x20D1 JUMP JUMPDEST PUSH2 0x210A JUMP JUMPDEST TIMESTAMP LT ISZERO SWAP1 DUP2 PUSH2 0x153B JUMPI JUMPDEST POP PUSH2 0x141A DUP2 PUSH2 0xDE5 PUSH2 0x214D JUMP JUMPDEST PUSH2 0x2186 JUMP JUMPDEST PUSH1 0x1 PUSH1 0x1 PUSH1 0xA0 SHL SUB DUP4 DUP2 AND SWAP2 SWAP1 CALLER DUP4 SWAP1 SUB PUSH2 0x150F JUMPI JUMPDEST POP PUSH2 0x143F DUP5 PUSH2 0x2450 JUMP JUMPDEST ISZERO PUSH2 0x14D8 JUMPI DUP2 DUP6 MSTORE PUSH1 0xD DUP7 MSTORE PUSH2 0x145A PUSH1 0xFF DUP5 DUP8 KECCAK256 SLOAD AND PUSH2 0x225C JUMP JUMPDEST DUP2 DUP6 MSTORE PUSH1 0x2 DUP7 MSTORE PUSH1 0xFF DUP4 DUP7 KECCAK256 SLOAD AND PUSH2 0x14A3 JUMPI POP DUP4 SWAP5 PUSH1 0x2 SWAP2 PUSH2 0x149C SWAP6 MSTORE MSTORE DUP4 KECCAK256 PUSH1 0x1 PUSH1 0xFF NOT DUP3 SLOAD AND OR SWAP1 SSTORE PUSH2 0x1490 PUSH1 0x3 SLOAD PUSH2 0x2297 JUMP JUMPDEST PUSH1 0x3 SSTORE PUSH2 0xB61 DUP2 PUSH2 0x23E5 JUMP JUMPDEST PUSH1 0x1 DUP1 SSTORE DUP1 RETURN JUMPDEST DUP3 MLOAD PUSH3 0x461BCD PUSH1 0xE5 SHL DUP2 MSTORE SWAP1 DUP2 ADD DUP7 SWAP1 MSTORE PUSH1 0xF PUSH1 0x24 DUP3 ADD MSTORE PUSH15 0x105B1C9958591E4818DB185A5B5959 PUSH1 0x8A SHL PUSH1 0x44 DUP3 ADD MSTORE PUSH1 0x64 SWAP1 REVERT JUMPDEST DUP3 MLOAD PUSH3 0x461BCD PUSH1 0xE5 SHL DUP2 MSTORE SWAP1 DUP2 ADD DUP7 SWAP1 MSTORE PUSH1 0x11 PUSH1 0x24 DUP3 ADD MSTORE PUSH17 0x10D85B9B9BDD0818DB185A5B481CDC1BDD PUSH1 0x7A SHL PUSH1 0x44 DUP3 ADD MSTORE PUSH1 0x64 SWAP1 REVERT JUMPDEST DUP1 PUSH2 0x1527 SWAP2 DUP8 SLOAD AND CALLER EQ SWAP1 DUP2 ISZERO PUSH2 0x152D JUMPI JUMPDEST POP PUSH2 0x221F JUMP JUMPDEST CODESIZE PUSH2 0x1435 JUMP JUMPDEST SWAP1 POP PUSH1 0xC SLOAD AND CALLER EQ CODESIZE PUSH2 0x1521 JUMP JUMPDEST DUP1 ISZERO SWAP2 POP DUP2 ISZERO PUSH2 0x154D JUMPI JUMPDEST POP CODESIZE PUSH2 0x140D JUMP JUMPDEST SWAP1 POP TIMESTAMP GT ISZERO CODESIZE PUSH2 0x1546 JUMP JUMPDEST POP SWAP1 CALLVALUE PUSH2 0x7F0 JUMPI PUSH1 0x20 CALLDATASIZE PUSH1 0x3 NOT ADD SLT PUSH2 0x7F0 JUMPI PUSH1 0x1 PUSH1 0x1 PUSH1 0xA0 SHL SUB PUSH2 0x157B PUSH2 0x18DD JUMP JUMPDEST AND DUP2 MSTORE PUSH1 0xD PUSH1 0x20 MSTORE PUSH1 0xFF DUP3 DUP2 DUP2 DUP5 KECCAK256 SLOAD AND SWAP3 PUSH1 0x2 PUSH1 0x20 MSTORE KECCAK256 SLOAD AND DUP3 MLOAD SWAP2 ISZERO ISZERO DUP3 MSTORE ISZERO ISZERO PUSH1 0x20 DUP3 ADD MSTORE RETURN JUMPDEST POP DUP3 CALLVALUE PUSH2 0x2D7 JUMPI DUP3 PUSH1 0x3 NOT CALLDATASIZE ADD SLT PUSH2 0x2D7 JUMPI PUSH2 0x15BF PUSH2 0x21C9 JUMP JUMPDEST PUSH2 0x15CA PUSH2 0xF13 PUSH2 0x1FED JUMP JUMPDEST PUSH2 0x1622 PUSH1 0xFF PUSH1 0x6 SLOAD AND PUSH2 0x15DF DUP2 PUSH2 0xDE5 PUSH2 0x2026 JUMP JUMPDEST PUSH2 0x15EB TIMESTAMP PUSH2 0x13D8 PUSH2 0x205F JUMP JUMPDEST DUP3 SLOAD PUSH2 0x15F9 DUP2 PUSH2 0x13D8 PUSH2 0x2098 JUMP JUMPDEST PUSH2 0x160C PUSH1 0x5 SLOAD SWAP3 PUSH2 0x13FE DUP5 PUSH2 0x13D8 PUSH2 0x20D1 JUMP JUMPDEST TIMESTAMP LT ISZERO SWAP1 DUP2 PUSH2 0x1722 JUMPI POP PUSH2 0x141A DUP2 PUSH2 0xDE5 PUSH2 0x214D JUMP JUMPDEST PUSH2 0x162A PUSH2 0x21C9 JUMP JUMPDEST PUSH2 0x1635 PUSH2 0xF13 PUSH2 0x1FED JUMP JUMPDEST PUSH2 0x164A PUSH1 0xFF PUSH1 0x6 SLOAD AND PUSH2 0x15DF DUP2 PUSH2 0xDE5 PUSH2 0x2026 JUMP JUMPDEST PUSH2 0x1653 CALLER PUSH2 0x2450 JUMP JUMPDEST ISZERO PUSH2 0x16EC JUMPI CALLER DUP4 MSTORE PUSH1 0xD PUSH1 0x20 MSTORE PUSH2 0x166F PUSH1 0xFF DUP4 DUP6 KECCAK256 SLOAD AND PUSH2 0x225C JUMP JUMPDEST CALLER DUP4 MSTORE PUSH1 0x2 PUSH1 0x20 MSTORE PUSH1 0xFF DUP3 DUP5 KECCAK256 SLOAD AND PUSH2 0x16B8 JUMPI POP CALLER DUP3 MSTORE PUSH1 0x2 PUSH1 0x20 MSTORE DUP2 KECCAK256 PUSH1 0x1 PUSH1 0xFF NOT DUP3 SLOAD AND OR SWAP1 SSTORE PUSH2 0x16A3 PUSH1 0x3 SLOAD PUSH2 0x2297 JUMP JUMPDEST PUSH1 0x3 SSTORE PUSH2 0x16AF CALLER PUSH2 0x23E5 JUMP JUMPDEST PUSH2 0x149C CALLER PUSH2 0x22A6 JUMP JUMPDEST PUSH1 0x20 PUSH1 0x64 SWAP3 MLOAD SWAP2 PUSH3 0x461BCD PUSH1 0xE5 SHL DUP4 MSTORE DUP3 ADD MSTORE PUSH1 0xF PUSH1 0x24 DUP3 ADD MSTORE PUSH15 0x105B1C9958591E4818DB185A5B5959 PUSH1 0x8A SHL PUSH1 0x44 DUP3 ADD MSTORE REVERT JUMPDEST PUSH1 0x20 PUSH1 0x64 SWAP3 MLOAD SWAP2 PUSH3 0x461BCD PUSH1 0xE5 SHL DUP4 MSTORE DUP3 ADD MSTORE PUSH1 0x11 PUSH1 0x24 DUP3 ADD MSTORE PUSH17 0x10D85B9B9BDD0818DB185A5B481CDC1BDD PUSH1 0x7A SHL PUSH1 0x44 DUP3 ADD MSTORE REVERT JUMPDEST DUP1 ISZERO SWAP2 POP DUP2 ISZERO PUSH2 0x1734 JUMPI JUMPDEST POP DUP6 PUSH2 0x140D JUMP JUMPDEST SWAP1 POP TIMESTAMP GT ISZERO DUP6 PUSH2 0x172D JUMP JUMPDEST POP CALLVALUE PUSH2 0x2DB JUMPI DUP2 PUSH1 0x3 NOT CALLDATASIZE ADD SLT PUSH2 0x2DB JUMPI PUSH2 0x1787 SWAP1 PUSH1 0x8 SLOAD PUSH1 0xF SLOAD PUSH1 0x10 SLOAD PUSH1 0x3 SLOAD PUSH1 0xFF PUSH1 0xA SLOAD AND SWAP2 PUSH1 0xB SLOAD SWAP4 PUSH2 0x1773 PUSH2 0x1A36 JUMP JUMPDEST SWAP7 DUP1 MLOAD SWAP9 DUP10 SWAP9 PUSH1 0xE0 DUP11 MSTORE PUSH1 0xE0 DUP11 ADD SWAP1 PUSH2 0x18B8 JUMP JUMPDEST SWAP7 PUSH1 0x20 DUP10 ADD MSTORE DUP8 ADD MSTORE PUSH1 0x60 DUP7 ADD MSTORE PUSH1 0x80 DUP6 ADD MSTORE ISZERO ISZERO PUSH1 0xA0 DUP5 ADD MSTORE PUSH1 0xC0 DUP4 ADD MSTORE SUB SWAP1 RETURN JUMPDEST POP CALLVALUE PUSH2 0x2DB JUMPI DUP2 PUSH1 0x3 NOT CALLDATASIZE ADD SLT PUSH2 0x2DB JUMPI PUSH2 0x344 SWAP1 PUSH2 0x17C7 PUSH2 0x1AF4 JUMP JUMPDEST PUSH2 0x1804 DUP2 MLOAD PUSH2 0x17D5 DUP2 PUSH2 0x18F8 JUMP JUMPDEST PUSH1 0x1D DUP2 MSTORE PUSH32 0x426173655265776172643A2041637469766174696E6720726577617264000000 PUSH1 0x20 DUP3 ADD MSTORE PUSH2 0x252A JUMP JUMPDEST PUSH1 0x1 PUSH1 0xFF NOT PUSH1 0x6 SLOAD AND OR PUSH1 0x6 SSTORE PUSH32 0x4DCBE1841EE9BD9C888E46C0B35574429B1C0F1071806180028DEE2F9A106430 PUSH1 0x20 DUP3 MLOAD PUSH1 0x1 DUP2 MSTORE LOG1 MLOAD PUSH2 0x1845 DUP2 PUSH2 0x18F8 JUMP JUMPDEST PUSH1 0x1C DUP2 MSTORE PUSH32 0x426173655265776172643A205265776172642061637469766174656400000000 PUSH1 0x20 DUP3 ADD MSTORE PUSH2 0x252A JUMP JUMPDEST DUP4 SWAP1 CALLVALUE PUSH2 0x2DB JUMPI DUP2 PUSH1 0x3 NOT CALLDATASIZE ADD SLT PUSH2 0x2DB JUMPI PUSH1 0x20 SWAP1 PUSH1 0xFF PUSH1 0x6 SLOAD AND ISZERO ISZERO DUP2 MSTORE RETURN JUMPDEST PUSH1 0x0 JUMPDEST DUP4 DUP2 LT PUSH2 0x18A8 JUMPI POP POP PUSH1 0x0 SWAP2 ADD MSTORE JUMP JUMPDEST DUP2 DUP2 ADD MLOAD DUP4 DUP3 ADD MSTORE PUSH1 0x20 ADD PUSH2 0x1898 JUMP JUMPDEST SWAP1 PUSH1 0x20 SWAP2 PUSH2 0x18D1 DUP2 MLOAD DUP1 SWAP3 DUP2 DUP6 MSTORE DUP6 DUP1 DUP7 ADD SWAP2 ADD PUSH2 0x1895 JUMP JUMPDEST PUSH1 0x1F ADD PUSH1 0x1F NOT AND ADD ADD SWAP1 JUMP JUMPDEST PUSH1 0x4 CALLDATALOAD SWAP1 PUSH1 0x1 PUSH1 0x1 PUSH1 0xA0 SHL SUB DUP3 AND DUP3 SUB PUSH2 0x18F3 JUMPI JUMP JUMPDEST PUSH1 0x0 DUP1 REVERT JUMPDEST PUSH1 0x40 DUP2 ADD SWAP1 DUP2 LT PUSH8 0xFFFFFFFFFFFFFFFF DUP3 GT OR PUSH2 0x1914 JUMPI PUSH1 0x40 MSTORE JUMP JUMPDEST PUSH4 0x4E487B71 PUSH1 0xE0 SHL PUSH1 0x0 MSTORE PUSH1 0x41 PUSH1 0x4 MSTORE PUSH1 0x24 PUSH1 0x0 REVERT JUMPDEST PUSH1 0x60 DUP2 ADD SWAP1 DUP2 LT PUSH8 0xFFFFFFFFFFFFFFFF DUP3 GT OR PUSH2 0x1914 JUMPI PUSH1 0x40 MSTORE JUMP JUMPDEST SWAP1 PUSH1 0x1F DUP1 NOT SWAP2 ADD AND DUP2 ADD SWAP1 DUP2 LT PUSH8 0xFFFFFFFFFFFFFFFF DUP3 GT OR PUSH2 0x1914 JUMPI PUSH1 0x40 MSTORE JUMP JUMPDEST PUSH8 0xFFFFFFFFFFFFFFFF DUP2 GT PUSH2 0x1914 JUMPI PUSH1 0x1F ADD PUSH1 0x1F NOT AND PUSH1 0x20 ADD SWAP1 JUMP JUMPDEST DUP2 PUSH1 0x1F DUP3 ADD SLT ISZERO PUSH2 0x18F3 JUMPI DUP1 CALLDATALOAD SWAP1 PUSH2 0x199B DUP3 PUSH2 0x1968 JUMP JUMPDEST SWAP3 PUSH2 0x19A9 PUSH1 0x40 MLOAD SWAP5 DUP6 PUSH2 0x1946 JUMP JUMPDEST DUP3 DUP5 MSTORE PUSH1 0x20 DUP4 DUP4 ADD ADD GT PUSH2 0x18F3 JUMPI DUP2 PUSH1 0x0 SWAP3 PUSH1 0x20 DUP1 SWAP4 ADD DUP4 DUP7 ADD CALLDATACOPY DUP4 ADD ADD MSTORE SWAP1 JUMP JUMPDEST SWAP2 DUP2 PUSH1 0x1F DUP5 ADD SLT ISZERO PUSH2 0x18F3 JUMPI DUP3 CALLDATALOAD SWAP2 PUSH8 0xFFFFFFFFFFFFFFFF DUP4 GT PUSH2 0x18F3 JUMPI PUSH1 0x20 DUP1 DUP6 ADD SWAP5 DUP5 PUSH1 0x5 SHL ADD ADD GT PUSH2 0x18F3 JUMPI JUMP JUMPDEST SWAP1 PUSH1 0x1 DUP3 DUP2 SHR SWAP3 AND DUP1 ISZERO PUSH2 0x1A2C JUMPI JUMPDEST PUSH1 0x20 DUP4 LT EQ PUSH2 0x1A16 JUMPI JUMP JUMPDEST PUSH4 0x4E487B71 PUSH1 0xE0 SHL PUSH1 0x0 MSTORE PUSH1 0x22 PUSH1 0x4 MSTORE PUSH1 0x24 PUSH1 0x0 REVERT JUMPDEST SWAP2 PUSH1 0x7F AND SWAP2 PUSH2 0x1A0B JUMP JUMPDEST PUSH1 0x40 MLOAD SWAP1 PUSH1 0x0 DUP3 PUSH1 0x7 SLOAD SWAP2 PUSH2 0x1A4A DUP4 PUSH2 0x19FC JUMP JUMPDEST DUP1 DUP4 MSTORE SWAP3 PUSH1 0x1 SWAP1 DUP2 DUP2 AND SWAP1 DUP2 ISZERO PUSH2 0x1AD2 JUMPI POP PUSH1 0x1 EQ PUSH2 0x1A73 JUMPI JUMPDEST POP PUSH2 0x1A71 SWAP3 POP SUB DUP4 PUSH2 0x1946 JUMP JUMPDEST JUMP JUMPDEST PUSH1 0x7 PUSH1 0x0 SWAP1 DUP2 MSTORE SWAP2 POP PUSH32 0xA66CC928B5EDB82AF9BD49922954155AB7B0942694BEA4CE44661D9A8736C688 JUMPDEST DUP5 DUP4 LT PUSH2 0x1AB7 JUMPI POP PUSH2 0x1A71 SWAP4 POP POP DUP2 ADD PUSH1 0x20 ADD CODESIZE PUSH2 0x1A64 JUMP JUMPDEST DUP2 SWAP4 POP SWAP1 DUP2 PUSH1 0x20 SWAP3 SLOAD DUP4 DUP6 DUP11 ADD ADD MSTORE ADD SWAP2 ADD SWAP1 SWAP2 DUP6 SWAP3 PUSH2 0x1A9E JUMP JUMPDEST SWAP1 POP PUSH1 0x20 SWAP3 POP PUSH2 0x1A71 SWAP5 SWAP2 POP PUSH1 0xFF NOT AND DUP3 DUP5 ADD MSTORE ISZERO ISZERO PUSH1 0x5 SHL DUP3 ADD ADD CODESIZE PUSH2 0x1A64 JUMP JUMPDEST PUSH1 0x0 SLOAD PUSH1 0x1 PUSH1 0x1 PUSH1 0xA0 SHL SUB AND CALLER SUB PUSH2 0x1B08 JUMPI JUMP JUMPDEST PUSH1 0x64 PUSH1 0x40 MLOAD PUSH3 0x461BCD PUSH1 0xE5 SHL DUP2 MSTORE PUSH1 0x20 PUSH1 0x4 DUP3 ADD MSTORE PUSH1 0x20 PUSH1 0x24 DUP3 ADD MSTORE PUSH32 0x4F776E61626C653A2063616C6C6572206973206E6F7420746865206F776E6572 PUSH1 0x44 DUP3 ADD MSTORE REVERT JUMPDEST PUSH1 0x0 DUP1 SLOAD PUSH1 0x1 PUSH1 0x1 PUSH1 0xA0 SHL SUB SWAP3 DUP4 AND PUSH1 0x1 PUSH1 0x1 PUSH1 0xA0 SHL SUB NOT DUP3 AND DUP2 OR DUP4 SSTORE SWAP3 AND SWAP1 PUSH32 0x8BE0079C531659141344CD1FD0A4F28419497F9722A3DAAFE3B4186F6B6457E0 SWAP1 DUP1 LOG3 JUMP JUMPDEST PUSH1 0x40 MLOAD SWAP1 PUSH2 0x1BA0 DUP3 PUSH2 0x192A JUMP JUMPDEST PUSH1 0x33 DUP3 MSTORE PUSH19 0x34B734BA34B0B634BD32B21039BA30BA3AB99D PUSH1 0x69 SHL PUSH1 0x40 DUP4 PUSH32 0x426173655265776172643A20496E697469616C697A65722063616C6C65642C20 PUSH1 0x20 DUP3 ADD MSTORE ADD MSTORE JUMP JUMPDEST ISZERO PUSH2 0x1BEF JUMPI JUMP JUMPDEST PUSH1 0x40 MLOAD PUSH3 0x461BCD PUSH1 0xE5 SHL DUP2 MSTORE PUSH1 0x20 PUSH1 0x4 DUP3 ADD MSTORE PUSH1 0x13 PUSH1 0x24 DUP3 ADD MSTORE PUSH19 0x105B1C9958591E481A5B9A5D1A585B1A5E9959 PUSH1 0x6A SHL PUSH1 0x44 DUP3 ADD MSTORE PUSH1 0x64 SWAP1 REVERT JUMPDEST PUSH1 0x40 MLOAD SWAP1 PUSH2 0x1C37 DUP3 PUSH2 0x18F8 JUMP JUMPDEST PUSH1 0x20 DUP3 MSTORE PUSH32 0x426173655265776172643A20436F6E747261637420696E697469616C697A6564 PUSH1 0x20 DUP4 ADD MSTORE JUMP JUMPDEST ISZERO PUSH2 0x1C6A JUMPI JUMP JUMPDEST PUSH1 0x40 MLOAD PUSH3 0x461BCD PUSH1 0xE5 SHL DUP2 MSTORE PUSH1 0x20 PUSH1 0x4 DUP3 ADD MSTORE PUSH1 0x27 PUSH1 0x24 DUP3 ADD MSTORE PUSH32 0x446973747269627574696F6E2064617465206D75737420626520696E20746865 PUSH1 0x44 DUP3 ADD MSTORE PUSH7 0x20667574757265 PUSH1 0xC8 SHL PUSH1 0x64 DUP3 ADD MSTORE PUSH1 0x84 SWAP1 REVERT JUMPDEST SWAP1 DUP2 MLOAD DUP3 ADD PUSH1 0x20 PUSH1 0xA0 DUP5 DUP3 DUP5 ADD SWAP4 SUB SLT PUSH2 0x18F3 JUMPI DUP1 DUP5 ADD MLOAD SWAP1 PUSH8 0xFFFFFFFFFFFFFFFF SWAP2 DUP3 DUP2 GT PUSH2 0x18F3 JUMPI DUP6 ADD SWAP5 DUP4 PUSH1 0x3F DUP8 ADD SLT ISZERO PUSH2 0x18F3 JUMPI DUP2 DUP7 ADD MLOAD SWAP6 PUSH2 0x1D05 DUP8 PUSH2 0x1968 JUMP JUMPDEST SWAP7 PUSH1 0x40 SWAP6 PUSH2 0x1D15 DUP8 MLOAD SWAP10 DUP11 PUSH2 0x1946 JUMP JUMPDEST DUP2 DUP10 MSTORE DUP7 DUP3 DUP5 ADD ADD GT PUSH2 0x18F3 JUMPI PUSH2 0x1D31 SWAP2 DUP7 DUP6 DUP11 ADD SWAP2 ADD PUSH2 0x1895 JUMP JUMPDEST DUP4 DUP2 ADD MLOAD PUSH1 0x60 DUP3 ADD MLOAD SWAP1 PUSH1 0x80 DUP4 ADD MLOAD SWAP5 DUP6 ISZERO ISZERO SWAP4 DUP5 DUP8 SUB PUSH2 0x18F3 JUMPI PUSH1 0xA0 ADD MLOAD SWAP7 DUP10 MLOAD ISZERO PUSH2 0x1FA1 JUMPI DUP3 ISZERO PUSH2 0x1F68 JUMPI DUP7 PUSH2 0x1F58 JUMPI JUMPDEST DUP1 MLOAD PUSH1 0xA0 DUP2 ADD SWAP2 DUP2 DUP4 LT DUP5 DUP5 GT OR PUSH2 0x1914 JUMPI PUSH1 0x80 SWAP3 DUP2 MSTORE DUP12 DUP3 MSTORE DUP8 DUP3 ADD SWAP5 DUP6 MSTORE DUP2 ADD SWAP5 DUP6 MSTORE PUSH1 0x60 DUP2 ADD SWAP6 DUP7 MSTORE ADD SWAP5 DUP8 DUP7 MSTORE DUP10 MLOAD SWAP2 DUP3 GT PUSH2 0x1914 JUMPI PUSH2 0x1DA9 PUSH1 0x7 SLOAD PUSH2 0x19FC JUMP JUMPDEST PUSH1 0x1F DUP2 GT PUSH2 0x1EF3 JUMPI JUMPDEST POP DUP1 PUSH1 0x1F DUP4 GT PUSH1 0x1 EQ PUSH2 0x1E68 JUMPI POP DUP2 SWAP1 PUSH1 0x1 SWAP8 SWAP9 SWAP10 SWAP11 PUSH1 0x0 SWAP3 PUSH2 0x1E5D JUMPI JUMPDEST POP POP PUSH1 0x0 NOT PUSH1 0x3 DUP4 SWAP1 SHL SHR NOT AND SWAP1 DUP7 SHL OR PUSH1 0x7 SSTORE JUMPDEST MLOAD PUSH1 0x8 SSTORE MLOAD PUSH1 0x9 SSTORE MLOAD ISZERO ISZERO SWAP1 PUSH1 0xFF NOT SWAP2 PUSH1 0xFF DUP4 PUSH1 0xA SLOAD AND SWAP2 AND OR PUSH1 0xA SSTORE MLOAD PUSH1 0xB SSTORE PUSH1 0x6 SLOAD AND OR PUSH1 0x6 SSTORE TIMESTAMP PUSH1 0x4 SSTORE PUSH1 0x0 EQ PUSH2 0x1E31 JUMPI PUSH1 0x5 SSTORE JUMPDEST PUSH1 0xC DUP1 SLOAD PUSH1 0x1 PUSH1 0x1 PUSH1 0xA0 SHL SUB NOT AND CALLER OR SWAP1 SSTORE JUMP JUMPDEST POP PUSH3 0x278D00 TIMESTAMP ADD DUP1 TIMESTAMP GT PUSH2 0x1E47 JUMPI PUSH1 0x5 SSTORE PUSH2 0x1E1D JUMP JUMPDEST PUSH4 0x4E487B71 PUSH1 0xE0 SHL PUSH1 0x0 MSTORE PUSH1 0x11 PUSH1 0x4 MSTORE PUSH1 0x24 PUSH1 0x0 REVERT JUMPDEST ADD MLOAD SWAP1 POP CODESIZE DUP1 PUSH2 0x1DD0 JUMP JUMPDEST SWAP10 PUSH1 0x1F NOT DUP4 AND PUSH1 0x7 PUSH1 0x0 MSTORE PUSH32 0xA66CC928B5EDB82AF9BD49922954155AB7B0942694BEA4CE44661D9A8736C688 SWAP12 PUSH1 0x0 SWAP1 JUMPDEST DUP3 DUP3 LT PUSH2 0x1EDB JUMPI POP POP SWAP2 PUSH1 0x1 SWAP9 SWAP10 SWAP11 SWAP12 SWAP2 DUP5 DUP11 SWAP6 SWAP5 LT PUSH2 0x1EC2 JUMPI JUMPDEST POP POP POP DUP2 SHL ADD PUSH1 0x7 SSTORE PUSH2 0x1DE5 JUMP JUMPDEST ADD MLOAD PUSH1 0x0 NOT PUSH1 0xF8 DUP5 PUSH1 0x3 SHL AND SHR NOT AND SWAP1 SSTORE CODESIZE DUP1 DUP1 PUSH2 0x1EB4 JUMP JUMPDEST DUP1 PUSH1 0x1 DUP7 SWAP16 DUP3 SWAP5 SWAP8 DUP8 ADD MLOAD DUP2 SSTORE ADD SWAP15 ADD SWAP5 ADD SWAP1 PUSH2 0x1E99 JUMP JUMPDEST PUSH1 0x0 PUSH1 0x7 DUP2 MSTORE PUSH32 0xA66CC928B5EDB82AF9BD49922954155AB7B0942694BEA4CE44661D9A8736C688 PUSH1 0x1F DUP6 ADD PUSH1 0x5 SHR DUP2 ADD SWAP3 DUP5 DUP7 LT PUSH2 0x1F4E JUMPI JUMPDEST PUSH1 0x1F ADD PUSH1 0x5 SHR ADD SWAP2 JUMPDEST DUP3 DUP2 LT PUSH2 0x1F43 JUMPI POP POP PUSH2 0x1DB2 JUMP JUMPDEST DUP2 DUP2 SSTORE PUSH1 0x1 ADD PUSH2 0x1F35 JUMP JUMPDEST SWAP1 SWAP3 POP DUP3 SWAP1 PUSH2 0x1F2C JUMP JUMPDEST PUSH2 0x1F63 TIMESTAMP DUP10 GT PUSH2 0x1C63 JUMP JUMPDEST PUSH2 0x1D64 JUMP JUMPDEST MLOAD PUSH3 0x461BCD PUSH1 0xE5 SHL DUP2 MSTORE PUSH1 0x4 DUP2 ADD DUP7 SWAP1 MSTORE PUSH1 0x13 PUSH1 0x24 DUP3 ADD MSTORE PUSH19 0x125B9D985B1A59081CDC1BDD1CC818DBDD5B9D PUSH1 0x6A SHL PUSH1 0x44 DUP3 ADD MSTORE PUSH1 0x64 SWAP1 REVERT JUMPDEST MLOAD PUSH3 0x461BCD PUSH1 0xE5 SHL DUP2 MSTORE PUSH1 0x4 DUP2 ADD DUP7 SWAP1 MSTORE PUSH1 0x13 PUSH1 0x24 DUP3 ADD MSTORE PUSH19 0x496E76616C696420726166666C65206E616D65 PUSH1 0x68 SHL PUSH1 0x44 DUP3 ADD MSTORE PUSH1 0x64 SWAP1 REVERT JUMPDEST PUSH1 0xA0 SWAP1 MLOAD LT PUSH2 0x1FE8 JUMPI PUSH1 0x1 SWAP1 JUMP JUMPDEST PUSH1 0x0 SWAP1 JUMP JUMPDEST PUSH1 0x40 MLOAD SWAP1 PUSH2 0x1FFA DUP3 PUSH2 0x18F8 JUMP JUMPDEST PUSH1 0x1C DUP3 MSTORE PUSH32 0x426173655265776172643A207768656E41637469766520636865636B00000000 PUSH1 0x20 DUP4 ADD MSTORE JUMP JUMPDEST PUSH1 0x40 MLOAD SWAP1 PUSH2 0x2033 DUP3 PUSH2 0x18F8 JUMP JUMPDEST PUSH1 0x1A DUP3 MSTORE PUSH32 0x426173655265776172643A20416374697665207374617475733A000000000000 PUSH1 0x20 DUP4 ADD MSTORE JUMP JUMPDEST PUSH1 0x40 MLOAD SWAP1 PUSH2 0x206C DUP3 PUSH2 0x18F8 JUMP JUMPDEST PUSH1 0x1E DUP3 MSTORE PUSH32 0x426173655265776172643A2043757272656E742074696D657374616D703A0000 PUSH1 0x20 DUP4 ADD MSTORE JUMP JUMPDEST PUSH1 0x40 MLOAD SWAP1 PUSH2 0x20A5 DUP3 PUSH2 0x18F8 JUMP JUMPDEST PUSH1 0x1D DUP3 MSTORE PUSH32 0x426173655265776172643A20436C61696D20737461727420646174653A000000 PUSH1 0x20 DUP4 ADD MSTORE JUMP JUMPDEST PUSH1 0x40 MLOAD SWAP1 PUSH2 0x20DE DUP3 PUSH2 0x18F8 JUMP JUMPDEST PUSH1 0x1E DUP3 MSTORE PUSH32 0x426173655265776172643A20436C61696D2066696E69736820646174653A0000 PUSH1 0x20 DUP4 ADD MSTORE JUMP JUMPDEST ISZERO PUSH2 0x2111 JUMPI JUMP JUMPDEST PUSH1 0x40 MLOAD PUSH3 0x461BCD PUSH1 0xE5 SHL DUP2 MSTORE PUSH1 0x20 PUSH1 0x4 DUP3 ADD MSTORE PUSH1 0x14 PUSH1 0x24 DUP3 ADD MSTORE PUSH20 0x526577617264206973206E6F7420616374697665 PUSH1 0x60 SHL PUSH1 0x44 DUP3 ADD MSTORE PUSH1 0x64 SWAP1 REVERT JUMPDEST PUSH1 0x40 MLOAD SWAP1 PUSH2 0x215A DUP3 PUSH2 0x18F8 JUMP JUMPDEST PUSH1 0x1F DUP3 MSTORE PUSH32 0x426173655265776172643A2057697468696E2074696D652077696E646F773A00 PUSH1 0x20 DUP4 ADD MSTORE JUMP JUMPDEST ISZERO PUSH2 0x218D JUMPI JUMP JUMPDEST PUSH1 0x40 MLOAD PUSH3 0x461BCD PUSH1 0xE5 SHL DUP2 MSTORE PUSH1 0x20 PUSH1 0x4 DUP3 ADD MSTORE PUSH1 0x14 PUSH1 0x24 DUP3 ADD MSTORE PUSH20 0x13DD5D1CDA59194818DB185A5B481C195C9A5BD9 PUSH1 0x62 SHL PUSH1 0x44 DUP3 ADD MSTORE PUSH1 0x64 SWAP1 REVERT JUMPDEST PUSH1 0x2 PUSH1 0x1 SLOAD EQ PUSH2 0x21DA JUMPI PUSH1 0x2 PUSH1 0x1 SSTORE JUMP JUMPDEST PUSH1 0x40 MLOAD PUSH3 0x461BCD PUSH1 0xE5 SHL DUP2 MSTORE PUSH1 0x20 PUSH1 0x4 DUP3 ADD MSTORE PUSH1 0x1F PUSH1 0x24 DUP3 ADD MSTORE PUSH32 0x5265656E7472616E637947756172643A207265656E7472616E742063616C6C00 PUSH1 0x44 DUP3 ADD MSTORE PUSH1 0x64 SWAP1 REVERT JUMPDEST ISZERO PUSH2 0x2226 JUMPI JUMP JUMPDEST PUSH1 0x40 MLOAD PUSH3 0x461BCD PUSH1 0xE5 SHL DUP2 MSTORE PUSH1 0x20 PUSH1 0x4 DUP3 ADD MSTORE PUSH1 0xE PUSH1 0x24 DUP3 ADD MSTORE PUSH14 0x139BDD08185D5D1A1BDC9A5E9959 PUSH1 0x92 SHL PUSH1 0x44 DUP3 ADD MSTORE PUSH1 0x64 SWAP1 REVERT JUMPDEST ISZERO PUSH2 0x2263 JUMPI JUMP JUMPDEST PUSH1 0x40 MLOAD PUSH3 0x461BCD PUSH1 0xE5 SHL DUP2 MSTORE PUSH1 0x20 PUSH1 0x4 DUP3 ADD MSTORE PUSH1 0xC PUSH1 0x24 DUP3 ADD MSTORE PUSH12 0x2737BA1030903BB4B73732B9 PUSH1 0xA1 SHL PUSH1 0x44 DUP3 ADD MSTORE PUSH1 0x64 SWAP1 REVERT JUMPDEST PUSH1 0x0 NOT DUP2 EQ PUSH2 0x1E47 JUMPI PUSH1 0x1 ADD SWAP1 JUMP JUMPDEST PUSH2 0x1A71 SWAP1 PUSH1 0x40 SWAP1 PUSH2 0x22F6 DUP2 DUP4 MLOAD PUSH2 0x22BC DUP2 PUSH2 0x192A JUMP JUMPDEST PUSH1 0x23 DUP2 MSTORE PUSH32 0x426173655265776172643A20547261636B696E6720636C61696D20666F722075 PUSH1 0x20 DUP3 ADD MSTORE PUSH3 0x39B2B9 PUSH1 0xE9 SHL DUP6 DUP3 ADD MSTORE PUSH2 0x25F7 JUMP JUMPDEST PUSH1 0x1 PUSH1 0x1 PUSH1 0xA0 SHL SUB AND PUSH1 0x0 DUP2 DUP2 MSTORE PUSH1 0x2 PUSH1 0x20 MSTORE DUP3 SWAP1 KECCAK256 DUP1 SLOAD PUSH1 0xFF NOT AND PUSH1 0x1 OR SWAP1 SSTORE PUSH1 0x3 SLOAD SWAP1 SWAP2 SWAP1 PUSH2 0x2326 SWAP1 PUSH2 0x2297 JUMP JUMPDEST SWAP2 DUP3 PUSH1 0x3 SSTORE PUSH32 0xD8138F8A3F377C5259CA548E70E4C2DE94F129F5A11036A15B69513CBA2B426A PUSH1 0x20 DUP4 MLOAD TIMESTAMP DUP2 MSTORE LOG2 PUSH21 0x39B33AB6363C96103A37BA30B61031B630B4B6B99D PUSH1 0x59 SHL DUP2 MLOAD SWAP2 PUSH2 0x2379 DUP4 PUSH2 0x192A JUMP JUMPDEST PUSH1 0x35 DUP4 MSTORE PUSH32 0x426173655265776172643A20436C61696D20747261636B656420737563636573 PUSH1 0x20 DUP5 ADD MSTORE DUP3 ADD MSTORE PUSH2 0x256B JUMP JUMPDEST SWAP2 SWAP1 DUP2 LT ISZERO PUSH2 0x23BB JUMPI PUSH1 0x5 SHL ADD SWAP1 JUMP JUMPDEST PUSH4 0x4E487B71 PUSH1 0xE0 SHL PUSH1 0x0 MSTORE PUSH1 0x32 PUSH1 0x4 MSTORE PUSH1 0x24 PUSH1 0x0 REVERT JUMPDEST CALLDATALOAD PUSH1 0x1 PUSH1 0x1 PUSH1 0xA0 SHL SUB DUP2 AND DUP2 SUB PUSH2 0x18F3 JUMPI SWAP1 JUMP JUMPDEST PUSH1 0x1 PUSH1 0x1 PUSH1 0xA0 SHL SUB AND PUSH1 0x0 DUP2 DUP2 MSTORE PUSH1 0xE PUSH1 0x20 MSTORE PUSH1 0x40 SWAP1 KECCAK256 DUP1 SLOAD PUSH1 0xFF DUP2 AND ISZERO PUSH2 0x240C JUMPI POP POP POP JUMP JUMPDEST PUSH1 0xFF NOT AND PUSH1 0x1 OR SWAP1 SSTORE PUSH1 0x10 SLOAD PUSH2 0x2421 SWAP1 PUSH2 0x2297 JUMP JUMPDEST PUSH1 0x10 SSTORE PUSH32 0x9C954464132321181183C4F89C263BC648CED7476B263F18A0EEAC9C552B6E9B PUSH1 0x20 PUSH1 0x40 MLOAD TIMESTAMP DUP2 MSTORE LOG2 JUMP JUMPDEST PUSH1 0xFF PUSH1 0x6 SLOAD AND ISZERO PUSH2 0x24DF JUMPI PUSH1 0x1 PUSH1 0x1 PUSH1 0xA0 SHL SUB AND PUSH1 0x0 SWAP1 DUP2 MSTORE PUSH1 0x2 PUSH1 0x20 MSTORE PUSH1 0x40 DUP2 KECCAK256 SLOAD PUSH1 0xFF AND PUSH2 0x24B2 JUMPI PUSH1 0xD PUSH1 0x20 MSTORE PUSH1 0xFF PUSH1 0x40 DUP3 KECCAK256 SLOAD AND ISZERO PUSH2 0x24B2 JUMPI PUSH1 0xFF PUSH1 0xA SLOAD AND DUP1 PUSH2 0x24D3 JUMPI JUMPDEST PUSH2 0x24B2 JUMPI PUSH1 0x4 SLOAD TIMESTAMP LT DUP1 ISZERO PUSH2 0x24B5 JUMPI JUMPDEST PUSH2 0x24B2 JUMPI POP PUSH1 0x1 SWAP1 JUMP JUMPDEST SWAP1 JUMP JUMPDEST POP PUSH1 0x5 SLOAD DUP1 ISZERO ISZERO SWAP1 DUP2 PUSH2 0x24C9 JUMPI JUMPDEST POP PUSH2 0x24A8 JUMP JUMPDEST SWAP1 POP TIMESTAMP GT CODESIZE PUSH2 0x24C3 JUMP JUMPDEST POP PUSH1 0xB SLOAD TIMESTAMP LT ISZERO PUSH2 0x2498 JUMP JUMPDEST POP PUSH1 0x0 SWAP1 JUMP JUMPDEST ISZERO PUSH2 0x24EC JUMPI JUMP JUMPDEST PUSH1 0x40 MLOAD PUSH3 0x461BCD PUSH1 0xE5 SHL DUP2 MSTORE PUSH1 0x20 PUSH1 0x4 DUP3 ADD MSTORE PUSH1 0x16 PUSH1 0x24 DUP3 ADD MSTORE PUSH22 0x496E76616C69642077696E6E65722061646472657373 PUSH1 0x50 SHL PUSH1 0x44 DUP3 ADD MSTORE PUSH1 0x64 SWAP1 REVERT JUMPDEST PUSH1 0x0 DUP1 SWAP2 PUSH1 0x40 MLOAD PUSH2 0x2558 DUP2 PUSH2 0x602 PUSH1 0x20 DUP3 ADD SWAP5 PUSH4 0x104C13EB PUSH1 0xE2 SHL DUP7 MSTORE PUSH1 0x20 PUSH1 0x24 DUP5 ADD MSTORE PUSH1 0x44 DUP4 ADD SWAP1 PUSH2 0x18B8 JUMP JUMPDEST MLOAD SWAP1 PUSH11 0x636F6E736F6C652E6C6F67 GAS STATICCALL POP JUMP JUMPDEST PUSH1 0x0 SWAP2 SWAP1 DUP3 SWAP2 PUSH2 0x2558 PUSH1 0x40 MLOAD DUP1 SWAP3 PUSH2 0x259C PUSH1 0x20 DUP4 ADD SWAP6 PUSH4 0x2D839CB3 PUSH1 0xE2 SHL DUP8 MSTORE PUSH1 0x40 PUSH1 0x24 DUP6 ADD MSTORE PUSH1 0x64 DUP5 ADD SWAP1 PUSH2 0x18B8 JUMP JUMPDEST SWAP1 PUSH1 0x44 DUP4 ADD MSTORE SUB PUSH1 0x1F NOT DUP2 ADD DUP4 MSTORE DUP3 PUSH2 0x1946 JUMP JUMPDEST PUSH1 0x0 SWAP2 SWAP1 DUP3 SWAP2 PUSH2 0x2558 PUSH1 0x40 MLOAD DUP1 SWAP3 PUSH2 0x25E1 PUSH1 0x20 DUP4 ADD SWAP6 PUSH4 0xC3B55635 PUSH1 0xE0 SHL DUP8 MSTORE PUSH1 0x40 PUSH1 0x24 DUP6 ADD MSTORE PUSH1 0x64 DUP5 ADD SWAP1 PUSH2 0x18B8 JUMP JUMPDEST SWAP1 ISZERO ISZERO PUSH1 0x44 DUP4 ADD MSTORE SUB PUSH1 0x1F NOT DUP2 ADD DUP4 MSTORE DUP3 PUSH2 0x1946 JUMP JUMPDEST PUSH1 0x0 SWAP2 SWAP1 DUP3 SWAP2 PUSH2 0x2558 PUSH1 0x40 MLOAD DUP1 SWAP3 PUSH2 0x2628 PUSH1 0x20 DUP4 ADD SWAP6 PUSH4 0x319AF333 PUSH1 0xE0 SHL DUP8 MSTORE PUSH1 0x40 PUSH1 0x24 DUP6 ADD MSTORE PUSH1 0x64 DUP5 ADD SWAP1 PUSH2 0x18B8 JUMP JUMPDEST PUSH1 0x1 PUSH1 0x1 PUSH1 0xA0 SHL SUB SWAP2 SWAP1 SWAP2 AND PUSH1 0x44 DUP4 ADD MSTORE SUB PUSH1 0x1F NOT DUP2 ADD DUP4 MSTORE DUP3 PUSH2 0x1946 JUMP INVALID LOG2 PUSH5 0x6970667358 0x22 SLT KECCAK256 GASPRICE DIV MSTORE PUSH16 0xF78921F277119647BA54F70E0961B1E8 PUSH8 0xFA238DE2E43FB3C9 GT 0xB8 0xBD PUSH5 0x736F6C6343 STOP ADDMOD EQ STOP CALLER "},"methodIdentifiers":{"activate()":"0f15f4c0","active()":"02fb0c5e","addWinner(address)":"297f407b","assignSpot()":"1aa366f5","canClaim(address)":"bf3506c1","checkAssignmentStatus(address)":"87c1f40a","checkWinnerStatus(address)":"1b7ff614","claim(address)":"1e83409a","claimFinishDate()":"b71b7a32","claimStartDate()":"5f03b6b2","config()":"79502c55","controller()":"f77c4791","deactivate()":"51b42b00","extendClaimPeriod(uint256)":"d5defd3c","getAssignedCount()":"c6dd828f","getRaffleStats()":"10beb070","getRewardType()":"8a51f860","getWinnerCount()":"a46c3637","hasClaimed(address)":"73b2e80e","initialize(bytes)":"439fab91","initializeClone(bytes,address,address)":"6f60049f","isAssigned(address)":"8c153eb8","isClaimPeriodActive()":"74ea186d","isInitialized()":"392e53cd","isWinner(address)":"9d9ca28d","owner()":"8da5cb5b","processFeeOnClaim(address)":"93903df3","processFeeWithDiscount(address,uint256,bytes32[])":"4a313aae","removeWinner(address)":"fa063d16","renounceOwnership()":"715018a6","setAutomaticDistribution(bool,uint256)":"8bb0401d","setClaimPeriod(uint256,uint256)":"df6ec1bd","setController(address)":"92eefe9b","setWinners(address[])":"445e6b39","totalAssigned()":"46bdda02","totalClaims()":"41c61383","totalWinners()":"bcc941b6","transferOwnership(address)":"f2fde38b","triggerAutomaticDistribution(address[])":"809b9cf6","validateConfig(bytes)":"a913b881"}}}}}