{"contracts/rewards/WhitelistSpots.sol":{"WhitelistSpots":{"abi":[{"anonymous":false,"inputs":[],"name":"AutomaticDistributionDisabled","type":"event"},{"anonymous":false,"inputs":[{"indexed":false,"internalType":"uint256","name":"distributionDate","type":"uint256"}],"name":"AutomaticDistributionEnabled","type":"event"},{"anonymous":false,"inputs":[{"indexed":false,"internalType":"uint256","name":"startDate","type":"uint256"},{"indexed":false,"internalType":"uint256","name":"finishDate","type":"uint256"}],"name":"ClaimPeriodUpdated","type":"event"},{"anonymous":false,"inputs":[{"indexed":true,"internalType":"address","name":"user","type":"address"},{"indexed":false,"internalType":"uint256","name":"timestamp","type":"uint256"}],"name":"Claimed","type":"event"},{"anonymous":false,"inputs":[{"indexed":false,"internalType":"address","name":"controller","type":"address"}],"name":"ControllerUpdated","type":"event"},{"anonymous":false,"inputs":[{"indexed":false,"internalType":"address[]","name":"users","type":"address[]"},{"indexed":false,"internalType":"uint256","name":"timestamp","type":"uint256"}],"name":"EligibleBatch","type":"event"},{"anonymous":false,"inputs":[{"indexed":true,"internalType":"address","name":"user","type":"address"},{"indexed":false,"internalType":"uint256","name":"timestamp","type":"uint256"}],"name":"EligibleRemoved","type":"event"},{"anonymous":false,"inputs":[{"indexed":true,"internalType":"address","name":"user","type":"address"},{"indexed":false,"internalType":"uint256","name":"timestamp","type":"uint256"}],"name":"EligibleSingle","type":"event"},{"anonymous":false,"inputs":[{"indexed":true,"internalType":"address","name":"previousOwner","type":"address"},{"indexed":true,"internalType":"address","name":"newOwner","type":"address"}],"name":"OwnershipTransferred","type":"event"},{"anonymous":false,"inputs":[{"indexed":true,"internalType":"address","name":"user","type":"address"},{"indexed":false,"internalType":"uint256","name":"timestamp","type":"uint256"}],"name":"SpotAssigned","type":"event"},{"anonymous":false,"inputs":[{"indexed":false,"internalType":"bool","name":"active","type":"bool"}],"name":"StatusChanged","type":"event"},{"inputs":[],"name":"activate","outputs":[],"stateMutability":"nonpayable","type":"function"},{"inputs":[],"name":"active","outputs":[{"internalType":"bool","name":"","type":"bool"}],"stateMutability":"view","type":"function"},{"inputs":[{"internalType":"address","name":"user","type":"address"}],"name":"addEligible","outputs":[],"stateMutability":"nonpayable","type":"function"},{"inputs":[{"internalType":"address[]","name":"users","type":"address[]"}],"name":"addEligibleBatch","outputs":[],"stateMutability":"nonpayable","type":"function"},{"inputs":[],"name":"assignSpot","outputs":[],"stateMutability":"nonpayable","type":"function"},{"inputs":[{"internalType":"address","name":"user","type":"address"}],"name":"canClaim","outputs":[{"internalType":"bool","name":"","type":"bool"}],"stateMutability":"view","type":"function"},{"inputs":[{"internalType":"address","name":"user","type":"address"}],"name":"checkAssignmentStatus","outputs":[{"internalType":"bool","name":"","type":"bool"}],"stateMutability":"view","type":"function"},{"inputs":[{"internalType":"address","name":"user","type":"address"}],"name":"checkEligibilityStatus","outputs":[{"internalType":"bool","name":"","type":"bool"},{"internalType":"bool","name":"","type":"bool"}],"stateMutability":"view","type":"function"},{"inputs":[{"internalType":"address","name":"user","type":"address"}],"name":"claim","outputs":[],"stateMutability":"nonpayable","type":"function"},{"inputs":[],"name":"claimFinishDate","outputs":[{"internalType":"uint256","name":"","type":"uint256"}],"stateMutability":"view","type":"function"},{"inputs":[],"name":"claimStartDate","outputs":[{"internalType":"uint256","name":"","type":"uint256"}],"stateMutability":"view","type":"function"},{"inputs":[],"name":"config","outputs":[{"internalType":"string","name":"whitelistName","type":"string"},{"internalType":"bool","name":"automaticDistribution","type":"bool"},{"internalType":"uint256","name":"distributionDate","type":"uint256"}],"stateMutability":"view","type":"function"},{"inputs":[],"name":"controller","outputs":[{"internalType":"address","name":"","type":"address"}],"stateMutability":"view","type":"function"},{"inputs":[],"name":"deactivate","outputs":[],"stateMutability":"nonpayable","type":"function"},{"inputs":[{"internalType":"uint256","name":"extension","type":"uint256"}],"name":"extendClaimPeriod","outputs":[],"stateMutability":"nonpayable","type":"function"},{"inputs":[],"name":"getAssignedCount","outputs":[{"internalType":"uint256","name":"","type":"uint256"}],"stateMutability":"view","type":"function"},{"inputs":[],"name":"getEligibleCount","outputs":[{"internalType":"uint256","name":"","type":"uint256"}],"stateMutability":"view","type":"function"},{"inputs":[],"name":"getRewardType","outputs":[{"internalType":"string","name":"","type":"string"}],"stateMutability":"pure","type":"function"},{"inputs":[],"name":"getWhitelistStats","outputs":[{"internalType":"string","name":"whitelistName","type":"string"},{"internalType":"uint256","name":"eligibleCount","type":"uint256"},{"internalType":"uint256","name":"assignedCount","type":"uint256"},{"internalType":"uint256","name":"totalClaimsCount","type":"uint256"},{"internalType":"bool","name":"isAutomatic","type":"bool"},{"internalType":"uint256","name":"distributionDate","type":"uint256"}],"stateMutability":"view","type":"function"},{"inputs":[{"internalType":"address","name":"","type":"address"}],"name":"hasClaimed","outputs":[{"internalType":"bool","name":"","type":"bool"}],"stateMutability":"view","type":"function"},{"inputs":[{"internalType":"bytes","name":"configData","type":"bytes"}],"name":"initialize","outputs":[],"stateMutability":"nonpayable","type":"function"},{"inputs":[{"internalType":"bytes","name":"config","type":"bytes"},{"internalType":"address","name":"owner","type":"address"},{"internalType":"address","name":"controller","type":"address"}],"name":"initializeClone","outputs":[],"stateMutability":"nonpayable","type":"function"},{"inputs":[{"internalType":"address","name":"","type":"address"}],"name":"isAssigned","outputs":[{"internalType":"bool","name":"","type":"bool"}],"stateMutability":"view","type":"function"},{"inputs":[],"name":"isClaimPeriodActive","outputs":[{"internalType":"bool","name":"","type":"bool"}],"stateMutability":"view","type":"function"},{"inputs":[{"internalType":"address","name":"","type":"address"}],"name":"isEligible","outputs":[{"internalType":"bool","name":"","type":"bool"}],"stateMutability":"view","type":"function"},{"inputs":[],"name":"isInitialized","outputs":[{"internalType":"bool","name":"","type":"bool"}],"stateMutability":"view","type":"function"},{"inputs":[],"name":"owner","outputs":[{"internalType":"address","name":"","type":"address"}],"stateMutability":"view","type":"function"},{"inputs":[{"internalType":"address","name":"user","type":"address"}],"name":"processFeeOnClaim","outputs":[{"internalType":"bool","name":"","type":"bool"}],"stateMutability":"nonpayable","type":"function"},{"inputs":[{"internalType":"address","name":"user","type":"address"},{"internalType":"uint256","name":"discountRate","type":"uint256"},{"internalType":"bytes32[]","name":"merkleProof","type":"bytes32[]"}],"name":"processFeeWithDiscount","outputs":[{"internalType":"bool","name":"","type":"bool"}],"stateMutability":"nonpayable","type":"function"},{"inputs":[{"internalType":"address","name":"user","type":"address"}],"name":"removeEligible","outputs":[],"stateMutability":"nonpayable","type":"function"},{"inputs":[],"name":"renounceOwnership","outputs":[],"stateMutability":"nonpayable","type":"function"},{"inputs":[{"internalType":"bool","name":"enable","type":"bool"},{"internalType":"uint256","name":"newDistributionDate","type":"uint256"}],"name":"setAutomaticDistribution","outputs":[],"stateMutability":"nonpayable","type":"function"},{"inputs":[{"internalType":"uint256","name":"startDate","type":"uint256"},{"internalType":"uint256","name":"finishDate","type":"uint256"}],"name":"setClaimPeriod","outputs":[],"stateMutability":"nonpayable","type":"function"},{"inputs":[{"internalType":"address","name":"_controller","type":"address"}],"name":"setController","outputs":[],"stateMutability":"nonpayable","type":"function"},{"inputs":[],"name":"totalAssigned","outputs":[{"internalType":"uint256","name":"","type":"uint256"}],"stateMutability":"view","type":"function"},{"inputs":[],"name":"totalClaims","outputs":[{"internalType":"uint256","name":"","type":"uint256"}],"stateMutability":"view","type":"function"},{"inputs":[],"name":"totalEligible","outputs":[{"internalType":"uint256","name":"","type":"uint256"}],"stateMutability":"view","type":"function"},{"inputs":[{"internalType":"address","name":"newOwner","type":"address"}],"name":"transferOwnership","outputs":[],"stateMutability":"nonpayable","type":"function"},{"inputs":[{"internalType":"address[]","name":"users","type":"address[]"}],"name":"triggerAutomaticDistribution","outputs":[],"stateMutability":"nonpayable","type":"function"},{"inputs":[{"internalType":"bytes","name":"configData","type":"bytes"}],"name":"validateConfig","outputs":[{"internalType":"bool","name":"","type":"bool"}],"stateMutability":"pure","type":"function"}],"evm":{"bytecode":{"linkReferences":{},"object":"608060409080825234620001055762000018336200010a565b600180556001600160401b03908083019082821181831017620000ef576200006c918452601e81527f426173655265776172643a20436f6e7374727563746f722063616c6c65640000602082015262000151565b61010061ff0019600654161760065562000086336200010a565b81516060810191821181831017620000ef57620000e1918352602a81527f426173655265776172643a20496d706c656d656e746174696f6e20636f6e74726020820152691858dd081b1bd8dad95960b21b8382015262000151565b516125bd9081620001ee8239f35b634e487b7160e01b600052604160045260246000fd5b600080fd5b600080546001600160a01b039283166001600160a01b03198216811783559216907f8be0079c531659141344cd1fd0a4f28419497f9722a3daafe3b4186f6b6457e09080a3565b60405190602090828281019263104c13eb60e21b845280602483015282519283604484015260005b848110620001d557505050808260006064601f9560839501015283199384910116810103604481018552011682019082821060018060401b03831117620000ef57600092839260405251906a636f6e736f6c652e6c6f675afa50565b8181018301518782016064015286935082016200017956fe60806040908082526004918236101561001757600080fd5b600091823560e01c90816302fb0c5e1461181457508063031fd05614611310578063085e8876146117b15780630f15f4c0146116e75780631aa366f51461154d5780631e83409a1461137b578063231306321461132e5780633138ffe714611310578063392e53cd146112ea57806341c61383146112cc578063439fab911461128057806346bdda02146107955780634a313aae1461123857806351b42b001461117257806352826f05146110a15780635f03b6b2146110835780636609c55d14610f8857806366e305fd14610f4b5780636f60049f14610d67578063715018a614610d0d57806373b2e80e14610cd057806374ea186d14610c7057806379502c5514610c25578063809b9cf614610a8457806387c1f40a1461091e5780638a51f86014610a325780638bb0401d1461095b5780638c153eb81461091e5780638da5cb5b146108f757806392eefe9b1461086457806393903df31461083f578063a913b881146107ff578063b71b7a32146107e1578063bf3506c1146107b3578063c6dd828f14610795578063d5defd3c1461059e578063df6ec1bd14610403578063f2fde38b14610371578063f77c4791146103495763fcca97a5146101dd57600080fd5b346103455760208060031936011261034157833567ffffffffffffffff811161033d5761020d903690860161196b565b9094610217611a94565b81156103065750835b81811061029b57508083519380850190855252606083019490845b818110610271574284860152857f8092c17ff3eef707aa6c5483c853d95831bec1f3d44afbe3cb72afa338a82e0786890387a180f35b909195863560018060a01b0381168091036102975781528301958301919060010161023b565b8680fd5b6102e2906001600160a01b036102ba6102b583868b6122ed565b612313565b166102c6811515612427565b8652600b8452848620805460ff8116156102e7575b50506121d9565b610220565b60ff19166001179055600d80546102fd906121d9565b905538806102db565b835162461bcd60e51b81529081018390526011602482015270139bc81d5cd95c9cc81c1c9bdd9a591959607a1b6044820152606490fd5b8380fd5b8280fd5b5080fd5b5034610345578160031936011261034557600a5490516001600160a01b039091168152602090f35b5082346103415760203660031901126103415761038c61187d565b91610395611a94565b6001600160a01b038316156103b157836103ae84611aec565b80f35b906020608492519162461bcd60e51b8352820152602660248201527f4f776e61626c653a206e6577206f776e657220697320746865207a65726f206160448201526564647265737360d01b6064820152fd5b508290346103415780600319360112610341578135602435610423611a94565b808211801590610596575b1561055c57917fc43f4c577663ce7707a53baebf64360730cf3c3a19c52c07a90cee2aff1210a281836103ae96957f426173655265776172643a20436c61696d20706572696f6420757064617465649583519761048a89611898565b6104bd6020998a81527f426173655265776172643a2053657474696e6720636c61696d20706572696f648b82015261246a565b6104fa8286516104cc81611898565b601781527f426173655265776172643a20537461727420646174653a0000000000000000008c8201526124ab565b61053783865161050981611898565b601881527f426173655265776172643a2046696e69736820646174653a00000000000000008c8201526124ab565b5580600555825191825286820152a1519161055183611898565b80835282015261246a565b825162461bcd60e51b81526020818601526014602482015273125b9d985b1a590818db185a5b481c195c9a5bd960621b6044820152606490fd5b50801561042e565b503461034557602080600319360112610341578335916105bc611a94565b60055492831561075d57848083516105d3816118ca565b602581527f426173655265776172643a20457874656e64696e6720636c61696d207065726986820152646f6420627960d81b8582015261066c61067a865161061a81611898565b60078152667365636f6e647360c81b8982015287519283916106548b840196635970e08960e01b8852606060248601526084850190611858565b90896044850152602319848303016064850152611858565b03601f1981018352826118e6565b51906a636f6e736f6c652e6c6f675afa506106d184835161069a816118ca565b602181527f426173655265776172643a204f726967696e616c2066696e697368206461746586820152601d60f91b858201526124ab565b830180931161074a57807fc43f4c577663ce7707a53baebf64360730cf3c3a19c52c07a90cee2aff1210a27f426173655265776172643a204e65772066696e69736820646174653a00000000926103ae9697866005555481519081528686820152a1519161073e83611898565b601c83528201526124ab565b634e487b7160e01b845260118552602484fd5b815162461bcd60e51b81528087018490526012602482015271139bc8199a5b9a5cda0819185d19481cd95d60721b6044820152606490fd5b5034610345578160031936011261034557602090600e549051908152f35b5034610345576020366003190112610345576020906107d86107d361187d565b612392565b90519015158152f35b50346103455781600319360112610345576020906005549051908152f35b50903461083c57602036600319011261083c5782359067ffffffffffffffff821161083c57506108376020936107d892369101611924565b611f1c565b80fd5b50346103455760203660031901126103455760209061085c61187d565b505160018152f35b5082346103415760203660031901126103415761087f61187d565b610887611a94565b6001600160a01b03169182156108b45750506bffffffffffffffffffffffff60a01b600a541617600a5580f35b906020606492519162461bcd60e51b8352820152601a60248201527f496e76616c696420636f6e74726f6c6c657220616464726573730000000000006044820152fd5b5034610345578160031936011261034557905490516001600160a01b039091168152602090f35b50346103455760203660031901126103455760209160ff9082906001600160a01b0361094861187d565b168152600c855220541690519015158152f35b50829034610341578060031936011261034157813591821515830361033d5760243592610986611a94565b156109d957507f991d63b6a99732d94eda42bec59d2dc29056a434c3ea89b24d18d3977b521463916020916109bc428311611c03565b600160ff196008541617600855816009558160055551908152a180f35b91505060ff196008541660085562278d00420190814211610a1f57506005557f88afc90084128cbb9137ec527935a280b18f8e248f2d110bb4072b5403e9342f8180a180f35b634e487b7160e01b835260119052602482fd5b50346103455781600319360112610345578051610a8091610a5282611898565b600f82526e57484954454c4953545f53504f545360881b602083015251918291602083526020830190611858565b0390f35b508234610341576020918260031936011261033d57813567ffffffffffffffff8111610c2157610ab7903690840161196b565b919093610ac261210b565b85546001600160a01b039390841633148015610c14575b610ae290612161565b60ff94856008541615610bc6576009544210610b835750865b818110610b0a57876001805580f35b80610b1c6102b5610b7093858b6122ed565b8681168a52600b855287868b20541615610b7d5760028552858a2090815491898316610b75576001610b6b9360ff19161790556003610b5b81546121d9565b9055610b6681612327565b6121e8565b6121d9565b610afb565b5050506121d9565b506121d9565b835162461bcd60e51b8152908101839052601d60248201527f446973747269627574696f6e2064617465206e6f7420726561636865640000006044820152606490fd5b835162461bcd60e51b8152908101839052602260248201527f4175746f6d6174696320646973747269627574696f6e206e6f7420656e61626c604482015261195960f21b6064820152608490fd5b50600a5484163314610ad9565b8480fd5b5034610345578160031936011261034557610c6190610c426119d6565b9060ff6008541690600954908051948594606086526060860190611858565b92151560208501528301520390f35b508290346103415782600319360112610341576020925060ff600654169182610cc4575b5081610ca3575b519015158152f35b90506005548015908115610cb9575b5090610c9b565b905042111583610cb2565b54421015915083610c94565b50346103455760203660031901126103455760209160ff9082906001600160a01b03610cfa61187d565b1681526002855220541690519015158152f35b823461083c578060031936011261083c57610d26611a94565b80546001600160a01b03198116825581906001600160a01b03167f8be0079c531659141344cd1fd0a4f28419497f9722a3daafe3b4186f6b6457e08280a380f35b503461034557606036600319011261034557823567ffffffffffffffff811161034157610d979036908501611924565b926001600160a01b039060243590828216808303610f47576044359384169384810361029757610e6e90610de460ff60065460081c16610dde81610dd9611b33565b6124f0565b15611b88565b610e34858851610df3816118ca565b602a81527f426173655265776172643a20496e697469616c697a696e6720636c6f6e65207760208201526934ba341037bbb732b91d60b11b8a820152612537565b8651610e3f81611898565b601781527f426173655265776172643a20436f6e74726f6c6c65723a0000000000000000006020820152612537565b15610f0c5750610eed9394610e85610e8a92611aec565b611c5f565b6bffffffffffffffffffffffff60a01b600a541617600a556820636f6d706c65746560b81b815191610ebb836118ca565b602983527f426173655265776172643a20436c6f6e6520696e697469616c697a6174696f6e602084015282015261246a565b61010061ff001960065416176006556103ae610f07611bca565b61246a565b606490602085519162461bcd60e51b83528201526015602482015274496e76616c6964206f776e6572206164647265737360581b6044820152fd5b8580fd5b50346103455760203660031901126103455760209160ff9082906001600160a01b03610f7561187d565b168152600b855220541690519015158152f35b50346103455760208060031936011261034157610fa361187d565b610fab611a94565b6001600160a01b0316808452600b825282842054909290610fce9060ff1661219e565b8284526002825260ff818520541661104057828452600b8252808420805460ff19169055600d54801561102d5760001901600d55514281527faad3b8b4c90abeff65c7c35b28ec3e65598ae26450d296ee4c2f1d5b77352f0b9190a280f35b634e487b7160e01b855260118652602485fd5b5162461bcd60e51b815280850191909152601860248201527f557365722068617320616c726561647920636c61696d656400000000000000006044820152606490fd5b50823461034157826003193601126103415760209250549051908152f35b50829034610341576020366003190112610341576110bd61187d565b6110c5611a94565b6001600160a01b0316916110da831515612427565b828452600b60205260ff828520541661113d575060207fe555b777c329b8a7c20e6d3d118f38f089d96b16a025d198a96bb39d4411ac6391838552600b8252808520600160ff19825416179055611132600d546121d9565b600d5551428152a280f35b6020606492519162461bcd60e51b8352820152601060248201526f416c726561647920656c696769626c6560801b6044820152fd5b50346103455781600319360112610345576103ae9061118f611a94565b6111cc815161119d81611898565b601f81527f426173655265776172643a20446561637469766174696e672072657761726400602082015261246a565b60ff19600654166006557f4dcbe1841ee9bd9c888e46c0b35574429b1c0f1071806180028dee2f9a10643060208251858152a15161120981611898565b601e81527f426173655265776172643a205265776172642064656163746976617465640000602082015261246a565b50903461083c57606036600319011261083c5761125361187d565b506044359067ffffffffffffffff821161083c57506020926112779136910161196b565b50505160018152f35b82843461034557602036600319011261034557803567ffffffffffffffff811161034157610eed916112b491369101611924565b610e8560ff60065460081c16610dde81610dd9611b33565b50346103455781600319360112610345576020906003549051908152f35b503461034557816003193601126103455760209060ff60065460081c1690519015158152f35b5034610345578160031936011261034557602090600d549051908152f35b50903461083c57602036600319011261083c576001600160a01b0361135161187d565b168152600b60205260ff828181842054169260026020522054168251911515825215156020820152f35b50913461034557602092836003193601126103415761139861187d565b916113a161210b565b6113ac610f07611f2f565b61141460ff600654166113c181610dd9611f68565b6113d2426113cd611fa1565b6124ab565b82546113e0816113cd611fda565b6113f8600554926113f3846113cd612013565b61204c565b4210159081611530575b5061140f81610dd961208f565b6120c8565b6001600160a01b03838116919033839003611504575b5061143484612392565b156114cd57818552600b865261144f60ff848720541661219e565b8185526002865260ff8386205416611498575083946002916114919552528320600160ff198254161790556114856003546121d9565b600355610b6681612327565b6001805580f35b825162461bcd60e51b8152908101869052600f60248201526e105b1c9958591e4818db185a5b5959608a1b6044820152606490fd5b825162461bcd60e51b8152908101869052601160248201527010d85b9b9bdd0818db185a5b481cdc1bdd607a1b6044820152606490fd5b8061151c918754163314908115611522575b50612161565b3861142a565b9050600a5416331438611516565b801591508115611542575b5038611402565b90504211153861153b565b50823461034157826003193601126103415761156761210b565b611572610f07611f2f565b6115ca60ff6006541661158781610dd9611f68565b611593426113cd611fa1565b82546115a1816113cd611fda565b6115b4600554926113f3846113cd612013565b42101590816116ca575061140f81610dd961208f565b6115d261210b565b6115dd610f07611f2f565b6115f260ff6006541661158781610dd9611f68565b6115fb33612392565b1561169457338352600b60205261161760ff838520541661219e565b338352600260205260ff8284205416611660575033825260026020528120600160ff1982541617905561164b6003546121d9565b60035561165733612327565b611491336121e8565b6020606492519162461bcd60e51b8352820152600f60248201526e105b1c9958591e4818db185a5b5959608a1b6044820152fd5b6020606492519162461bcd60e51b8352820152601160248201527010d85b9b9bdd0818db185a5b481cdc1bdd607a1b6044820152fd5b8015915081156116dc575b5085611402565b9050421115856116d5565b50346103455781600319360112610345576103ae90611704611a94565b611741815161171281611898565b601d81527f426173655265776172643a2041637469766174696e6720726577617264000000602082015261246a565b600160ff1960065416176006557f4dcbe1841ee9bd9c888e46c0b35574429b1c0f1071806180028dee2f9a1064306020825160018152a15161178281611898565b601c81527f426173655265776172643a205265776172642061637469766174656400000000602082015261246a565b50346103455781600319360112610345576117f690600d54600e5460035460ff6008541690600954926117e26119d6565b95805197889760c0895260c0890190611858565b95602088015286015260608501521515608084015260a08301520390f35b83903461034557816003193601126103455760209060ff6006541615158152f35b60005b8381106118485750506000910152565b8181015183820152602001611838565b9060209161187181518092818552858086019101611835565b601f01601f1916010190565b600435906001600160a01b038216820361189357565b600080fd5b6040810190811067ffffffffffffffff8211176118b457604052565b634e487b7160e01b600052604160045260246000fd5b6060810190811067ffffffffffffffff8211176118b457604052565b90601f8019910116810190811067ffffffffffffffff8211176118b457604052565b67ffffffffffffffff81116118b457601f01601f191660200190565b81601f820112156118935780359061193b82611908565b9261194960405194856118e6565b8284526020838301011161189357816000926020809301838601378301015290565b9181601f840112156118935782359167ffffffffffffffff8311611893576020808501948460051b01011161189357565b90600182811c921680156119cc575b60208310146119b657565b634e487b7160e01b600052602260045260246000fd5b91607f16916119ab565b60405190600082600754916119ea8361199c565b80835292600190818116908115611a725750600114611a13575b50611a11925003836118e6565b565b6007600090815291507fa66cc928b5edb82af9bd49922954155ab7b0942694bea4ce44661d9a8736c6885b848310611a575750611a11935050810160200138611a04565b81935090816020925483858a01015201910190918592611a3e565b905060209250611a1194915060ff191682840152151560051b82010138611a04565b6000546001600160a01b03163303611aa857565b606460405162461bcd60e51b815260206004820152602060248201527f4f776e61626c653a2063616c6c6572206973206e6f7420746865206f776e65726044820152fd5b600080546001600160a01b039283166001600160a01b03198216811783559216907f8be0079c531659141344cd1fd0a4f28419497f9722a3daafe3b4186f6b6457e09080a3565b60405190611b40826118ca565b603382527234b734ba34b0b634bd32b21039ba30ba3ab99d60691b6040837f426173655265776172643a20496e697469616c697a65722063616c6c65642c2060208201520152565b15611b8f57565b60405162461bcd60e51b8152602060048201526013602482015272105b1c9958591e481a5b9a5d1a585b1a5e9959606a1b6044820152606490fd5b60405190611bd782611898565b602082527f426173655265776172643a20436f6e747261637420696e697469616c697a65646020830152565b15611c0a57565b60405162461bcd60e51b815260206004820152602760248201527f446973747269627574696f6e2064617465206d75737420626520696e207468656044820152662066757475726560c81b6064820152608490fd5b805181019060209060608183850194031261189357818101519167ffffffffffffffff928381116118935782019184603f84011215611893578183015192611ca684611908565b93604096611cb6885196876118e6565b81865287828401011161189357611cd291878587019101611835565b848101519384151591828603611893576060015195845115611ee05785611ed0575b805160608101818110848211176118b4578252858152848101938452019286845284519182116118b457611d2960075461199c565b601f8111611e6b575b5080601f8311600114611ddd57508190600195600092611dd2575b5050600019600383901b1c191690841b176007555b5115159060ff199160ff836008541691161760085551600955600654161760065542600455600014611da6576005555b600a80546001600160a01b03191633179055565b5062278d004201804211611dbc57600555611d92565b634e487b7160e01b600052601160045260246000fd5b015190503880611d4d565b91929394601f19841660076000527fa66cc928b5edb82af9bd49922954155ab7b0942694bea4ce44661d9a8736c688936000905b828210611e5357505091600196959492918388959310611e3a575b505050811b01600755611d62565b015160001960f88460031b161c19169055388080611e2c565b80600186978294978701518155019601940190611e11565b6000600781527fa66cc928b5edb82af9bd49922954155ab7b0942694bea4ce44661d9a8736c688601f850160051c810192848610611ec6575b601f0160051c01915b828110611ebb575050611d32565b818155600101611ead565b9092508290611ea4565b611edb428811611c03565b611cf4565b5162461bcd60e51b8152600481018490526016602482015275496e76616c69642077686974656c697374206e616d6560501b6044820152606490fd5b6060905110611f2a57600190565b600090565b60405190611f3c82611898565b601c82527f426173655265776172643a207768656e41637469766520636865636b000000006020830152565b60405190611f7582611898565b601a82527f426173655265776172643a20416374697665207374617475733a0000000000006020830152565b60405190611fae82611898565b601e82527f426173655265776172643a2043757272656e742074696d657374616d703a00006020830152565b60405190611fe782611898565b601d82527f426173655265776172643a20436c61696d20737461727420646174653a0000006020830152565b6040519061202082611898565b601e82527f426173655265776172643a20436c61696d2066696e69736820646174653a00006020830152565b1561205357565b60405162461bcd60e51b8152602060048201526014602482015273526577617264206973206e6f742061637469766560601b6044820152606490fd5b6040519061209c82611898565b601f82527f426173655265776172643a2057697468696e2074696d652077696e646f773a006020830152565b156120cf57565b60405162461bcd60e51b815260206004820152601460248201527313dd5d1cda59194818db185a5b481c195c9a5bd960621b6044820152606490fd5b60026001541461211c576002600155565b60405162461bcd60e51b815260206004820152601f60248201527f5265656e7472616e637947756172643a207265656e7472616e742063616c6c006044820152606490fd5b1561216857565b60405162461bcd60e51b815260206004820152600e60248201526d139bdd08185d5d1a1bdc9a5e995960921b6044820152606490fd5b156121a557565b60405162461bcd60e51b815260206004820152600c60248201526b4e6f7420656c696769626c6560a01b6044820152606490fd5b6000198114611dbc5760010190565b611a11906040906122388183516121fe816118ca565b602381527f426173655265776172643a20547261636b696e6720636c61696d20666f72207560208201526239b2b960e91b85820152612537565b6001600160a01b031660008181526002602052829020805460ff19166001179055600354909190612268906121d9565b91826003557fd8138f8a3f377c5259ca548e70e4c2de94f129f5a11036a15b69513cba2b426a60208351428152a27439b33ab6363c96103a37ba30b61031b630b4b6b99d60591b8151916122bb836118ca565b603583527f426173655265776172643a20436c61696d20747261636b65642073756363657360208401528201526124ab565b91908110156122fd5760051b0190565b634e487b7160e01b600052603260045260246000fd5b356001600160a01b03811681036118935790565b6001600160a01b03166000818152600c60205260409020805460ff81161561234e57505050565b60ff19166001179055600e54612363906121d9565b600e557f9c954464132321181183c4f89c263bc648ced7476b263f18a0eeac9c552b6e9b6020604051428152a2565b60ff6006541615612421576001600160a01b031660009081526002602052604081205460ff166123f457600b60205260ff604082205416156123f45760ff6008541680612415575b6123f457600454421080156123f7575b6123f45750600190565b90565b50600554801515908161240b575b506123ea565b9050421138612405565b506009544210156123da565b50600090565b1561242e57565b60405162461bcd60e51b8152602060048201526014602482015273496e76616c69642075736572206164647265737360601b6044820152606490fd5b600080916040516124988161066c602082019463104c13eb60e21b8652602060248401526044830190611858565b51906a636f6e736f6c652e6c6f675afa50565b60009190829161249860405180926124dc6020830195632d839cb360e21b8752604060248501526064840190611858565b90604483015203601f1981018352826118e6565b6000919082916124986040518092612521602083019563c3b5563560e01b8752604060248501526064840190611858565b901515604483015203601f1981018352826118e6565b6000919082916124986040518092612568602083019563319af33360e01b8752604060248501526064840190611858565b6001600160a01b0391909116604483015203601f1981018352826118e656fea264697066735822122008917878e615be3e22146595eb12000ee4a1093424dc5da619a3a2f3fa420e8f64736f6c63430008140033","opcodes":"PUSH1 0x80 PUSH1 0x40 SWAP1 DUP1 DUP3 MSTORE CALLVALUE PUSH3 0x105 JUMPI PUSH3 0x18 CALLER PUSH3 0x10A JUMP JUMPDEST PUSH1 0x1 DUP1 SSTORE PUSH1 0x1 PUSH1 0x1 PUSH1 0x40 SHL SUB SWAP1 DUP1 DUP4 ADD SWAP1 DUP3 DUP3 GT DUP2 DUP4 LT OR PUSH3 0xEF JUMPI PUSH3 0x6C SWAP2 DUP5 MSTORE PUSH1 0x1E DUP2 MSTORE PUSH32 0x426173655265776172643A20436F6E7374727563746F722063616C6C65640000 PUSH1 0x20 DUP3 ADD MSTORE PUSH3 0x151 JUMP JUMPDEST PUSH2 0x100 PUSH2 0xFF00 NOT PUSH1 0x6 SLOAD AND OR PUSH1 0x6 SSTORE PUSH3 0x86 CALLER PUSH3 0x10A JUMP JUMPDEST DUP2 MLOAD PUSH1 0x60 DUP2 ADD SWAP2 DUP3 GT DUP2 DUP4 LT OR PUSH3 0xEF JUMPI PUSH3 0xE1 SWAP2 DUP4 MSTORE PUSH1 0x2A DUP2 MSTORE PUSH32 0x426173655265776172643A20496D706C656D656E746174696F6E20636F6E7472 PUSH1 0x20 DUP3 ADD MSTORE PUSH10 0x1858DD081B1BD8DAD959 PUSH1 0xB2 SHL DUP4 DUP3 ADD MSTORE PUSH3 0x151 JUMP JUMPDEST MLOAD PUSH2 0x25BD SWAP1 DUP2 PUSH3 0x1EE DUP3 CODECOPY RETURN JUMPDEST PUSH4 0x4E487B71 PUSH1 0xE0 SHL PUSH1 0x0 MSTORE PUSH1 0x41 PUSH1 0x4 MSTORE PUSH1 0x24 PUSH1 0x0 REVERT JUMPDEST PUSH1 0x0 DUP1 REVERT JUMPDEST PUSH1 0x0 DUP1 SLOAD PUSH1 0x1 PUSH1 0x1 PUSH1 0xA0 SHL SUB SWAP3 DUP4 AND PUSH1 0x1 PUSH1 0x1 PUSH1 0xA0 SHL SUB NOT DUP3 AND DUP2 OR DUP4 SSTORE SWAP3 AND SWAP1 PUSH32 0x8BE0079C531659141344CD1FD0A4F28419497F9722A3DAAFE3B4186F6B6457E0 SWAP1 DUP1 LOG3 JUMP JUMPDEST PUSH1 0x40 MLOAD SWAP1 PUSH1 0x20 SWAP1 DUP3 DUP3 DUP2 ADD SWAP3 PUSH4 0x104C13EB PUSH1 0xE2 SHL DUP5 MSTORE DUP1 PUSH1 0x24 DUP4 ADD MSTORE DUP3 MLOAD SWAP3 DUP4 PUSH1 0x44 DUP5 ADD MSTORE PUSH1 0x0 JUMPDEST DUP5 DUP2 LT PUSH3 0x1D5 JUMPI POP POP POP DUP1 DUP3 PUSH1 0x0 PUSH1 0x64 PUSH1 0x1F SWAP6 PUSH1 0x83 SWAP6 ADD ADD MSTORE DUP4 NOT SWAP4 DUP5 SWAP2 ADD AND DUP2 ADD SUB PUSH1 0x44 DUP2 ADD DUP6 MSTORE ADD AND DUP3 ADD SWAP1 DUP3 DUP3 LT PUSH1 0x1 DUP1 PUSH1 0x40 SHL SUB DUP4 GT OR PUSH3 0xEF JUMPI PUSH1 0x0 SWAP3 DUP4 SWAP3 PUSH1 0x40 MSTORE MLOAD SWAP1 PUSH11 0x636F6E736F6C652E6C6F67 GAS STATICCALL POP JUMP JUMPDEST DUP2 DUP2 ADD DUP4 ADD MLOAD DUP8 DUP3 ADD PUSH1 0x64 ADD MSTORE DUP7 SWAP4 POP DUP3 ADD PUSH3 0x179 JUMP INVALID PUSH1 0x80 PUSH1 0x40 SWAP1 DUP1 DUP3 MSTORE PUSH1 0x4 SWAP2 DUP3 CALLDATASIZE LT ISZERO PUSH2 0x17 JUMPI PUSH1 0x0 DUP1 REVERT JUMPDEST PUSH1 0x0 SWAP2 DUP3 CALLDATALOAD PUSH1 0xE0 SHR SWAP1 DUP2 PUSH4 0x2FB0C5E EQ PUSH2 0x1814 JUMPI POP DUP1 PUSH4 0x31FD056 EQ PUSH2 0x1310 JUMPI DUP1 PUSH4 0x85E8876 EQ PUSH2 0x17B1 JUMPI DUP1 PUSH4 0xF15F4C0 EQ PUSH2 0x16E7 JUMPI DUP1 PUSH4 0x1AA366F5 EQ PUSH2 0x154D JUMPI DUP1 PUSH4 0x1E83409A EQ PUSH2 0x137B JUMPI DUP1 PUSH4 0x23130632 EQ PUSH2 0x132E JUMPI DUP1 PUSH4 0x3138FFE7 EQ PUSH2 0x1310 JUMPI DUP1 PUSH4 0x392E53CD EQ PUSH2 0x12EA JUMPI DUP1 PUSH4 0x41C61383 EQ PUSH2 0x12CC JUMPI DUP1 PUSH4 0x439FAB91 EQ PUSH2 0x1280 JUMPI DUP1 PUSH4 0x46BDDA02 EQ PUSH2 0x795 JUMPI DUP1 PUSH4 0x4A313AAE EQ PUSH2 0x1238 JUMPI DUP1 PUSH4 0x51B42B00 EQ PUSH2 0x1172 JUMPI DUP1 PUSH4 0x52826F05 EQ PUSH2 0x10A1 JUMPI DUP1 PUSH4 0x5F03B6B2 EQ PUSH2 0x1083 JUMPI DUP1 PUSH4 0x6609C55D EQ PUSH2 0xF88 JUMPI DUP1 PUSH4 0x66E305FD EQ PUSH2 0xF4B JUMPI DUP1 PUSH4 0x6F60049F EQ PUSH2 0xD67 JUMPI DUP1 PUSH4 0x715018A6 EQ PUSH2 0xD0D JUMPI DUP1 PUSH4 0x73B2E80E EQ PUSH2 0xCD0 JUMPI DUP1 PUSH4 0x74EA186D EQ PUSH2 0xC70 JUMPI DUP1 PUSH4 0x79502C55 EQ PUSH2 0xC25 JUMPI DUP1 PUSH4 0x809B9CF6 EQ PUSH2 0xA84 JUMPI DUP1 PUSH4 0x87C1F40A EQ PUSH2 0x91E JUMPI DUP1 PUSH4 0x8A51F860 EQ PUSH2 0xA32 JUMPI DUP1 PUSH4 0x8BB0401D EQ PUSH2 0x95B JUMPI DUP1 PUSH4 0x8C153EB8 EQ PUSH2 0x91E JUMPI DUP1 PUSH4 0x8DA5CB5B EQ PUSH2 0x8F7 JUMPI DUP1 PUSH4 0x92EEFE9B EQ PUSH2 0x864 JUMPI DUP1 PUSH4 0x93903DF3 EQ PUSH2 0x83F JUMPI DUP1 PUSH4 0xA913B881 EQ PUSH2 0x7FF JUMPI DUP1 PUSH4 0xB71B7A32 EQ PUSH2 0x7E1 JUMPI DUP1 PUSH4 0xBF3506C1 EQ PUSH2 0x7B3 JUMPI DUP1 PUSH4 0xC6DD828F EQ PUSH2 0x795 JUMPI DUP1 PUSH4 0xD5DEFD3C EQ PUSH2 0x59E JUMPI DUP1 PUSH4 0xDF6EC1BD EQ PUSH2 0x403 JUMPI DUP1 PUSH4 0xF2FDE38B EQ PUSH2 0x371 JUMPI DUP1 PUSH4 0xF77C4791 EQ PUSH2 0x349 JUMPI PUSH4 0xFCCA97A5 EQ PUSH2 0x1DD JUMPI PUSH1 0x0 DUP1 REVERT JUMPDEST CALLVALUE PUSH2 0x345 JUMPI PUSH1 0x20 DUP1 PUSH1 0x3 NOT CALLDATASIZE ADD SLT PUSH2 0x341 JUMPI DUP4 CALLDATALOAD PUSH8 0xFFFFFFFFFFFFFFFF DUP2 GT PUSH2 0x33D JUMPI PUSH2 0x20D SWAP1 CALLDATASIZE SWAP1 DUP7 ADD PUSH2 0x196B JUMP JUMPDEST SWAP1 SWAP5 PUSH2 0x217 PUSH2 0x1A94 JUMP JUMPDEST DUP2 ISZERO PUSH2 0x306 JUMPI POP DUP4 JUMPDEST DUP2 DUP2 LT PUSH2 0x29B JUMPI POP DUP1 DUP4 MLOAD SWAP4 DUP1 DUP6 ADD SWAP1 DUP6 MSTORE MSTORE PUSH1 0x60 DUP4 ADD SWAP5 SWAP1 DUP5 JUMPDEST DUP2 DUP2 LT PUSH2 0x271 JUMPI TIMESTAMP DUP5 DUP7 ADD MSTORE DUP6 PUSH32 0x8092C17FF3EEF707AA6C5483C853D95831BEC1F3D44AFBE3CB72AFA338A82E07 DUP7 DUP10 SUB DUP8 LOG1 DUP1 RETURN JUMPDEST SWAP1 SWAP2 SWAP6 DUP7 CALLDATALOAD PUSH1 0x1 DUP1 PUSH1 0xA0 SHL SUB DUP2 AND DUP1 SWAP2 SUB PUSH2 0x297 JUMPI DUP2 MSTORE DUP4 ADD SWAP6 DUP4 ADD SWAP2 SWAP1 PUSH1 0x1 ADD PUSH2 0x23B JUMP JUMPDEST DUP7 DUP1 REVERT JUMPDEST PUSH2 0x2E2 SWAP1 PUSH1 0x1 PUSH1 0x1 PUSH1 0xA0 SHL SUB PUSH2 0x2BA PUSH2 0x2B5 DUP4 DUP7 DUP12 PUSH2 0x22ED JUMP JUMPDEST PUSH2 0x2313 JUMP JUMPDEST AND PUSH2 0x2C6 DUP2 ISZERO ISZERO PUSH2 0x2427 JUMP JUMPDEST DUP7 MSTORE PUSH1 0xB DUP5 MSTORE DUP5 DUP7 KECCAK256 DUP1 SLOAD PUSH1 0xFF DUP2 AND ISZERO PUSH2 0x2E7 JUMPI JUMPDEST POP POP PUSH2 0x21D9 JUMP JUMPDEST PUSH2 0x220 JUMP JUMPDEST PUSH1 0xFF NOT AND PUSH1 0x1 OR SWAP1 SSTORE PUSH1 0xD DUP1 SLOAD PUSH2 0x2FD SWAP1 PUSH2 0x21D9 JUMP JUMPDEST SWAP1 SSTORE CODESIZE DUP1 PUSH2 0x2DB JUMP JUMPDEST DUP4 MLOAD PUSH3 0x461BCD PUSH1 0xE5 SHL DUP2 MSTORE SWAP1 DUP2 ADD DUP4 SWAP1 MSTORE PUSH1 0x11 PUSH1 0x24 DUP3 ADD MSTORE PUSH17 0x139BC81D5CD95C9CC81C1C9BDD9A591959 PUSH1 0x7A SHL PUSH1 0x44 DUP3 ADD MSTORE PUSH1 0x64 SWAP1 REVERT JUMPDEST DUP4 DUP1 REVERT JUMPDEST DUP3 DUP1 REVERT JUMPDEST POP DUP1 REVERT JUMPDEST POP CALLVALUE PUSH2 0x345 JUMPI DUP2 PUSH1 0x3 NOT CALLDATASIZE ADD SLT PUSH2 0x345 JUMPI PUSH1 0xA SLOAD SWAP1 MLOAD PUSH1 0x1 PUSH1 0x1 PUSH1 0xA0 SHL SUB SWAP1 SWAP2 AND DUP2 MSTORE PUSH1 0x20 SWAP1 RETURN JUMPDEST POP DUP3 CALLVALUE PUSH2 0x341 JUMPI PUSH1 0x20 CALLDATASIZE PUSH1 0x3 NOT ADD SLT PUSH2 0x341 JUMPI PUSH2 0x38C PUSH2 0x187D JUMP JUMPDEST SWAP2 PUSH2 0x395 PUSH2 0x1A94 JUMP JUMPDEST PUSH1 0x1 PUSH1 0x1 PUSH1 0xA0 SHL SUB DUP4 AND ISZERO PUSH2 0x3B1 JUMPI DUP4 PUSH2 0x3AE DUP5 PUSH2 0x1AEC JUMP JUMPDEST DUP1 RETURN JUMPDEST SWAP1 PUSH1 0x20 PUSH1 0x84 SWAP3 MLOAD SWAP2 PUSH3 0x461BCD PUSH1 0xE5 SHL DUP4 MSTORE DUP3 ADD MSTORE PUSH1 0x26 PUSH1 0x24 DUP3 ADD MSTORE PUSH32 0x4F776E61626C653A206E6577206F776E657220697320746865207A65726F2061 PUSH1 0x44 DUP3 ADD MSTORE PUSH6 0x646472657373 PUSH1 0xD0 SHL PUSH1 0x64 DUP3 ADD MSTORE REVERT JUMPDEST POP DUP3 SWAP1 CALLVALUE PUSH2 0x341 JUMPI DUP1 PUSH1 0x3 NOT CALLDATASIZE ADD SLT PUSH2 0x341 JUMPI DUP2 CALLDATALOAD PUSH1 0x24 CALLDATALOAD PUSH2 0x423 PUSH2 0x1A94 JUMP JUMPDEST DUP1 DUP3 GT DUP1 ISZERO SWAP1 PUSH2 0x596 JUMPI JUMPDEST ISZERO PUSH2 0x55C JUMPI SWAP2 PUSH32 0xC43F4C577663CE7707A53BAEBF64360730CF3C3A19C52C07A90CEE2AFF1210A2 DUP2 DUP4 PUSH2 0x3AE SWAP7 SWAP6 PUSH32 0x426173655265776172643A20436C61696D20706572696F642075706461746564 SWAP6 DUP4 MLOAD SWAP8 PUSH2 0x48A DUP10 PUSH2 0x1898 JUMP JUMPDEST PUSH2 0x4BD PUSH1 0x20 SWAP10 DUP11 DUP2 MSTORE PUSH32 0x426173655265776172643A2053657474696E6720636C61696D20706572696F64 DUP12 DUP3 ADD MSTORE PUSH2 0x246A JUMP JUMPDEST PUSH2 0x4FA DUP3 DUP7 MLOAD PUSH2 0x4CC DUP2 PUSH2 0x1898 JUMP JUMPDEST PUSH1 0x17 DUP2 MSTORE PUSH32 0x426173655265776172643A20537461727420646174653A000000000000000000 DUP13 DUP3 ADD MSTORE PUSH2 0x24AB JUMP JUMPDEST PUSH2 0x537 DUP4 DUP7 MLOAD PUSH2 0x509 DUP2 PUSH2 0x1898 JUMP JUMPDEST PUSH1 0x18 DUP2 MSTORE PUSH32 0x426173655265776172643A2046696E69736820646174653A0000000000000000 DUP13 DUP3 ADD MSTORE PUSH2 0x24AB JUMP JUMPDEST SSTORE DUP1 PUSH1 0x5 SSTORE DUP3 MLOAD SWAP2 DUP3 MSTORE DUP7 DUP3 ADD MSTORE LOG1 MLOAD SWAP2 PUSH2 0x551 DUP4 PUSH2 0x1898 JUMP JUMPDEST DUP1 DUP4 MSTORE DUP3 ADD MSTORE PUSH2 0x246A JUMP JUMPDEST DUP3 MLOAD PUSH3 0x461BCD PUSH1 0xE5 SHL DUP2 MSTORE PUSH1 0x20 DUP2 DUP7 ADD MSTORE PUSH1 0x14 PUSH1 0x24 DUP3 ADD MSTORE PUSH20 0x125B9D985B1A590818DB185A5B481C195C9A5BD9 PUSH1 0x62 SHL PUSH1 0x44 DUP3 ADD MSTORE PUSH1 0x64 SWAP1 REVERT JUMPDEST POP DUP1 ISZERO PUSH2 0x42E JUMP JUMPDEST POP CALLVALUE PUSH2 0x345 JUMPI PUSH1 0x20 DUP1 PUSH1 0x3 NOT CALLDATASIZE ADD SLT PUSH2 0x341 JUMPI DUP4 CALLDATALOAD SWAP2 PUSH2 0x5BC PUSH2 0x1A94 JUMP JUMPDEST PUSH1 0x5 SLOAD SWAP3 DUP4 ISZERO PUSH2 0x75D JUMPI DUP5 DUP1 DUP4 MLOAD PUSH2 0x5D3 DUP2 PUSH2 0x18CA JUMP JUMPDEST PUSH1 0x25 DUP2 MSTORE PUSH32 0x426173655265776172643A20457874656E64696E6720636C61696D2070657269 DUP7 DUP3 ADD MSTORE PUSH5 0x6F64206279 PUSH1 0xD8 SHL DUP6 DUP3 ADD MSTORE PUSH2 0x66C PUSH2 0x67A DUP7 MLOAD PUSH2 0x61A DUP2 PUSH2 0x1898 JUMP JUMPDEST PUSH1 0x7 DUP2 MSTORE PUSH7 0x7365636F6E6473 PUSH1 0xC8 SHL DUP10 DUP3 ADD MSTORE DUP8 MLOAD SWAP3 DUP4 SWAP2 PUSH2 0x654 DUP12 DUP5 ADD SWAP7 PUSH4 0x5970E089 PUSH1 0xE0 SHL DUP9 MSTORE PUSH1 0x60 PUSH1 0x24 DUP7 ADD MSTORE PUSH1 0x84 DUP6 ADD SWAP1 PUSH2 0x1858 JUMP JUMPDEST SWAP1 DUP10 PUSH1 0x44 DUP6 ADD MSTORE PUSH1 0x23 NOT DUP5 DUP4 SUB ADD PUSH1 0x64 DUP6 ADD MSTORE PUSH2 0x1858 JUMP JUMPDEST SUB PUSH1 0x1F NOT DUP2 ADD DUP4 MSTORE DUP3 PUSH2 0x18E6 JUMP JUMPDEST MLOAD SWAP1 PUSH11 0x636F6E736F6C652E6C6F67 GAS STATICCALL POP PUSH2 0x6D1 DUP5 DUP4 MLOAD PUSH2 0x69A DUP2 PUSH2 0x18CA JUMP JUMPDEST PUSH1 0x21 DUP2 MSTORE PUSH32 0x426173655265776172643A204F726967696E616C2066696E6973682064617465 DUP7 DUP3 ADD MSTORE PUSH1 0x1D PUSH1 0xF9 SHL DUP6 DUP3 ADD MSTORE PUSH2 0x24AB JUMP JUMPDEST DUP4 ADD DUP1 SWAP4 GT PUSH2 0x74A JUMPI DUP1 PUSH32 0xC43F4C577663CE7707A53BAEBF64360730CF3C3A19C52C07A90CEE2AFF1210A2 PUSH32 0x426173655265776172643A204E65772066696E69736820646174653A00000000 SWAP3 PUSH2 0x3AE SWAP7 SWAP8 DUP7 PUSH1 0x5 SSTORE SLOAD DUP2 MLOAD SWAP1 DUP2 MSTORE DUP7 DUP7 DUP3 ADD MSTORE LOG1 MLOAD SWAP2 PUSH2 0x73E DUP4 PUSH2 0x1898 JUMP JUMPDEST PUSH1 0x1C DUP4 MSTORE DUP3 ADD MSTORE PUSH2 0x24AB JUMP JUMPDEST PUSH4 0x4E487B71 PUSH1 0xE0 SHL DUP5 MSTORE PUSH1 0x11 DUP6 MSTORE PUSH1 0x24 DUP5 REVERT JUMPDEST DUP2 MLOAD PUSH3 0x461BCD PUSH1 0xE5 SHL DUP2 MSTORE DUP1 DUP8 ADD DUP5 SWAP1 MSTORE PUSH1 0x12 PUSH1 0x24 DUP3 ADD MSTORE PUSH18 0x139BC8199A5B9A5CDA0819185D19481CD95D PUSH1 0x72 SHL PUSH1 0x44 DUP3 ADD MSTORE PUSH1 0x64 SWAP1 REVERT JUMPDEST POP CALLVALUE PUSH2 0x345 JUMPI DUP2 PUSH1 0x3 NOT CALLDATASIZE ADD SLT PUSH2 0x345 JUMPI PUSH1 0x20 SWAP1 PUSH1 0xE SLOAD SWAP1 MLOAD SWAP1 DUP2 MSTORE RETURN JUMPDEST POP CALLVALUE PUSH2 0x345 JUMPI PUSH1 0x20 CALLDATASIZE PUSH1 0x3 NOT ADD SLT PUSH2 0x345 JUMPI PUSH1 0x20 SWAP1 PUSH2 0x7D8 PUSH2 0x7D3 PUSH2 0x187D JUMP JUMPDEST PUSH2 0x2392 JUMP JUMPDEST SWAP1 MLOAD SWAP1 ISZERO ISZERO DUP2 MSTORE RETURN JUMPDEST POP CALLVALUE PUSH2 0x345 JUMPI DUP2 PUSH1 0x3 NOT CALLDATASIZE ADD SLT PUSH2 0x345 JUMPI PUSH1 0x20 SWAP1 PUSH1 0x5 SLOAD SWAP1 MLOAD SWAP1 DUP2 MSTORE RETURN JUMPDEST POP SWAP1 CALLVALUE PUSH2 0x83C JUMPI PUSH1 0x20 CALLDATASIZE PUSH1 0x3 NOT ADD SLT PUSH2 0x83C JUMPI DUP3 CALLDATALOAD SWAP1 PUSH8 0xFFFFFFFFFFFFFFFF DUP3 GT PUSH2 0x83C JUMPI POP PUSH2 0x837 PUSH1 0x20 SWAP4 PUSH2 0x7D8 SWAP3 CALLDATASIZE SWAP2 ADD PUSH2 0x1924 JUMP JUMPDEST PUSH2 0x1F1C JUMP JUMPDEST DUP1 REVERT JUMPDEST POP CALLVALUE PUSH2 0x345 JUMPI PUSH1 0x20 CALLDATASIZE PUSH1 0x3 NOT ADD SLT PUSH2 0x345 JUMPI PUSH1 0x20 SWAP1 PUSH2 0x85C PUSH2 0x187D JUMP JUMPDEST POP MLOAD PUSH1 0x1 DUP2 MSTORE RETURN JUMPDEST POP DUP3 CALLVALUE PUSH2 0x341 JUMPI PUSH1 0x20 CALLDATASIZE PUSH1 0x3 NOT ADD SLT PUSH2 0x341 JUMPI PUSH2 0x87F PUSH2 0x187D JUMP JUMPDEST PUSH2 0x887 PUSH2 0x1A94 JUMP JUMPDEST PUSH1 0x1 PUSH1 0x1 PUSH1 0xA0 SHL SUB AND SWAP2 DUP3 ISZERO PUSH2 0x8B4 JUMPI POP POP PUSH12 0xFFFFFFFFFFFFFFFFFFFFFFFF PUSH1 0xA0 SHL PUSH1 0xA SLOAD AND OR PUSH1 0xA SSTORE DUP1 RETURN JUMPDEST SWAP1 PUSH1 0x20 PUSH1 0x64 SWAP3 MLOAD SWAP2 PUSH3 0x461BCD PUSH1 0xE5 SHL DUP4 MSTORE DUP3 ADD MSTORE PUSH1 0x1A PUSH1 0x24 DUP3 ADD MSTORE PUSH32 0x496E76616C696420636F6E74726F6C6C65722061646472657373000000000000 PUSH1 0x44 DUP3 ADD MSTORE REVERT JUMPDEST POP CALLVALUE PUSH2 0x345 JUMPI DUP2 PUSH1 0x3 NOT CALLDATASIZE ADD SLT PUSH2 0x345 JUMPI SWAP1 SLOAD SWAP1 MLOAD PUSH1 0x1 PUSH1 0x1 PUSH1 0xA0 SHL SUB SWAP1 SWAP2 AND DUP2 MSTORE PUSH1 0x20 SWAP1 RETURN JUMPDEST POP CALLVALUE PUSH2 0x345 JUMPI PUSH1 0x20 CALLDATASIZE PUSH1 0x3 NOT ADD SLT PUSH2 0x345 JUMPI PUSH1 0x20 SWAP2 PUSH1 0xFF SWAP1 DUP3 SWAP1 PUSH1 0x1 PUSH1 0x1 PUSH1 0xA0 SHL SUB PUSH2 0x948 PUSH2 0x187D JUMP JUMPDEST AND DUP2 MSTORE PUSH1 0xC DUP6 MSTORE KECCAK256 SLOAD AND SWAP1 MLOAD SWAP1 ISZERO ISZERO DUP2 MSTORE RETURN JUMPDEST POP DUP3 SWAP1 CALLVALUE PUSH2 0x341 JUMPI DUP1 PUSH1 0x3 NOT CALLDATASIZE ADD SLT PUSH2 0x341 JUMPI DUP2 CALLDATALOAD SWAP2 DUP3 ISZERO ISZERO DUP4 SUB PUSH2 0x33D JUMPI PUSH1 0x24 CALLDATALOAD SWAP3 PUSH2 0x986 PUSH2 0x1A94 JUMP JUMPDEST ISZERO PUSH2 0x9D9 JUMPI POP PUSH32 0x991D63B6A99732D94EDA42BEC59D2DC29056A434C3EA89B24D18D3977B521463 SWAP2 PUSH1 0x20 SWAP2 PUSH2 0x9BC TIMESTAMP DUP4 GT PUSH2 0x1C03 JUMP JUMPDEST PUSH1 0x1 PUSH1 0xFF NOT PUSH1 0x8 SLOAD AND OR PUSH1 0x8 SSTORE DUP2 PUSH1 0x9 SSTORE DUP2 PUSH1 0x5 SSTORE MLOAD SWAP1 DUP2 MSTORE LOG1 DUP1 RETURN JUMPDEST SWAP2 POP POP PUSH1 0xFF NOT PUSH1 0x8 SLOAD AND PUSH1 0x8 SSTORE PUSH3 0x278D00 TIMESTAMP ADD SWAP1 DUP2 TIMESTAMP GT PUSH2 0xA1F JUMPI POP PUSH1 0x5 SSTORE PUSH32 0x88AFC90084128CBB9137EC527935A280B18F8E248F2D110BB4072B5403E9342F DUP2 DUP1 LOG1 DUP1 RETURN JUMPDEST PUSH4 0x4E487B71 PUSH1 0xE0 SHL DUP4 MSTORE PUSH1 0x11 SWAP1 MSTORE PUSH1 0x24 DUP3 REVERT JUMPDEST POP CALLVALUE PUSH2 0x345 JUMPI DUP2 PUSH1 0x3 NOT CALLDATASIZE ADD SLT PUSH2 0x345 JUMPI DUP1 MLOAD PUSH2 0xA80 SWAP2 PUSH2 0xA52 DUP3 PUSH2 0x1898 JUMP JUMPDEST PUSH1 0xF DUP3 MSTORE PUSH15 0x57484954454C4953545F53504F5453 PUSH1 0x88 SHL PUSH1 0x20 DUP4 ADD MSTORE MLOAD SWAP2 DUP3 SWAP2 PUSH1 0x20 DUP4 MSTORE PUSH1 0x20 DUP4 ADD SWAP1 PUSH2 0x1858 JUMP JUMPDEST SUB SWAP1 RETURN JUMPDEST POP DUP3 CALLVALUE PUSH2 0x341 JUMPI PUSH1 0x20 SWAP2 DUP3 PUSH1 0x3 NOT CALLDATASIZE ADD SLT PUSH2 0x33D JUMPI DUP2 CALLDATALOAD PUSH8 0xFFFFFFFFFFFFFFFF DUP2 GT PUSH2 0xC21 JUMPI PUSH2 0xAB7 SWAP1 CALLDATASIZE SWAP1 DUP5 ADD PUSH2 0x196B JUMP JUMPDEST SWAP2 SWAP1 SWAP4 PUSH2 0xAC2 PUSH2 0x210B JUMP JUMPDEST DUP6 SLOAD PUSH1 0x1 PUSH1 0x1 PUSH1 0xA0 SHL SUB SWAP4 SWAP1 DUP5 AND CALLER EQ DUP1 ISZERO PUSH2 0xC14 JUMPI JUMPDEST PUSH2 0xAE2 SWAP1 PUSH2 0x2161 JUMP JUMPDEST PUSH1 0xFF SWAP5 DUP6 PUSH1 0x8 SLOAD AND ISZERO PUSH2 0xBC6 JUMPI PUSH1 0x9 SLOAD TIMESTAMP LT PUSH2 0xB83 JUMPI POP DUP7 JUMPDEST DUP2 DUP2 LT PUSH2 0xB0A JUMPI DUP8 PUSH1 0x1 DUP1 SSTORE DUP1 RETURN JUMPDEST DUP1 PUSH2 0xB1C PUSH2 0x2B5 PUSH2 0xB70 SWAP4 DUP6 DUP12 PUSH2 0x22ED JUMP JUMPDEST DUP7 DUP2 AND DUP11 MSTORE PUSH1 0xB DUP6 MSTORE DUP8 DUP7 DUP12 KECCAK256 SLOAD AND ISZERO PUSH2 0xB7D JUMPI PUSH1 0x2 DUP6 MSTORE DUP6 DUP11 KECCAK256 SWAP1 DUP2 SLOAD SWAP2 DUP10 DUP4 AND PUSH2 0xB75 JUMPI PUSH1 0x1 PUSH2 0xB6B SWAP4 PUSH1 0xFF NOT AND OR SWAP1 SSTORE PUSH1 0x3 PUSH2 0xB5B DUP2 SLOAD PUSH2 0x21D9 JUMP JUMPDEST SWAP1 SSTORE PUSH2 0xB66 DUP2 PUSH2 0x2327 JUMP JUMPDEST PUSH2 0x21E8 JUMP JUMPDEST PUSH2 0x21D9 JUMP JUMPDEST PUSH2 0xAFB JUMP JUMPDEST POP POP POP PUSH2 0x21D9 JUMP JUMPDEST POP PUSH2 0x21D9 JUMP JUMPDEST DUP4 MLOAD PUSH3 0x461BCD PUSH1 0xE5 SHL DUP2 MSTORE SWAP1 DUP2 ADD DUP4 SWAP1 MSTORE PUSH1 0x1D PUSH1 0x24 DUP3 ADD MSTORE PUSH32 0x446973747269627574696F6E2064617465206E6F742072656163686564000000 PUSH1 0x44 DUP3 ADD MSTORE PUSH1 0x64 SWAP1 REVERT JUMPDEST DUP4 MLOAD PUSH3 0x461BCD PUSH1 0xE5 SHL DUP2 MSTORE SWAP1 DUP2 ADD DUP4 SWAP1 MSTORE PUSH1 0x22 PUSH1 0x24 DUP3 ADD MSTORE PUSH32 0x4175746F6D6174696320646973747269627574696F6E206E6F7420656E61626C PUSH1 0x44 DUP3 ADD MSTORE PUSH2 0x1959 PUSH1 0xF2 SHL PUSH1 0x64 DUP3 ADD MSTORE PUSH1 0x84 SWAP1 REVERT JUMPDEST POP PUSH1 0xA SLOAD DUP5 AND CALLER EQ PUSH2 0xAD9 JUMP JUMPDEST DUP5 DUP1 REVERT JUMPDEST POP CALLVALUE PUSH2 0x345 JUMPI DUP2 PUSH1 0x3 NOT CALLDATASIZE ADD SLT PUSH2 0x345 JUMPI PUSH2 0xC61 SWAP1 PUSH2 0xC42 PUSH2 0x19D6 JUMP JUMPDEST SWAP1 PUSH1 0xFF PUSH1 0x8 SLOAD AND SWAP1 PUSH1 0x9 SLOAD SWAP1 DUP1 MLOAD SWAP5 DUP6 SWAP5 PUSH1 0x60 DUP7 MSTORE PUSH1 0x60 DUP7 ADD SWAP1 PUSH2 0x1858 JUMP JUMPDEST SWAP3 ISZERO ISZERO PUSH1 0x20 DUP6 ADD MSTORE DUP4 ADD MSTORE SUB SWAP1 RETURN JUMPDEST POP DUP3 SWAP1 CALLVALUE PUSH2 0x341 JUMPI DUP3 PUSH1 0x3 NOT CALLDATASIZE ADD SLT PUSH2 0x341 JUMPI PUSH1 0x20 SWAP3 POP PUSH1 0xFF PUSH1 0x6 SLOAD AND SWAP2 DUP3 PUSH2 0xCC4 JUMPI JUMPDEST POP DUP2 PUSH2 0xCA3 JUMPI JUMPDEST MLOAD SWAP1 ISZERO ISZERO DUP2 MSTORE RETURN JUMPDEST SWAP1 POP PUSH1 0x5 SLOAD DUP1 ISZERO SWAP1 DUP2 ISZERO PUSH2 0xCB9 JUMPI JUMPDEST POP SWAP1 PUSH2 0xC9B JUMP JUMPDEST SWAP1 POP TIMESTAMP GT ISZERO DUP4 PUSH2 0xCB2 JUMP JUMPDEST SLOAD TIMESTAMP LT ISZERO SWAP2 POP DUP4 PUSH2 0xC94 JUMP JUMPDEST POP CALLVALUE PUSH2 0x345 JUMPI PUSH1 0x20 CALLDATASIZE PUSH1 0x3 NOT ADD SLT PUSH2 0x345 JUMPI PUSH1 0x20 SWAP2 PUSH1 0xFF SWAP1 DUP3 SWAP1 PUSH1 0x1 PUSH1 0x1 PUSH1 0xA0 SHL SUB PUSH2 0xCFA PUSH2 0x187D JUMP JUMPDEST AND DUP2 MSTORE PUSH1 0x2 DUP6 MSTORE KECCAK256 SLOAD AND SWAP1 MLOAD SWAP1 ISZERO ISZERO DUP2 MSTORE RETURN JUMPDEST DUP3 CALLVALUE PUSH2 0x83C JUMPI DUP1 PUSH1 0x3 NOT CALLDATASIZE ADD SLT PUSH2 0x83C JUMPI PUSH2 0xD26 PUSH2 0x1A94 JUMP JUMPDEST DUP1 SLOAD PUSH1 0x1 PUSH1 0x1 PUSH1 0xA0 SHL SUB NOT DUP2 AND DUP3 SSTORE DUP2 SWAP1 PUSH1 0x1 PUSH1 0x1 PUSH1 0xA0 SHL SUB AND PUSH32 0x8BE0079C531659141344CD1FD0A4F28419497F9722A3DAAFE3B4186F6B6457E0 DUP3 DUP1 LOG3 DUP1 RETURN JUMPDEST POP CALLVALUE PUSH2 0x345 JUMPI PUSH1 0x60 CALLDATASIZE PUSH1 0x3 NOT ADD SLT PUSH2 0x345 JUMPI DUP3 CALLDATALOAD PUSH8 0xFFFFFFFFFFFFFFFF DUP2 GT PUSH2 0x341 JUMPI PUSH2 0xD97 SWAP1 CALLDATASIZE SWAP1 DUP6 ADD PUSH2 0x1924 JUMP JUMPDEST SWAP3 PUSH1 0x1 PUSH1 0x1 PUSH1 0xA0 SHL SUB SWAP1 PUSH1 0x24 CALLDATALOAD SWAP1 DUP3 DUP3 AND DUP1 DUP4 SUB PUSH2 0xF47 JUMPI PUSH1 0x44 CALLDATALOAD SWAP4 DUP5 AND SWAP4 DUP5 DUP2 SUB PUSH2 0x297 JUMPI PUSH2 0xE6E SWAP1 PUSH2 0xDE4 PUSH1 0xFF PUSH1 0x6 SLOAD PUSH1 0x8 SHR AND PUSH2 0xDDE DUP2 PUSH2 0xDD9 PUSH2 0x1B33 JUMP JUMPDEST PUSH2 0x24F0 JUMP JUMPDEST ISZERO PUSH2 0x1B88 JUMP JUMPDEST PUSH2 0xE34 DUP6 DUP9 MLOAD PUSH2 0xDF3 DUP2 PUSH2 0x18CA JUMP JUMPDEST PUSH1 0x2A DUP2 MSTORE PUSH32 0x426173655265776172643A20496E697469616C697A696E6720636C6F6E652077 PUSH1 0x20 DUP3 ADD MSTORE PUSH10 0x34BA341037BBB732B91D PUSH1 0xB1 SHL DUP11 DUP3 ADD MSTORE PUSH2 0x2537 JUMP JUMPDEST DUP7 MLOAD PUSH2 0xE3F DUP2 PUSH2 0x1898 JUMP JUMPDEST PUSH1 0x17 DUP2 MSTORE PUSH32 0x426173655265776172643A20436F6E74726F6C6C65723A000000000000000000 PUSH1 0x20 DUP3 ADD MSTORE PUSH2 0x2537 JUMP JUMPDEST ISZERO PUSH2 0xF0C JUMPI POP PUSH2 0xEED SWAP4 SWAP5 PUSH2 0xE85 PUSH2 0xE8A SWAP3 PUSH2 0x1AEC JUMP JUMPDEST PUSH2 0x1C5F JUMP JUMPDEST PUSH12 0xFFFFFFFFFFFFFFFFFFFFFFFF PUSH1 0xA0 SHL PUSH1 0xA SLOAD AND OR PUSH1 0xA SSTORE PUSH9 0x20636F6D706C657465 PUSH1 0xB8 SHL DUP2 MLOAD SWAP2 PUSH2 0xEBB DUP4 PUSH2 0x18CA JUMP JUMPDEST PUSH1 0x29 DUP4 MSTORE PUSH32 0x426173655265776172643A20436C6F6E6520696E697469616C697A6174696F6E PUSH1 0x20 DUP5 ADD MSTORE DUP3 ADD MSTORE PUSH2 0x246A JUMP JUMPDEST PUSH2 0x100 PUSH2 0xFF00 NOT PUSH1 0x6 SLOAD AND OR PUSH1 0x6 SSTORE PUSH2 0x3AE PUSH2 0xF07 PUSH2 0x1BCA JUMP JUMPDEST PUSH2 0x246A JUMP JUMPDEST PUSH1 0x64 SWAP1 PUSH1 0x20 DUP6 MLOAD SWAP2 PUSH3 0x461BCD PUSH1 0xE5 SHL DUP4 MSTORE DUP3 ADD MSTORE PUSH1 0x15 PUSH1 0x24 DUP3 ADD MSTORE PUSH21 0x496E76616C6964206F776E65722061646472657373 PUSH1 0x58 SHL PUSH1 0x44 DUP3 ADD MSTORE REVERT JUMPDEST DUP6 DUP1 REVERT JUMPDEST POP CALLVALUE PUSH2 0x345 JUMPI PUSH1 0x20 CALLDATASIZE PUSH1 0x3 NOT ADD SLT PUSH2 0x345 JUMPI PUSH1 0x20 SWAP2 PUSH1 0xFF SWAP1 DUP3 SWAP1 PUSH1 0x1 PUSH1 0x1 PUSH1 0xA0 SHL SUB PUSH2 0xF75 PUSH2 0x187D JUMP JUMPDEST AND DUP2 MSTORE PUSH1 0xB DUP6 MSTORE KECCAK256 SLOAD AND SWAP1 MLOAD SWAP1 ISZERO ISZERO DUP2 MSTORE RETURN JUMPDEST POP CALLVALUE PUSH2 0x345 JUMPI PUSH1 0x20 DUP1 PUSH1 0x3 NOT CALLDATASIZE ADD SLT PUSH2 0x341 JUMPI PUSH2 0xFA3 PUSH2 0x187D JUMP JUMPDEST PUSH2 0xFAB PUSH2 0x1A94 JUMP JUMPDEST PUSH1 0x1 PUSH1 0x1 PUSH1 0xA0 SHL SUB AND DUP1 DUP5 MSTORE PUSH1 0xB DUP3 MSTORE DUP3 DUP5 KECCAK256 SLOAD SWAP1 SWAP3 SWAP1 PUSH2 0xFCE SWAP1 PUSH1 0xFF AND PUSH2 0x219E JUMP JUMPDEST DUP3 DUP5 MSTORE PUSH1 0x2 DUP3 MSTORE PUSH1 0xFF DUP2 DUP6 KECCAK256 SLOAD AND PUSH2 0x1040 JUMPI DUP3 DUP5 MSTORE PUSH1 0xB DUP3 MSTORE DUP1 DUP5 KECCAK256 DUP1 SLOAD PUSH1 0xFF NOT AND SWAP1 SSTORE PUSH1 0xD SLOAD DUP1 ISZERO PUSH2 0x102D JUMPI PUSH1 0x0 NOT ADD PUSH1 0xD SSTORE MLOAD TIMESTAMP DUP2 MSTORE PUSH32 0xAAD3B8B4C90ABEFF65C7C35B28EC3E65598AE26450D296EE4C2F1D5B77352F0B SWAP2 SWAP1 LOG2 DUP1 RETURN JUMPDEST PUSH4 0x4E487B71 PUSH1 0xE0 SHL DUP6 MSTORE PUSH1 0x11 DUP7 MSTORE PUSH1 0x24 DUP6 REVERT JUMPDEST MLOAD PUSH3 0x461BCD PUSH1 0xE5 SHL DUP2 MSTORE DUP1 DUP6 ADD SWAP2 SWAP1 SWAP2 MSTORE PUSH1 0x18 PUSH1 0x24 DUP3 ADD MSTORE PUSH32 0x557365722068617320616C726561647920636C61696D65640000000000000000 PUSH1 0x44 DUP3 ADD MSTORE PUSH1 0x64 SWAP1 REVERT JUMPDEST POP DUP3 CALLVALUE PUSH2 0x341 JUMPI DUP3 PUSH1 0x3 NOT CALLDATASIZE ADD SLT PUSH2 0x341 JUMPI PUSH1 0x20 SWAP3 POP SLOAD SWAP1 MLOAD SWAP1 DUP2 MSTORE RETURN JUMPDEST POP DUP3 SWAP1 CALLVALUE PUSH2 0x341 JUMPI PUSH1 0x20 CALLDATASIZE PUSH1 0x3 NOT ADD SLT PUSH2 0x341 JUMPI PUSH2 0x10BD PUSH2 0x187D JUMP JUMPDEST PUSH2 0x10C5 PUSH2 0x1A94 JUMP JUMPDEST PUSH1 0x1 PUSH1 0x1 PUSH1 0xA0 SHL SUB AND SWAP2 PUSH2 0x10DA DUP4 ISZERO ISZERO PUSH2 0x2427 JUMP JUMPDEST DUP3 DUP5 MSTORE PUSH1 0xB PUSH1 0x20 MSTORE PUSH1 0xFF DUP3 DUP6 KECCAK256 SLOAD AND PUSH2 0x113D JUMPI POP PUSH1 0x20 PUSH32 0xE555B777C329B8A7C20E6D3D118F38F089D96B16A025D198A96BB39D4411AC63 SWAP2 DUP4 DUP6 MSTORE PUSH1 0xB DUP3 MSTORE DUP1 DUP6 KECCAK256 PUSH1 0x1 PUSH1 0xFF NOT DUP3 SLOAD AND OR SWAP1 SSTORE PUSH2 0x1132 PUSH1 0xD SLOAD PUSH2 0x21D9 JUMP JUMPDEST PUSH1 0xD SSTORE MLOAD TIMESTAMP DUP2 MSTORE LOG2 DUP1 RETURN JUMPDEST PUSH1 0x20 PUSH1 0x64 SWAP3 MLOAD SWAP2 PUSH3 0x461BCD PUSH1 0xE5 SHL DUP4 MSTORE DUP3 ADD MSTORE PUSH1 0x10 PUSH1 0x24 DUP3 ADD MSTORE PUSH16 0x416C726561647920656C696769626C65 PUSH1 0x80 SHL PUSH1 0x44 DUP3 ADD MSTORE REVERT JUMPDEST POP CALLVALUE PUSH2 0x345 JUMPI DUP2 PUSH1 0x3 NOT CALLDATASIZE ADD SLT PUSH2 0x345 JUMPI PUSH2 0x3AE SWAP1 PUSH2 0x118F PUSH2 0x1A94 JUMP JUMPDEST PUSH2 0x11CC DUP2 MLOAD PUSH2 0x119D DUP2 PUSH2 0x1898 JUMP JUMPDEST PUSH1 0x1F DUP2 MSTORE PUSH32 0x426173655265776172643A20446561637469766174696E672072657761726400 PUSH1 0x20 DUP3 ADD MSTORE PUSH2 0x246A JUMP JUMPDEST PUSH1 0xFF NOT PUSH1 0x6 SLOAD AND PUSH1 0x6 SSTORE PUSH32 0x4DCBE1841EE9BD9C888E46C0B35574429B1C0F1071806180028DEE2F9A106430 PUSH1 0x20 DUP3 MLOAD DUP6 DUP2 MSTORE LOG1 MLOAD PUSH2 0x1209 DUP2 PUSH2 0x1898 JUMP JUMPDEST PUSH1 0x1E DUP2 MSTORE PUSH32 0x426173655265776172643A205265776172642064656163746976617465640000 PUSH1 0x20 DUP3 ADD MSTORE PUSH2 0x246A JUMP JUMPDEST POP SWAP1 CALLVALUE PUSH2 0x83C JUMPI PUSH1 0x60 CALLDATASIZE PUSH1 0x3 NOT ADD SLT PUSH2 0x83C JUMPI PUSH2 0x1253 PUSH2 0x187D JUMP JUMPDEST POP PUSH1 0x44 CALLDATALOAD SWAP1 PUSH8 0xFFFFFFFFFFFFFFFF DUP3 GT PUSH2 0x83C JUMPI POP PUSH1 0x20 SWAP3 PUSH2 0x1277 SWAP2 CALLDATASIZE SWAP2 ADD PUSH2 0x196B JUMP JUMPDEST POP POP MLOAD PUSH1 0x1 DUP2 MSTORE RETURN JUMPDEST DUP3 DUP5 CALLVALUE PUSH2 0x345 JUMPI PUSH1 0x20 CALLDATASIZE PUSH1 0x3 NOT ADD SLT PUSH2 0x345 JUMPI DUP1 CALLDATALOAD PUSH8 0xFFFFFFFFFFFFFFFF DUP2 GT PUSH2 0x341 JUMPI PUSH2 0xEED SWAP2 PUSH2 0x12B4 SWAP2 CALLDATASIZE SWAP2 ADD PUSH2 0x1924 JUMP JUMPDEST PUSH2 0xE85 PUSH1 0xFF PUSH1 0x6 SLOAD PUSH1 0x8 SHR AND PUSH2 0xDDE DUP2 PUSH2 0xDD9 PUSH2 0x1B33 JUMP JUMPDEST POP CALLVALUE PUSH2 0x345 JUMPI DUP2 PUSH1 0x3 NOT CALLDATASIZE ADD SLT PUSH2 0x345 JUMPI PUSH1 0x20 SWAP1 PUSH1 0x3 SLOAD SWAP1 MLOAD SWAP1 DUP2 MSTORE RETURN JUMPDEST POP CALLVALUE PUSH2 0x345 JUMPI DUP2 PUSH1 0x3 NOT CALLDATASIZE ADD SLT PUSH2 0x345 JUMPI PUSH1 0x20 SWAP1 PUSH1 0xFF PUSH1 0x6 SLOAD PUSH1 0x8 SHR AND SWAP1 MLOAD SWAP1 ISZERO ISZERO DUP2 MSTORE RETURN JUMPDEST POP CALLVALUE PUSH2 0x345 JUMPI DUP2 PUSH1 0x3 NOT CALLDATASIZE ADD SLT PUSH2 0x345 JUMPI PUSH1 0x20 SWAP1 PUSH1 0xD SLOAD SWAP1 MLOAD SWAP1 DUP2 MSTORE RETURN JUMPDEST POP SWAP1 CALLVALUE PUSH2 0x83C JUMPI PUSH1 0x20 CALLDATASIZE PUSH1 0x3 NOT ADD SLT PUSH2 0x83C JUMPI PUSH1 0x1 PUSH1 0x1 PUSH1 0xA0 SHL SUB PUSH2 0x1351 PUSH2 0x187D JUMP JUMPDEST AND DUP2 MSTORE PUSH1 0xB PUSH1 0x20 MSTORE PUSH1 0xFF DUP3 DUP2 DUP2 DUP5 KECCAK256 SLOAD AND SWAP3 PUSH1 0x2 PUSH1 0x20 MSTORE KECCAK256 SLOAD AND DUP3 MLOAD SWAP2 ISZERO ISZERO DUP3 MSTORE ISZERO ISZERO PUSH1 0x20 DUP3 ADD MSTORE RETURN JUMPDEST POP SWAP2 CALLVALUE PUSH2 0x345 JUMPI PUSH1 0x20 SWAP3 DUP4 PUSH1 0x3 NOT CALLDATASIZE ADD SLT PUSH2 0x341 JUMPI PUSH2 0x1398 PUSH2 0x187D JUMP JUMPDEST SWAP2 PUSH2 0x13A1 PUSH2 0x210B JUMP JUMPDEST PUSH2 0x13AC PUSH2 0xF07 PUSH2 0x1F2F JUMP JUMPDEST PUSH2 0x1414 PUSH1 0xFF PUSH1 0x6 SLOAD AND PUSH2 0x13C1 DUP2 PUSH2 0xDD9 PUSH2 0x1F68 JUMP JUMPDEST PUSH2 0x13D2 TIMESTAMP PUSH2 0x13CD PUSH2 0x1FA1 JUMP JUMPDEST PUSH2 0x24AB JUMP JUMPDEST DUP3 SLOAD PUSH2 0x13E0 DUP2 PUSH2 0x13CD PUSH2 0x1FDA JUMP JUMPDEST PUSH2 0x13F8 PUSH1 0x5 SLOAD SWAP3 PUSH2 0x13F3 DUP5 PUSH2 0x13CD PUSH2 0x2013 JUMP JUMPDEST PUSH2 0x204C JUMP JUMPDEST TIMESTAMP LT ISZERO SWAP1 DUP2 PUSH2 0x1530 JUMPI JUMPDEST POP PUSH2 0x140F DUP2 PUSH2 0xDD9 PUSH2 0x208F JUMP JUMPDEST PUSH2 0x20C8 JUMP JUMPDEST PUSH1 0x1 PUSH1 0x1 PUSH1 0xA0 SHL SUB DUP4 DUP2 AND SWAP2 SWAP1 CALLER DUP4 SWAP1 SUB PUSH2 0x1504 JUMPI JUMPDEST POP PUSH2 0x1434 DUP5 PUSH2 0x2392 JUMP JUMPDEST ISZERO PUSH2 0x14CD JUMPI DUP2 DUP6 MSTORE PUSH1 0xB DUP7 MSTORE PUSH2 0x144F PUSH1 0xFF DUP5 DUP8 KECCAK256 SLOAD AND PUSH2 0x219E JUMP JUMPDEST DUP2 DUP6 MSTORE PUSH1 0x2 DUP7 MSTORE PUSH1 0xFF DUP4 DUP7 KECCAK256 SLOAD AND PUSH2 0x1498 JUMPI POP DUP4 SWAP5 PUSH1 0x2 SWAP2 PUSH2 0x1491 SWAP6 MSTORE MSTORE DUP4 KECCAK256 PUSH1 0x1 PUSH1 0xFF NOT DUP3 SLOAD AND OR SWAP1 SSTORE PUSH2 0x1485 PUSH1 0x3 SLOAD PUSH2 0x21D9 JUMP JUMPDEST PUSH1 0x3 SSTORE PUSH2 0xB66 DUP2 PUSH2 0x2327 JUMP JUMPDEST PUSH1 0x1 DUP1 SSTORE DUP1 RETURN JUMPDEST DUP3 MLOAD PUSH3 0x461BCD PUSH1 0xE5 SHL DUP2 MSTORE SWAP1 DUP2 ADD DUP7 SWAP1 MSTORE PUSH1 0xF PUSH1 0x24 DUP3 ADD MSTORE PUSH15 0x105B1C9958591E4818DB185A5B5959 PUSH1 0x8A SHL PUSH1 0x44 DUP3 ADD MSTORE PUSH1 0x64 SWAP1 REVERT JUMPDEST DUP3 MLOAD PUSH3 0x461BCD PUSH1 0xE5 SHL DUP2 MSTORE SWAP1 DUP2 ADD DUP7 SWAP1 MSTORE PUSH1 0x11 PUSH1 0x24 DUP3 ADD MSTORE PUSH17 0x10D85B9B9BDD0818DB185A5B481CDC1BDD PUSH1 0x7A SHL PUSH1 0x44 DUP3 ADD MSTORE PUSH1 0x64 SWAP1 REVERT JUMPDEST DUP1 PUSH2 0x151C SWAP2 DUP8 SLOAD AND CALLER EQ SWAP1 DUP2 ISZERO PUSH2 0x1522 JUMPI JUMPDEST POP PUSH2 0x2161 JUMP JUMPDEST CODESIZE PUSH2 0x142A JUMP JUMPDEST SWAP1 POP PUSH1 0xA SLOAD AND CALLER EQ CODESIZE PUSH2 0x1516 JUMP JUMPDEST DUP1 ISZERO SWAP2 POP DUP2 ISZERO PUSH2 0x1542 JUMPI JUMPDEST POP CODESIZE PUSH2 0x1402 JUMP JUMPDEST SWAP1 POP TIMESTAMP GT ISZERO CODESIZE PUSH2 0x153B JUMP JUMPDEST POP DUP3 CALLVALUE PUSH2 0x341 JUMPI DUP3 PUSH1 0x3 NOT CALLDATASIZE ADD SLT PUSH2 0x341 JUMPI PUSH2 0x1567 PUSH2 0x210B JUMP JUMPDEST PUSH2 0x1572 PUSH2 0xF07 PUSH2 0x1F2F JUMP JUMPDEST PUSH2 0x15CA PUSH1 0xFF PUSH1 0x6 SLOAD AND PUSH2 0x1587 DUP2 PUSH2 0xDD9 PUSH2 0x1F68 JUMP JUMPDEST PUSH2 0x1593 TIMESTAMP PUSH2 0x13CD PUSH2 0x1FA1 JUMP JUMPDEST DUP3 SLOAD PUSH2 0x15A1 DUP2 PUSH2 0x13CD PUSH2 0x1FDA JUMP JUMPDEST PUSH2 0x15B4 PUSH1 0x5 SLOAD SWAP3 PUSH2 0x13F3 DUP5 PUSH2 0x13CD PUSH2 0x2013 JUMP JUMPDEST TIMESTAMP LT ISZERO SWAP1 DUP2 PUSH2 0x16CA JUMPI POP PUSH2 0x140F DUP2 PUSH2 0xDD9 PUSH2 0x208F JUMP JUMPDEST PUSH2 0x15D2 PUSH2 0x210B JUMP JUMPDEST PUSH2 0x15DD PUSH2 0xF07 PUSH2 0x1F2F JUMP JUMPDEST PUSH2 0x15F2 PUSH1 0xFF PUSH1 0x6 SLOAD AND PUSH2 0x1587 DUP2 PUSH2 0xDD9 PUSH2 0x1F68 JUMP JUMPDEST PUSH2 0x15FB CALLER PUSH2 0x2392 JUMP JUMPDEST ISZERO PUSH2 0x1694 JUMPI CALLER DUP4 MSTORE PUSH1 0xB PUSH1 0x20 MSTORE PUSH2 0x1617 PUSH1 0xFF DUP4 DUP6 KECCAK256 SLOAD AND PUSH2 0x219E JUMP JUMPDEST CALLER DUP4 MSTORE PUSH1 0x2 PUSH1 0x20 MSTORE PUSH1 0xFF DUP3 DUP5 KECCAK256 SLOAD AND PUSH2 0x1660 JUMPI POP CALLER DUP3 MSTORE PUSH1 0x2 PUSH1 0x20 MSTORE DUP2 KECCAK256 PUSH1 0x1 PUSH1 0xFF NOT DUP3 SLOAD AND OR SWAP1 SSTORE PUSH2 0x164B PUSH1 0x3 SLOAD PUSH2 0x21D9 JUMP JUMPDEST PUSH1 0x3 SSTORE PUSH2 0x1657 CALLER PUSH2 0x2327 JUMP JUMPDEST PUSH2 0x1491 CALLER PUSH2 0x21E8 JUMP JUMPDEST PUSH1 0x20 PUSH1 0x64 SWAP3 MLOAD SWAP2 PUSH3 0x461BCD PUSH1 0xE5 SHL DUP4 MSTORE DUP3 ADD MSTORE PUSH1 0xF PUSH1 0x24 DUP3 ADD MSTORE PUSH15 0x105B1C9958591E4818DB185A5B5959 PUSH1 0x8A SHL PUSH1 0x44 DUP3 ADD MSTORE REVERT JUMPDEST PUSH1 0x20 PUSH1 0x64 SWAP3 MLOAD SWAP2 PUSH3 0x461BCD PUSH1 0xE5 SHL DUP4 MSTORE DUP3 ADD MSTORE PUSH1 0x11 PUSH1 0x24 DUP3 ADD MSTORE PUSH17 0x10D85B9B9BDD0818DB185A5B481CDC1BDD PUSH1 0x7A SHL PUSH1 0x44 DUP3 ADD MSTORE REVERT JUMPDEST DUP1 ISZERO SWAP2 POP DUP2 ISZERO PUSH2 0x16DC JUMPI JUMPDEST POP DUP6 PUSH2 0x1402 JUMP JUMPDEST SWAP1 POP TIMESTAMP GT ISZERO DUP6 PUSH2 0x16D5 JUMP JUMPDEST POP CALLVALUE PUSH2 0x345 JUMPI DUP2 PUSH1 0x3 NOT CALLDATASIZE ADD SLT PUSH2 0x345 JUMPI PUSH2 0x3AE SWAP1 PUSH2 0x1704 PUSH2 0x1A94 JUMP JUMPDEST PUSH2 0x1741 DUP2 MLOAD PUSH2 0x1712 DUP2 PUSH2 0x1898 JUMP JUMPDEST PUSH1 0x1D DUP2 MSTORE PUSH32 0x426173655265776172643A2041637469766174696E6720726577617264000000 PUSH1 0x20 DUP3 ADD MSTORE PUSH2 0x246A JUMP JUMPDEST PUSH1 0x1 PUSH1 0xFF NOT PUSH1 0x6 SLOAD AND OR PUSH1 0x6 SSTORE PUSH32 0x4DCBE1841EE9BD9C888E46C0B35574429B1C0F1071806180028DEE2F9A106430 PUSH1 0x20 DUP3 MLOAD PUSH1 0x1 DUP2 MSTORE LOG1 MLOAD PUSH2 0x1782 DUP2 PUSH2 0x1898 JUMP JUMPDEST PUSH1 0x1C DUP2 MSTORE PUSH32 0x426173655265776172643A205265776172642061637469766174656400000000 PUSH1 0x20 DUP3 ADD MSTORE PUSH2 0x246A JUMP JUMPDEST POP CALLVALUE PUSH2 0x345 JUMPI DUP2 PUSH1 0x3 NOT CALLDATASIZE ADD SLT PUSH2 0x345 JUMPI PUSH2 0x17F6 SWAP1 PUSH1 0xD SLOAD PUSH1 0xE SLOAD PUSH1 0x3 SLOAD PUSH1 0xFF PUSH1 0x8 SLOAD AND SWAP1 PUSH1 0x9 SLOAD SWAP3 PUSH2 0x17E2 PUSH2 0x19D6 JUMP JUMPDEST SWAP6 DUP1 MLOAD SWAP8 DUP9 SWAP8 PUSH1 0xC0 DUP10 MSTORE PUSH1 0xC0 DUP10 ADD SWAP1 PUSH2 0x1858 JUMP JUMPDEST SWAP6 PUSH1 0x20 DUP9 ADD MSTORE DUP7 ADD MSTORE PUSH1 0x60 DUP6 ADD MSTORE ISZERO ISZERO PUSH1 0x80 DUP5 ADD MSTORE PUSH1 0xA0 DUP4 ADD MSTORE SUB SWAP1 RETURN JUMPDEST DUP4 SWAP1 CALLVALUE PUSH2 0x345 JUMPI DUP2 PUSH1 0x3 NOT CALLDATASIZE ADD SLT PUSH2 0x345 JUMPI PUSH1 0x20 SWAP1 PUSH1 0xFF PUSH1 0x6 SLOAD AND ISZERO ISZERO DUP2 MSTORE RETURN JUMPDEST PUSH1 0x0 JUMPDEST DUP4 DUP2 LT PUSH2 0x1848 JUMPI POP POP PUSH1 0x0 SWAP2 ADD MSTORE JUMP JUMPDEST DUP2 DUP2 ADD MLOAD DUP4 DUP3 ADD MSTORE PUSH1 0x20 ADD PUSH2 0x1838 JUMP JUMPDEST SWAP1 PUSH1 0x20 SWAP2 PUSH2 0x1871 DUP2 MLOAD DUP1 SWAP3 DUP2 DUP6 MSTORE DUP6 DUP1 DUP7 ADD SWAP2 ADD PUSH2 0x1835 JUMP JUMPDEST PUSH1 0x1F ADD PUSH1 0x1F NOT AND ADD ADD SWAP1 JUMP JUMPDEST PUSH1 0x4 CALLDATALOAD SWAP1 PUSH1 0x1 PUSH1 0x1 PUSH1 0xA0 SHL SUB DUP3 AND DUP3 SUB PUSH2 0x1893 JUMPI JUMP JUMPDEST PUSH1 0x0 DUP1 REVERT JUMPDEST PUSH1 0x40 DUP2 ADD SWAP1 DUP2 LT PUSH8 0xFFFFFFFFFFFFFFFF DUP3 GT OR PUSH2 0x18B4 JUMPI PUSH1 0x40 MSTORE JUMP JUMPDEST PUSH4 0x4E487B71 PUSH1 0xE0 SHL PUSH1 0x0 MSTORE PUSH1 0x41 PUSH1 0x4 MSTORE PUSH1 0x24 PUSH1 0x0 REVERT JUMPDEST PUSH1 0x60 DUP2 ADD SWAP1 DUP2 LT PUSH8 0xFFFFFFFFFFFFFFFF DUP3 GT OR PUSH2 0x18B4 JUMPI PUSH1 0x40 MSTORE JUMP JUMPDEST SWAP1 PUSH1 0x1F DUP1 NOT SWAP2 ADD AND DUP2 ADD SWAP1 DUP2 LT PUSH8 0xFFFFFFFFFFFFFFFF DUP3 GT OR PUSH2 0x18B4 JUMPI PUSH1 0x40 MSTORE JUMP JUMPDEST PUSH8 0xFFFFFFFFFFFFFFFF DUP2 GT PUSH2 0x18B4 JUMPI PUSH1 0x1F ADD PUSH1 0x1F NOT AND PUSH1 0x20 ADD SWAP1 JUMP JUMPDEST DUP2 PUSH1 0x1F DUP3 ADD SLT ISZERO PUSH2 0x1893 JUMPI DUP1 CALLDATALOAD SWAP1 PUSH2 0x193B DUP3 PUSH2 0x1908 JUMP JUMPDEST SWAP3 PUSH2 0x1949 PUSH1 0x40 MLOAD SWAP5 DUP6 PUSH2 0x18E6 JUMP JUMPDEST DUP3 DUP5 MSTORE PUSH1 0x20 DUP4 DUP4 ADD ADD GT PUSH2 0x1893 JUMPI DUP2 PUSH1 0x0 SWAP3 PUSH1 0x20 DUP1 SWAP4 ADD DUP4 DUP7 ADD CALLDATACOPY DUP4 ADD ADD MSTORE SWAP1 JUMP JUMPDEST SWAP2 DUP2 PUSH1 0x1F DUP5 ADD SLT ISZERO PUSH2 0x1893 JUMPI DUP3 CALLDATALOAD SWAP2 PUSH8 0xFFFFFFFFFFFFFFFF DUP4 GT PUSH2 0x1893 JUMPI PUSH1 0x20 DUP1 DUP6 ADD SWAP5 DUP5 PUSH1 0x5 SHL ADD ADD GT PUSH2 0x1893 JUMPI JUMP JUMPDEST SWAP1 PUSH1 0x1 DUP3 DUP2 SHR SWAP3 AND DUP1 ISZERO PUSH2 0x19CC JUMPI JUMPDEST PUSH1 0x20 DUP4 LT EQ PUSH2 0x19B6 JUMPI JUMP JUMPDEST PUSH4 0x4E487B71 PUSH1 0xE0 SHL PUSH1 0x0 MSTORE PUSH1 0x22 PUSH1 0x4 MSTORE PUSH1 0x24 PUSH1 0x0 REVERT JUMPDEST SWAP2 PUSH1 0x7F AND SWAP2 PUSH2 0x19AB JUMP JUMPDEST PUSH1 0x40 MLOAD SWAP1 PUSH1 0x0 DUP3 PUSH1 0x7 SLOAD SWAP2 PUSH2 0x19EA DUP4 PUSH2 0x199C JUMP JUMPDEST DUP1 DUP4 MSTORE SWAP3 PUSH1 0x1 SWAP1 DUP2 DUP2 AND SWAP1 DUP2 ISZERO PUSH2 0x1A72 JUMPI POP PUSH1 0x1 EQ PUSH2 0x1A13 JUMPI JUMPDEST POP PUSH2 0x1A11 SWAP3 POP SUB DUP4 PUSH2 0x18E6 JUMP JUMPDEST JUMP JUMPDEST PUSH1 0x7 PUSH1 0x0 SWAP1 DUP2 MSTORE SWAP2 POP PUSH32 0xA66CC928B5EDB82AF9BD49922954155AB7B0942694BEA4CE44661D9A8736C688 JUMPDEST DUP5 DUP4 LT PUSH2 0x1A57 JUMPI POP PUSH2 0x1A11 SWAP4 POP POP DUP2 ADD PUSH1 0x20 ADD CODESIZE PUSH2 0x1A04 JUMP JUMPDEST DUP2 SWAP4 POP SWAP1 DUP2 PUSH1 0x20 SWAP3 SLOAD DUP4 DUP6 DUP11 ADD ADD MSTORE ADD SWAP2 ADD SWAP1 SWAP2 DUP6 SWAP3 PUSH2 0x1A3E JUMP JUMPDEST SWAP1 POP PUSH1 0x20 SWAP3 POP PUSH2 0x1A11 SWAP5 SWAP2 POP PUSH1 0xFF NOT AND DUP3 DUP5 ADD MSTORE ISZERO ISZERO PUSH1 0x5 SHL DUP3 ADD ADD CODESIZE PUSH2 0x1A04 JUMP JUMPDEST PUSH1 0x0 SLOAD PUSH1 0x1 PUSH1 0x1 PUSH1 0xA0 SHL SUB AND CALLER SUB PUSH2 0x1AA8 JUMPI JUMP JUMPDEST PUSH1 0x64 PUSH1 0x40 MLOAD PUSH3 0x461BCD PUSH1 0xE5 SHL DUP2 MSTORE PUSH1 0x20 PUSH1 0x4 DUP3 ADD MSTORE PUSH1 0x20 PUSH1 0x24 DUP3 ADD MSTORE PUSH32 0x4F776E61626C653A2063616C6C6572206973206E6F7420746865206F776E6572 PUSH1 0x44 DUP3 ADD MSTORE REVERT JUMPDEST PUSH1 0x0 DUP1 SLOAD PUSH1 0x1 PUSH1 0x1 PUSH1 0xA0 SHL SUB SWAP3 DUP4 AND PUSH1 0x1 PUSH1 0x1 PUSH1 0xA0 SHL SUB NOT DUP3 AND DUP2 OR DUP4 SSTORE SWAP3 AND SWAP1 PUSH32 0x8BE0079C531659141344CD1FD0A4F28419497F9722A3DAAFE3B4186F6B6457E0 SWAP1 DUP1 LOG3 JUMP JUMPDEST PUSH1 0x40 MLOAD SWAP1 PUSH2 0x1B40 DUP3 PUSH2 0x18CA JUMP JUMPDEST PUSH1 0x33 DUP3 MSTORE PUSH19 0x34B734BA34B0B634BD32B21039BA30BA3AB99D PUSH1 0x69 SHL PUSH1 0x40 DUP4 PUSH32 0x426173655265776172643A20496E697469616C697A65722063616C6C65642C20 PUSH1 0x20 DUP3 ADD MSTORE ADD MSTORE JUMP JUMPDEST ISZERO PUSH2 0x1B8F JUMPI JUMP JUMPDEST PUSH1 0x40 MLOAD PUSH3 0x461BCD PUSH1 0xE5 SHL DUP2 MSTORE PUSH1 0x20 PUSH1 0x4 DUP3 ADD MSTORE PUSH1 0x13 PUSH1 0x24 DUP3 ADD MSTORE PUSH19 0x105B1C9958591E481A5B9A5D1A585B1A5E9959 PUSH1 0x6A SHL PUSH1 0x44 DUP3 ADD MSTORE PUSH1 0x64 SWAP1 REVERT JUMPDEST PUSH1 0x40 MLOAD SWAP1 PUSH2 0x1BD7 DUP3 PUSH2 0x1898 JUMP JUMPDEST PUSH1 0x20 DUP3 MSTORE PUSH32 0x426173655265776172643A20436F6E747261637420696E697469616C697A6564 PUSH1 0x20 DUP4 ADD MSTORE JUMP JUMPDEST ISZERO PUSH2 0x1C0A JUMPI JUMP JUMPDEST PUSH1 0x40 MLOAD PUSH3 0x461BCD PUSH1 0xE5 SHL DUP2 MSTORE PUSH1 0x20 PUSH1 0x4 DUP3 ADD MSTORE PUSH1 0x27 PUSH1 0x24 DUP3 ADD MSTORE PUSH32 0x446973747269627574696F6E2064617465206D75737420626520696E20746865 PUSH1 0x44 DUP3 ADD MSTORE PUSH7 0x20667574757265 PUSH1 0xC8 SHL PUSH1 0x64 DUP3 ADD MSTORE PUSH1 0x84 SWAP1 REVERT JUMPDEST DUP1 MLOAD DUP2 ADD SWAP1 PUSH1 0x20 SWAP1 PUSH1 0x60 DUP2 DUP4 DUP6 ADD SWAP5 SUB SLT PUSH2 0x1893 JUMPI DUP2 DUP2 ADD MLOAD SWAP2 PUSH8 0xFFFFFFFFFFFFFFFF SWAP3 DUP4 DUP2 GT PUSH2 0x1893 JUMPI DUP3 ADD SWAP2 DUP5 PUSH1 0x3F DUP5 ADD SLT ISZERO PUSH2 0x1893 JUMPI DUP2 DUP4 ADD MLOAD SWAP3 PUSH2 0x1CA6 DUP5 PUSH2 0x1908 JUMP JUMPDEST SWAP4 PUSH1 0x40 SWAP7 PUSH2 0x1CB6 DUP9 MLOAD SWAP7 DUP8 PUSH2 0x18E6 JUMP JUMPDEST DUP2 DUP7 MSTORE DUP8 DUP3 DUP5 ADD ADD GT PUSH2 0x1893 JUMPI PUSH2 0x1CD2 SWAP2 DUP8 DUP6 DUP8 ADD SWAP2 ADD PUSH2 0x1835 JUMP JUMPDEST DUP5 DUP2 ADD MLOAD SWAP4 DUP5 ISZERO ISZERO SWAP2 DUP3 DUP7 SUB PUSH2 0x1893 JUMPI PUSH1 0x60 ADD MLOAD SWAP6 DUP5 MLOAD ISZERO PUSH2 0x1EE0 JUMPI DUP6 PUSH2 0x1ED0 JUMPI JUMPDEST DUP1 MLOAD PUSH1 0x60 DUP2 ADD DUP2 DUP2 LT DUP5 DUP3 GT OR PUSH2 0x18B4 JUMPI DUP3 MSTORE DUP6 DUP2 MSTORE DUP5 DUP2 ADD SWAP4 DUP5 MSTORE ADD SWAP3 DUP7 DUP5 MSTORE DUP5 MLOAD SWAP2 DUP3 GT PUSH2 0x18B4 JUMPI PUSH2 0x1D29 PUSH1 0x7 SLOAD PUSH2 0x199C JUMP JUMPDEST PUSH1 0x1F DUP2 GT PUSH2 0x1E6B JUMPI JUMPDEST POP DUP1 PUSH1 0x1F DUP4 GT PUSH1 0x1 EQ PUSH2 0x1DDD JUMPI POP DUP2 SWAP1 PUSH1 0x1 SWAP6 PUSH1 0x0 SWAP3 PUSH2 0x1DD2 JUMPI JUMPDEST POP POP PUSH1 0x0 NOT PUSH1 0x3 DUP4 SWAP1 SHL SHR NOT AND SWAP1 DUP5 SHL OR PUSH1 0x7 SSTORE JUMPDEST MLOAD ISZERO ISZERO SWAP1 PUSH1 0xFF NOT SWAP2 PUSH1 0xFF DUP4 PUSH1 0x8 SLOAD AND SWAP2 AND OR PUSH1 0x8 SSTORE MLOAD PUSH1 0x9 SSTORE PUSH1 0x6 SLOAD AND OR PUSH1 0x6 SSTORE TIMESTAMP PUSH1 0x4 SSTORE PUSH1 0x0 EQ PUSH2 0x1DA6 JUMPI PUSH1 0x5 SSTORE JUMPDEST PUSH1 0xA DUP1 SLOAD PUSH1 0x1 PUSH1 0x1 PUSH1 0xA0 SHL SUB NOT AND CALLER OR SWAP1 SSTORE JUMP JUMPDEST POP PUSH3 0x278D00 TIMESTAMP ADD DUP1 TIMESTAMP GT PUSH2 0x1DBC JUMPI PUSH1 0x5 SSTORE PUSH2 0x1D92 JUMP JUMPDEST PUSH4 0x4E487B71 PUSH1 0xE0 SHL PUSH1 0x0 MSTORE PUSH1 0x11 PUSH1 0x4 MSTORE PUSH1 0x24 PUSH1 0x0 REVERT JUMPDEST ADD MLOAD SWAP1 POP CODESIZE DUP1 PUSH2 0x1D4D JUMP JUMPDEST SWAP2 SWAP3 SWAP4 SWAP5 PUSH1 0x1F NOT DUP5 AND PUSH1 0x7 PUSH1 0x0 MSTORE PUSH32 0xA66CC928B5EDB82AF9BD49922954155AB7B0942694BEA4CE44661D9A8736C688 SWAP4 PUSH1 0x0 SWAP1 JUMPDEST DUP3 DUP3 LT PUSH2 0x1E53 JUMPI POP POP SWAP2 PUSH1 0x1 SWAP7 SWAP6 SWAP5 SWAP3 SWAP2 DUP4 DUP9 SWAP6 SWAP4 LT PUSH2 0x1E3A JUMPI JUMPDEST POP POP POP DUP2 SHL ADD PUSH1 0x7 SSTORE PUSH2 0x1D62 JUMP JUMPDEST ADD MLOAD PUSH1 0x0 NOT PUSH1 0xF8 DUP5 PUSH1 0x3 SHL AND SHR NOT AND SWAP1 SSTORE CODESIZE DUP1 DUP1 PUSH2 0x1E2C JUMP JUMPDEST DUP1 PUSH1 0x1 DUP7 SWAP8 DUP3 SWAP5 SWAP8 DUP8 ADD MLOAD DUP2 SSTORE ADD SWAP7 ADD SWAP5 ADD SWAP1 PUSH2 0x1E11 JUMP JUMPDEST PUSH1 0x0 PUSH1 0x7 DUP2 MSTORE PUSH32 0xA66CC928B5EDB82AF9BD49922954155AB7B0942694BEA4CE44661D9A8736C688 PUSH1 0x1F DUP6 ADD PUSH1 0x5 SHR DUP2 ADD SWAP3 DUP5 DUP7 LT PUSH2 0x1EC6 JUMPI JUMPDEST PUSH1 0x1F ADD PUSH1 0x5 SHR ADD SWAP2 JUMPDEST DUP3 DUP2 LT PUSH2 0x1EBB JUMPI POP POP PUSH2 0x1D32 JUMP JUMPDEST DUP2 DUP2 SSTORE PUSH1 0x1 ADD PUSH2 0x1EAD JUMP JUMPDEST SWAP1 SWAP3 POP DUP3 SWAP1 PUSH2 0x1EA4 JUMP JUMPDEST PUSH2 0x1EDB TIMESTAMP DUP9 GT PUSH2 0x1C03 JUMP JUMPDEST PUSH2 0x1CF4 JUMP JUMPDEST MLOAD PUSH3 0x461BCD PUSH1 0xE5 SHL DUP2 MSTORE PUSH1 0x4 DUP2 ADD DUP5 SWAP1 MSTORE PUSH1 0x16 PUSH1 0x24 DUP3 ADD MSTORE PUSH22 0x496E76616C69642077686974656C697374206E616D65 PUSH1 0x50 SHL PUSH1 0x44 DUP3 ADD MSTORE PUSH1 0x64 SWAP1 REVERT JUMPDEST PUSH1 0x60 SWAP1 MLOAD LT PUSH2 0x1F2A JUMPI PUSH1 0x1 SWAP1 JUMP JUMPDEST PUSH1 0x0 SWAP1 JUMP JUMPDEST PUSH1 0x40 MLOAD SWAP1 PUSH2 0x1F3C DUP3 PUSH2 0x1898 JUMP JUMPDEST PUSH1 0x1C DUP3 MSTORE PUSH32 0x426173655265776172643A207768656E41637469766520636865636B00000000 PUSH1 0x20 DUP4 ADD MSTORE JUMP JUMPDEST PUSH1 0x40 MLOAD SWAP1 PUSH2 0x1F75 DUP3 PUSH2 0x1898 JUMP JUMPDEST PUSH1 0x1A DUP3 MSTORE PUSH32 0x426173655265776172643A20416374697665207374617475733A000000000000 PUSH1 0x20 DUP4 ADD MSTORE JUMP JUMPDEST PUSH1 0x40 MLOAD SWAP1 PUSH2 0x1FAE DUP3 PUSH2 0x1898 JUMP JUMPDEST PUSH1 0x1E DUP3 MSTORE PUSH32 0x426173655265776172643A2043757272656E742074696D657374616D703A0000 PUSH1 0x20 DUP4 ADD MSTORE JUMP JUMPDEST PUSH1 0x40 MLOAD SWAP1 PUSH2 0x1FE7 DUP3 PUSH2 0x1898 JUMP JUMPDEST PUSH1 0x1D DUP3 MSTORE PUSH32 0x426173655265776172643A20436C61696D20737461727420646174653A000000 PUSH1 0x20 DUP4 ADD MSTORE JUMP JUMPDEST PUSH1 0x40 MLOAD SWAP1 PUSH2 0x2020 DUP3 PUSH2 0x1898 JUMP JUMPDEST PUSH1 0x1E DUP3 MSTORE PUSH32 0x426173655265776172643A20436C61696D2066696E69736820646174653A0000 PUSH1 0x20 DUP4 ADD MSTORE JUMP JUMPDEST ISZERO PUSH2 0x2053 JUMPI JUMP JUMPDEST PUSH1 0x40 MLOAD PUSH3 0x461BCD PUSH1 0xE5 SHL DUP2 MSTORE PUSH1 0x20 PUSH1 0x4 DUP3 ADD MSTORE PUSH1 0x14 PUSH1 0x24 DUP3 ADD MSTORE PUSH20 0x526577617264206973206E6F7420616374697665 PUSH1 0x60 SHL PUSH1 0x44 DUP3 ADD MSTORE PUSH1 0x64 SWAP1 REVERT JUMPDEST PUSH1 0x40 MLOAD SWAP1 PUSH2 0x209C DUP3 PUSH2 0x1898 JUMP JUMPDEST PUSH1 0x1F DUP3 MSTORE PUSH32 0x426173655265776172643A2057697468696E2074696D652077696E646F773A00 PUSH1 0x20 DUP4 ADD MSTORE JUMP JUMPDEST ISZERO PUSH2 0x20CF JUMPI JUMP JUMPDEST PUSH1 0x40 MLOAD PUSH3 0x461BCD PUSH1 0xE5 SHL DUP2 MSTORE PUSH1 0x20 PUSH1 0x4 DUP3 ADD MSTORE PUSH1 0x14 PUSH1 0x24 DUP3 ADD MSTORE PUSH20 0x13DD5D1CDA59194818DB185A5B481C195C9A5BD9 PUSH1 0x62 SHL PUSH1 0x44 DUP3 ADD MSTORE PUSH1 0x64 SWAP1 REVERT JUMPDEST PUSH1 0x2 PUSH1 0x1 SLOAD EQ PUSH2 0x211C JUMPI PUSH1 0x2 PUSH1 0x1 SSTORE JUMP JUMPDEST PUSH1 0x40 MLOAD PUSH3 0x461BCD PUSH1 0xE5 SHL DUP2 MSTORE PUSH1 0x20 PUSH1 0x4 DUP3 ADD MSTORE PUSH1 0x1F PUSH1 0x24 DUP3 ADD MSTORE PUSH32 0x5265656E7472616E637947756172643A207265656E7472616E742063616C6C00 PUSH1 0x44 DUP3 ADD MSTORE PUSH1 0x64 SWAP1 REVERT JUMPDEST ISZERO PUSH2 0x2168 JUMPI JUMP JUMPDEST PUSH1 0x40 MLOAD PUSH3 0x461BCD PUSH1 0xE5 SHL DUP2 MSTORE PUSH1 0x20 PUSH1 0x4 DUP3 ADD MSTORE PUSH1 0xE PUSH1 0x24 DUP3 ADD MSTORE PUSH14 0x139BDD08185D5D1A1BDC9A5E9959 PUSH1 0x92 SHL PUSH1 0x44 DUP3 ADD MSTORE PUSH1 0x64 SWAP1 REVERT JUMPDEST ISZERO PUSH2 0x21A5 JUMPI JUMP JUMPDEST PUSH1 0x40 MLOAD PUSH3 0x461BCD PUSH1 0xE5 SHL DUP2 MSTORE PUSH1 0x20 PUSH1 0x4 DUP3 ADD MSTORE PUSH1 0xC PUSH1 0x24 DUP3 ADD MSTORE PUSH12 0x4E6F7420656C696769626C65 PUSH1 0xA0 SHL PUSH1 0x44 DUP3 ADD MSTORE PUSH1 0x64 SWAP1 REVERT JUMPDEST PUSH1 0x0 NOT DUP2 EQ PUSH2 0x1DBC JUMPI PUSH1 0x1 ADD SWAP1 JUMP JUMPDEST PUSH2 0x1A11 SWAP1 PUSH1 0x40 SWAP1 PUSH2 0x2238 DUP2 DUP4 MLOAD PUSH2 0x21FE DUP2 PUSH2 0x18CA JUMP JUMPDEST PUSH1 0x23 DUP2 MSTORE PUSH32 0x426173655265776172643A20547261636B696E6720636C61696D20666F722075 PUSH1 0x20 DUP3 ADD MSTORE PUSH3 0x39B2B9 PUSH1 0xE9 SHL DUP6 DUP3 ADD MSTORE PUSH2 0x2537 JUMP JUMPDEST PUSH1 0x1 PUSH1 0x1 PUSH1 0xA0 SHL SUB AND PUSH1 0x0 DUP2 DUP2 MSTORE PUSH1 0x2 PUSH1 0x20 MSTORE DUP3 SWAP1 KECCAK256 DUP1 SLOAD PUSH1 0xFF NOT AND PUSH1 0x1 OR SWAP1 SSTORE PUSH1 0x3 SLOAD SWAP1 SWAP2 SWAP1 PUSH2 0x2268 SWAP1 PUSH2 0x21D9 JUMP JUMPDEST SWAP2 DUP3 PUSH1 0x3 SSTORE PUSH32 0xD8138F8A3F377C5259CA548E70E4C2DE94F129F5A11036A15B69513CBA2B426A PUSH1 0x20 DUP4 MLOAD TIMESTAMP DUP2 MSTORE LOG2 PUSH21 0x39B33AB6363C96103A37BA30B61031B630B4B6B99D PUSH1 0x59 SHL DUP2 MLOAD SWAP2 PUSH2 0x22BB DUP4 PUSH2 0x18CA JUMP JUMPDEST PUSH1 0x35 DUP4 MSTORE PUSH32 0x426173655265776172643A20436C61696D20747261636B656420737563636573 PUSH1 0x20 DUP5 ADD MSTORE DUP3 ADD MSTORE PUSH2 0x24AB JUMP JUMPDEST SWAP2 SWAP1 DUP2 LT ISZERO PUSH2 0x22FD JUMPI PUSH1 0x5 SHL ADD SWAP1 JUMP JUMPDEST PUSH4 0x4E487B71 PUSH1 0xE0 SHL PUSH1 0x0 MSTORE PUSH1 0x32 PUSH1 0x4 MSTORE PUSH1 0x24 PUSH1 0x0 REVERT JUMPDEST CALLDATALOAD PUSH1 0x1 PUSH1 0x1 PUSH1 0xA0 SHL SUB DUP2 AND DUP2 SUB PUSH2 0x1893 JUMPI SWAP1 JUMP JUMPDEST PUSH1 0x1 PUSH1 0x1 PUSH1 0xA0 SHL SUB AND PUSH1 0x0 DUP2 DUP2 MSTORE PUSH1 0xC PUSH1 0x20 MSTORE PUSH1 0x40 SWAP1 KECCAK256 DUP1 SLOAD PUSH1 0xFF DUP2 AND ISZERO PUSH2 0x234E JUMPI POP POP POP JUMP JUMPDEST PUSH1 0xFF NOT AND PUSH1 0x1 OR SWAP1 SSTORE PUSH1 0xE SLOAD PUSH2 0x2363 SWAP1 PUSH2 0x21D9 JUMP JUMPDEST PUSH1 0xE SSTORE PUSH32 0x9C954464132321181183C4F89C263BC648CED7476B263F18A0EEAC9C552B6E9B PUSH1 0x20 PUSH1 0x40 MLOAD TIMESTAMP DUP2 MSTORE LOG2 JUMP JUMPDEST PUSH1 0xFF PUSH1 0x6 SLOAD AND ISZERO PUSH2 0x2421 JUMPI PUSH1 0x1 PUSH1 0x1 PUSH1 0xA0 SHL SUB AND PUSH1 0x0 SWAP1 DUP2 MSTORE PUSH1 0x2 PUSH1 0x20 MSTORE PUSH1 0x40 DUP2 KECCAK256 SLOAD PUSH1 0xFF AND PUSH2 0x23F4 JUMPI PUSH1 0xB PUSH1 0x20 MSTORE PUSH1 0xFF PUSH1 0x40 DUP3 KECCAK256 SLOAD AND ISZERO PUSH2 0x23F4 JUMPI PUSH1 0xFF PUSH1 0x8 SLOAD AND DUP1 PUSH2 0x2415 JUMPI JUMPDEST PUSH2 0x23F4 JUMPI PUSH1 0x4 SLOAD TIMESTAMP LT DUP1 ISZERO PUSH2 0x23F7 JUMPI JUMPDEST PUSH2 0x23F4 JUMPI POP PUSH1 0x1 SWAP1 JUMP JUMPDEST SWAP1 JUMP JUMPDEST POP PUSH1 0x5 SLOAD DUP1 ISZERO ISZERO SWAP1 DUP2 PUSH2 0x240B JUMPI JUMPDEST POP PUSH2 0x23EA JUMP JUMPDEST SWAP1 POP TIMESTAMP GT CODESIZE PUSH2 0x2405 JUMP JUMPDEST POP PUSH1 0x9 SLOAD TIMESTAMP LT ISZERO PUSH2 0x23DA JUMP JUMPDEST POP PUSH1 0x0 SWAP1 JUMP JUMPDEST ISZERO PUSH2 0x242E JUMPI JUMP JUMPDEST PUSH1 0x40 MLOAD PUSH3 0x461BCD PUSH1 0xE5 SHL DUP2 MSTORE PUSH1 0x20 PUSH1 0x4 DUP3 ADD MSTORE PUSH1 0x14 PUSH1 0x24 DUP3 ADD MSTORE PUSH20 0x496E76616C696420757365722061646472657373 PUSH1 0x60 SHL PUSH1 0x44 DUP3 ADD MSTORE PUSH1 0x64 SWAP1 REVERT JUMPDEST PUSH1 0x0 DUP1 SWAP2 PUSH1 0x40 MLOAD PUSH2 0x2498 DUP2 PUSH2 0x66C PUSH1 0x20 DUP3 ADD SWAP5 PUSH4 0x104C13EB PUSH1 0xE2 SHL DUP7 MSTORE PUSH1 0x20 PUSH1 0x24 DUP5 ADD MSTORE PUSH1 0x44 DUP4 ADD SWAP1 PUSH2 0x1858 JUMP JUMPDEST MLOAD SWAP1 PUSH11 0x636F6E736F6C652E6C6F67 GAS STATICCALL POP JUMP JUMPDEST PUSH1 0x0 SWAP2 SWAP1 DUP3 SWAP2 PUSH2 0x2498 PUSH1 0x40 MLOAD DUP1 SWAP3 PUSH2 0x24DC PUSH1 0x20 DUP4 ADD SWAP6 PUSH4 0x2D839CB3 PUSH1 0xE2 SHL DUP8 MSTORE PUSH1 0x40 PUSH1 0x24 DUP6 ADD MSTORE PUSH1 0x64 DUP5 ADD SWAP1 PUSH2 0x1858 JUMP JUMPDEST SWAP1 PUSH1 0x44 DUP4 ADD MSTORE SUB PUSH1 0x1F NOT DUP2 ADD DUP4 MSTORE DUP3 PUSH2 0x18E6 JUMP JUMPDEST PUSH1 0x0 SWAP2 SWAP1 DUP3 SWAP2 PUSH2 0x2498 PUSH1 0x40 MLOAD DUP1 SWAP3 PUSH2 0x2521 PUSH1 0x20 DUP4 ADD SWAP6 PUSH4 0xC3B55635 PUSH1 0xE0 SHL DUP8 MSTORE PUSH1 0x40 PUSH1 0x24 DUP6 ADD MSTORE PUSH1 0x64 DUP5 ADD SWAP1 PUSH2 0x1858 JUMP JUMPDEST SWAP1 ISZERO ISZERO PUSH1 0x44 DUP4 ADD MSTORE SUB PUSH1 0x1F NOT DUP2 ADD DUP4 MSTORE DUP3 PUSH2 0x18E6 JUMP JUMPDEST PUSH1 0x0 SWAP2 SWAP1 DUP3 SWAP2 PUSH2 0x2498 PUSH1 0x40 MLOAD DUP1 SWAP3 PUSH2 0x2568 PUSH1 0x20 DUP4 ADD SWAP6 PUSH4 0x319AF333 PUSH1 0xE0 SHL DUP8 MSTORE PUSH1 0x40 PUSH1 0x24 DUP6 ADD MSTORE PUSH1 0x64 DUP5 ADD SWAP1 PUSH2 0x1858 JUMP JUMPDEST PUSH1 0x1 PUSH1 0x1 PUSH1 0xA0 SHL SUB SWAP2 SWAP1 SWAP2 AND PUSH1 0x44 DUP4 ADD MSTORE SUB PUSH1 0x1F NOT DUP2 ADD DUP4 MSTORE DUP3 PUSH2 0x18E6 JUMP INVALID LOG2 PUSH5 0x6970667358 0x22 SLT KECCAK256 ADDMOD SWAP2 PUSH25 0x78E615BE3E22146595EB12000EE4A1093424DC5DA619A3A2F3 STATICCALL TIMESTAMP 0xE DUP16 PUSH5 0x736F6C6343 STOP ADDMOD EQ STOP CALLER "},"methodIdentifiers":{"activate()":"0f15f4c0","active()":"02fb0c5e","addEligible(address)":"52826f05","addEligibleBatch(address[])":"fcca97a5","assignSpot()":"1aa366f5","canClaim(address)":"bf3506c1","checkAssignmentStatus(address)":"87c1f40a","checkEligibilityStatus(address)":"23130632","claim(address)":"1e83409a","claimFinishDate()":"b71b7a32","claimStartDate()":"5f03b6b2","config()":"79502c55","controller()":"f77c4791","deactivate()":"51b42b00","extendClaimPeriod(uint256)":"d5defd3c","getAssignedCount()":"c6dd828f","getEligibleCount()":"031fd056","getRewardType()":"8a51f860","getWhitelistStats()":"085e8876","hasClaimed(address)":"73b2e80e","initialize(bytes)":"439fab91","initializeClone(bytes,address,address)":"6f60049f","isAssigned(address)":"8c153eb8","isClaimPeriodActive()":"74ea186d","isEligible(address)":"66e305fd","isInitialized()":"392e53cd","owner()":"8da5cb5b","processFeeOnClaim(address)":"93903df3","processFeeWithDiscount(address,uint256,bytes32[])":"4a313aae","removeEligible(address)":"6609c55d","renounceOwnership()":"715018a6","setAutomaticDistribution(bool,uint256)":"8bb0401d","setClaimPeriod(uint256,uint256)":"df6ec1bd","setController(address)":"92eefe9b","totalAssigned()":"46bdda02","totalClaims()":"41c61383","totalEligible()":"3138ffe7","transferOwnership(address)":"f2fde38b","triggerAutomaticDistribution(address[])":"809b9cf6","validateConfig(bytes)":"a913b881"}}}}}