{
  "_format": "hh-sol-artifact-1",
  "contractName": "Tim3capFactory",
  "sourceName": "contracts/Tim3capFactory.sol",
  "abi": [
    {
      "inputs": [
        {
          "internalType": "address",
          "name": "_tim3capImplementation",
          "type": "address"
        },
        {
          "internalType": "address",
          "name": "_registry",
          "type": "address"
        },
        {
          "internalType": "address",
          "name": "_deployerWallet",
          "type": "address"
        },
        {
          "internalType": "address",
          "name": "_feeRecipient",
          "type": "address"
        },
        {
          "internalType": "uint256",
          "name": "_feePercentage",
          "type": "uint256"
        }
      ],
      "stateMutability": "nonpayable",
      "type": "constructor"
    },
    {
      "anonymous": false,
      "inputs": [
        {
          "indexed": false,
          "internalType": "address",
          "name": "feeRecipient",
          "type": "address"
        },
        {
          "indexed": false,
          "internalType": "uint256",
          "name": "feePercentage",
          "type": "uint256"
        },
        {
          "indexed": false,
          "internalType": "bool",
          "name": "isEnabled",
          "type": "bool"
        }
      ],
      "name": "AffiliateFeeConfigUpdated",
      "type": "event"
    },
    {
      "anonymous": false,
      "inputs": [
        {
          "indexed": false,
          "internalType": "address",
          "name": "newDeployer",
          "type": "address"
        }
      ],
      "name": "DeployerWalletUpdated",
      "type": "event"
    },
    {
      "anonymous": false,
      "inputs": [
        {
          "indexed": false,
          "internalType": "bytes32",
          "name": "newRoot",
          "type": "bytes32"
        }
      ],
      "name": "DiscountMerkleRootUpdated",
      "type": "event"
    },
    {
      "anonymous": false,
      "inputs": [
        {
          "indexed": false,
          "internalType": "address",
          "name": "origin",
          "type": "address"
        },
        {
          "indexed": false,
          "internalType": "bool",
          "name": "authorized",
          "type": "bool"
        }
      ],
      "name": "OriginAuthorizationUpdated",
      "type": "event"
    },
    {
      "anonymous": false,
      "inputs": [
        {
          "indexed": true,
          "internalType": "address",
          "name": "previousOwner",
          "type": "address"
        },
        {
          "indexed": true,
          "internalType": "address",
          "name": "newOwner",
          "type": "address"
        }
      ],
      "name": "OwnershipTransferred",
      "type": "event"
    },
    {
      "anonymous": false,
      "inputs": [
        {
          "indexed": true,
          "internalType": "address",
          "name": "contractAddress",
          "type": "address"
        },
        {
          "indexed": false,
          "internalType": "string",
          "name": "activityType",
          "type": "string"
        },
        {
          "indexed": false,
          "internalType": "string",
          "name": "rewardType",
          "type": "string"
        },
        {
          "components": [
            {
              "internalType": "bool",
              "name": "enabled",
              "type": "bool"
            },
            {
              "internalType": "address",
              "name": "signingKey",
              "type": "address"
            },
            {
              "internalType": "uint256",
              "name": "proofValidityDuration",
              "type": "uint256"
            },
            {
              "internalType": "bool",
              "name": "requireProofForAllClaims",
              "type": "bool"
            }
          ],
          "indexed": false,
          "internalType": "struct Tim3cap.EligibilityConfig",
          "name": "eligibilityConfig",
          "type": "tuple"
        }
      ],
      "name": "Tim3capDeployed",
      "type": "event"
    },
    {
      "inputs": [],
      "name": "affiliateFeeConfig",
      "outputs": [
        {
          "internalType": "address",
          "name": "feeRecipient",
          "type": "address"
        },
        {
          "internalType": "uint256",
          "name": "feePercentage",
          "type": "uint256"
        },
        {
          "internalType": "bool",
          "name": "isEnabled",
          "type": "bool"
        }
      ],
      "stateMutability": "view",
      "type": "function"
    },
    {
      "inputs": [
        {
          "internalType": "address",
          "name": "",
          "type": "address"
        }
      ],
      "name": "authorizedOrigins",
      "outputs": [
        {
          "internalType": "bool",
          "name": "",
          "type": "bool"
        }
      ],
      "stateMutability": "view",
      "type": "function"
    },
    {
      "inputs": [
        {
          "internalType": "string",
          "name": "activityType",
          "type": "string"
        },
        {
          "internalType": "address",
          "name": "activityImplementation",
          "type": "address"
        },
        {
          "internalType": "bytes",
          "name": "activityConfig",
          "type": "bytes"
        },
        {
          "internalType": "string",
          "name": "rewardType",
          "type": "string"
        },
        {
          "internalType": "address",
          "name": "rewardImplementation",
          "type": "address"
        },
        {
          "internalType": "bytes",
          "name": "rewardConfig",
          "type": "bytes"
        },
        {
          "components": [
            {
              "internalType": "bool",
              "name": "enabled",
              "type": "bool"
            },
            {
              "internalType": "address",
              "name": "signingKey",
              "type": "address"
            },
            {
              "internalType": "uint256",
              "name": "proofValidityDuration",
              "type": "uint256"
            },
            {
              "internalType": "bool",
              "name": "requireProofForAllClaims",
              "type": "bool"
            }
          ],
          "internalType": "struct Tim3cap.EligibilityConfig",
          "name": "eligibilityConfig",
          "type": "tuple"
        },
        {
          "internalType": "address",
          "name": "origin",
          "type": "address"
        },
        {
          "internalType": "address",
          "name": "creator",
          "type": "address"
        },
        {
          "internalType": "address",
          "name": "affiliate",
          "type": "address"
        }
      ],
      "name": "createTim3cap",
      "outputs": [
        {
          "internalType": "address",
          "name": "",
          "type": "address"
        }
      ],
      "stateMutability": "nonpayable",
      "type": "function"
    },
    {
      "inputs": [],
      "name": "deployerWallet",
      "outputs": [
        {
          "internalType": "address",
          "name": "",
          "type": "address"
        }
      ],
      "stateMutability": "view",
      "type": "function"
    },
    {
      "inputs": [],
      "name": "discountMerkleRoot",
      "outputs": [
        {
          "internalType": "bytes32",
          "name": "",
          "type": "bytes32"
        }
      ],
      "stateMutability": "view",
      "type": "function"
    },
    {
      "inputs": [],
      "name": "owner",
      "outputs": [
        {
          "internalType": "address",
          "name": "",
          "type": "address"
        }
      ],
      "stateMutability": "view",
      "type": "function"
    },
    {
      "inputs": [],
      "name": "registry",
      "outputs": [
        {
          "internalType": "address",
          "name": "",
          "type": "address"
        }
      ],
      "stateMutability": "view",
      "type": "function"
    },
    {
      "inputs": [],
      "name": "renounceOwnership",
      "outputs": [],
      "stateMutability": "nonpayable",
      "type": "function"
    },
    {
      "inputs": [
        {
          "internalType": "address",
          "name": "_feeRecipient",
          "type": "address"
        },
        {
          "internalType": "uint256",
          "name": "_feePercentage",
          "type": "uint256"
        },
        {
          "internalType": "bool",
          "name": "_isEnabled",
          "type": "bool"
        }
      ],
      "name": "setAffiliateFeeConfig",
      "outputs": [],
      "stateMutability": "nonpayable",
      "type": "function"
    },
    {
      "inputs": [
        {
          "internalType": "address",
          "name": "newDeployer",
          "type": "address"
        }
      ],
      "name": "setDeployerWallet",
      "outputs": [],
      "stateMutability": "nonpayable",
      "type": "function"
    },
    {
      "inputs": [],
      "name": "tim3capImplementation",
      "outputs": [
        {
          "internalType": "address",
          "name": "",
          "type": "address"
        }
      ],
      "stateMutability": "view",
      "type": "function"
    },
    {
      "inputs": [
        {
          "internalType": "address",
          "name": "newOwner",
          "type": "address"
        }
      ],
      "name": "transferOwnership",
      "outputs": [],
      "stateMutability": "nonpayable",
      "type": "function"
    },
    {
      "inputs": [
        {
          "internalType": "address",
          "name": "origin",
          "type": "address"
        },
        {
          "internalType": "bool",
          "name": "authorized",
          "type": "bool"
        }
      ],
      "name": "updateAuthorizedOrigin",
      "outputs": [],
      "stateMutability": "nonpayable",
      "type": "function"
    },
    {
      "inputs": [
        {
          "internalType": "bytes32",
          "name": "newRoot",
          "type": "bytes32"
        }
      ],
      "name": "updateDiscountMerkleRoot",
      "outputs": [],
      "stateMutability": "nonpayable",
      "type": "function"
    }
  ],
  "bytecode": "0x60a03461018d57601f610e7e38819003918201601f19168301926001600160401b0392909183851183861017610133578160a0928492604097885283398101031261018d5761004d81610192565b61005960208301610192565b610064858401610192565b92608061007360608301610192565b91015193610080336101a6565b6001600160a01b0393808516156101495790849161009d336101a6565b6080528160018060a01b03199416846001541617600155169485836002541617600255865193606085019185831090831117610133576001928892835216938481528560208201520152600354161760035560045560ff1990600182600554161760055560005260076020526001826000209182541617905551610c9090816101ee823960805181818161028901526104f90152f35b634e487b7160e01b600052604160045260246000fd5b875162461bcd60e51b815260206004820152601e60248201527f496e76616c696420696d706c656d656e746174696f6e206164647265737300006044820152606490fd5b600080fd5b51906001600160a01b038216820361018d57565b600080546001600160a01b039283166001600160a01b03198216811783559216907f8be0079c531659141344cd1fd0a4f28419497f9722a3daafe3b4186f6b6457e09080a356fe6080604052600436101561001257600080fd5b6000803560e01c806333cf5dcf14610a1d578063354ebadc146109cf57806340d34133146109b1578063571e7fb3146108645780635d60c7be1461083b5780636843326a1461037c578063715018a6146103225780637b103999146102f95780637c255b80146102b85780637c6048b8146102735780638da5cb5b1461024c578063a4132bff1461020d578063e26f7ff1146101845763f2fde38b146100b757600080fd5b34610181576020366003190112610181576100d0610a8b565b6100d8610b2e565b6001600160a01b0390811690811561012d57600054826bffffffffffffffffffffffff60a01b821617600055167f8be0079c531659141344cd1fd0a4f28419497f9722a3daafe3b4186f6b6457e0600080a380f35b60405162461bcd60e51b815260206004820152602660248201527f4f776e61626c653a206e6577206f776e657220697320746865207a65726f206160448201526564647265737360d01b6064820152608490fd5b80fd5b50346101815760403660031901126101815761019e610a8b565b60243590811515809203610208577fe49f4bac0937120ea8c66af5de7ab06ac519c3713902ee1a1eb19115f2c5bcc9916040916101d9610b2e565b60018060a01b031690818552600760205282852060ff1981541660ff831617905582519182526020820152a180f35b600080fd5b50346101815760203660031901126101815760209060ff906040906001600160a01b03610238610a8b565b168152600784522054166040519015158152f35b5034610181578060031936011261018157546040516001600160a01b039091168152602090f35b50346101815780600319360112610181576040517f00000000000000000000000000000000000000000000000000000000000000006001600160a01b03168152602090f35b5034610181578060031936011261018157600354600454600554604080516001600160a01b039094168452602084019290925260ff16151590820152606090f35b50346101815780600319360112610181576001546040516001600160a01b039091168152602090f35b503461018157806003193601126101815761033b610b2e565b600080546001600160a01b0319811682556001600160a01b03167f8be0079c531659141344cd1fd0a4f28419497f9722a3daafe3b4186f6b6457e08280a380f35b5034610181576101a03660031901126101815767ffffffffffffffff90600435828111610837576103b1903690600401610acb565b916024356001600160a01b038116900361083757604435818111610833576103dd903690600401610acb565b91606435828111610837576103f6903690600401610acb565b906084356001600160a01b03811681036108375760a43584811161083357610422903690600401610acb565b60803660c31901126108335760405194608086019081118682101761081f5760405260c435801515810361081b57855260e4356001600160a01b038116810361081b57602086015261010435604086015261012435801515810361081b57606086015261014435906001600160a01b038216820361081b57610164356001600160a01b03811681036107825761018435926001600160a01b0384168403610791576002546001600160a01b031633149081156107fc575b50156107b7576104f36104ed602435610bc6565b94610bc6565b9161051d7f0000000000000000000000000000000000000000000000000000000000000000610bc6565b986001600160a01b0386163b156107b357866105559160405180938192637136a8c560e11b8352604060048401526044830190610b86565b6001600160a01b03878116602484015291900390829084908b165af180156107a857610795575b506001600160a01b0383163b1561079157856105b49160405180938192636f60049f60e01b8352606060048401526064830190610b86565b6001600160a01b0386811660248401528d81166044840152919003908290849088165af180156107865790869161076e575b505060035460045460055460ff169390926001600160a01b03928316929091908b163b1561076a576040805163075f9c2f60e41b81526001600160a01b0398891660048201529188166024830152918716604482015289511515606482015260208a0151909616608487015288015160a48601526060880151151560c486015260e485015261010484015215156101248301526001600160a01b039081166101448301528290829061016490829084908a165af1801561075f5761074b575b50506020936107296106f47f9a75bb650cba985747a06da247a77b6765a6eabbe37ff2bf0d8d2c31f4dc4460936106e76040519460c0865260c0860190610b86565b9084820389860152610b86565b9360408301906060809180511515845260018060a01b0360208201511660208501526040810151604085015201511515910152565b6001600160a01b0384169281900390a26040516001600160a01b039091168152f35b6107558291610aa1565b61018157806106a5565b6040513d84823e3d90fd5b8780fd5b61077790610aa1565b6107825784386105e6565b8480fd5b6040513d88823e3d90fd5b8580fd5b6107a190969196610aa1565b943861057c565b6040513d89823e3d90fd5b8680fd5b60405162461bcd60e51b815260206004820152601d60248201527f556e617574686f72697a6564206f726967696e206f722063616c6c65720000006044820152606490fd5b6001600160a01b03168652506007602052604085205460ff16386104d9565b8380fd5b634e487b7160e01b84526041600452602484fd5b8280fd5b5080fd5b50346101815780600319360112610181576002546040516001600160a01b039091168152602090f35b50346101815760603660031901126101815761087e610a8b565b906024356044359283151580850361081b57610898610b2e565b6103e8831161096c576040516060810181811067ffffffffffffffff82111761095857917f1d8821cf4d7ad0d86d218f6fe39156248ec04c72355e9599ff41e1ce44a9b4e19596916109529360405281604060018060a01b0387169283815288602082015201526bffffffffffffffffffffffff60a01b60035416176003558460045560ff8019600554169116176005556040519384938491926040919493606084019560018060a01b0316845260208401521515910152565b0390a180f35b634e487b7160e01b86526041600452602486fd5b60405162461bcd60e51b815260206004820152601760248201527f4665652070657263656e7461676520746f6f20686967680000000000000000006044820152606490fd5b50346101815780600319360112610181576020600654604051908152f35b5034610181576020366003190112610181577f73f8206816f99dc9483bd389d1ff8670a8446e9a9a557fb8edbfb63eba1b21756020600435610a0f610b2e565b80600655604051908152a180f35b5034610181576020366003190112610181577fdf5f8dfe84aef6f7b269eb13252aec7885e8fe87242f300bee706de75a995ec46020610a5a610a8b565b610a62610b2e565b600280546001600160a01b0319166001600160a01b03929092169182179055604051908152a180f35b600435906001600160a01b038216820361020857565b67ffffffffffffffff8111610ab557604052565b634e487b7160e01b600052604160045260246000fd5b81601f820112156102085780359067ffffffffffffffff92838311610ab55760405193601f8401601f19908116603f0116850190811185821017610ab5576040528284526020838301011161020857816000926020809301838601378301015290565b6000546001600160a01b03163303610b4257565b606460405162461bcd60e51b815260206004820152602060248201527f4f776e61626c653a2063616c6c6572206973206e6f7420746865206f776e65726044820152fd5b919082519283825260005b848110610bb2575050826000602080949584010152601f8019910116010190565b602081830181015184830182015201610b91565b6e5af43d82803e903d91602b57fd5bf390763d602d80600a3d3981f3363d3d373d3d3d363d7300000062ffffff8260881c161760005260781b17602052603760096000f0906001600160a01b03821615610c1c57565b60405162461bcd60e51b8152602060048201526016602482015275115490cc4c4d8dce8818dc99585d194819985a5b195960521b6044820152606490fdfea2646970667358221220de91e60e9da6258e4ba639537f91e73c086a385444c5d50b85e099d432b102f064736f6c63430008140033",
  "linkReferences": {},
  "deployedLinkReferences": {}
}