{
  "_format": "hh-sol-artifact-1",
  "contractName": "WhitelistRaffleReward",
  "sourceName": "contracts/rewards/WhitelistRaffleReward.sol",
  "abi": [
    {
      "anonymous": false,
      "inputs": [],
      "name": "AutomaticDistributionDisabled",
      "type": "event"
    },
    {
      "anonymous": false,
      "inputs": [
        {
          "indexed": false,
          "internalType": "uint256",
          "name": "distributionDate",
          "type": "uint256"
        }
      ],
      "name": "AutomaticDistributionEnabled",
      "type": "event"
    },
    {
      "anonymous": false,
      "inputs": [
        {
          "indexed": false,
          "internalType": "uint256",
          "name": "startDate",
          "type": "uint256"
        },
        {
          "indexed": false,
          "internalType": "uint256",
          "name": "finishDate",
          "type": "uint256"
        }
      ],
      "name": "ClaimPeriodUpdated",
      "type": "event"
    },
    {
      "anonymous": false,
      "inputs": [
        {
          "indexed": true,
          "internalType": "address",
          "name": "user",
          "type": "address"
        },
        {
          "indexed": false,
          "internalType": "uint256",
          "name": "timestamp",
          "type": "uint256"
        }
      ],
      "name": "Claimed",
      "type": "event"
    },
    {
      "anonymous": false,
      "inputs": [
        {
          "indexed": false,
          "internalType": "address",
          "name": "controller",
          "type": "address"
        }
      ],
      "name": "ControllerUpdated",
      "type": "event"
    },
    {
      "anonymous": false,
      "inputs": [
        {
          "indexed": true,
          "internalType": "address",
          "name": "previousOwner",
          "type": "address"
        },
        {
          "indexed": true,
          "internalType": "address",
          "name": "newOwner",
          "type": "address"
        }
      ],
      "name": "OwnershipTransferred",
      "type": "event"
    },
    {
      "anonymous": false,
      "inputs": [
        {
          "indexed": true,
          "internalType": "address",
          "name": "winner",
          "type": "address"
        },
        {
          "indexed": false,
          "internalType": "uint256",
          "name": "timestamp",
          "type": "uint256"
        }
      ],
      "name": "SpotAssigned",
      "type": "event"
    },
    {
      "anonymous": false,
      "inputs": [
        {
          "indexed": false,
          "internalType": "bool",
          "name": "active",
          "type": "bool"
        }
      ],
      "name": "StatusChanged",
      "type": "event"
    },
    {
      "anonymous": false,
      "inputs": [
        {
          "indexed": true,
          "internalType": "address",
          "name": "winner",
          "type": "address"
        },
        {
          "indexed": false,
          "internalType": "uint256",
          "name": "timestamp",
          "type": "uint256"
        }
      ],
      "name": "WinnerAdded",
      "type": "event"
    },
    {
      "anonymous": false,
      "inputs": [
        {
          "indexed": true,
          "internalType": "address",
          "name": "winner",
          "type": "address"
        },
        {
          "indexed": false,
          "internalType": "uint256",
          "name": "timestamp",
          "type": "uint256"
        }
      ],
      "name": "WinnerRemoved",
      "type": "event"
    },
    {
      "inputs": [],
      "name": "activate",
      "outputs": [],
      "stateMutability": "nonpayable",
      "type": "function"
    },
    {
      "inputs": [],
      "name": "active",
      "outputs": [
        {
          "internalType": "bool",
          "name": "",
          "type": "bool"
        }
      ],
      "stateMutability": "view",
      "type": "function"
    },
    {
      "inputs": [
        {
          "internalType": "address",
          "name": "winner",
          "type": "address"
        }
      ],
      "name": "addWinner",
      "outputs": [],
      "stateMutability": "nonpayable",
      "type": "function"
    },
    {
      "inputs": [],
      "name": "assignSpot",
      "outputs": [],
      "stateMutability": "nonpayable",
      "type": "function"
    },
    {
      "inputs": [
        {
          "internalType": "address",
          "name": "user",
          "type": "address"
        }
      ],
      "name": "canClaim",
      "outputs": [
        {
          "internalType": "bool",
          "name": "",
          "type": "bool"
        }
      ],
      "stateMutability": "view",
      "type": "function"
    },
    {
      "inputs": [
        {
          "internalType": "address",
          "name": "user",
          "type": "address"
        }
      ],
      "name": "checkAssignmentStatus",
      "outputs": [
        {
          "internalType": "bool",
          "name": "",
          "type": "bool"
        }
      ],
      "stateMutability": "view",
      "type": "function"
    },
    {
      "inputs": [
        {
          "internalType": "address",
          "name": "user",
          "type": "address"
        }
      ],
      "name": "checkWinnerStatus",
      "outputs": [
        {
          "internalType": "bool",
          "name": "",
          "type": "bool"
        },
        {
          "internalType": "bool",
          "name": "",
          "type": "bool"
        }
      ],
      "stateMutability": "view",
      "type": "function"
    },
    {
      "inputs": [
        {
          "internalType": "address",
          "name": "user",
          "type": "address"
        }
      ],
      "name": "claim",
      "outputs": [],
      "stateMutability": "nonpayable",
      "type": "function"
    },
    {
      "inputs": [],
      "name": "claimFinishDate",
      "outputs": [
        {
          "internalType": "uint256",
          "name": "",
          "type": "uint256"
        }
      ],
      "stateMutability": "view",
      "type": "function"
    },
    {
      "inputs": [],
      "name": "claimStartDate",
      "outputs": [
        {
          "internalType": "uint256",
          "name": "",
          "type": "uint256"
        }
      ],
      "stateMutability": "view",
      "type": "function"
    },
    {
      "inputs": [],
      "name": "config",
      "outputs": [
        {
          "internalType": "string",
          "name": "raffleName",
          "type": "string"
        },
        {
          "internalType": "uint256",
          "name": "spotsCount",
          "type": "uint256"
        },
        {
          "internalType": "uint256",
          "name": "winnersCount",
          "type": "uint256"
        },
        {
          "internalType": "bool",
          "name": "automaticDistribution",
          "type": "bool"
        },
        {
          "internalType": "uint256",
          "name": "distributionDate",
          "type": "uint256"
        }
      ],
      "stateMutability": "view",
      "type": "function"
    },
    {
      "inputs": [],
      "name": "controller",
      "outputs": [
        {
          "internalType": "address",
          "name": "",
          "type": "address"
        }
      ],
      "stateMutability": "view",
      "type": "function"
    },
    {
      "inputs": [],
      "name": "deactivate",
      "outputs": [],
      "stateMutability": "nonpayable",
      "type": "function"
    },
    {
      "inputs": [
        {
          "internalType": "uint256",
          "name": "extension",
          "type": "uint256"
        }
      ],
      "name": "extendClaimPeriod",
      "outputs": [],
      "stateMutability": "nonpayable",
      "type": "function"
    },
    {
      "inputs": [],
      "name": "getAssignedCount",
      "outputs": [
        {
          "internalType": "uint256",
          "name": "",
          "type": "uint256"
        }
      ],
      "stateMutability": "view",
      "type": "function"
    },
    {
      "inputs": [],
      "name": "getRaffleStats",
      "outputs": [
        {
          "internalType": "string",
          "name": "raffleName",
          "type": "string"
        },
        {
          "internalType": "uint256",
          "name": "spotsCount",
          "type": "uint256"
        },
        {
          "internalType": "uint256",
          "name": "winnersCount",
          "type": "uint256"
        },
        {
          "internalType": "uint256",
          "name": "assignedCount",
          "type": "uint256"
        },
        {
          "internalType": "uint256",
          "name": "totalWinnersClaimed",
          "type": "uint256"
        },
        {
          "internalType": "bool",
          "name": "isAutomatic",
          "type": "bool"
        },
        {
          "internalType": "uint256",
          "name": "distributionDate",
          "type": "uint256"
        }
      ],
      "stateMutability": "view",
      "type": "function"
    },
    {
      "inputs": [],
      "name": "getRewardType",
      "outputs": [
        {
          "internalType": "string",
          "name": "",
          "type": "string"
        }
      ],
      "stateMutability": "pure",
      "type": "function"
    },
    {
      "inputs": [],
      "name": "getWinnerCount",
      "outputs": [
        {
          "internalType": "uint256",
          "name": "",
          "type": "uint256"
        }
      ],
      "stateMutability": "view",
      "type": "function"
    },
    {
      "inputs": [
        {
          "internalType": "address",
          "name": "",
          "type": "address"
        }
      ],
      "name": "hasClaimed",
      "outputs": [
        {
          "internalType": "bool",
          "name": "",
          "type": "bool"
        }
      ],
      "stateMutability": "view",
      "type": "function"
    },
    {
      "inputs": [
        {
          "internalType": "bytes",
          "name": "configData",
          "type": "bytes"
        }
      ],
      "name": "initialize",
      "outputs": [],
      "stateMutability": "nonpayable",
      "type": "function"
    },
    {
      "inputs": [
        {
          "internalType": "bytes",
          "name": "config",
          "type": "bytes"
        },
        {
          "internalType": "address",
          "name": "owner",
          "type": "address"
        },
        {
          "internalType": "address",
          "name": "controller",
          "type": "address"
        }
      ],
      "name": "initializeClone",
      "outputs": [],
      "stateMutability": "nonpayable",
      "type": "function"
    },
    {
      "inputs": [
        {
          "internalType": "address",
          "name": "",
          "type": "address"
        }
      ],
      "name": "isAssigned",
      "outputs": [
        {
          "internalType": "bool",
          "name": "",
          "type": "bool"
        }
      ],
      "stateMutability": "view",
      "type": "function"
    },
    {
      "inputs": [],
      "name": "isClaimPeriodActive",
      "outputs": [
        {
          "internalType": "bool",
          "name": "",
          "type": "bool"
        }
      ],
      "stateMutability": "view",
      "type": "function"
    },
    {
      "inputs": [],
      "name": "isInitialized",
      "outputs": [
        {
          "internalType": "bool",
          "name": "",
          "type": "bool"
        }
      ],
      "stateMutability": "view",
      "type": "function"
    },
    {
      "inputs": [
        {
          "internalType": "address",
          "name": "",
          "type": "address"
        }
      ],
      "name": "isWinner",
      "outputs": [
        {
          "internalType": "bool",
          "name": "",
          "type": "bool"
        }
      ],
      "stateMutability": "view",
      "type": "function"
    },
    {
      "inputs": [],
      "name": "owner",
      "outputs": [
        {
          "internalType": "address",
          "name": "",
          "type": "address"
        }
      ],
      "stateMutability": "view",
      "type": "function"
    },
    {
      "inputs": [
        {
          "internalType": "address",
          "name": "user",
          "type": "address"
        }
      ],
      "name": "processFeeOnClaim",
      "outputs": [
        {
          "internalType": "bool",
          "name": "",
          "type": "bool"
        }
      ],
      "stateMutability": "nonpayable",
      "type": "function"
    },
    {
      "inputs": [
        {
          "internalType": "address",
          "name": "user",
          "type": "address"
        },
        {
          "internalType": "uint256",
          "name": "discountRate",
          "type": "uint256"
        },
        {
          "internalType": "bytes32[]",
          "name": "merkleProof",
          "type": "bytes32[]"
        }
      ],
      "name": "processFeeWithDiscount",
      "outputs": [
        {
          "internalType": "bool",
          "name": "",
          "type": "bool"
        }
      ],
      "stateMutability": "nonpayable",
      "type": "function"
    },
    {
      "inputs": [
        {
          "internalType": "address",
          "name": "winner",
          "type": "address"
        }
      ],
      "name": "removeWinner",
      "outputs": [],
      "stateMutability": "nonpayable",
      "type": "function"
    },
    {
      "inputs": [],
      "name": "renounceOwnership",
      "outputs": [],
      "stateMutability": "nonpayable",
      "type": "function"
    },
    {
      "inputs": [
        {
          "internalType": "bool",
          "name": "enable",
          "type": "bool"
        },
        {
          "internalType": "uint256",
          "name": "newDistributionDate",
          "type": "uint256"
        }
      ],
      "name": "setAutomaticDistribution",
      "outputs": [],
      "stateMutability": "nonpayable",
      "type": "function"
    },
    {
      "inputs": [
        {
          "internalType": "uint256",
          "name": "startDate",
          "type": "uint256"
        },
        {
          "internalType": "uint256",
          "name": "finishDate",
          "type": "uint256"
        }
      ],
      "name": "setClaimPeriod",
      "outputs": [],
      "stateMutability": "nonpayable",
      "type": "function"
    },
    {
      "inputs": [
        {
          "internalType": "address",
          "name": "_controller",
          "type": "address"
        }
      ],
      "name": "setController",
      "outputs": [],
      "stateMutability": "nonpayable",
      "type": "function"
    },
    {
      "inputs": [
        {
          "internalType": "address[]",
          "name": "winners",
          "type": "address[]"
        }
      ],
      "name": "setWinners",
      "outputs": [],
      "stateMutability": "nonpayable",
      "type": "function"
    },
    {
      "inputs": [],
      "name": "totalAssigned",
      "outputs": [
        {
          "internalType": "uint256",
          "name": "",
          "type": "uint256"
        }
      ],
      "stateMutability": "view",
      "type": "function"
    },
    {
      "inputs": [],
      "name": "totalClaims",
      "outputs": [
        {
          "internalType": "uint256",
          "name": "",
          "type": "uint256"
        }
      ],
      "stateMutability": "view",
      "type": "function"
    },
    {
      "inputs": [],
      "name": "totalWinners",
      "outputs": [
        {
          "internalType": "uint256",
          "name": "",
          "type": "uint256"
        }
      ],
      "stateMutability": "view",
      "type": "function"
    },
    {
      "inputs": [
        {
          "internalType": "address",
          "name": "newOwner",
          "type": "address"
        }
      ],
      "name": "transferOwnership",
      "outputs": [],
      "stateMutability": "nonpayable",
      "type": "function"
    },
    {
      "inputs": [
        {
          "internalType": "address[]",
          "name": "winners",
          "type": "address[]"
        }
      ],
      "name": "triggerAutomaticDistribution",
      "outputs": [],
      "stateMutability": "nonpayable",
      "type": "function"
    },
    {
      "inputs": [
        {
          "internalType": "bytes",
          "name": "configData",
          "type": "bytes"
        }
      ],
      "name": "validateConfig",
      "outputs": [
        {
          "internalType": "bool",
          "name": "",
          "type": "bool"
        }
      ],
      "stateMutability": "pure",
      "type": "function"
    }
  ],
  "bytecode": "0x608060409080825234620001055762000018336200010a565b600180556001600160401b03908083019082821181831017620000ef576200006c918452601e81527f426173655265776172643a20436f6e7374727563746f722063616c6c65640000602082015262000151565b61010061ff0019600654161760065562000086336200010a565b81516060810191821181831017620000ef57620000e1918352602a81527f426173655265776172643a20496d706c656d656e746174696f6e20636f6e74726020820152691858dd081b1bd8dad95960b21b8382015262000151565b5161267d9081620001ee8239f35b634e487b7160e01b600052604160045260246000fd5b600080fd5b600080546001600160a01b039283166001600160a01b03198216811783559216907f8be0079c531659141344cd1fd0a4f28419497f9722a3daafe3b4186f6b6457e09080a3565b60405190602090828281019263104c13eb60e21b845280602483015282519283604484015260005b848110620001d557505050808260006064601f9560839501015283199384910116810103604481018552011682019082821060018060401b03831117620000ef57600092839260405251906a636f6e736f6c652e6c6f675afa50565b8181018301518782016064015286935082016200017956fe60806040908082526004918236101561001757600080fd5b600091823560e01c90816302fb0c5e14611874575080630f15f4c0146117aa57806310beb0701461173f5780631aa366f5146115a55780631b7ff614146115585780631e83409a14611386578063297f407b14611273578063392e53cd1461124d57806341c613831461122f578063439fab91146111e3578063445e6b391461108757806346bdda021461072b5780634a313aae1461103f57806351b42b0014610f795780635f03b6b214610f5b5780636f60049f14610d73578063715018a614610d1957806373b2e80e14610cdc57806374ea186d14610c7c57806379502c5514610c20578063809b9cf614610a7a57806387c1f40a1461090f5780638a51f86014610a275780638bb0401d1461094c5780638c153eb81461090f5780638da5cb5b146108e857806392eefe9b1461085557806393903df3146108305780639d9ca28d146107f3578063a46c363714610777578063a913b881146107b3578063b71b7a3214610795578063bcc941b614610777578063bf3506c114610749578063c6dd828f1461072b578063d5defd3c14610534578063df6ec1bd14610399578063f2fde38b14610307578063f77c4791146102df5763fa063d16146101dd57600080fd5b346102db576020806003193601126102d7576101f76118dd565b6101ff611af4565b6001600160a01b0316808452600d8252828420549092906102229060ff1661225c565b8284526002825260ff818520541661029457828452600d8252808420805460ff19169055600f5480156102815760001901600f55514281527f52b7a6706f935759949652b026b4e62f0109175413639db2c903e3cfb98895d69190a280f35b634e487b7160e01b855260118652602485fd5b5162461bcd60e51b815280850191909152601a60248201527f57696e6e65722068617320616c726561647920636c61696d65640000000000006044820152606490fd5b8280fd5b5080fd5b50346102db57816003193601126102db57600c5490516001600160a01b039091168152602090f35b5082346102d75760203660031901126102d7576103226118dd565b9161032b611af4565b6001600160a01b03831615610347578361034484611b4c565b80f35b906020608492519162461bcd60e51b8352820152602660248201527f4f776e61626c653a206e6577206f776e657220697320746865207a65726f206160448201526564647265737360d01b6064820152fd5b508290346102d757806003193601126102d75781356024356103b9611af4565b80821180159061052c575b156104f257917fc43f4c577663ce7707a53baebf64360730cf3c3a19c52c07a90cee2aff1210a2818361034496957f426173655265776172643a20436c61696d20706572696f64207570646174656495835197610420896118f8565b6104536020998a81527f426173655265776172643a2053657474696e6720636c61696d20706572696f648b82015261252a565b610490828651610462816118f8565b601781527f426173655265776172643a20537461727420646174653a0000000000000000008c82015261256b565b6104cd83865161049f816118f8565b601881527f426173655265776172643a2046696e69736820646174653a00000000000000008c82015261256b565b5580600555825191825286820152a151916104e7836118f8565b80835282015261252a565b825162461bcd60e51b81526020818601526014602482015273125b9d985b1a590818db185a5b481c195c9a5bd960621b6044820152606490fd5b5080156103c4565b50346102db576020806003193601126102d757833591610552611af4565b6005549283156106f357848083516105698161192a565b602581527f426173655265776172643a20457874656e64696e6720636c61696d207065726986820152646f6420627960d81b8582015261060261061086516105b0816118f8565b60078152667365636f6e647360c81b8982015287519283916105ea8b840196635970e08960e01b88526060602486015260848501906118b8565b908960448501526023198483030160648501526118b8565b03601f198101835282611946565b51906a636f6e736f6c652e6c6f675afa506106678483516106308161192a565b602181527f426173655265776172643a204f726967696e616c2066696e697368206461746586820152601d60f91b8582015261256b565b83018093116106e057807fc43f4c577663ce7707a53baebf64360730cf3c3a19c52c07a90cee2aff1210a27f426173655265776172643a204e65772066696e69736820646174653a00000000926103449697866005555481519081528686820152a151916106d4836118f8565b601c835282015261256b565b634e487b7160e01b845260118552602484fd5b815162461bcd60e51b81528087018490526012602482015271139bc8199a5b9a5cda0819185d19481cd95d60721b6044820152606490fd5b50346102db57816003193601126102db576020906010549051908152f35b50346102db5760203660031901126102db5760209061076e6107696118dd565b612450565b90519015158152f35b50346102db57816003193601126102db57602090600f549051908152f35b50346102db57816003193601126102db576020906005549051908152f35b5090346107f05760203660031901126107f05782359067ffffffffffffffff82116107f057506107eb60209361076e92369101611984565b611fda565b80fd5b50346102db5760203660031901126102db5760209160ff9082906001600160a01b0361081d6118dd565b168152600d855220541690519015158152f35b50346102db5760203660031901126102db5760209061084d6118dd565b505160018152f35b5082346102d75760203660031901126102d7576108706118dd565b610878611af4565b6001600160a01b03169182156108a55750506bffffffffffffffffffffffff60a01b600c541617600c5580f35b906020606492519162461bcd60e51b8352820152601a60248201527f496e76616c696420636f6e74726f6c6c657220616464726573730000000000006044820152fd5b50346102db57816003193601126102db57905490516001600160a01b039091168152602090f35b50346102db5760203660031901126102db5760209160ff9082906001600160a01b036109396118dd565b168152600e855220541690519015158152f35b508290346102d757806003193601126102d7578135918215158303610a235760243592610977611af4565b156109ca57507f991d63b6a99732d94eda42bec59d2dc29056a434c3ea89b24d18d3977b521463916020916109ad428311611c63565b600160ff19600a541617600a5581600b558160055551908152a180f35b91505060ff19600a5416600a5562278d00420190814211610a1057506005557f88afc90084128cbb9137ec527935a280b18f8e248f2d110bb4072b5403e9342f8180a180f35b634e487b7160e01b835260119052602482fd5b8380fd5b50346102db57816003193601126102db578051610a7691610a47826118f8565b601082526f57484954454c4953545f524146464c4560801b6020830152519182916020835260208301906118b8565b0390f35b5082346102d75760209182600319360112610a2357813567ffffffffffffffff8111610c1c57610aad90369084016119cb565b919093610ab86121c9565b85546001600160a01b039390841633148015610c0f575b610ad89061221f565b60ff9485600a541615610bc157600b544210610b7e5750865b818110610b0057876001805580f35b80610b17610b12610b6b93858b6123ab565b6123d1565b8681168a52600d855287868b20541615610b785760028552858a2090815491898316610b70576001610b669360ff19161790556003610b568154612297565b9055610b61816123e5565b6122a6565b612297565b610af1565b505050612297565b50612297565b835162461bcd60e51b8152908101839052601d60248201527f446973747269627574696f6e2064617465206e6f7420726561636865640000006044820152606490fd5b835162461bcd60e51b8152908101839052602260248201527f4175746f6d6174696320646973747269627574696f6e206e6f7420656e61626c604482015261195960f21b6064820152608490fd5b50600c5484163314610acf565b8480fd5b50346102db57816003193601126102db57610c6390610c3d611a36565b906008549060095460ff600a541690600b5492805196879660a0885260a08801906118b8565b9460208701528501521515606084015260808301520390f35b508290346102d757826003193601126102d7576020925060ff600654169182610cd0575b5081610caf575b519015158152f35b90506005548015908115610cc5575b5090610ca7565b905042111583610cbe565b54421015915083610ca0565b50346102db5760203660031901126102db5760209160ff9082906001600160a01b03610d066118dd565b1681526002855220541690519015158152f35b82346107f057806003193601126107f057610d32611af4565b80546001600160a01b03198116825581906001600160a01b03167f8be0079c531659141344cd1fd0a4f28419497f9722a3daafe3b4186f6b6457e08280a380f35b50346102db5760603660031901126102db57823567ffffffffffffffff81116102d757610da39036908501611984565b926001600160a01b039060243590828216808303610f575760443593841693848103610f5357610e7a90610df060ff60065460081c16610dea81610de5611b93565b6125b0565b15611be8565b610e40858851610dff8161192a565b602a81527f426173655265776172643a20496e697469616c697a696e6720636c6f6e65207760208201526934ba341037bbb732b91d60b11b8a8201526125f7565b8651610e4b816118f8565b601781527f426173655265776172643a20436f6e74726f6c6c65723a00000000000000000060208201526125f7565b15610f185750610ef99394610e91610e9692611b4c565b611cbf565b6bffffffffffffffffffffffff60a01b600c541617600c556820636f6d706c65746560b81b815191610ec78361192a565b602983527f426173655265776172643a20436c6f6e6520696e697469616c697a6174696f6e602084015282015261252a565b61010061ff00196006541617600655610344610f13611c2a565b61252a565b606490602085519162461bcd60e51b83528201526015602482015274496e76616c6964206f776e6572206164647265737360581b6044820152fd5b8680fd5b8580fd5b5082346102d757826003193601126102d75760209250549051908152f35b50346102db57816003193601126102db5761034490610f96611af4565b610fd38151610fa4816118f8565b601f81527f426173655265776172643a20446561637469766174696e672072657761726400602082015261252a565b60ff19600654166006557f4dcbe1841ee9bd9c888e46c0b35574429b1c0f1071806180028dee2f9a10643060208251858152a151611010816118f8565b601e81527f426173655265776172643a205265776172642064656163746976617465640000602082015261252a565b5090346107f05760603660031901126107f05761105a6118dd565b506044359067ffffffffffffffff82116107f0575060209261107e913691016119cb565b50505160018152f35b508290346102d75760209081600319360112610a2357823567ffffffffffffffff8111610c1c576110bb90369085016119cb565b936110c4611af4565b84156111aa5760085485116111745750600f90858255855b8581106110e7578680f35b611152906001600160a01b03611101610b12838a876123ab565b1661110d8115156124e5565b808952600d8752858920805460ff811615611157575b50507fe238085d33fbb21ea77ec1aedea0dc6a333b10d386381b11daf6042d45c9587a878751428152a2612297565b6110dc565b60ff19166001179055845461116b90612297565b85558980611123565b825162461bcd60e51b8152908101849052601060248201526f546f6f206d616e792077696e6e65727360801b6044820152606490fd5b825162461bcd60e51b81529081018490526013602482015272139bc81dda5b9b995c9cc81c1c9bdd9a591959606a1b6044820152606490fd5b8284346102db5760203660031901126102db57803567ffffffffffffffff81116102d757610ef99161121791369101611984565b610e9160ff60065460081c16610dea81610de5611b93565b50346102db57816003193601126102db576020906003549051908152f35b50346102db57816003193601126102db5760209060ff60065460081c1690519015158152f35b508290346102d75760209081600319360112610a23576112916118dd565b611299611af4565b6001600160a01b0316926112ae8415156124e5565b838552600d835260ff828620541661135257600f54600854111561131b5750907fe238085d33fbb21ea77ec1aedea0dc6a333b10d386381b11daf6042d45c9587a91838552600d8252808520600160ff19825416179055611310600f54612297565b600f5551428152a280f35b82606492519162461bcd60e51b83528201526013602482015272105b1b081cdc1bdd1cc8185b1b1bd8d85d1959606a1b6044820152fd5b82606492519162461bcd60e51b8352820152601060248201526f20b63932b0b23c9030903bb4b73732b960811b6044820152fd5b5091346102db57602092836003193601126102d7576113a36118dd565b916113ac6121c9565b6113b7610f13611fed565b61141f60ff600654166113cc81610de5612026565b6113dd426113d861205f565b61256b565b82546113eb816113d8612098565b611403600554926113fe846113d86120d1565b61210a565b421015908161153b575b5061141a81610de561214d565b612186565b6001600160a01b0383811691903383900361150f575b5061143f84612450565b156114d857818552600d865261145a60ff848720541661225c565b8185526002865260ff83862054166114a35750839460029161149c9552528320600160ff19825416179055611490600354612297565b600355610b61816123e5565b6001805580f35b825162461bcd60e51b8152908101869052600f60248201526e105b1c9958591e4818db185a5b5959608a1b6044820152606490fd5b825162461bcd60e51b8152908101869052601160248201527010d85b9b9bdd0818db185a5b481cdc1bdd607a1b6044820152606490fd5b8061152791875416331490811561152d575b5061221f565b38611435565b9050600c5416331438611521565b80159150811561154d575b503861140d565b905042111538611546565b5090346107f05760203660031901126107f0576001600160a01b0361157b6118dd565b168152600d60205260ff828181842054169260026020522054168251911515825215156020820152f35b5082346102d757826003193601126102d7576115bf6121c9565b6115ca610f13611fed565b61162260ff600654166115df81610de5612026565b6115eb426113d861205f565b82546115f9816113d8612098565b61160c600554926113fe846113d86120d1565b4210159081611722575061141a81610de561214d565b61162a6121c9565b611635610f13611fed565b61164a60ff600654166115df81610de5612026565b61165333612450565b156116ec57338352600d60205261166f60ff838520541661225c565b338352600260205260ff82842054166116b8575033825260026020528120600160ff198254161790556116a3600354612297565b6003556116af336123e5565b61149c336122a6565b6020606492519162461bcd60e51b8352820152600f60248201526e105b1c9958591e4818db185a5b5959608a1b6044820152fd5b6020606492519162461bcd60e51b8352820152601160248201527010d85b9b9bdd0818db185a5b481cdc1bdd607a1b6044820152fd5b801591508115611734575b508561140d565b90504211158561172d565b50346102db57816003193601126102db5761178790600854600f5460105460035460ff600a541691600b5493611773611a36565b96805198899860e08a5260e08a01906118b8565b96602089015287015260608601526080850152151560a084015260c08301520390f35b50346102db57816003193601126102db57610344906117c7611af4565b61180481516117d5816118f8565b601d81527f426173655265776172643a2041637469766174696e6720726577617264000000602082015261252a565b600160ff1960065416176006557f4dcbe1841ee9bd9c888e46c0b35574429b1c0f1071806180028dee2f9a1064306020825160018152a151611845816118f8565b601c81527f426173655265776172643a205265776172642061637469766174656400000000602082015261252a565b8390346102db57816003193601126102db5760209060ff6006541615158152f35b60005b8381106118a85750506000910152565b8181015183820152602001611898565b906020916118d181518092818552858086019101611895565b601f01601f1916010190565b600435906001600160a01b03821682036118f357565b600080fd5b6040810190811067ffffffffffffffff82111761191457604052565b634e487b7160e01b600052604160045260246000fd5b6060810190811067ffffffffffffffff82111761191457604052565b90601f8019910116810190811067ffffffffffffffff82111761191457604052565b67ffffffffffffffff811161191457601f01601f191660200190565b81601f820112156118f35780359061199b82611968565b926119a96040519485611946565b828452602083830101116118f357816000926020809301838601378301015290565b9181601f840112156118f35782359167ffffffffffffffff83116118f3576020808501948460051b0101116118f357565b90600182811c92168015611a2c575b6020831014611a1657565b634e487b7160e01b600052602260045260246000fd5b91607f1691611a0b565b6040519060008260075491611a4a836119fc565b80835292600190818116908115611ad25750600114611a73575b50611a7192500383611946565b565b6007600090815291507fa66cc928b5edb82af9bd49922954155ab7b0942694bea4ce44661d9a8736c6885b848310611ab75750611a71935050810160200138611a64565b81935090816020925483858a01015201910190918592611a9e565b905060209250611a7194915060ff191682840152151560051b82010138611a64565b6000546001600160a01b03163303611b0857565b606460405162461bcd60e51b815260206004820152602060248201527f4f776e61626c653a2063616c6c6572206973206e6f7420746865206f776e65726044820152fd5b600080546001600160a01b039283166001600160a01b03198216811783559216907f8be0079c531659141344cd1fd0a4f28419497f9722a3daafe3b4186f6b6457e09080a3565b60405190611ba08261192a565b603382527234b734ba34b0b634bd32b21039ba30ba3ab99d60691b6040837f426173655265776172643a20496e697469616c697a65722063616c6c65642c2060208201520152565b15611bef57565b60405162461bcd60e51b8152602060048201526013602482015272105b1c9958591e481a5b9a5d1a585b1a5e9959606a1b6044820152606490fd5b60405190611c37826118f8565b602082527f426173655265776172643a20436f6e747261637420696e697469616c697a65646020830152565b15611c6a57565b60405162461bcd60e51b815260206004820152602760248201527f446973747269627574696f6e2064617465206d75737420626520696e207468656044820152662066757475726560c81b6064820152608490fd5b9081518201602060a0848284019303126118f357808401519067ffffffffffffffff918281116118f35785019483603f870112156118f3578186015195611d0587611968565b96604095611d158751998a611946565b8189528682840101116118f357611d319186858a019101611895565b83810151606082015190608083015194851515938487036118f35760a0015196895115611fa1578215611f685786611f58575b805160a0810191818310848411176119145760809281528b82528782019485528101948552606081019586520194878652895191821161191457611da96007546119fc565b601f8111611ef3575b5080601f8311600114611e685750819060019798999a600092611e5d575b5050600019600383901b1c191690861b176007555b51600855516009555115159060ff199160ff83600a5416911617600a5551600b55600654161760065542600455600014611e31576005555b600c80546001600160a01b03191633179055565b5062278d004201804211611e4757600555611e1d565b634e487b7160e01b600052601160045260246000fd5b015190503880611dd0565b99601f19831660076000527fa66cc928b5edb82af9bd49922954155ab7b0942694bea4ce44661d9a8736c6889b6000905b828210611edb57505091600198999a9b91848a959410611ec2575b505050811b01600755611de5565b015160001960f88460031b161c19169055388080611eb4565b806001869f8294978701518155019e01940190611e99565b6000600781527fa66cc928b5edb82af9bd49922954155ab7b0942694bea4ce44661d9a8736c688601f850160051c810192848610611f4e575b601f0160051c01915b828110611f43575050611db2565b818155600101611f35565b9092508290611f2c565b611f63428911611c63565b611d64565b5162461bcd60e51b8152600481018690526013602482015272125b9d985b1a59081cdc1bdd1cc818dbdd5b9d606a1b6044820152606490fd5b5162461bcd60e51b8152600481018690526013602482015272496e76616c696420726166666c65206e616d6560681b6044820152606490fd5b60a0905110611fe857600190565b600090565b60405190611ffa826118f8565b601c82527f426173655265776172643a207768656e41637469766520636865636b000000006020830152565b60405190612033826118f8565b601a82527f426173655265776172643a20416374697665207374617475733a0000000000006020830152565b6040519061206c826118f8565b601e82527f426173655265776172643a2043757272656e742074696d657374616d703a00006020830152565b604051906120a5826118f8565b601d82527f426173655265776172643a20436c61696d20737461727420646174653a0000006020830152565b604051906120de826118f8565b601e82527f426173655265776172643a20436c61696d2066696e69736820646174653a00006020830152565b1561211157565b60405162461bcd60e51b8152602060048201526014602482015273526577617264206973206e6f742061637469766560601b6044820152606490fd5b6040519061215a826118f8565b601f82527f426173655265776172643a2057697468696e2074696d652077696e646f773a006020830152565b1561218d57565b60405162461bcd60e51b815260206004820152601460248201527313dd5d1cda59194818db185a5b481c195c9a5bd960621b6044820152606490fd5b6002600154146121da576002600155565b60405162461bcd60e51b815260206004820152601f60248201527f5265656e7472616e637947756172643a207265656e7472616e742063616c6c006044820152606490fd5b1561222657565b60405162461bcd60e51b815260206004820152600e60248201526d139bdd08185d5d1a1bdc9a5e995960921b6044820152606490fd5b1561226357565b60405162461bcd60e51b815260206004820152600c60248201526b2737ba1030903bb4b73732b960a11b6044820152606490fd5b6000198114611e475760010190565b611a71906040906122f68183516122bc8161192a565b602381527f426173655265776172643a20547261636b696e6720636c61696d20666f72207560208201526239b2b960e91b858201526125f7565b6001600160a01b031660008181526002602052829020805460ff1916600117905560035490919061232690612297565b91826003557fd8138f8a3f377c5259ca548e70e4c2de94f129f5a11036a15b69513cba2b426a60208351428152a27439b33ab6363c96103a37ba30b61031b630b4b6b99d60591b8151916123798361192a565b603583527f426173655265776172643a20436c61696d20747261636b656420737563636573602084015282015261256b565b91908110156123bb5760051b0190565b634e487b7160e01b600052603260045260246000fd5b356001600160a01b03811681036118f35790565b6001600160a01b03166000818152600e60205260409020805460ff81161561240c57505050565b60ff1916600117905560105461242190612297565b6010557f9c954464132321181183c4f89c263bc648ced7476b263f18a0eeac9c552b6e9b6020604051428152a2565b60ff60065416156124df576001600160a01b031660009081526002602052604081205460ff166124b257600d60205260ff604082205416156124b25760ff600a5416806124d3575b6124b257600454421080156124b5575b6124b25750600190565b90565b5060055480151590816124c9575b506124a8565b90504211386124c3565b50600b54421015612498565b50600090565b156124ec57565b60405162461bcd60e51b8152602060048201526016602482015275496e76616c69642077696e6e6572206164647265737360501b6044820152606490fd5b6000809160405161255881610602602082019463104c13eb60e21b86526020602484015260448301906118b8565b51906a636f6e736f6c652e6c6f675afa50565b600091908291612558604051809261259c6020830195632d839cb360e21b87526040602485015260648401906118b8565b90604483015203601f198101835282611946565b60009190829161255860405180926125e1602083019563c3b5563560e01b87526040602485015260648401906118b8565b901515604483015203601f198101835282611946565b6000919082916125586040518092612628602083019563319af33360e01b87526040602485015260648401906118b8565b6001600160a01b0391909116604483015203601f19810183528261194656fea26469706673582212203a04526ff78921f277119647ba54f70e0961b1e867fa238de2e43fb3c911b8bd64736f6c63430008140033",
  "linkReferences": {},
  "deployedLinkReferences": {}
}