{
  "_format": "hh-sol-artifact-1",
  "contractName": "BuyXApecoinWorthOfTokens",
  "sourceName": "contracts/activities/BuyXApecoinWorthOfTokensActivity.sol",
  "abi": [
    {
      "inputs": [],
      "stateMutability": "nonpayable",
      "type": "constructor"
    },
    {
      "anonymous": false,
      "inputs": [
        {
          "indexed": true,
          "internalType": "address",
          "name": "user",
          "type": "address"
        },
        {
          "indexed": false,
          "internalType": "uint256",
          "name": "timestamp",
          "type": "uint256"
        }
      ],
      "name": "EligibilityProofVerified",
      "type": "event"
    },
    {
      "anonymous": false,
      "inputs": [
        {
          "indexed": true,
          "internalType": "address",
          "name": "previousOwner",
          "type": "address"
        },
        {
          "indexed": true,
          "internalType": "address",
          "name": "newOwner",
          "type": "address"
        }
      ],
      "name": "OwnershipTransferred",
      "type": "event"
    },
    {
      "anonymous": false,
      "inputs": [
        {
          "indexed": true,
          "internalType": "address",
          "name": "user",
          "type": "address"
        },
        {
          "indexed": false,
          "internalType": "uint256",
          "name": "apecoinAmount",
          "type": "uint256"
        },
        {
          "indexed": false,
          "internalType": "uint256",
          "name": "timestamp",
          "type": "uint256"
        }
      ],
      "name": "PurchaseVerified",
      "type": "event"
    },
    {
      "inputs": [],
      "name": "apecoinAddress",
      "outputs": [
        {
          "internalType": "address",
          "name": "",
          "type": "address"
        }
      ],
      "stateMutability": "view",
      "type": "function"
    },
    {
      "inputs": [
        {
          "internalType": "address",
          "name": "",
          "type": "address"
        }
      ],
      "name": "apecoinSpent",
      "outputs": [
        {
          "internalType": "uint256",
          "name": "",
          "type": "uint256"
        }
      ],
      "stateMutability": "view",
      "type": "function"
    },
    {
      "inputs": [
        {
          "internalType": "address",
          "name": "user",
          "type": "address"
        }
      ],
      "name": "checkEligibility",
      "outputs": [
        {
          "internalType": "bool",
          "name": "",
          "type": "bool"
        }
      ],
      "stateMutability": "view",
      "type": "function"
    },
    {
      "inputs": [],
      "name": "debugActivityState",
      "outputs": [
        {
          "internalType": "address",
          "name": "activityTokenAddress",
          "type": "address"
        },
        {
          "internalType": "address",
          "name": "activityApecoinAddress",
          "type": "address"
        },
        {
          "internalType": "uint256",
          "name": "activityRequiredAmount",
          "type": "uint256"
        },
        {
          "internalType": "uint256",
          "name": "activityStartDate",
          "type": "uint256"
        },
        {
          "internalType": "uint256",
          "name": "activityEndDate",
          "type": "uint256"
        },
        {
          "internalType": "uint256",
          "name": "activityMinPurchaseAmount",
          "type": "uint256"
        },
        {
          "internalType": "address",
          "name": "activitySigningKey",
          "type": "address"
        },
        {
          "internalType": "uint256",
          "name": "proofDuration",
          "type": "uint256"
        }
      ],
      "stateMutability": "view",
      "type": "function"
    },
    {
      "inputs": [],
      "name": "debugState",
      "outputs": [
        {
          "internalType": "bool",
          "name": "initialized",
          "type": "bool"
        },
        {
          "internalType": "address",
          "name": "currentSigningKey",
          "type": "address"
        },
        {
          "internalType": "uint256",
          "name": "currentProofValidity",
          "type": "uint256"
        },
        {
          "internalType": "address",
          "name": "currentOwner",
          "type": "address"
        }
      ],
      "stateMutability": "view",
      "type": "function"
    },
    {
      "inputs": [],
      "name": "endDate",
      "outputs": [
        {
          "internalType": "uint256",
          "name": "",
          "type": "uint256"
        }
      ],
      "stateMutability": "view",
      "type": "function"
    },
    {
      "inputs": [],
      "name": "getActivityType",
      "outputs": [
        {
          "internalType": "string",
          "name": "",
          "type": "string"
        }
      ],
      "stateMutability": "pure",
      "type": "function"
    },
    {
      "inputs": [],
      "name": "getConfig",
      "outputs": [
        {
          "internalType": "address",
          "name": "",
          "type": "address"
        },
        {
          "internalType": "address",
          "name": "",
          "type": "address"
        },
        {
          "internalType": "uint256",
          "name": "",
          "type": "uint256"
        },
        {
          "internalType": "uint256",
          "name": "",
          "type": "uint256"
        },
        {
          "internalType": "uint256",
          "name": "",
          "type": "uint256"
        },
        {
          "internalType": "uint256",
          "name": "",
          "type": "uint256"
        }
      ],
      "stateMutability": "view",
      "type": "function"
    },
    {
      "inputs": [
        {
          "internalType": "address",
          "name": "user",
          "type": "address"
        }
      ],
      "name": "getUserApecoinSpent",
      "outputs": [
        {
          "internalType": "uint256",
          "name": "",
          "type": "uint256"
        }
      ],
      "stateMutability": "view",
      "type": "function"
    },
    {
      "inputs": [
        {
          "internalType": "bytes",
          "name": "config",
          "type": "bytes"
        }
      ],
      "name": "initialize",
      "outputs": [],
      "stateMutability": "nonpayable",
      "type": "function"
    },
    {
      "inputs": [
        {
          "internalType": "bytes",
          "name": "config",
          "type": "bytes"
        },
        {
          "internalType": "address",
          "name": "owner",
          "type": "address"
        }
      ],
      "name": "initializeClone",
      "outputs": [],
      "stateMutability": "nonpayable",
      "type": "function"
    },
    {
      "inputs": [
        {
          "internalType": "address",
          "name": "user",
          "type": "address"
        }
      ],
      "name": "isEligible",
      "outputs": [
        {
          "internalType": "bool",
          "name": "",
          "type": "bool"
        }
      ],
      "stateMutability": "view",
      "type": "function"
    },
    {
      "inputs": [],
      "name": "minPurchaseAmount",
      "outputs": [
        {
          "internalType": "uint256",
          "name": "",
          "type": "uint256"
        }
      ],
      "stateMutability": "view",
      "type": "function"
    },
    {
      "inputs": [],
      "name": "owner",
      "outputs": [
        {
          "internalType": "address",
          "name": "",
          "type": "address"
        }
      ],
      "stateMutability": "view",
      "type": "function"
    },
    {
      "inputs": [
        {
          "internalType": "address",
          "name": "user",
          "type": "address"
        },
        {
          "internalType": "bytes",
          "name": "proof",
          "type": "bytes"
        }
      ],
      "name": "processEligibilityProof",
      "outputs": [],
      "stateMutability": "nonpayable",
      "type": "function"
    },
    {
      "inputs": [],
      "name": "proofValidityDuration",
      "outputs": [
        {
          "internalType": "uint256",
          "name": "",
          "type": "uint256"
        }
      ],
      "stateMutability": "view",
      "type": "function"
    },
    {
      "inputs": [],
      "name": "renounceOwnership",
      "outputs": [],
      "stateMutability": "nonpayable",
      "type": "function"
    },
    {
      "inputs": [],
      "name": "requiredAmount",
      "outputs": [
        {
          "internalType": "uint256",
          "name": "",
          "type": "uint256"
        }
      ],
      "stateMutability": "view",
      "type": "function"
    },
    {
      "inputs": [
        {
          "internalType": "uint256",
          "name": "_duration",
          "type": "uint256"
        }
      ],
      "name": "setProofValidityDuration",
      "outputs": [],
      "stateMutability": "nonpayable",
      "type": "function"
    },
    {
      "inputs": [
        {
          "internalType": "address",
          "name": "_signingKey",
          "type": "address"
        }
      ],
      "name": "setSigningKey",
      "outputs": [],
      "stateMutability": "nonpayable",
      "type": "function"
    },
    {
      "inputs": [],
      "name": "signingKey",
      "outputs": [
        {
          "internalType": "address",
          "name": "",
          "type": "address"
        }
      ],
      "stateMutability": "view",
      "type": "function"
    },
    {
      "inputs": [],
      "name": "startDate",
      "outputs": [
        {
          "internalType": "uint256",
          "name": "",
          "type": "uint256"
        }
      ],
      "stateMutability": "view",
      "type": "function"
    },
    {
      "inputs": [],
      "name": "tokenAddress",
      "outputs": [
        {
          "internalType": "address",
          "name": "",
          "type": "address"
        }
      ],
      "stateMutability": "view",
      "type": "function"
    },
    {
      "inputs": [
        {
          "internalType": "address",
          "name": "newOwner",
          "type": "address"
        }
      ],
      "name": "transferOwnership",
      "outputs": [],
      "stateMutability": "nonpayable",
      "type": "function"
    },
    {
      "inputs": [
        {
          "internalType": "bytes",
          "name": "config",
          "type": "bytes"
        }
      ],
      "name": "validateConfig",
      "outputs": [
        {
          "internalType": "bool",
          "name": "",
          "type": "bool"
        }
      ],
      "stateMutability": "pure",
      "type": "function"
    },
    {
      "inputs": [
        {
          "internalType": "address",
          "name": "user",
          "type": "address"
        },
        {
          "internalType": "bytes",
          "name": "proof",
          "type": "bytes"
        }
      ],
      "name": "verifyEligibilityProof",
      "outputs": [
        {
          "internalType": "bool",
          "name": "",
          "type": "bool"
        }
      ],
      "stateMutability": "view",
      "type": "function"
    },
    {
      "inputs": [
        {
          "internalType": "address",
          "name": "user",
          "type": "address"
        },
        {
          "internalType": "uint256",
          "name": "apecoinAmount",
          "type": "uint256"
        },
        {
          "internalType": "bytes",
          "name": "proof",
          "type": "bytes"
        }
      ],
      "name": "verifyPurchase",
      "outputs": [],
      "stateMutability": "nonpayable",
      "type": "function"
    }
  ],
  "bytecode": "0x6080604090808252346200010157620000183362000106565b6001600160401b03908083019082821181831017620000eb5762000068918452602081527f4261736541637469766974793a20436f6e7374727563746f722063616c6c656460208201526200014d565b600160ff196003541617600355620000803362000106565b81516060810191821181831017620000eb57620000dd918352602c81527f4261736541637469766974793a20496d706c656d656e746174696f6e20636f6e60208201526b1d1c9858dd081b1bd8dad95960a21b838201526200014d565b51612a739081620001ea8239f35b634e487b7160e01b600052604160045260246000fd5b600080fd5b600080546001600160a01b039283166001600160a01b03198216811783559216907f8be0079c531659141344cd1fd0a4f28419497f9722a3daafe3b4186f6b6457e09080a3565b60405190602090828281019263104c13eb60e21b845280602483015282519283604484015260005b848110620001d157505050808260006064601f9560839501015283199384910116810103604481018552011682019082821060018060401b03831117620000eb57600092839260405251906a636f6e736f6c652e6c6f675afa50565b8181018301518782016064015286935082016200017556fe608060408181526004918236101561001657600080fd5b600092833560e01c9182630624549b1461136d575081630ab4423e146111da5781630b97bc86146111bb5781630d36b30414610e9f5781630eeb4529146109dc578163185cbe94146109a75781633bd60ea71461085c578163439fab911461077c5781634435e1571461073157816348b9ef401461071257816352520d08146106f357816366e305fd1461062957816366f27fd314610600578163715018a6146105a65781637723bafb1461058057816377fa0ae3146105185781638b159fc5146104f05781638da5cb5b146104c85781639d76ea581461049f578163a913b88114610457578163b47dbf2214610438578163c24a0f8b14610419578163c3f909d4146103c4578163dddbdb211461039b578163e26d518a1461021e578163f2fde38b14610188575063f48868a11461014e57600080fd5b346101845760203660031901126101845760209181906001600160a01b03610174611458565b1681526010845220549051908152f35b5080fd5b90503461021a57602036600319011261021a576101a3611458565b916101ac611608565b6001600160a01b038316156101c857836101c584611660565b80f35b906020608492519162461bcd60e51b8352820152602660248201527f4f776e61626c653a206e6577206f776e657220697320746865207a65726f206160448201526564647265737360d01b6064820152fd5b8280fd5b8391503461018457826003193601126101845780356001600160401b03811161021a5761024e90369083016115ea565b90602435906001600160a01b0382168083036103975761028460ff6003541661027e816102796116a7565b6128a4565b156116fe565b6102d68387516102938161152b565b602c81527f4261736541637469766974793a20496e697469616c697a696e6720636c6f6e6560208201526b103bb4ba341037bbb732b91d60a11b898201526128eb565b1561035c57506102f261033f926102ed8693611660565b6117b6565b6a6f6e20636f6d706c65746560a81b81519161030d8361152b565b602b83527f4261736541637469766974793a20436c6f6e6520696e697469616c697a6174696020840152820152612810565b600160ff1960035416176003556101c5610357611740565b612810565b606490602086519162461bcd60e51b83528201526015602482015274496e76616c6964206f776e6572206164647265737360581b6044820152fd5b8480fd5b505034610184578160031936011261018457600b5490516001600160a01b039091168152602090f35b50503461018457816003193601126101845760c09060018060a01b039081600a541691600b541690600c54600d5490600e5492600f5494815196875260208701528501526060840152608083015260a0820152f35b505034610184578160031936011261018457602090600e549051908152f35b505034610184578160031936011261018457602090600f549051908152f35b82843461049c57602036600319011261049c578235906001600160401b03821161049c575061048e602093610493923691016115ea565b611b14565b90519015158152f35b80fd5b505034610184578160031936011261018457600a5490516001600160a01b039091168152602090f35b505034610184578160031936011261018457905490516001600160a01b039091168152602090f35b5050346101845760203660031901126101845760209181906001600160a01b03610174611458565b5050346101845781600319360112610184576101009060018060a01b0380600a54169181600b541691600c54600d54600e5491600f5493600154169460025496815198895260208901528701526060860152608085015260a084015260c083015260e0820152f35b505034610184576020366003190112610184576020906104936105a1611458565b61238f565b833461049c578060031936011261049c576105bf611608565b80546001600160a01b03198116825581906001600160a01b03167f8be0079c531659141344cd1fd0a4f28419497f9722a3daafe3b4186f6b6457e08280a380f35b50503461018457816003193601126101845760015490516001600160a01b039091168152602090f35b50503461018457602036600319011261018457602090610647611458565b90610658331592836106a75761238f565b91610666575b519015158152f35b6106a28282516106758161155c565b8581527f4261736541637469766974793a206973456c696769626c6520726573756c743a868201526128a4565b61065e565b6105a18184516106b68161152b565b602781527f4261736541637469766974793a206973456c696769626c6520636865636b2066888201526637b9103ab9b2b960c91b868201526128eb565b5050346101845781600319360112610184576020906002549051908152f35b505034610184578160031936011261018457602090600c549051908152f35b5050346101845781600319360112610184576003546001546002549354835160ff909316151583526001600160a01b0391821660208401529282019390935291166060820152608090f35b9190503461021a57602036600319011261021a578135916001600160401b038311610858576107b46108119161033f943691016115ea565b6107c960ff6003541661027e816102796116a7565b6102ed83516107d78161152b565b602381527f4261736541637469766974793a20496e697469616c697a696e6720636f6e74726020820152621858dd60ea1b85820152612810565b64706c65746560d81b8151916108268361152b565b602583527f4261736541637469766974793a20496e697469616c697a6174696f6e20636f6d6020840152820152612810565b8380fd5b9190503461021a57602036600319011261021a576101c5913561087d611608565b838060025484519061088e8261152b565b603382527f4261736541637469766974793a205570646174696e672070726f6f662076616c6020830152726964697479206475726174696f6e2066726f6d60681b868301526109346108de611784565b6109208851938492610909602085019763c67ea9d160e01b89526080602487015260a4860190611506565b916044850152602319848303016064850152611506565b87608483015203601f198101835282611577565b51906a636f6e736f6c652e6c6f675afa506002557f6174696f6e2075706461746564207375636365737366756c6c790000000000008151916109758361152b565b603a83527f4261736541637469766974793a2050726f6f662076616c6964697479206475726020840152820152612810565b5050346101845781600319360112610184576109d8906109c5611adb565b9051918291602083526020830190611506565b0390f35b9190503461021a57606036600319011261021a576109f8611458565b6024356044356001600160401b038111610e9b57610a199036908601611473565b9490610a2c84610a27611b27565b6128eb565b845195610a388761152b565b602e90818852610a85856020997f42757958417065636f696e576f7274684f66546f6b656e733a20417065636f698b8201526d1b88185b5bdd5b9d081cdc195b9d60921b8a82015261285f565b88546001600160a01b039490851633148015610e8e575b15610e5c57600f5480610e16575b5050610b3090610b08885194610abf8661155c565b6001988987528b368189013787610ad588611b83565b91169052895197610ae58961155c565b8989528b36818b0137610af789611b83565b52610b00611bba565b9236916115b3565b610b1182611b83565b52610b1b81611b83565b508351865181149182610e0b575b5050611bef565b610b7f8251875190610b418261152b565b603182526000805160206129de8339815191528a8301527034b73390383ab931b430b9b2b9903337b960791b89830152610b79611c33565b9161293b565b87855b610bea575b886101c5897f736520766572696669636174696f6e20636f6d706c65746500000000000000008a7f42757958417065636f696e576f7274684f66546f6b656e733a20507572636861815193610bdb8561152b565b60388552840152820152612810565b8251811015610e065780610c0f85610c05610e009487611ba6565b5116610a27611b27565b84610c1a8286611ba6565b51168a526010808a52610c68898c20548a51610c358161152b565b602f81526000805160206129fe8339815191528d8201526e1d08105c1958dbda5b881cdc195b9d608a1b8c82015261285f565b610cc4610c758389611ba6565b518a51610c818161152b565b8681527f42757958417065636f696e576f7274684f66546f6b656e733a20416464696e678d8201526d08105c1958dbda5b881cdc195b9d60921b8c82015261285f565b610cce8288611ba6565b5186610cda8488611ba6565b51168c52818b52610cef8a8d20918254611c79565b905585610cfc8387611ba6565b51168b528952610d55888b20548951610d148161152b565b602b81527f42757958417065636f696e576f7274684f66546f6b656e733a204e65772041708c8201526a1958dbda5b881cdc195b9d60aa1b8b82015261285f565b84610d608286611ba6565b51167f9f102852cfaffba097f8e863fcd02eac1b224a2a2c52bea4d467c7651e6d89ee89610d8e848a611ba6565b518151908152428d820152a2610dfb8851610da88161152b565b603d81527f42757958417065636f696e576f7274684f66546f6b656e733a205075726368618b8201527f736520766572696669636174696f6e206576656e7420656d69747465640000008a820152612810565b611c54565b85610b82565b610b87565b511490503880610b29565b8610610e225780610aaa565b875162461bcd60e51b81529081018990526014602482015273416d6f756e742062656c6f77206d696e696d756d60601b6044820152606490fd5b875162461bcd60e51b8152908101899052600c60248201526b155b985d5d1a1bdc9a5e995960a21b6044820152606490fd5b5084600154163314610a9c565b8580fd5b83833461018457610eaf366114a0565b9291825193610ebd8561152b565b603f85527f42757958417065636f696e576f7274684f66546f6b656e733a2050726f63657390610f198360209784898201527f73696e6720656c69676962696c6974792070726f6f6620666f72207573657200888201526128eb565b845191610f258361155c565b610f5a600195868552883681870137610f3d85611b83565b6001600160a01b039687169052610f52611bba565b9336916115b3565b610f6383611b83565b52610f6d82611b83565b50610f7b8351835114611bef565b610fc28351875190610f8c8261152b565b603b8252838a8301527f73696e6720656c69676962696c6974792070726f6f667320666f72000000000089830152610b79611c33565b87855b611060575b505050505050805191608083018381106001600160401b0382111761104d578252604283527f42757958417065636f696e576f7274684f66546f6b656e733a20456c69676962908301527f696c6974792070726f6f662070726f636573736564207375636365737366756c90820152616c7960f01b60608201526101c590612810565b634e487b7160e01b855260418652602485fd5b83518110156111b6576110ad856110778387611ba6565b511688516110848161152b565b60338152848b8201527239b4b73390383937b7b3103337b9103ab9b2b960691b8a8201526128eb565b6110ce856110bb8387611ba6565b51166110c78386611ba6565b5190611c86565b156111735780611133866110e561116d9488611ba6565b511689516110f28161152b565b603e8152600080516020612a1e8339815191528c8201527f7665726966696564207375636365737366756c6c7920666f72207573657200008b8201526128eb565b8561113e8287611ba6565b51167f6b691694ab01be33226e2411fd26ed324180cd679f30560b0b94c875747695028a8a51428152a2611c54565b85610fc5565b865162461bcd60e51b8152808b01899052601960248201527f496e76616c696420656c69676962696c6974792070726f6f66000000000000006044820152606490fd5b610fca565b505034610184578160031936011261018457602090600d549051908152f35b838334610184576020366003190112610184576111f5611458565b6111fd611608565b600154938380845161120e8161152b565b602781527f4261736541637469766974793a205570646174696e67207369676e696e67206b60208201526665792066726f6d60c81b868201526112a06112b7611255611784565b8a895193849261127e602085019763aabc9a3160e01b89526080602487015260a4860190611506565b6001600160a01b03938416604486015284810360231901606486015290611506565b98169788608483015203601f198101835282611577565b51906a636f6e736f6c652e6c6f675afa50811561133457506101c592936001600160601b0360a01b16176001556d64207375636365737366756c6c7960901b8151916113028361152b565b602e83527f4261736541637469766974793a205369676e696e67206b6579207570646174656020840152820152612810565b606490602084519162461bcd60e51b83528201526013602482015272496e76616c6964207369676e696e67206b657960681b6044820152fd5b8390853461049c57602061139d846113a385611388366114a0565b33159692938488611403575b505036916115b3565b90611c86565b916113b057519015158152f35b6106a28282516113bf8161152b565b602e81527f42757958417065636f696e576f7274684f66546f6b656e733a20566572696669868201526d31b0ba34b7b7103932b9bab63a1d60911b848201526128a4565b816114106114519361152b565b603e81526000805160206129de8339815191528b8201527f696e6720656c69676962696c6974792070726f6f6620666f7220757365720000898201526128eb565b8884611394565b600435906001600160a01b038216820361146e57565b600080fd5b9181601f8401121561146e578235916001600160401b03831161146e576020838186019501011161146e57565b90604060031983011261146e576004356001600160a01b038116810361146e5791602435906001600160401b03821161146e576114df91600401611473565b9091565b60005b8381106114f65750506000910152565b81810151838201526020016114e6565b9060209161151f815180928185528580860191016114e3565b601f01601f1916010190565b606081019081106001600160401b0382111761154657604052565b634e487b7160e01b600052604160045260246000fd5b604081019081106001600160401b0382111761154657604052565b90601f801991011681019081106001600160401b0382111761154657604052565b6001600160401b03811161154657601f01601f191660200190565b9291926115bf82611598565b916115cd6040519384611577565b82948184528183011161146e578281602093846000960137010152565b9080601f8301121561146e57816020611605933591016115b3565b90565b6000546001600160a01b0316330361161c57565b606460405162461bcd60e51b815260206004820152602060248201527f4f776e61626c653a2063616c6c6572206973206e6f7420746865206f776e65726044820152fd5b600080546001600160a01b039283166001600160a01b03198216811783559216907f8be0079c531659141344cd1fd0a4f28419497f9722a3daafe3b4186f6b6457e09080a3565b604051906116b48261152b565b6035825274161034b734ba34b0b634bd32b21039ba30ba3ab99d60591b6040837f4261736541637469766974793a20496e697469616c697a65722063616c6c656460208201520152565b1561170557565b60405162461bcd60e51b8152602060048201526013602482015272105b1c9958591e481a5b9a5d1a585b1a5e9959606a1b6044820152606490fd5b6040519061174d8261152b565b6022825261195960f21b6040837f4261736541637469766974793a20436f6e747261637420696e697469616c697a60208201520152565b604051906117918261155c565b6002825261746f60f01b6020830152565b51906001600160a01b038216820361146e57565b6040908151906117c58261152b565b602682527f42757958417065636f696e576f7274684f66546f6b656e733a20496e69746961926118096020938585820152656c697a696e6760d01b83820152612810565b60c08280518101031261146e57611ad9938261183b85706c697a6174696f6e20636f6d706c65746560781b95016117a2565b906118478482016117a2565b606082015160808301519160c060a08501519401519460018060a01b038091169116906118b688516118788161152b565b602881527f42757958417065636f696e576f7274684f66546f6b656e733a204465636f64658c820152676420636f6e66696760c01b8a820152612810565b6118f28189516118c58161155c565b8c81527f42757958417065636f696e576f7274684f66546f6b656e733a20546f6b656e3a8d8201526128eb565b6119398289516119018161152b565b602281527f42757958417065636f696e576f7274684f66546f6b656e733a20417065636f698d82015261371d60f11b8b8201526128eb565b6119888389516119488161152b565b602a81527f42757958417065636f696e576f7274684f66546f6b656e733a205265717569728d8201526932b21030b6b7bab73a1d60b11b8b82015261285f565b6119d28489516119978161152b565b602581527f42757958417065636f696e576f7274684f66546f6b656e733a205374617274208d820152643230ba329d60d91b8b82015261285f565b611a1a8589516119e18161152b565b602381527f42757958417065636f696e576f7274684f66546f6b656e733a20456e642064618d820152623a329d60e91b8b82015261285f565b611a71868951611a298161152b565b603281527f42757958417065636f696e576f7274684f66546f6b656e733a204d696e696d758d820152713690383ab931b430b9b29030b6b7bab73a1d60711b8b82015261285f565b6001600160601b0360a01b908082600a541617600a558282600b541617600b5583600c5584600d5585600e5586600f558160045416176004556005541617600555600655600755600855600955815193611aca8561152b565b60318552840152820152612810565b565b60405190611ae88261155c565b601d82527f4255595f585f415045434f494e5f574f5254485f4f465f544f4b454e530000006020830152565b60c0905110611b2257600190565b600090565b60405190611b348261152b565b603582527434b73390383ab931b430b9b2903337b9103ab9b2b960591b6040836000805160206129de83398151915260208201520152565b6001600160401b0381116115465760051b60200190565b805115611b905760200190565b634e487b7160e01b600052603260045260246000fd5b8051821015611b905760209160051b010190565b604051611bc68161155c565b600181528060005b602080821015611be957906060602092828501015201611bce565b50505090565b15611bf657565b60405162461bcd60e51b8152602060048201526015602482015274082e4e4c2f240d8cadccee8d040dad2e6dac2e8c6d605b1b6044820152606490fd5b60405190611c408261155c565b6005825264757365727360d81b6020830152565b6000198114611c635760010190565b634e487b7160e01b600052601160045260246000fd5b91908201809211611c6357565b90331580612085575b6001546001600160a01b03908116908115612013578351840160209585878301926040978891031261146e57878101516001600160401b03811161146e5781019083603f8301121561146e578882015190611ce982611598565b94611cf68a519687611577565b82865289838501011161146e57611d1589928994848d890191016114e3565b015190611f55575b6002548015159081611f42575b50611eea57611ddc928680938a611d896054611dd4968d611d79611d4c611adb565b9151958693818501986001600160601b03199060601b1689526034850152825192839186860191016114e3565b8101036034810184520182611577565b51902089518b8101917f19457468657265756d205369676e6564204d6573736167653a0a3332000000008352603c820152603c8152611dc78161152b565b51902090611e9357612250565b929092612136565b611e3e575b1614928391611df05750505090565b733b32b934b334b1b0ba34b7b7103932b9bab63a1d60611b83600080516020612a1e833981519152611e36955193611e278561152b565b603485528401528201526128a4565b388181611be9565b611e8e818651611e4d8161152b565b602b81527f42757958417065636f696e576f7274684f66546f6b656e733a205265636f7665898201526a3932b21039b4b3b732b91d60a91b888201526128eb565b611de1565b611ee58951611ea18161152b565b602e81527f42757958417065636f696e576f7274684f66546f6b656e733a204d65737361678c8201526d19481a185cda0818dc99585d195960921b8b820152612810565b612250565b5050505050919091611efe575b5050600090565b6a1a185cc8195e1c1a5c995960aa1b82600080516020612a1e833981519152611f3b945193611f2c8561152b565b602b8552840152820152612810565b3880611ef7565b611f4d915082611c79565b421138611d2a565b61200e8751611f638161152b565b602a8152611f9783600080516020612a1e83398151915292838d820152693a34b6b2b9ba30b6b81d60b11b8c82015261285f565b611fd78951611fa58161152b565b602c81526000805160206129fe8339815191528c8201526b3a103a34b6b2b9ba30b6b81d60a11b8b820152429061285f565b60025490895190611fe78261152b565b603282528b820152713b30b634b234ba3c90323ab930ba34b7b71d60711b8a82015261285f565b611d1d565b505091505061202157600090565b611b226040516120308161152b565b603b81527f42757958417065636f696e576f7274684f66546f6b656e733a204e6f2073696760208201527f6e696e67206b6579207365742c2070726f6f6620696e76616c696400000000006040820152612810565b6120cd836040516120958161152b565b603281526000805160206129de83398151915260208201527134b73390383937b7b3103337b9103ab9b2b960711b60408201526128eb565b600154604051612131916001600160a01b0316906120ea8161152b565b602f81527f42757958417065636f696e576f7274684f66546f6b656e733a205369676e696e60208201526e67206b65792069732073657420746f60881b60408201526128eb565b611c8f565b600581101561223a57806121475750565b600181036121945760405162461bcd60e51b815260206004820152601860248201527f45434453413a20696e76616c6964207369676e617475726500000000000000006044820152606490fd5b600281036121e15760405162461bcd60e51b815260206004820152601f60248201527f45434453413a20696e76616c6964207369676e6174757265206c656e677468006044820152606490fd5b6003146121ea57565b60405162461bcd60e51b815260206004820152602260248201527f45434453413a20696e76616c6964207369676e6174757265202773272076616c604482015261756560f01b6064820152608490fd5b634e487b7160e01b600052602160045260246000fd5b90604181511460001461227a576114df916020820151906060604084015193015160001a90612284565b5050600090600290565b9291907f7fffffffffffffffffffffffffffffff5d576e7357a4501ddfe92f46681b20a083116123075791608094939160ff602094604051948552168484015260408301526060820152600093849182805260015afa156122fa5781516001600160a01b038116156122f4579190565b50600190565b50604051903d90823e3d90fd5b50505050600090600390565b604051906123208261152b565b603782527f6e6720656c69676962696c69747920666f7220757365720000000000000000006040837f42757958417065636f696e576f7274684f66546f6b656e733a20436865636b6960208201520152565b6040519061237f8261155c565b60018252601d60f91b6020830152565b903315918261272b575b6040908151916123a88361155c565b600194858452602090813681870137866123c186611b83565b6001600160a01b038681169091528651966123db88611b6c565b976123e88751998a611577565b8089526123f7601f1991611b6c565b0136868a0137600091600d54421090600e549283151594600c549d5b6124af575b50505050505050612432959650612438575b505050611b83565b51151590565b6124a7927434b634ba3c903932b9bab63a103337b9103ab9b2b960591b61245e86611b83565b511515937f42757958417065636f696e576f7274684f66546f6b656e733a20456c6967696281519461248f8661152b565b603586528501528301526124a1612372565b91612970565b38808061242a565b815181101561272657808c8f8b8b848f9382908b8b6124d16125119b8d611ba6565b511694612668575b612601578d806125f8575b612592578360005260108552856000205410156125018388611ba6565b52612517575b5050505050611c54565b86612413565b6125457f696c69747920636865636b20726573756c7420666f72207573657200000000009161258896611ba6565b511515937f42757958417065636f696e576f7274684f66546f6b656e733a20456c696769628151946125768661152b565b603b86528501528301526124a1612372565b8c8b8b3884612507565b506000959250926125ab9491936125b1575b5050611ba6565b52611c54565b7f742074696d6520697320616674657220656e6420646174650000000000000000826000805160206129fe8339815191526125f1945193610bdb8561152b565b8e8e6125a4565b508c42116124e4565b506000959250926125ab949193612619575050611ba6565b7f742074696d65206973206265666f726520737461727420646174650000000000826000805160206129fe8339815191526125f19451936126598561152b565b603b8552840152820152612810565b5061267584610a27612313565b83600052601085526126d2866000205487516126908161152b565b602c81527f42757958417065636f696e576f7274684f66546f6b656e733a20557365722041888201526b1c1958dbda5b881cdc195b9d60a21b8982015261285f565b8b6127218288516126e28161152b565b602981527f42757958417065636f696e576f7274684f66546f6b656e733a205265717569728982015268195908185b5bdd5b9d60ba1b8a82015261285f565b6124d9565b612418565b61273781610a27612313565b61280b6040612777815161274a8161152b565b602681526000805160206129fe833981519152602082015265742074696d6560d01b83820152429061285f565b6127c3600d5482516127888161152b565b602481527f42757958417065636f696e576f7274684f66546f6b656e733a205374617274206020820152636461746560e01b8482015261285f565b600e549061746560f01b8151916127d98361152b565b602283527f42757958417065636f696e576f7274684f66546f6b656e733a20456e64206461602084015282015261285f565b612399565b6000809160405161284c8161283e602082019463104c13eb60e21b8652602060248401526044830190611506565b03601f198101835282611577565b51906a636f6e736f6c652e6c6f675afa50565b60009190829161284c60405180926128906020830195632d839cb360e21b8752604060248501526064840190611506565b90604483015203601f198101835282611577565b60009190829161284c60405180926128d5602083019563c3b5563560e01b8752604060248501526064840190611506565b901515604483015203601f198101835282611577565b60009190829161284c604051809261291c602083019563319af33360e01b8752604060248501526064840190611506565b6001600160a01b0391909116604483015203601f198101835282611577565b6000929161284c849361283e6040519384926109096020850197635970e08960e01b8952606060248701526084860190611506565b9061284c6000949385946129c76040519485936129a660208601986317c574a360e21b8a526080602488015260a4870190611506565b6001600160a01b039092166044860152848203602319016064860152611506565b901515608483015203601f19810183528261157756fe42757958417065636f696e576f7274684f66546f6b656e733a2056657269667942757958417065636f696e576f7274684f66546f6b656e733a2043757272656e42757958417065636f696e576f7274684f66546f6b656e733a2050726f6f6620a2646970667358221220afee70cacd2e84030449769c39d492c6627b58faf7a1aa1ebd9f7fcfa30ad21f64736f6c63430008140033",
  "linkReferences": {},
  "deployedLinkReferences": {}
}