{
  "_format": "hh-sol-artifact-1",
  "contractName": "BuyXApecoinWorthOfNFTs",
  "sourceName": "contracts/activities/BuyXApecoinWorthOfNFTsActivity.sol",
  "abi": [
    {
      "inputs": [],
      "stateMutability": "nonpayable",
      "type": "constructor"
    },
    {
      "anonymous": false,
      "inputs": [
        {
          "indexed": true,
          "internalType": "address",
          "name": "user",
          "type": "address"
        },
        {
          "indexed": false,
          "internalType": "uint256",
          "name": "timestamp",
          "type": "uint256"
        }
      ],
      "name": "EligibilityProofVerified",
      "type": "event"
    },
    {
      "anonymous": false,
      "inputs": [
        {
          "indexed": true,
          "internalType": "address",
          "name": "previousOwner",
          "type": "address"
        },
        {
          "indexed": true,
          "internalType": "address",
          "name": "newOwner",
          "type": "address"
        }
      ],
      "name": "OwnershipTransferred",
      "type": "event"
    },
    {
      "anonymous": false,
      "inputs": [
        {
          "indexed": true,
          "internalType": "address",
          "name": "user",
          "type": "address"
        },
        {
          "indexed": false,
          "internalType": "uint256",
          "name": "apecoinAmount",
          "type": "uint256"
        },
        {
          "indexed": false,
          "internalType": "uint256",
          "name": "nftCount",
          "type": "uint256"
        },
        {
          "indexed": false,
          "internalType": "uint256",
          "name": "timestamp",
          "type": "uint256"
        }
      ],
      "name": "PurchaseVerified",
      "type": "event"
    },
    {
      "inputs": [],
      "name": "apecoinAddress",
      "outputs": [
        {
          "internalType": "address",
          "name": "",
          "type": "address"
        }
      ],
      "stateMutability": "view",
      "type": "function"
    },
    {
      "inputs": [
        {
          "internalType": "address",
          "name": "",
          "type": "address"
        }
      ],
      "name": "apecoinSpent",
      "outputs": [
        {
          "internalType": "uint256",
          "name": "",
          "type": "uint256"
        }
      ],
      "stateMutability": "view",
      "type": "function"
    },
    {
      "inputs": [
        {
          "internalType": "address",
          "name": "user",
          "type": "address"
        }
      ],
      "name": "checkEligibility",
      "outputs": [
        {
          "internalType": "bool",
          "name": "",
          "type": "bool"
        }
      ],
      "stateMutability": "view",
      "type": "function"
    },
    {
      "inputs": [],
      "name": "debugActivityState",
      "outputs": [
        {
          "internalType": "address",
          "name": "activityNftAddress",
          "type": "address"
        },
        {
          "internalType": "address",
          "name": "activityApecoinAddress",
          "type": "address"
        },
        {
          "internalType": "uint256",
          "name": "activityRequiredAmount",
          "type": "uint256"
        },
        {
          "internalType": "uint256",
          "name": "activityStartDate",
          "type": "uint256"
        },
        {
          "internalType": "uint256",
          "name": "activityEndDate",
          "type": "uint256"
        },
        {
          "internalType": "uint256",
          "name": "activityMinPurchaseAmount",
          "type": "uint256"
        },
        {
          "internalType": "address",
          "name": "activitySigningKey",
          "type": "address"
        },
        {
          "internalType": "uint256",
          "name": "proofDuration",
          "type": "uint256"
        }
      ],
      "stateMutability": "view",
      "type": "function"
    },
    {
      "inputs": [],
      "name": "debugState",
      "outputs": [
        {
          "internalType": "bool",
          "name": "initialized",
          "type": "bool"
        },
        {
          "internalType": "address",
          "name": "currentSigningKey",
          "type": "address"
        },
        {
          "internalType": "uint256",
          "name": "currentProofValidity",
          "type": "uint256"
        },
        {
          "internalType": "address",
          "name": "currentOwner",
          "type": "address"
        }
      ],
      "stateMutability": "view",
      "type": "function"
    },
    {
      "inputs": [],
      "name": "endDate",
      "outputs": [
        {
          "internalType": "uint256",
          "name": "",
          "type": "uint256"
        }
      ],
      "stateMutability": "view",
      "type": "function"
    },
    {
      "inputs": [],
      "name": "getActivityType",
      "outputs": [
        {
          "internalType": "string",
          "name": "",
          "type": "string"
        }
      ],
      "stateMutability": "pure",
      "type": "function"
    },
    {
      "inputs": [],
      "name": "getConfig",
      "outputs": [
        {
          "internalType": "address",
          "name": "",
          "type": "address"
        },
        {
          "internalType": "address",
          "name": "",
          "type": "address"
        },
        {
          "internalType": "uint256",
          "name": "",
          "type": "uint256"
        },
        {
          "internalType": "uint256",
          "name": "",
          "type": "uint256"
        },
        {
          "internalType": "uint256",
          "name": "",
          "type": "uint256"
        },
        {
          "internalType": "uint256",
          "name": "",
          "type": "uint256"
        }
      ],
      "stateMutability": "view",
      "type": "function"
    },
    {
      "inputs": [
        {
          "internalType": "address",
          "name": "user",
          "type": "address"
        }
      ],
      "name": "getUserPurchaseInfo",
      "outputs": [
        {
          "internalType": "uint256",
          "name": "apecoin",
          "type": "uint256"
        },
        {
          "internalType": "uint256",
          "name": "count",
          "type": "uint256"
        }
      ],
      "stateMutability": "view",
      "type": "function"
    },
    {
      "inputs": [
        {
          "internalType": "bytes",
          "name": "config",
          "type": "bytes"
        }
      ],
      "name": "initialize",
      "outputs": [],
      "stateMutability": "nonpayable",
      "type": "function"
    },
    {
      "inputs": [
        {
          "internalType": "bytes",
          "name": "config",
          "type": "bytes"
        },
        {
          "internalType": "address",
          "name": "owner",
          "type": "address"
        }
      ],
      "name": "initializeClone",
      "outputs": [],
      "stateMutability": "nonpayable",
      "type": "function"
    },
    {
      "inputs": [
        {
          "internalType": "address",
          "name": "user",
          "type": "address"
        }
      ],
      "name": "isEligible",
      "outputs": [
        {
          "internalType": "bool",
          "name": "",
          "type": "bool"
        }
      ],
      "stateMutability": "view",
      "type": "function"
    },
    {
      "inputs": [],
      "name": "minPurchaseAmount",
      "outputs": [
        {
          "internalType": "uint256",
          "name": "",
          "type": "uint256"
        }
      ],
      "stateMutability": "view",
      "type": "function"
    },
    {
      "inputs": [],
      "name": "nftAddress",
      "outputs": [
        {
          "internalType": "address",
          "name": "",
          "type": "address"
        }
      ],
      "stateMutability": "view",
      "type": "function"
    },
    {
      "inputs": [
        {
          "internalType": "address",
          "name": "",
          "type": "address"
        }
      ],
      "name": "nftCount",
      "outputs": [
        {
          "internalType": "uint256",
          "name": "",
          "type": "uint256"
        }
      ],
      "stateMutability": "view",
      "type": "function"
    },
    {
      "inputs": [],
      "name": "owner",
      "outputs": [
        {
          "internalType": "address",
          "name": "",
          "type": "address"
        }
      ],
      "stateMutability": "view",
      "type": "function"
    },
    {
      "inputs": [
        {
          "internalType": "address",
          "name": "user",
          "type": "address"
        },
        {
          "internalType": "bytes",
          "name": "proof",
          "type": "bytes"
        }
      ],
      "name": "processEligibilityProof",
      "outputs": [],
      "stateMutability": "nonpayable",
      "type": "function"
    },
    {
      "inputs": [],
      "name": "proofValidityDuration",
      "outputs": [
        {
          "internalType": "uint256",
          "name": "",
          "type": "uint256"
        }
      ],
      "stateMutability": "view",
      "type": "function"
    },
    {
      "inputs": [],
      "name": "renounceOwnership",
      "outputs": [],
      "stateMutability": "nonpayable",
      "type": "function"
    },
    {
      "inputs": [],
      "name": "requiredAmount",
      "outputs": [
        {
          "internalType": "uint256",
          "name": "",
          "type": "uint256"
        }
      ],
      "stateMutability": "view",
      "type": "function"
    },
    {
      "inputs": [
        {
          "internalType": "uint256",
          "name": "_duration",
          "type": "uint256"
        }
      ],
      "name": "setProofValidityDuration",
      "outputs": [],
      "stateMutability": "nonpayable",
      "type": "function"
    },
    {
      "inputs": [
        {
          "internalType": "address",
          "name": "_signingKey",
          "type": "address"
        }
      ],
      "name": "setSigningKey",
      "outputs": [],
      "stateMutability": "nonpayable",
      "type": "function"
    },
    {
      "inputs": [],
      "name": "signingKey",
      "outputs": [
        {
          "internalType": "address",
          "name": "",
          "type": "address"
        }
      ],
      "stateMutability": "view",
      "type": "function"
    },
    {
      "inputs": [],
      "name": "startDate",
      "outputs": [
        {
          "internalType": "uint256",
          "name": "",
          "type": "uint256"
        }
      ],
      "stateMutability": "view",
      "type": "function"
    },
    {
      "inputs": [
        {
          "internalType": "address",
          "name": "newOwner",
          "type": "address"
        }
      ],
      "name": "transferOwnership",
      "outputs": [],
      "stateMutability": "nonpayable",
      "type": "function"
    },
    {
      "inputs": [
        {
          "internalType": "bytes",
          "name": "config",
          "type": "bytes"
        }
      ],
      "name": "validateConfig",
      "outputs": [
        {
          "internalType": "bool",
          "name": "",
          "type": "bool"
        }
      ],
      "stateMutability": "pure",
      "type": "function"
    },
    {
      "inputs": [
        {
          "internalType": "address",
          "name": "user",
          "type": "address"
        },
        {
          "internalType": "bytes",
          "name": "proof",
          "type": "bytes"
        }
      ],
      "name": "verifyEligibilityProof",
      "outputs": [
        {
          "internalType": "bool",
          "name": "",
          "type": "bool"
        }
      ],
      "stateMutability": "view",
      "type": "function"
    },
    {
      "inputs": [
        {
          "internalType": "address",
          "name": "user",
          "type": "address"
        },
        {
          "internalType": "uint256",
          "name": "apecoinAmount",
          "type": "uint256"
        },
        {
          "internalType": "uint256",
          "name": "count",
          "type": "uint256"
        },
        {
          "internalType": "bytes",
          "name": "proof",
          "type": "bytes"
        }
      ],
      "name": "verifyPurchase",
      "outputs": [],
      "stateMutability": "nonpayable",
      "type": "function"
    }
  ],
  "bytecode": "0x6080604090808252346200010157620000183362000106565b6001600160401b03908083019082821181831017620000eb5762000068918452602081527f4261736541637469766974793a20436f6e7374727563746f722063616c6c656460208201526200014d565b600160ff196003541617600355620000803362000106565b81516060810191821181831017620000eb57620000dd918352602c81527f4261736541637469766974793a20496d706c656d656e746174696f6e20636f6e60208201526b1d1c9858dd081b1bd8dad95960a21b838201526200014d565b51612cbb9081620001ea8239f35b634e487b7160e01b600052604160045260246000fd5b600080fd5b600080546001600160a01b039283166001600160a01b03198216811783559216907f8be0079c531659141344cd1fd0a4f28419497f9722a3daafe3b4186f6b6457e09080a3565b60405190602090828281019263104c13eb60e21b845280602483015282519283604484015260005b848110620001d157505050808260006064601f9560839501015283199384910116810103604481018552011682019082821060018060401b03831117620000eb57600092839260405251906a636f6e736f6c652e6c6f675afa50565b8181018301518782016064015286935082016200017556fe608060408181526004918236101561001657600080fd5b600092833560e01c9182630624549b14611572575081630ab4423e146113df5781630b97bc86146113c05781630d36b304146110c4578163185cbe941461108f5781633bd60ea714610f44578163439fab9114610e635781634435e15714610e1857816348b9ef4014610df957816352520d0814610dda5781635bf8633a14610db157816366e305fd14610ce757816366f27fd314610cbe578163715018a614610c645781637723bafb14610c3e57816377fa0ae314610bd6578163846a5939146105505781638da5cb5b14610528578163a913b881146104e2578163b47dbf22146104c3578163c24a0f8b146104a4578163c3f909d41461044f578163c971ebb314610417578163dddbdb21146103ee578163e26d518a14610270578163e6801ac714610229578163f2fde38b14610193575063f48868a11461015957600080fd5b3461018f57602036600319011261018f5760209181906001600160a01b0361017f61165b565b1681526010845220549051908152f35b5080fd5b905034610225576020366003190112610225576101ae61165b565b916101b7611811565b6001600160a01b038316156101d357836101d084611869565b80f35b906020608492519162461bcd60e51b8352820152602660248201527f4f776e61626c653a206e6577206f776e657220697320746865207a65726f206160448201526564647265737360d01b6064820152fd5b8280fd5b82843461026d57602036600319011261026d576001600160a01b0361024c61165b565b16815260106020528180822054916011602052205482519182526020820152f35b80fd5b8391503461018f578260031936011261018f57803567ffffffffffffffff8111610225576102a190369083016117f3565b90602435906001600160a01b0382168083036103ea576102d760ff600354166102d1816102cc6118b0565b612b0c565b15611907565b6103298387516102e681611730565b602c81527f4261736541637469766974793a20496e697469616c697a696e6720636c6f6e6560208201526b103bb4ba341037bbb732b91d60a11b89820152612b53565b156103af5750610345610392926103408693611869565b6119bf565b6a6f6e20636f6d706c65746560a81b81519161036083611730565b602b83527f4261736541637469766974793a20436c6f6e6520696e697469616c697a6174696020840152820152612a78565b600160ff1960035416176003556101d06103aa611949565b612a78565b606490602086519162461bcd60e51b83528201526015602482015274496e76616c6964206f776e6572206164647265737360581b6044820152fd5b8480fd5b50503461018f578160031936011261018f57600b5490516001600160a01b039091168152602090f35b50503461018f57602036600319011261018f5760209181906001600160a01b0361043f61165b565b1681526011845220549051908152f35b50503461018f578160031936011261018f5760c09060018060a01b039081600a541691600b541690600c54600d5490600e5492600f5494815196875260208701528501526060840152608083015260a0820152f35b50503461018f578160031936011261018f57602090600e549051908152f35b50503461018f578160031936011261018f57602090600f549051908152f35b82843461026d57602036600319011261026d5782359067ffffffffffffffff821161026d575061051a60209361051f923691016117f3565b611d05565b90519015158152f35b50503461018f578160031936011261018f57905490516001600160a01b039091168152602090f35b919050346102255760803660031901126102255761056c61165b565b60443560243560643567ffffffffffffffff8111610bd2576105919036908701611676565b95906105a48561059f611d18565b612b53565b8551966105b088611730565b602c908189526105fb8560209a7f42757958417065636f696e576f7274684f664e4654733a20417065636f696e208c8201526b185b5bdd5b9d081cdc195b9d60a21b8b820152612ac7565b61064186895161060a81611730565b602181527f42757958417065636f696e576f7274684f664e4654733a204e465420636f756e8c820152601d60fa1b8b820152612ac7565b89546001600160a01b039490851633148015610bc5575b15610b9357600f5480610b4d575b5050610711906106e389519461067b86611762565b6001998a87528c36818901378761069188611d73565b911690528a51976106a189611762565b8a89528c36818b01376106b389611d73565b528a51986106c08a611762565b8a8a528c36818c01376106d28a611d73565b526106db611daa565b9236916117bc565b6106ec82611d73565b526106f681611d73565b508351865181149182610b42575b82610b37575b5050611ddf565b61075e825188519061072282611730565b602f8252600080516020612c668339815191528b8301526e3390383ab931b430b9b2b9903337b960891b8a830152610758611e23565b91612ba3565b88865b6107c2575b896101d08a7520766572696669636174696f6e20636f6d706c65746560501b8b7f42757958417065636f696e576f7274684f664e4654733a2050757263686173658151936107b385611730565b60368552840152820152612a78565b8251811015610b3257836107d68285611d96565b51166107e0611d18565b906107ea91612b53565b836107f58285611d96565b51168a52848a6010808c528b8b8084205493815161081281611730565b602d8152600080516020612c468339815191529586858301528382016c105c1958dbda5b881cdc195b9d609a1b905261084a91612ac7565b89610855888b611d96565b51168152878c88808d8d60119b8c96878b52898920548a519061087782611730565b60299e8f83528d8301528b8201681391950818dbdd5b9d60ba1b905261089c91612ac7565b6108a68583611d96565b518a51916108b383611730565b82527f42757958417065636f696e576f7274684f664e4654733a20416464696e6720418c8301526b1c1958dbda5b881cdc195b9d60a21b8b8301526108f791612ac7565b836109028188611d96565b518a519061090f82611730565b602882527f42757958417065636f696e576f7274684f664e4654733a20416464696e67204e8d8301526711950818dbdd5b9d60c21b8c83015261095191612ac7565b61095a91611d96565b519261096591611d96565b511685528787528585209081549061097c91611e69565b905561098791611d96565b51938b6109948a8d611d96565b511683525220908154906109a791611e69565b9055866109b48588611d96565b51168d528b52898c20548a51916109ca83611730565b82527f42757958417065636f696e576f7274684f664e4654733a204e657720417065638c830152681bda5b881cdc195b9d60ba1b8b830152610a0b91612ac7565b84610a168386611d96565b51168b528952878a2054885190610a2c82611730565b602582527f42757958417065636f696e576f7274684f664e4654733a204e6577204e4654208b8301526418dbdd5b9d60da1b8a830152610a6b91612ac7565b83610a768285611d96565b5116610a828287611d96565b51610a8d8389611d96565b518a519182528b820152428a82015260607fd4dec864da227403f9bb7ab82c5449ad5d346eea6e333e7570345ead8ff9385b91a28751610acc81611730565b603b81527f42757958417065636f696e576f7274684f664e4654733a2050757263686173658a8201527f20766572696669636174696f6e206576656e7420656d6974746564000000000089820152610b2390612a78565b610b2c90611e44565b86610761565b610766565b51149050388061070a565b885182149250610704565b8610610b595780610666565b885162461bcd60e51b81529081018a90526014602482015273416d6f756e742062656c6f77206d696e696d756d60601b6044820152606490fd5b885162461bcd60e51b81529081018a9052600c60248201526b155b985d5d1a1bdc9a5e995960a21b6044820152606490fd5b5084600154163314610658565b8680fd5b50503461018f578160031936011261018f576101009060018060a01b0380600a54169181600b541691600c54600d54600e5491600f5493600154169460025496815198895260208901528701526060860152608085015260a084015260c083015260e0820152f35b50503461018f57602036600319011261018f5760209061051f610c5f61165b565b6125b9565b833461026d578060031936011261026d57610c7d611811565b80546001600160a01b03198116825581906001600160a01b03167f8be0079c531659141344cd1fd0a4f28419497f9722a3daafe3b4186f6b6457e08280a380f35b50503461018f578160031936011261018f5760015490516001600160a01b039091168152602090f35b50503461018f57602036600319011261018f57602090610d0561165b565b90610d1633159283610d65576125b9565b91610d24575b519015158152f35b610d60828251610d3381611762565b8581527f4261736541637469766974793a206973456c696769626c6520726573756c743a86820152612b0c565b610d1c565b610c5f818451610d7481611730565b602781527f4261736541637469766974793a206973456c696769626c6520636865636b2066888201526637b9103ab9b2b960c91b86820152612b53565b50503461018f578160031936011261018f57600a5490516001600160a01b039091168152602090f35b50503461018f578160031936011261018f576020906002549051908152f35b50503461018f578160031936011261018f57602090600c549051908152f35b50503461018f578160031936011261018f576003546001546002549354835160ff909316151583526001600160a01b0391821660208401529282019390935291166060820152608090f35b919050346102255760203660031901126102255781359167ffffffffffffffff8311610f4057610e9c610ef991610392943691016117f3565b610eb160ff600354166102d1816102cc6118b0565b6103408351610ebf81611730565b602381527f4261736541637469766974793a20496e697469616c697a696e6720636f6e74726020820152621858dd60ea1b85820152612a78565b64706c65746560d81b815191610f0e83611730565b602583527f4261736541637469766974793a20496e697469616c697a6174696f6e20636f6d6020840152820152612a78565b8380fd5b91905034610225576020366003190112610225576101d09135610f65611811565b8380600254845190610f7682611730565b603382527f4261736541637469766974793a205570646174696e672070726f6f662076616c6020830152726964697479206475726174696f6e2066726f6d60681b8683015261101c610fc661198d565b6110088851938492610ff1602085019763c67ea9d160e01b89526080602487015260a486019061170b565b91604485015260231984830301606485015261170b565b87608483015203601f19810183528261177e565b51906a636f6e736f6c652e6c6f675afa506002557f6174696f6e2075706461746564207375636365737366756c6c7900000000000081519161105d83611730565b603a83527f4261736541637469766974793a2050726f6f662076616c6964697479206475726020840152820152612a78565b50503461018f578160031936011261018f576110c0906110ad611ccc565b905191829160208352602083019061170b565b0390f35b8391503461018f576110d5366116a4565b8592919251936110e485611730565b603d85527f42757958417065636f696e576f7274684f664e4654733a2050726f6365737369916111408460209785898201527f6e6720656c69676962696c6974792070726f6f6620666f7220757365720000008b820152612b53565b87519261114c84611762565b61118160019687865288368188013761116486611d73565b6001600160a01b039788169052611179611daa565b9336916117bc565b61118a83611d73565b5261119482611d73565b506111a28451835114611ddf565b6111e984518a51906111b382611730565b60398252838a8301527f6e6720656c69676962696c6974792070726f6f667320666f72000000000000008c830152610758611e23565b87865b611253575b886101d0897f6974792070726f6f662070726f636573736564207375636365737366756c6c798d7f42757958417065636f696e576f7274684f664e4654733a20456c69676962696c81519361124585611730565b828552840152820152612a78565b84518110156113bb5761129e8661126a8388611d96565b51168b5161127781611730565b60318152848b82015270373390383937b7b3103337b9103ab9b2b960791b8d820152612b53565b6112bf866112ac8388611d96565b51166112b88386611d96565b5190611e76565b1561137857806113388b8a7f726966696564207375636365737366756c6c7920666f722075736572000000008a6112f9611372978c611d96565b5116927f42757958417065636f696e576f7274684f664e4654733a2050726f6f6620766581519361132985611730565b603c8552840152820152612b53565b866113438288611d96565b51167f6b691694ab01be33226e2411fd26ed324180cd679f30560b0b94c875747695028a8d51428152a2611e44565b866111ec565b895162461bcd60e51b8152808501899052601960248201527f496e76616c696420656c69676962696c6974792070726f6f66000000000000006044820152606490fd5b6111f1565b50503461018f578160031936011261018f57602090600d549051908152f35b83833461018f57602036600319011261018f576113fa61165b565b611402611811565b600154938380845161141381611730565b602781527f4261736541637469766974793a205570646174696e67207369676e696e67206b60208201526665792066726f6d60c81b868201526114a56114bc61145a61198d565b8a8951938492611483602085019763aabc9a3160e01b89526080602487015260a486019061170b565b6001600160a01b0393841660448601528481036023190160648601529061170b565b98169788608483015203601f19810183528261177e565b51906a636f6e736f6c652e6c6f675afa50811561153957506101d092936001600160601b0360a01b16176001556d64207375636365737366756c6c7960901b81519161150783611730565b602e83527f4261736541637469766974793a205369676e696e67206b6579207570646174656020840152820152612a78565b606490602084519162461bcd60e51b83528201526013602482015272496e76616c6964207369676e696e67206b657960681b6044820152fd5b8390853461026d5760206115a2846115a88561158d366116a4565b33159692938488611606575b505036916117bc565b90611e76565b916115b557519015158152f35b610d608282516115c481611730565b602c81527f42757958417065636f696e576f7274684f664e4654733a205665726966696361868201526b3a34b7b7103932b9bab63a1d60a11b84820152612b0c565b8161161361165493611730565b603c8152600080516020612c668339815191528b8201527f6720656c69676962696c6974792070726f6f6620666f7220757365720000000089820152612b53565b8884611599565b600435906001600160a01b038216820361167157565b600080fd5b9181601f840112156116715782359167ffffffffffffffff8311611671576020838186019501011161167157565b906040600319830112611671576004356001600160a01b038116810361167157916024359067ffffffffffffffff8211611671576116e491600401611676565b9091565b60005b8381106116fb5750506000910152565b81810151838201526020016116eb565b90602091611724815180928185528580860191016116e8565b601f01601f1916010190565b6060810190811067ffffffffffffffff82111761174c57604052565b634e487b7160e01b600052604160045260246000fd5b6040810190811067ffffffffffffffff82111761174c57604052565b90601f8019910116810190811067ffffffffffffffff82111761174c57604052565b67ffffffffffffffff811161174c57601f01601f191660200190565b9291926117c8826117a0565b916117d6604051938461177e565b829481845281830111611671578281602093846000960137010152565b9080601f830112156116715781602061180e933591016117bc565b90565b6000546001600160a01b0316330361182557565b606460405162461bcd60e51b815260206004820152602060248201527f4f776e61626c653a2063616c6c6572206973206e6f7420746865206f776e65726044820152fd5b600080546001600160a01b039283166001600160a01b03198216811783559216907f8be0079c531659141344cd1fd0a4f28419497f9722a3daafe3b4186f6b6457e09080a3565b604051906118bd82611730565b6035825274161034b734ba34b0b634bd32b21039ba30ba3ab99d60591b6040837f4261736541637469766974793a20496e697469616c697a65722063616c6c656460208201520152565b1561190e57565b60405162461bcd60e51b8152602060048201526013602482015272105b1c9958591e481a5b9a5d1a585b1a5e9959606a1b6044820152606490fd5b6040519061195682611730565b6022825261195960f21b6040837f4261736541637469766974793a20436f6e747261637420696e697469616c697a60208201520152565b6040519061199a82611762565b6002825261746f60f01b6020830152565b51906001600160a01b038216820361167157565b6040908151906119ce82611730565b602482527f42757958417065636f696e576f7274684f664e4654733a20496e697469616c6992611a106020938585820152637a696e6760e01b83820152612a78565b60c08280518101031261167157611cca9382611a40856e7a6174696f6e20636f6d706c65746560881b95016119ab565b90611a4c8482016119ab565b606082015160808301519160c060a08501519401519460018060a01b03809116911690611ab98851611a7d81611730565b602681527f42757958417065636f696e576f7274684f664e4654733a204465636f646564208c82015265636f6e66696760d01b8a820152612a78565b611af6818951611ac881611762565b601c81527f42757958417065636f696e576f7274684f664e4654733a204e46543a000000008d820152612b53565b611b32828951611b0581611762565b8c81527f42757958417065636f696e576f7274684f664e4654733a20417065636f696e3a8d820152612b53565b611b7f838951611b4181611730565b602881527f42757958417065636f696e576f7274684f664e4654733a2052657175697265648d820152671030b6b7bab73a1d60c11b8b820152612ac7565b611bc7848951611b8e81611730565b602381527f42757958417065636f696e576f7274684f664e4654733a2053746172742064618d820152623a329d60e91b8b820152612ac7565b611c0d858951611bd681611730565b602181527f42757958417065636f696e576f7274684f664e4654733a20456e6420646174658d820152601d60f91b8b820152612ac7565b611c62868951611c1c81611730565b603081527f42757958417065636f696e576f7274684f664e4654733a204d696e696d756d208d8201526f383ab931b430b9b29030b6b7bab73a1d60811b8b820152612ac7565b6001600160601b0360a01b908082600a541617600a558282600b541617600b5583600c5584600d5585600e5586600f558160045416176004556005541617600555600655600755600855600955815193611cbb85611730565b602f8552840152820152612a78565b565b60405190611cd982611762565b601b82527f4255595f585f415045434f494e5f574f5254485f4f465f4e46545300000000006020830152565b60c0905110611d1357600190565b600090565b60405190611d2582611730565b60338252723390383ab931b430b9b2903337b9103ab9b2b960691b604083600080516020612c6683398151915260208201520152565b67ffffffffffffffff811161174c5760051b60200190565b805115611d805760200190565b634e487b7160e01b600052603260045260246000fd5b8051821015611d805760209160051b010190565b604051611db681611762565b600181528060005b602080821015611dd957906060602092828501015201611dbe565b50505090565b15611de657565b60405162461bcd60e51b8152602060048201526015602482015274082e4e4c2f240d8cadccee8d040dad2e6dac2e8c6d605b1b6044820152606490fd5b60405190611e3082611762565b6005825264757365727360d81b6020830152565b6000198114611e535760010190565b634e487b7160e01b600052601160045260246000fd5b91908201809211611e5357565b903315806122bb575b6001546001600160a01b039081169081156122495783518401602095858783019260409788910312611671578781015167ffffffffffffffff81116116715781019083603f83011215611671578882015190611eda826117a0565b94611ee78a51968761177e565b82865289838501011161167157611f0689928994848d890191016116e8565b015190612162575b600254801515908161214f575b506120e757611fcd928680938a611f7a6054611fc5968d611f6a611f3d611ccc565b9151958693818501986001600160601b03199060601b1689526034850152825192839186860191016116e8565b810103603481018452018261177e565b51902089518b8101917f19457468657265756d205369676e6564204d6573736167653a0a3332000000008352603c820152603c8152611fb881611730565b5190209061209257612482565b929092612368565b61203f575b1614928391611fe15750505090565b713934b334b1b0ba34b7b7103932b9bab63a1d60711b837f42757958417065636f696e576f7274684f664e4654733a2050726f6f6620766561203795519361202885611730565b60328552840152820152612b0c565b388181611dd9565b61208d81865161204e81611730565b602981527f42757958417065636f696e576f7274684f664e4654733a205265636f766572658982015268321039b4b3b732b91d60b91b88820152612b53565b611fd2565b6120e289516120a081611730565b602c81527f42757958417065636f696e576f7274684f664e4654733a204d657373616765208c8201526b1a185cda0818dc99585d195960a21b8b820152612a78565b612482565b50505050509190916120fb575b5050600090565b681cc8195e1c1a5c995960ba1b827f42757958417065636f696e576f7274684f664e4654733a2050726f6f6620686161214894519361213985611730565b60298552840152820152612a78565b38806120f4565b61215a915082611e69565b421138611f1b565b6121af81885161217181611730565b602881527f42757958417065636f696e576f7274684f664e4654733a2050726f6f662074698b8201526736b2b9ba30b6b81d60c11b8a820152612ac7565b6121ed87516121bd81611730565b602a8152600080516020612c468339815191528a820152693a34b6b2b9ba30b6b81d60b11b898201524290612ac7565b61224460025488516121fe81611730565b603081527f42757958417065636f696e576f7274684f664e4654733a2050726f6f662076618b8201526f3634b234ba3c90323ab930ba34b7b71d60811b8a820152612ac7565b611f0e565b505091505061225757600090565b611d1360405161226681611730565b603981527f42757958417065636f696e576f7274684f664e4654733a204e6f207369676e6960208201527f6e67206b6579207365742c2070726f6f6620696e76616c6964000000000000006040820152612a78565b612301836040516122cb81611730565b60308152600080516020612c6683398151915260208201526f3390383937b7b3103337b9103ab9b2b960811b6040820152612b53565b600154604051612363916001600160a01b03169061231e81611730565b602d81527f42757958417065636f696e576f7274684f664e4654733a205369676e696e672060208201526c6b65792069732073657420746f60981b6040820152612b53565b611e7f565b600581101561246c57806123795750565b600181036123c65760405162461bcd60e51b815260206004820152601860248201527f45434453413a20696e76616c6964207369676e617475726500000000000000006044820152606490fd5b600281036124135760405162461bcd60e51b815260206004820152601f60248201527f45434453413a20696e76616c6964207369676e6174757265206c656e677468006044820152606490fd5b60031461241c57565b60405162461bcd60e51b815260206004820152602260248201527f45434453413a20696e76616c6964207369676e6174757265202773272076616c604482015261756560f01b6064820152608490fd5b634e487b7160e01b600052602160045260246000fd5b9060418151146000146124ac576116e4916020820151906060604084015193015160001a906124b6565b5050600090600290565b9291907f7fffffffffffffffffffffffffffffff5d576e7357a4501ddfe92f46681b20a083116125395791608094939160ff602094604051948552168484015260408301526060820152600093849182805260015afa1561252c5781516001600160a01b03811615612526579190565b50600190565b50604051903d90823e3d90fd5b50505050600090600390565b6040519061255282611730565b60358252741032b634b3b4b134b634ba3c903337b9103ab9b2b960591b6040837f42757958417065636f696e576f7274684f664e4654733a20436865636b696e6760208201520152565b604051906125a982611762565b60018252601d60f91b6020830152565b903315918261299f575b6040908151916125d283611762565b600194858452602090813681870137866125eb86611d73565b6001600160a01b0386811690915286519661260588611d5b565b976126128751998a61177e565b808952612621601f1991611d5b565b0136868a0137600091600d54421090600e549283151594600c549d5b6126d7575b5050505050505061265c959650612662575b505050611d73565b51151590565b6126cf927234ba3c903932b9bab63a103337b9103ab9b2b960691b61268686611d73565b511515937f42757958417065636f696e576f7274684f664e4654733a20456c69676962696c8151946126b786611730565b603386528501528301526126c961259c565b91612bd8565b388080612654565b815181101561299a57808c8f8b8b848f9382908b8b6126f96127399b8d611d96565b511694612889575b612822578d80612819575b6127ba578360005260108552856000205410156127298388611d96565b5261273f575b5050505050611e44565b8661263d565b61276d7f69747920636865636b20726573756c7420666f72207573657200000000000000916127b096611d96565b511515937f42757958417065636f696e576f7274684f664e4654733a20456c69676962696c81519461279e86611730565b603986528501528301526126c961259c565b8c8b8b388461272f565b506000959250926127d39491936127d9575b5050611d96565b52611e44565b7574696d6520697320616674657220656e64206461746560501b82600080516020612c468339815191526128129451936107b385611730565b8e8e6127cc565b508c421161270c565b506000959250926127d394919361283a575050611d96565b7f74696d65206973206265666f726520737461727420646174650000000000000082600080516020612c4683398151915261281294519361287a85611730565b60398552840152820152612a78565b506128968461059f612545565b83600052601085526128f1866000205487516128b181611730565b602a81527f42757958417065636f696e576f7274684f664e4654733a205573657220417065888201526918dbda5b881cdc195b9d60b21b89820152612ac7565b83600052601185526129488660002054875161290c81611730565b602681527f42757958417065636f696e576f7274684f664e4654733a2055736572204e465488820152650818dbdd5b9d60d21b89820152612ac7565b8b61299582885161295881611730565b602781527f42757958417065636f696e576f7274684f664e4654733a205265717569726564898201526608185b5bdd5b9d60ca1b8a820152612ac7565b612701565b612642565b6129ab8161059f612545565b6129e66040516129ba81611730565b60248152600080516020612c4683398151915260208201526374696d6560e01b60408201524290612ac7565b612a32600d546040516129f881611730565b602281527f42757958417065636f696e576f7274684f664e4654733a205374617274206461602082015261746560f01b6040820152612ac7565b612a73600e54604051612a4481611762565b602081527f42757958417065636f696e576f7274684f664e4654733a20456e6420646174656020820152612ac7565b6125c3565b60008091604051612ab481612aa6602082019463104c13eb60e21b865260206024840152604483019061170b565b03601f19810183528261177e565b51906a636f6e736f6c652e6c6f675afa50565b600091908291612ab46040518092612af86020830195632d839cb360e21b875260406024850152606484019061170b565b90604483015203601f19810183528261177e565b600091908291612ab46040518092612b3d602083019563c3b5563560e01b875260406024850152606484019061170b565b901515604483015203601f19810183528261177e565b600091908291612ab46040518092612b84602083019563319af33360e01b875260406024850152606484019061170b565b6001600160a01b0391909116604483015203601f19810183528261177e565b60009291612ab48493612aa6604051938492610ff16020850197635970e08960e01b895260606024870152608486019061170b565b90612ab4600094938594612c2f604051948593612c0e60208601986317c574a360e21b8a526080602488015260a487019061170b565b6001600160a01b03909216604486015284820360231901606486015261170b565b901515608483015203601f19810183528261177e56fe42757958417065636f696e576f7274684f664e4654733a2043757272656e742042757958417065636f696e576f7274684f664e4654733a20566572696679696ea2646970667358221220ab07d9072e5a3a0756a3144178f517f54cde555e6a692c71dde06215e82f260a64736f6c63430008140033",
  "linkReferences": {},
  "deployedLinkReferences": {}
}