{
  "_format": "hh-sol-artifact-1",
  "contractName": "BuyXTokens",
  "sourceName": "contracts/activities/BuyXTokensActivity.sol",
  "abi": [
    {
      "inputs": [],
      "stateMutability": "nonpayable",
      "type": "constructor"
    },
    {
      "anonymous": false,
      "inputs": [
        {
          "indexed": true,
          "internalType": "address",
          "name": "user",
          "type": "address"
        },
        {
          "indexed": false,
          "internalType": "uint256",
          "name": "timestamp",
          "type": "uint256"
        }
      ],
      "name": "EligibilityProofVerified",
      "type": "event"
    },
    {
      "anonymous": false,
      "inputs": [
        {
          "indexed": true,
          "internalType": "address",
          "name": "previousOwner",
          "type": "address"
        },
        {
          "indexed": true,
          "internalType": "address",
          "name": "newOwner",
          "type": "address"
        }
      ],
      "name": "OwnershipTransferred",
      "type": "event"
    },
    {
      "anonymous": false,
      "inputs": [
        {
          "indexed": true,
          "internalType": "address",
          "name": "user",
          "type": "address"
        },
        {
          "indexed": false,
          "internalType": "uint256",
          "name": "amount",
          "type": "uint256"
        },
        {
          "indexed": false,
          "internalType": "uint256",
          "name": "timestamp",
          "type": "uint256"
        }
      ],
      "name": "PurchaseVerified",
      "type": "event"
    },
    {
      "inputs": [
        {
          "internalType": "address",
          "name": "user",
          "type": "address"
        }
      ],
      "name": "checkEligibility",
      "outputs": [
        {
          "internalType": "bool",
          "name": "",
          "type": "bool"
        }
      ],
      "stateMutability": "view",
      "type": "function"
    },
    {
      "inputs": [],
      "name": "debugActivityState",
      "outputs": [
        {
          "internalType": "address",
          "name": "activityTokenAddress",
          "type": "address"
        },
        {
          "internalType": "uint256",
          "name": "activityRequiredAmount",
          "type": "uint256"
        },
        {
          "internalType": "uint256",
          "name": "activityStartDate",
          "type": "uint256"
        },
        {
          "internalType": "uint256",
          "name": "activityEndDate",
          "type": "uint256"
        },
        {
          "internalType": "uint256",
          "name": "activityMinPurchaseAmount",
          "type": "uint256"
        },
        {
          "internalType": "address",
          "name": "activitySigningKey",
          "type": "address"
        },
        {
          "internalType": "uint256",
          "name": "proofDuration",
          "type": "uint256"
        }
      ],
      "stateMutability": "view",
      "type": "function"
    },
    {
      "inputs": [],
      "name": "debugState",
      "outputs": [
        {
          "internalType": "bool",
          "name": "initialized",
          "type": "bool"
        },
        {
          "internalType": "address",
          "name": "currentSigningKey",
          "type": "address"
        },
        {
          "internalType": "uint256",
          "name": "currentProofValidity",
          "type": "uint256"
        },
        {
          "internalType": "address",
          "name": "currentOwner",
          "type": "address"
        }
      ],
      "stateMutability": "view",
      "type": "function"
    },
    {
      "inputs": [],
      "name": "endDate",
      "outputs": [
        {
          "internalType": "uint256",
          "name": "",
          "type": "uint256"
        }
      ],
      "stateMutability": "view",
      "type": "function"
    },
    {
      "inputs": [],
      "name": "getActivityType",
      "outputs": [
        {
          "internalType": "string",
          "name": "",
          "type": "string"
        }
      ],
      "stateMutability": "pure",
      "type": "function"
    },
    {
      "inputs": [],
      "name": "getConfig",
      "outputs": [
        {
          "internalType": "address",
          "name": "",
          "type": "address"
        },
        {
          "internalType": "uint256",
          "name": "",
          "type": "uint256"
        },
        {
          "internalType": "uint256",
          "name": "",
          "type": "uint256"
        },
        {
          "internalType": "uint256",
          "name": "",
          "type": "uint256"
        },
        {
          "internalType": "uint256",
          "name": "",
          "type": "uint256"
        }
      ],
      "stateMutability": "view",
      "type": "function"
    },
    {
      "inputs": [
        {
          "internalType": "address",
          "name": "user",
          "type": "address"
        }
      ],
      "name": "getUserPurchaseAmount",
      "outputs": [
        {
          "internalType": "uint256",
          "name": "",
          "type": "uint256"
        }
      ],
      "stateMutability": "view",
      "type": "function"
    },
    {
      "inputs": [
        {
          "internalType": "bytes",
          "name": "config",
          "type": "bytes"
        }
      ],
      "name": "initialize",
      "outputs": [],
      "stateMutability": "nonpayable",
      "type": "function"
    },
    {
      "inputs": [
        {
          "internalType": "bytes",
          "name": "config",
          "type": "bytes"
        },
        {
          "internalType": "address",
          "name": "owner",
          "type": "address"
        }
      ],
      "name": "initializeClone",
      "outputs": [],
      "stateMutability": "nonpayable",
      "type": "function"
    },
    {
      "inputs": [
        {
          "internalType": "address",
          "name": "user",
          "type": "address"
        }
      ],
      "name": "isEligible",
      "outputs": [
        {
          "internalType": "bool",
          "name": "",
          "type": "bool"
        }
      ],
      "stateMutability": "view",
      "type": "function"
    },
    {
      "inputs": [],
      "name": "minPurchaseAmount",
      "outputs": [
        {
          "internalType": "uint256",
          "name": "",
          "type": "uint256"
        }
      ],
      "stateMutability": "view",
      "type": "function"
    },
    {
      "inputs": [],
      "name": "owner",
      "outputs": [
        {
          "internalType": "address",
          "name": "",
          "type": "address"
        }
      ],
      "stateMutability": "view",
      "type": "function"
    },
    {
      "inputs": [
        {
          "internalType": "address",
          "name": "user",
          "type": "address"
        },
        {
          "internalType": "bytes",
          "name": "proof",
          "type": "bytes"
        }
      ],
      "name": "processEligibilityProof",
      "outputs": [],
      "stateMutability": "nonpayable",
      "type": "function"
    },
    {
      "inputs": [],
      "name": "proofValidityDuration",
      "outputs": [
        {
          "internalType": "uint256",
          "name": "",
          "type": "uint256"
        }
      ],
      "stateMutability": "view",
      "type": "function"
    },
    {
      "inputs": [
        {
          "internalType": "address",
          "name": "",
          "type": "address"
        }
      ],
      "name": "purchaseAmount",
      "outputs": [
        {
          "internalType": "uint256",
          "name": "",
          "type": "uint256"
        }
      ],
      "stateMutability": "view",
      "type": "function"
    },
    {
      "inputs": [],
      "name": "renounceOwnership",
      "outputs": [],
      "stateMutability": "nonpayable",
      "type": "function"
    },
    {
      "inputs": [],
      "name": "requiredAmount",
      "outputs": [
        {
          "internalType": "uint256",
          "name": "",
          "type": "uint256"
        }
      ],
      "stateMutability": "view",
      "type": "function"
    },
    {
      "inputs": [
        {
          "internalType": "uint256",
          "name": "_duration",
          "type": "uint256"
        }
      ],
      "name": "setProofValidityDuration",
      "outputs": [],
      "stateMutability": "nonpayable",
      "type": "function"
    },
    {
      "inputs": [
        {
          "internalType": "address",
          "name": "_signingKey",
          "type": "address"
        }
      ],
      "name": "setSigningKey",
      "outputs": [],
      "stateMutability": "nonpayable",
      "type": "function"
    },
    {
      "inputs": [],
      "name": "signingKey",
      "outputs": [
        {
          "internalType": "address",
          "name": "",
          "type": "address"
        }
      ],
      "stateMutability": "view",
      "type": "function"
    },
    {
      "inputs": [],
      "name": "startDate",
      "outputs": [
        {
          "internalType": "uint256",
          "name": "",
          "type": "uint256"
        }
      ],
      "stateMutability": "view",
      "type": "function"
    },
    {
      "inputs": [],
      "name": "tokenAddress",
      "outputs": [
        {
          "internalType": "address",
          "name": "",
          "type": "address"
        }
      ],
      "stateMutability": "view",
      "type": "function"
    },
    {
      "inputs": [
        {
          "internalType": "address",
          "name": "newOwner",
          "type": "address"
        }
      ],
      "name": "transferOwnership",
      "outputs": [],
      "stateMutability": "nonpayable",
      "type": "function"
    },
    {
      "inputs": [
        {
          "internalType": "bytes",
          "name": "config",
          "type": "bytes"
        }
      ],
      "name": "validateConfig",
      "outputs": [
        {
          "internalType": "bool",
          "name": "",
          "type": "bool"
        }
      ],
      "stateMutability": "pure",
      "type": "function"
    },
    {
      "inputs": [
        {
          "internalType": "address",
          "name": "user",
          "type": "address"
        },
        {
          "internalType": "bytes",
          "name": "proof",
          "type": "bytes"
        }
      ],
      "name": "verifyEligibilityProof",
      "outputs": [
        {
          "internalType": "bool",
          "name": "",
          "type": "bool"
        }
      ],
      "stateMutability": "view",
      "type": "function"
    },
    {
      "inputs": [
        {
          "internalType": "address",
          "name": "user",
          "type": "address"
        },
        {
          "internalType": "uint256",
          "name": "amount",
          "type": "uint256"
        },
        {
          "internalType": "bytes",
          "name": "proof",
          "type": "bytes"
        }
      ],
      "name": "verifyPurchase",
      "outputs": [],
      "stateMutability": "nonpayable",
      "type": "function"
    }
  ],
  "bytecode": "0x6080604090808252346200010157620000183362000106565b6001600160401b03908083019082821181831017620000eb5762000068918452602081527f4261736541637469766974793a20436f6e7374727563746f722063616c6c656460208201526200014d565b600160ff196003541617600355620000803362000106565b81516060810191821181831017620000eb57620000dd918352602c81527f4261736541637469766974793a20496d706c656d656e746174696f6e20636f6e60208201526b1d1c9858dd081b1bd8dad95960a21b838201526200014d565b516127579081620001ea8239f35b634e487b7160e01b600052604160045260246000fd5b600080fd5b600080546001600160a01b039283166001600160a01b03198216811783559216907f8be0079c531659141344cd1fd0a4f28419497f9722a3daafe3b4186f6b6457e09080a3565b60405190602090828281019263104c13eb60e21b845280602483015282519283604484015260005b848110620001d157505050808260006064601f9560839501015283199384910116810103604481018552011682019082821060018060401b03831117620000eb57600092839260405251906a636f6e736f6c652e6c6f675afa50565b8181018301518782016064015286935082016200017556fe6080604081815260048036101561001557600080fd5b600092833560e01c9081630624549b1461126c575080630ab4423e146110d85780630b97bc86146110b95780630d36b30414610ddd5780630eeb452914610967578063185cbe94146109325780633bd60ea7146107e8578063439fab91146107085780634435e157146106bd57806348b9ef401461069e57806352520d081461067f57806366e305fd146105b557806366f27fd31461058c57806369b4a3d9146105545780636c5cde6814610554578063715018a6146104fa5780637723bafb146104d457806377fa0ae3146104775780638da5cb5b1461044f5780639d76ea5814610426578063a913b881146103dd578063b47dbf22146103be578063c24a0f8b1461039f578063c3f909d414610357578063e26d518a146101d55763f2fde38b1461014157600080fd5b346101d15760203660031901126101d15761015a611345565b916101636114fb565b6001600160a01b0383161561017f578361017c84611553565b80f35b906020608492519162461bcd60e51b8352820152602660248201527f4f776e61626c653a206e6577206f776e657220697320746865207a65726f206160448201526564647265737360d01b6064820152fd5b8280fd5b50829034610353578260031936011261035357803567ffffffffffffffff81116101d15761020690369083016114dd565b90602435906001600160a01b03821680830361034f5761023c60ff600354166102368161023161159a565b6125e8565b156115f1565b61028e83875161024b8161141a565b602c81527f4261736541637469766974793a20496e697469616c697a696e6720636c6f6e6560208201526b103bb4ba341037bbb732b91d60a11b8982015261262f565b1561031457506102aa6102f7926102a58693611553565b611695565b6a6f6e20636f6d706c65746560a81b8151916102c58361141a565b602b83527f4261736541637469766974793a20436c6f6e6520696e697469616c697a6174696020840152820152612554565b600160ff19600354161760035561017c61030f611633565b612554565b606490602086519162461bcd60e51b83528201526015602482015274496e76616c6964206f776e6572206164647265737360581b6044820152fd5b8480fd5b5080fd5b50503461035357816003193601126103535760a090600180831b036009541690600a5490600b54600c5491600d54938151958652602086015284015260608301526080820152f35b505034610353578160031936011261035357602090600c549051908152f35b505034610353578160031936011261035357602090600d549051908152f35b5091346104235760203660031901126104235782359067ffffffffffffffff8211610423575061041560209361041a923691016114dd565b6118ff565b90519015158152f35b80fd5b50503461035357816003193601126103535760095490516001600160a01b039091168152602090f35b505034610353578160031936011261035357905490516001600160a01b039091168152602090f35b50503461035357816003193601126103535760e09060018060a01b03806009541691600a5491600b54600c5490600d5492600154169360025495815197885260208801528601526060850152608084015260a083015260c0820152f35b5050346103535760203660031901126103535760209061041a6104f5611345565b612138565b83346104235780600319360112610423576105136114fb565b80546001600160a01b03198116825581906001600160a01b03167f8be0079c531659141344cd1fd0a4f28419497f9722a3daafe3b4186f6b6457e08280a380f35b5050346103535760203660031901126103535760209181906001600160a01b0361057c611345565b168152600e845220549051908152f35b50503461035357816003193601126103535760015490516001600160a01b039091168152602090f35b505034610353576020366003190112610353576020906105d3611345565b906105e43315928361063357612138565b916105f2575b519015158152f35b61062e8282516106018161144c565b8581527f4261736541637469766974793a206973456c696769626c6520726573756c743a868201526125e8565b6105ea565b6104f58184516106428161141a565b602781527f4261736541637469766974793a206973456c696769626c6520636865636b2066888201526637b9103ab9b2b960c91b8682015261262f565b5050346103535781600319360112610353576020906002549051908152f35b505034610353578160031936011261035357602090600a549051908152f35b5050346103535781600319360112610353576003546001546002549354835160ff909316151583526001600160a01b0391821660208401529282019390935291166060820152608090f35b5090346101d15760203660031901126101d15781359167ffffffffffffffff83116107e45761074061079d916102f7943691016114dd565b61075560ff600354166102368161023161159a565b6102a583516107638161141a565b602381527f4261736541637469766974793a20496e697469616c697a696e6720636f6e74726020820152621858dd60ea1b85820152612554565b64706c65746560d81b8151916107b28361141a565b602583527f4261736541637469766974793a20496e697469616c697a6174696f6e20636f6d6020840152820152612554565b8380fd5b5090346101d15760203660031901126101d15761017c91356108086114fb565b83806002548451906108198261141a565b603382527f4261736541637469766974793a205570646174696e672070726f6f662076616c6020830152726964697479206475726174696f6e2066726f6d60681b868301526108bf610869611677565b6108ab8851938492610894602085019763c67ea9d160e01b89526080602487015260a48601906113f5565b9160448501526023198483030160648501526113f5565b87608483015203601f198101835282611468565b51906a636f6e736f6c652e6c6f675afa506002557f6174696f6e2075706461746564207375636365737366756c6c790000000000008151916109008361141a565b603a83527f4261736541637469766974793a2050726f6f662076616c6964697479206475726020840152820152612554565b505034610353578160031936011261035357610963906109506118d7565b90519182916020835260208301906113f5565b0390f35b5090346101d15760603660031901126101d157610982611345565b60243560443567ffffffffffffffff8111610dd9576109a49036908601611360565b94906109b7846109b2611912565b61262f565b8451956109c38761144c565b601b87526109f8846020987f42757958546f6b656e733a20507572636861736520616d6f756e7400000000008a8201526125a3565b87546001600160a01b039390841633148015610dcc575b15610d9a57600d5480610d54575b5050610aa390610a7b875193610a328561144c565b6001978886528a368188013786610a4887611973565b91169052885196610a588861144c565b8888528a36818a0137610a6a88611973565b52610a736119aa565b9236916114a6565b610a8482611973565b52610a8e81611973565b508251855181149182610d49575b50506119df565b8051610af78651610ab38161141a565b6023928382527f42757958546f6b656e733a20566572696679696e6720707572636861736573208a830152623337b960e91b89830152610af1611a23565b9161267f565b87855b610b4f575b8861017c89696e20636f6d706c65746560b01b8a7f42757958546f6b656e733a20507572636861736520766572696669636174696f815193610b408561141a565b602a8552840152820152612554565b8251811015610d445780610b7485610b6a610d3e9487611996565b51166109b2611912565b84610b7f8286611996565b51168a52600e808a52610bd2898c20548a51610b9a8161141a565b8681527f42757958546f6b656e733a2043757272656e7420707572636861736520616d6f8d820152621d5b9d60ea1b8c8201526125a3565b610c23610bdf8389611996565b518a51610beb8161141a565b602281527f42757958546f6b656e733a20416464696e6720707572636861736520616d6f758d820152611b9d60f21b8c8201526125a3565b610c2d8288611996565b5186610c398488611996565b51168c52818b52610c4e8a8d20918254611a69565b905585610c5b8387611996565b51168b528952610ca1888b20548951610c738161144c565b601f81527f42757958546f6b656e733a204e657720707572636861736520616d6f756e74008c8201526125a3565b84610cac8286611996565b51167f9f102852cfaffba097f8e863fcd02eac1b224a2a2c52bea4d467c7651e6d89ee89610cda848a611996565b518151908152428d820152a2610d398851610cf48161141a565b602f81527f42757958546f6b656e733a20507572636861736520766572696669636174696f8b8201526e1b88195d995b9d08195b5a5d1d1959608a1b8a820152612554565b611a44565b85610afa565b610aff565b511490503880610a9c565b8510610d605780610a1d565b865162461bcd60e51b81529081018890526014602482015273416d6f756e742062656c6f77206d696e696d756d60601b6044820152606490fd5b865162461bcd60e51b8152908101889052600c60248201526b155b985d5d1a1bdc9a5e995960a21b6044820152606490fd5b5083600154163314610a0f565b8580fd5b5082903461035357610dee3661138e565b859291925193610dfd8561141a565b603185527f42757958546f6b656e733a2050726f63657373696e6720656c69676962696c6991610e4d846020978589820152703a3c90383937b7b3103337b9103ab9b2b960791b8b82015261262f565b610ee5885193610e5c8561144c565b610e91600197888752893681890137610e7487611973565b6001600160a01b039889169052610e896119aa565b9436916114a6565b610e9a84611973565b52610ea483611973565b50610eb285518451146119df565b84518a5191610ec08361141a565b602d8352898301526c3a3c90383937b7b339903337b960991b8b830152610af1611a23565b86855b610f47575b8761017c88736f636573736564207375636365737366756c6c7960601b8c7f42757958546f6b656e733a20456c69676962696c6974792070726f6f66207072815193610f388561141a565b60348552840152820152612554565b83518110156110b457610fa685610f5e8387611996565b51168a51610f6b8161141a565b602581527f42757958546f6b656e733a2050726f63657373696e672070726f6f6620666f728a82015264103ab9b2b960d91b8c82015261262f565b610fc785610fb48387611996565b5116610fc08385611996565b5190611a76565b15611071578061103186610fde61106b9488611996565b51168b51610feb8161141a565b603081527f42757958546f6b656e733a2050726f6f662076657269666965642073756363658b8201526f39b9b33ab6363c903337b9103ab9b2b960811b8d82015261262f565b8561103c8287611996565b51167f6b691694ab01be33226e2411fd26ed324180cd679f30560b0b94c87574769502898c51428152a2611a44565b85610ee8565b885162461bcd60e51b8152808401889052601960248201527f496e76616c696420656c69676962696c6974792070726f6f66000000000000006044820152606490fd5b610eed565b505034610353578160031936011261035357602090600b549051908152f35b50919034610353576020366003190112610353576110f4611345565b6110fc6114fb565b600154938380845161110d8161141a565b602781527f4261736541637469766974793a205570646174696e67207369676e696e67206b60208201526665792066726f6d60c81b8682015261119f6111b6611154611677565b8a895193849261117d602085019763aabc9a3160e01b89526080602487015260a48601906113f5565b6001600160a01b039384166044860152848103602319016064860152906113f5565b98169788608483015203601f198101835282611468565b51906a636f6e736f6c652e6c6f675afa508115611233575061017c92936001600160601b0360a01b16176001556d64207375636365737366756c6c7960901b8151916112018361141a565b602e83527f4261736541637469766974793a205369676e696e67206b6579207570646174656020840152820152612554565b606490602084519162461bcd60e51b83528201526013602482015272496e76616c6964207369676e696e67206b657960681b6044820152fd5b8390853461042357602061129c846112a2856112873661138e565b331596929384886112eb575b505036916114a6565b90611a76565b916112af57519015158152f35b61062e8282516112be8161144c565b8581527f42757958546f6b656e733a20566572696669636174696f6e20726573756c743a868201526125e8565b816112f861133e9361141a565b603081527f42757958546f6b656e733a20566572696679696e6720656c69676962696c69748b8201526f3c90383937b7b3103337b9103ab9b2b960811b8982015261262f565b8884611293565b600435906001600160a01b038216820361135b57565b600080fd5b9181601f8401121561135b5782359167ffffffffffffffff831161135b576020838186019501011161135b57565b90604060031983011261135b576004356001600160a01b038116810361135b57916024359067ffffffffffffffff821161135b576113ce91600401611360565b9091565b60005b8381106113e55750506000910152565b81810151838201526020016113d5565b9060209161140e815180928185528580860191016113d2565b601f01601f1916010190565b6060810190811067ffffffffffffffff82111761143657604052565b634e487b7160e01b600052604160045260246000fd5b6040810190811067ffffffffffffffff82111761143657604052565b90601f8019910116810190811067ffffffffffffffff82111761143657604052565b67ffffffffffffffff811161143657601f01601f191660200190565b9291926114b28261148a565b916114c06040519384611468565b82948184528183011161135b578281602093846000960137010152565b9080601f8301121561135b578160206114f8933591016114a6565b90565b6000546001600160a01b0316330361150f57565b606460405162461bcd60e51b815260206004820152602060248201527f4f776e61626c653a2063616c6c6572206973206e6f7420746865206f776e65726044820152fd5b600080546001600160a01b039283166001600160a01b03198216811783559216907f8be0079c531659141344cd1fd0a4f28419497f9722a3daafe3b4186f6b6457e09080a3565b604051906115a78261141a565b6035825274161034b734ba34b0b634bd32b21039ba30ba3ab99d60591b6040837f4261736541637469766974793a20496e697469616c697a65722063616c6c656460208201520152565b156115f857565b60405162461bcd60e51b8152602060048201526013602482015272105b1c9958591e481a5b9a5d1a585b1a5e9959606a1b6044820152606490fd5b604051906116408261141a565b6022825261195960f21b6040837f4261736541637469766974793a20436f6e747261637420696e697469616c697a60208201520152565b604051906116848261144c565b6002825261746f60f01b6020830152565b6040908151906116a48261144c565b601882526116d86020927f42757958546f6b656e733a20496e697469616c697a696e67000000000000000084820152612554565b60a08180518101031261135b57808201516001600160a01b038116939084900361135b576118d59382826265746560e81b94015160608201519060a060808401519301519361176881875161172c8161141a565b602681527f42757958546f6b656e733a204465636f64656420636f6e6669672077697468208b820152653a37b5b2b71d60d11b8982015261262f565b6117a58287516117778161144c565b601c81527f42757958546f6b656e733a20526571756972656420616d6f756e743a000000008b8201526125a3565b6117e28387516117b48161144c565b601781527f42757958546f6b656e733a20537461727420646174653a0000000000000000008b8201526125a3565b6118178487516117f18161144c565b6015815274213abcac2a37b5b2b7399d1022b732103230ba329d60591b8b8201526125a3565b6118608587516118268161141a565b602481527f42757958546f6b656e733a204d696e696d756d20707572636861736520616d6f8b820152633ab73a1d60e11b898201526125a3565b6001600160601b0360a01b8181600954161760095582600a5583600b5584600c5585600d5560045416176004556005556006556007556008557f42757958546f6b656e733a20496e697469616c697a6174696f6e20636f6d706c8151936118c68561141a565b60238552840152820152612554565b565b604051906118e48261144c565b600c82526b4255595f585f544f4b454e5360a01b6020830152565b60a090511061190d57600190565b600090565b6040519061191f8261141a565b602782526637b9103ab9b2b960c91b6040837f42757958546f6b656e733a20566572696679696e67207075726368617365206660208201520152565b67ffffffffffffffff81116114365760051b60200190565b8051156119805760200190565b634e487b7160e01b600052603260045260246000fd5b80518210156119805760209160051b010190565b6040516119b68161144c565b600181528060005b6020808210156119d9579060606020928285010152016119be565b50505090565b156119e657565b60405162461bcd60e51b8152602060048201526015602482015274082e4e4c2f240d8cadccee8d040dad2e6dac2e8c6d605b1b6044820152606490fd5b60405190611a308261144c565b6005825264757365727360d81b6020830152565b6000198114611a535760010190565b634e487b7160e01b600052601160045260246000fd5b91908201809211611a5357565b90331580611e4c575b6001546001600160a01b03908116908115611dea578351840160209585878301926040978891031261135b578781015167ffffffffffffffff811161135b5781019083603f8301121561135b578882015190611ada8261148a565b94611ae78a519687611468565b82865289838501011161135b57611b0689928994848d890191016113d2565b015190611d1f575b6002548015159081611d0c575b50611cb557611bcd928680938a611b7a6054611bc5968d611b6a611b3d6118d7565b9151958693818501986001600160601b03199060601b1689526034850152825192839186860191016113d2565b8101036034810184520182611468565b51902089518b8101917f19457468657265756d205369676e6564204d6573736167653a0a3332000000008352603c820152603c8152611bb88161141a565b51902090611c755761200d565b929092611ef3565b611c33575b1614928391611be15750505090565b6532b9bab63a1d60d11b837f42757958546f6b656e733a2050726f6f6620766572696669636174696f6e2072611c2b955193611c1c8561141a565b602685528401528201526125e8565b3881816119d9565b611c70818651611c428161144c565b601d81527f42757958546f6b656e733a205265636f7665726564207369676e65723a0000008982015261262f565b611bd2565b611cb08951611c838161144c565b8b81527f42757958546f6b656e733a204d657373616765206861736820637265617465648c820152612554565b61200d565b5050505050919091611cc9575b5050600090565b7f42757958546f6b656e733a2050726f6f66206861732065787069726564000000611d05925191611cf98361144c565b601d8352820152612554565b3880611cc2565b611d17915082611a69565b421138611b1b565b611d5c818851611d2e8161144c565b601c81527f42757958546f6b656e733a2050726f6f662074696d657374616d703a000000008b8201526125a3565b611d9a8751611d6a8161144c565b601e81527f42757958546f6b656e733a2043757272656e742074696d657374616d703a00008a82015242906125a3565b611de56002548851611dab8161141a565b602481527f42757958546f6b656e733a2050726f6f662076616c69646974792064757261748b8201526334b7b71d60e11b8a8201526125a3565b611b0e565b5050915050611df857600090565b61190d604051611e078161141a565b602d81527f42757958546f6b656e733a204e6f207369676e696e67206b6579207365742c2060208201526c1c1c9bdbd9881a5b9d985b1a59609a1b6040820152612554565b611e9883604051611e5c8161141a565b602481527f42757958546f6b656e733a20566572696679696e672070726f6f6620666f72206020820152633ab9b2b960e11b604082015261262f565b600154604051611eee916001600160a01b031690611eb58161141a565b602181527f42757958546f6b656e733a205369676e696e67206b65792069732073657420746020820152606f60f81b604082015261262f565b611a7f565b6005811015611ff75780611f045750565b60018103611f515760405162461bcd60e51b815260206004820152601860248201527f45434453413a20696e76616c6964207369676e617475726500000000000000006044820152606490fd5b60028103611f9e5760405162461bcd60e51b815260206004820152601f60248201527f45434453413a20696e76616c6964207369676e6174757265206c656e677468006044820152606490fd5b600314611fa757565b60405162461bcd60e51b815260206004820152602260248201527f45434453413a20696e76616c6964207369676e6174757265202773272076616c604482015261756560f01b6064820152608490fd5b634e487b7160e01b600052602160045260246000fd5b906041815114600014612037576113ce916020820151906060604084015193015160001a90612041565b5050600090600290565b9291907f7fffffffffffffffffffffffffffffff5d576e7357a4501ddfe92f46681b20a083116120c45791608094939160ff602094604051948552168484015260408301526060820152600093849182805260015afa156120b75781516001600160a01b038116156120b1579190565b50600190565b50604051903d90823e3d90fd5b50505050600090600390565b604051906120dd8261141a565b6029825268103337b9103ab9b2b960b91b6040837f42757958546f6b656e733a20436865636b696e6720656c69676962696c69747960208201520152565b604051906121288261144c565b60018252601d60f91b6020830152565b9033159182612491575b6040908151916121518361144c565b6001948584526020908136818701378661216a86611973565b6001600160a01b038681169091528651966121848861195b565b976121918751998a611468565b8089526121a0601f199161195b565b0136868a0137600091600b54421090600c549283151594600a549d5b61224a575b505050505050506121db9596506121e1575b505050611973565b51151590565b612242926637b9103ab9b2b960c91b6121f986611973565b511515937f42757958546f6b656e733a20456c69676962696c69747920726573756c74206681519461222a8661141a565b6027865285015283015261223c61211b565b916126b4565b3880806121d3565b815181101561248c57808c8f8b8b848f9382908b8b61226c6122ac9b8d611996565b5116946123f4575b61238b578d80612382575b61231d5783600052600e85528560002054101561229c8388611996565b526122b2575b5050505050611a44565b866121bc565b6122d06c39bab63a103337b9103ab9b2b960991b9161231396611996565b511515937f42757958546f6b656e733a20456c69676962696c69747920636865636b2072658151946123018661141a565b602d865285015283015261223c61211b565b8c8b8b38846122a2565b5060009592509261233694919361233c575b5050611996565b52611a44565b697220656e64206461746560b01b827f42757958546f6b656e733a2043757272656e742074696d65206973206166746561237b945193610b408561141a565b8e8e61232f565b508c421161227f565b506000959250926123369491936123a3575050611996565b6c7265207374617274206461746560981b827f42757958546f6b656e733a2043757272656e742074696d65206973206265666f61237b9451936123e58561141a565b602d8552840152820152612554565b50612401846109b26120d0565b83600052600e85526124498660002054875161241c8161144c565b8781527f42757958546f6b656e733a205573657220707572636861736520616d6f756e74888201526125a3565b8b6124878288516124598161144c565b601b81527f42757958546f6b656e733a20526571756972656420616d6f756e740000000000898201526125a3565b612274565b6121c1565b61249d816109b26120d0565b6124dd6040516124ac8161144c565b601881527f42757958546f6b656e733a2043757272656e742074696d650000000000000000602082015242906125a3565b612517600b546040516124ef8161144c565b601681527542757958546f6b656e733a205374617274206461746560501b60208201526125a3565b61254f600c546040516125298161144c565b601481527342757958546f6b656e733a20456e64206461746560601b60208201526125a3565b612142565b6000809160405161259081612582602082019463104c13eb60e21b86526020602484015260448301906113f5565b03601f198101835282611468565b51906a636f6e736f6c652e6c6f675afa50565b60009190829161259060405180926125d46020830195632d839cb360e21b87526040602485015260648401906113f5565b90604483015203601f198101835282611468565b6000919082916125906040518092612619602083019563c3b5563560e01b87526040602485015260648401906113f5565b901515604483015203601f198101835282611468565b6000919082916125906040518092612660602083019563319af33360e01b87526040602485015260648401906113f5565b6001600160a01b0391909116604483015203601f198101835282611468565b6000929161259084936125826040519384926108946020850197635970e08960e01b89526060602487015260848601906113f5565b9061259060009493859461270b6040519485936126ea60208601986317c574a360e21b8a526080602488015260a48701906113f5565b6001600160a01b0390921660448601528482036023190160648601526113f5565b901515608483015203601f19810183528261146856fea2646970667358221220d43378ee859a3b498f3867bfe5ff54c6e6ce1bb01fd344777052581fa1ceb45e64736f6c63430008140033",
  "linkReferences": {},
  "deployedLinkReferences": {}
}