{
  "_format": "hh-sol-artifact-1",
  "contractName": "Tim3capInitializer",
  "sourceName": "contracts/Tim3capInitializer.sol",
  "abi": [
    {
      "inputs": [
        {
          "internalType": "address payable",
          "name": "tim3cap",
          "type": "address"
        },
        {
          "internalType": "address",
          "name": "activity",
          "type": "address"
        },
        {
          "internalType": "address",
          "name": "reward",
          "type": "address"
        },
        {
          "internalType": "address",
          "name": "owner",
          "type": "address"
        },
        {
          "components": [
            {
              "internalType": "bool",
              "name": "enabled",
              "type": "bool"
            },
            {
              "internalType": "address",
              "name": "signingKey",
              "type": "address"
            },
            {
              "internalType": "uint256",
              "name": "proofValidityDuration",
              "type": "uint256"
            },
            {
              "internalType": "bool",
              "name": "requireProofForAllClaims",
              "type": "bool"
            }
          ],
          "internalType": "struct Tim3cap.EligibilityConfig",
          "name": "eligibilityConfig",
          "type": "tuple"
        },
        {
          "internalType": "address",
          "name": "feeRecipient",
          "type": "address"
        },
        {
          "internalType": "uint256",
          "name": "feePercentage",
          "type": "uint256"
        },
        {
          "internalType": "bool",
          "name": "feesEnabled",
          "type": "bool"
        },
        {
          "internalType": "address",
          "name": "affiliate",
          "type": "address"
        }
      ],
      "name": "initialize",
      "outputs": [],
      "stateMutability": "nonpayable",
      "type": "function"
    }
  ],
  "bytecode": "0x6080806040523461001657610235908161001c8239f35b600080fdfe600436101561000d57600080fd5b6000803560e01c635590a7051461002357600080fd5b346101fc576101803660031901126101fc576004356001600160a01b03811681036101f857602435906001600160a01b03821682036101f457604435906001600160a01b03821682036101f057606435926001600160a01b03841684036101ec5760803660831901126101ec576101006040528492919060843580151581036101ec5760805260a4356001600160a01b03811681036101ec5760a05260c43560c05260e43580151581036101ec5760e052610104356001600160a01b03811681036101ec57610144359283151584036101e857610164356001600160a01b03811681036101e4576001600160a01b0382163b156101e45760405163075f9c2f60e41b81526001600160a01b039485166004820152958416602487015296831660448601526080511515606486015260a0518316608486015260c05160a486015260e051151560c486015290821660e4850152610124803561010486015292151592840192909252938416610144830152909283916101649183918591165af180156101d9576101b0575080f35b67ffffffffffffffff81116101c55760405280f35b634e487b7160e01b82526041600452602482fd5b6040513d84823e3d90fd5b8680fd5b8580fd5b8480fd5b8380fd5b8280fd5b5080fd5b80fdfea2646970667358221220999bf474978d0e604f8342b3ddf8936b01769785f8f96ff724052ef841fe626564736f6c63430008140033",
  "linkReferences": {},
  "deployedLinkReferences": {}
}